{
  "_format": "hh-sol-artifact-1",
  "contractName": "DomainObjs",
  "sourceName": "contracts/utilities/DomainObjs.sol",
  "abi": [
    {
      "inputs": [],
      "name": "MESSAGE_DATA_LENGTH",
      "outputs": [
        {
          "internalType": "uint8",
          "name": "",
          "type": "uint8"
        }
      ],
      "stateMutability": "view",
      "type": "function"
    }
  ],
  "bytecode": "0x6080604052348015600f57600080fd5b5060808061001e6000396000f3fe6080604052348015600f57600080fd5b506004361060285760003560e01c8063683f3dc314602d575b600080fd5b6034600a81565b60405160ff909116815260200160405180910390f3fea26469706673582212203d80c7a3569d999eca3bc59929835c9036349fd8b1d6d0f1468cb7583ebc1e8764736f6c634300080a0033",
  "linkReferences": {},
  "deployedLinkReferences": {}
}