{
  "_format": "hh-sol-artifact-1",
  "contractName": "PollFactory",
  "sourceName": "contracts/PollFactory.sol",
  "abi": [
    {
      "inputs": [],
      "stateMutability": "payable",
      "type": "constructor"
    },
    {
      "inputs": [],
      "name": "InvalidMaxValues",
      "type": "error"
    },
    {
      "inputs": [],
      "name": "MESSAGE_DATA_LENGTH",
      "outputs": [
        {
          "internalType": "uint8",
          "name": "",
          "type": "uint8"
        }
      ],
      "stateMutability": "view",
      "type": "function"
    },
    {
      "inputs": [
        {
          "internalType": "uint256",
          "name": "_duration",
          "type": "uint256"
        },
        {
          "components": [
            {
              "internalType": "uint256",
              "name": "maxMessages",
              "type": "uint256"
            },
            {
              "internalType": "uint256",
              "name": "maxVoteOptions",
              "type": "uint256"
            }
          ],
          "internalType": "struct Params.MaxValues",
          "name": "_maxValues",
          "type": "tuple"
        },
        {
          "components": [
            {
              "internalType": "uint8",
              "name": "intStateTreeDepth",
              "type": "uint8"
            },
            {
              "internalType": "uint8",
              "name": "messageTreeSubDepth",
              "type": "uint8"
            },
            {
              "internalType": "uint8",
              "name": "messageTreeDepth",
              "type": "uint8"
            },
            {
              "internalType": "uint8",
              "name": "voteOptionTreeDepth",
              "type": "uint8"
            }
          ],
          "internalType": "struct Params.TreeDepths",
          "name": "_treeDepths",
          "type": "tuple"
        },
        {
          "components": [
            {
              "internalType": "uint256",
              "name": "x",
              "type": "uint256"
            },
            {
              "internalType": "uint256",
              "name": "y",
              "type": "uint256"
            }
          ],
          "internalType": "struct DomainObjs.PubKey",
          "name": "_coordinatorPubKey",
          "type": "tuple"
        },
        {
          "internalType": "address",
          "name": "_maci",
          "type": "address"
        },
        {
          "internalType": "contract TopupCredit",
          "name": "_topupCredit",
          "type": "address"
        },
        {
          "internalType": "address",
          "name": "_pollOwner",
          "type": "address"
        }
      ],
      "name": "deploy",
      "outputs": [
        {
          "internalType": "address",
          "name": "pollAddr",
          "type": "address"
        }
      ],
      "stateMutability": "nonpayable",
      "type": "function"
    }
  ],
  "bytecode": "0x6080604052614dc2806100136000396000f3fe60806040523480156200001157600080fd5b50600436106200003a5760003560e01c8063683f3dc3146200003f578063b43c4969146200005f575b600080fd5b62000048600a81565b60405160ff90911681526020015b60405180910390f35b6200007662000070366004620002f6565b6200008f565b6040516001600160a01b03909116815260200162000056565b60006604000000000000876020013510620000bd576040516302c3596560e51b815260040160405180910390fd5b6000620000d16040880160208901620003b2565b604051620000df90620002a8565b60ff9091168152602001604051809103906000f08015801562000106573d6000803e3d6000fd5b50905060006040518060600160405280876001600160a01b03168152602001836001600160a01b03168152602001866001600160a01b0316815250905060008a8a8a8a856040516200015890620002b6565b62000168959493929190620003d7565b604051809103906000f08015801562000185573d6000803e3d6000fd5b5060405163f2fde38b60e01b81526001600160a01b0380831660048301529192509084169063f2fde38b90602401600060405180830381600087803b158015620001ce57600080fd5b505af1158015620001e3573d6000803e3d6000fd5b50505050806001600160a01b031663e1c7392a6040518163ffffffff1660e01b8152600401600060405180830381600087803b1580156200022357600080fd5b505af115801562000238573d6000803e3d6000fd5b505060405163f2fde38b60e01b81526001600160a01b0388811660048301528416925063f2fde38b9150602401600060405180830381600087803b1580156200028057600080fd5b505af115801562000295573d6000803e3d6000fd5b50929d9c50505050505050505050505050565b612335806200049783390190565b6125c180620027cc83390190565b600060408284031215620002d757600080fd5b50919050565b6001600160a01b0381168114620002f357600080fd5b50565b60008060008060008060008789036101808112156200031457600080fd5b88359750620003278a60208b01620002c4565b96506080605f19820112156200033c57600080fd5b50606088019450620003528960e08a01620002c4565b93506101208801356200036581620002dd565b92506101408801356200037881620002dd565b91506101608801356200038b81620002dd565b8091505092959891949750929550565b803560ff81168114620003ad57600080fd5b919050565b600060208284031215620003c557600080fd5b620003d0826200039b565b9392505050565b8581526101808101620003f7602083018780358252602090810135910152565b60ff62000404866200039b565b16606083015260ff6200041a602087016200039b565b16608083015260ff62000430604087016200039b565b1660a083015260ff62000446606087016200039b565b1660c0830152833560e0830152602084013561010083015282516001600160a01b03908116610120840152602084015181166101408401526040909301519092166101609091015294935050505056fe60e06040523480156200001157600080fd5b506040516200233538038062002335833981016040819052620000349162000614565b808060056200004333620005c4565b81620000625760405163682e504160e11b815260040160405180910390fd5b60208211156200009357604051637ccdcc9760e11b8152600481018390526020602482015260440160405180910390fd5b80600214158015620000a6575080600514155b15620000c557604051636f7b6c0360e01b815260040160405180910390fd5b6000805460ff60a01b191660028314600160a01b02179055608082905260a0819052620000f3828262000743565b60c05250507f12817f4161f2f5ded33f26c55735a77e80e4f8975483c8c2704745128417f7116101725550507f1c8de1edeabc24fc4c1595acaabb70be9b70f351d58c6fa338e1e9a994413bfb610173557f22fcda488c14b34fc60eb073fbe92fe10793e2ab14682e0f057332ddbef3d55c610174557f2db474db7c7212646cb15c6177d87be30711e6c04f1139d8e495ef1d1d998227610175557efde404053ec39a19f6ac347121a2264815dda84f910a388cb372e967a5d08c610176557f0723792ffab6ec6cfb3ece1509b9b4fb07e5bdb2299d1538e6e1db916f90cf89610177557f2a4392ec4e3d1811cd6a950cc865ee6f2342910a6551c5dce38cb995576c7c70610178557f1dead4c14f75e9d8449c80b648dcd4694c2ee50da2ba16e5e438f0d77ab02e34610179557f124c53ce0953fffb7ab5e3c143df6cd48ba747d3959fcb8086405d763ed5455061017a557f02bae19605746a8cd3f0927b2c01630f36f4d1bab9216ca839833e7ff6efa20661017b557f1f8375099becf17173d457d0d07bfb74c7067df1143b5ad987046e8e66817bc961017c557f0e13e954d61bb3fa3b03e7d136ca909b610fa2ca4443d920d94d16684f2b83d461017d557f1416ef2fc4f88fcfc4f9eb12f8e214b1c3e31c6c10ece9cfa51f078a3bbf345761017e557f032f915ff71e198a7955d2697249f40fb94c65812ed24e670c9700f52fdf6e0e61017f557f08bfebf4b3ddb0f8c51dd40193f5996da9f3d799ee0d8beb6be4038132df60b4610180557f065ac498cf4a5acaeb3b6cee826da9f834c961fa39feff6ae925b90dff79b613610181557f2e72c628101a93201b912a3e3fe96d39b0a9076ec39b7935a015c59bb32b8a2a610182557f19bba68e7b9da1e6ec42e52d7ab2adaf3b6a5521b1a454ec70f62e0ab702c085610183557f0de1f72745a5af2a34cac412e00eb6c8b5db1f3b52fa1bff88076c2726b83b08610184557f2e8f152603b2fac10d6a14c841327c23c502537367ccb1e42fab9a3bd9db2a8d610185557f14e16c3e0dcfd7e621a32627ebf37f6c0afb4467d34c7b7aeffded11769dec85610186557f0be1e62127948b4805c85a1d836574f0892ca6473fcde98f3fd1781248a9768f610187557f0930288fbd7c849197c8372f1dd8f9087f8a03f09b9cd904a469c15ef6b1b515610188557f231cac34e215e3f404d2fcfb79e0705deeb3d40978f0ee31072f6cbc1b579e33610189557f2e0e3cd2718ac7199b81dc14e841de40a9536b7ffe95fa1fc9c6b799e43e2c9761018a557f0718452506f0a232e98966d84b1a4675a66bd80263a2dc58bdac873825752fc361018b557f162d4ed998307d6e132edbf5c11f62f53d4636aa10cb3c2244c2bf5577168c3761018c557f247d6a5544a8f295a894ae77c7efcdcbf52e3bf4e5d0c0d2f40557a61d44984861018d557f0b8de3868471f109e91670daca698dba917d1c5535821f33aa9598d1db8e3d1961018e557f29851997020f527c92e20f030d232b81d334144a641e6a8866b46dd925005bbb61018f557f1a9cfcbe29a2b6503a03049727c0bca3111afd62f2836f392080321d1b4ef642610190557f1aa3ead91fa89cc1d6cb1d0eb76a27190c6abfdd3265d6d0a1e5c58feddaddf6610191557f0702fc26a7d367e6677efefd95204a7e00144c2fc7dbc2a581aa00d99f51f0816101925562000758565b600080546001600160a01b038381166001600160a01b0319831681178455604051919092169283917f8be0079c531659141344cd1fd0a4f28419497f9722a3daafe3b4186f6b6457e09190a35050565b6000602082840312156200062757600080fd5b5051919050565b634e487b7160e01b600052601160045260246000fd5b600181815b80851115620006855781600019048211156200066957620006696200062e565b808516156200067757918102915b93841c939080029062000649565b509250929050565b6000826200069e575060016200073d565b81620006ad575060006200073d565b8160018114620006c65760028114620006d157620006f1565b60019150506200073d565b60ff841115620006e557620006e56200062e565b50506001821b6200073d565b5060208310610133831016604e8410600b841016171562000716575081810a6200073d565b62000722838362000644565b80600019048211156200073957620007396200062e565b0290505b92915050565b60006200075183836200068d565b9392505050565b60805160a05160c051611b2f62000806600039600081816103ea01528181610a2301528181610abd01528181610c7c0152610d7c01526000818161032301528181610568015281816106e301528181610bb001528181610f250152818161109901526112fa015260008181610417015281816104780152818161053e01528181610bea01528181610cb201528181610cfc01528181610ec601528181610f7c01526112350152611b2f6000f3fe608060405234801561001057600080fd5b50600436106101585760003560e01c806381d6a24a116100c3578063c00bdbcc1161007c578063c00bdbcc146102b8578063c15da65b146102cb578063d9c55ce1146102de578063dda89a6e146102e6578063e93fb4d4146102f0578063f2fde38b1461030357600080fd5b806381d6a24a146102455780638da5cb5b146102615780639cfced971461027c578063a27154ba1461028f578063b6a64acd14610297578063bea140b3146102a557600080fd5b806358bfc3791161011557806358bfc379146101cc5780635bb93995146101df5780635bf1fa4d146101f257806362a361bb1461020557806369e7c58614610218578063715018a61461023b57600080fd5b80631b9b8aa71461015d5780631ffc735d1461018357806324a47aeb146101965780633bfa6fce146101a95780633dfb88b2146101b15780633e1a8cc1146101c4575b600080fd5b61017061016b36600461151c565b610316565b6040519081526020015b60405180910390f35b61017061019136600461151c565b610399565b6101706101a436600461151c565b6104c4565b6101706106d7565b6101706101bf36600461157c565b610721565b6101706107a2565b6101706101da3660046115fa565b6107d1565b6101706101ed3660046116a0565b61086b565b6101706102003660046116a0565b610890565b6101706102133660046116c2565b61092f565b61016e5461022b90610100900460ff1681565b604051901515815260200161017a565b610243610969565b005b610170546001546040805192835260208301919091520161017a565b6000546040516001600160a01b03909116815260200161017a565b61017061028a36600461171d565b61097d565b610170602081565b61016e5461022b9060ff1681565b6101706102b3366004611776565b6109b7565b6102436102c636600461151c565b6109f1565b6102436102d936600461151c565b610a6d565b610243610c72565b6101706101715481565b6101706102fe36600461151c565b610db9565b6102436103113660046117cf565b610df4565b61017154600090610347837f00000000000000000000000000000000000000000000000000000000000000006118f9565b101561037d5761017154604051627289df60e61b8152610374918491600401918252602082015260400190565b60405180910390fd5b61014d826021811061039157610391611905565b015492915050565b60006103a3610e6a565b50610171546103b3826000610ec4565b6103be81600161191b565b610171556103cf61014d6000611481565b600061016f5561016e805460ff191690556101715461040f907f000000000000000000000000000000000000000000000000000000000000000090611933565b6104bf5760027f00000000000000000000000000000000000000000000000000000000000000006021811061044657610446611905565b600402015460018054600090815261014c602052604081209290925580549161046e83611955565b90915550600290507f0000000000000000000000000000000000000000000000000000000000000000602181106104a7576104a7611905565b6004020160008091018190556104bf90608690611481565b919050565b60006104ce610e6a565b816104ec57604051630543d40760e11b815260040160405180910390fd5b61016e5460ff1661051057604051631e596e4360e11b815260040160405180910390fd5b602082111561053c57604051632cd31ae960e01b81526004810183905260206024820152604401610374565b7f00000000000000000000000000000000000000000000000000000000000000005b6101715461058c827f00000000000000000000000000000000000000000000000000000000000000006118f9565b10610596576105a8565b806105a081611955565b91505061055e565b808310156105d257604051627289df60e61b81526004810184905260248101829052604401610374565b8083141561060f5761016f5461014d84602181106105f2576105f2611905565b0155505061016e805461ff00191661010017905561016f54919050565b61016f549150805b838110156106a957600061062a82611005565b600054909150600160a01b900460ff161561066257610647611490565b8481526020810182905261065a8161092f565b945050610696565b61066a6114ae565b848152602081018290526040810182905260608101829052608081018290526106928161097d565b9450505b50806106a181611955565b915050610617565b508161014d84602181106106bf576106bf611905565b015561016e805461ff00191661010017905550919050565b60015b600154610707827f00000000000000000000000000000000000000000000000000000000000000006118f9565b1061070f5790565b8061071981611955565b9150506106da565b60405163248f667760e01b815260009073__$ce9c2c925f157047e54fa833ec4e61409f$__9063248f66779061075b908590600401611970565b602060405180830381865af4158015610778573d6000803e3d6000fd5b505050506040513d601f19601f8201168201806040525081019061079c91906119a1565b92915050565b61016e5460009060ff166107c957604051631e596e4360e11b815260040160405180910390fd5b5061016f5490565b60007f30644e72e131a029b85045b68181585d2833e84879b9709143e1f593f000000160028360405160200161080791906119ba565b60408051601f1981840301815290829052610821916119f0565b602060405180830381855afa15801561083e573d6000803e3d6000fd5b5050506040513d601f19601f8201168201806040525081019061086191906119a1565b61079c9190611933565b6000610875611490565b838152602081018390526108888161092f565b949350505050565b600061089a6114ae565b600284602181106108ad576108ad611905565b60040201548152600284602181106108c7576108c7611905565b60040201600101548160016020020152600284602181106108ea576108ea611905565b600402016002015481600260200201526002846021811061090d5761090d611905565b600402016003015481600360200201528281600460200201526108888161097d565b6040516314d2f97b60e11b815260009073__$6574937f64fc1d7710ec0e28b7a36713bb$__906329a5f2f69061075b908590600401611a2b565b610971610e6a565b61097b600061101b565b565b604051630926f44b60e31b815260009073__$20527677031d76601747626a9845039fe4$__90634937a2589061075b908590600401611a53565b6040516304b98e1d60e31b815260009073__$dc01a9744591ab014bc46a3b7671cdaefb$__906325cc70e89061075b908590600401611a7b565b6109f9610e6a565b60018054600090815261014c6020526040812083905581549190610a1c83611955565b91905055507f00000000000000000000000000000000000000000000000000000000000000006101716000828254610a54919061191b565b9091555050600061016f555061016e805460ff19169055565b610a75610e6a565b61016e5460ff1615610a9a57604051630d36aec160e01b815260040160405180910390fd5b61017154610abb576040516316a0341160e11b815260040160405180910390fd5b7f000000000000000000000000000000000000000000000000000000000000000061017154610aea9190611933565b15610af757610af7610c72565b60015460011415610b2157610b0c6000610db9565b61016f5561016e805460ff1916600117905550565b6000610b2b6106d7565b610170549091506000905b600154811015610ba7578315801590610b4e57508382145b15610b595750505050565b610b70610b6861017054610db9565b60008561106b565b6101708054906000610b8183611955565b91905055508180610b9190611955565b9250508080610b9f90611955565b915050610b36565b506000610bd4837f00000000000000000000000000000000000000000000000000000000000000006118f9565b9050600154610170541415610c3e576000610c0e7f0000000000000000000000000000000000000000000000000000000000000000611005565b6001549091505b82811015610c3b57610c298260008761106b565b80610c3381611955565b915050610c15565b50505b60a78360218110610c5157610c51611905565b600402016000015461016f55505061016e805460ff19166001179055505b50565b610c7a610e6a565b7f000000000000000000000000000000000000000000000000000000000000000061017154610ca99190611933565b610cee57610cd67f0000000000000000000000000000000000000000000000000000000000000000611005565b600154600090815261014c6020526040902055610d5f565b610cf86000611233565b60027f000000000000000000000000000000000000000000000000000000000000000060218110610d2b57610d2b611905565b6004020154600154600090815261014c6020526040812091909155610d52906002906114cc565b610d5f61014d6000611481565b60006001546001610d70919061191b565b60018190559050610da17f000000000000000000000000000000000000000000000000000000000000000082611aa3565b6101715550600061016f5561016e805460ff19169055565b60008160015411610de05760405163042a2e7160e11b815260048101839052602401610374565b50600090815261014c602052604090205490565b610dfc610e6a565b6001600160a01b038116610e615760405162461bcd60e51b815260206004820152602660248201527f4f776e61626c653a206e6577206f776e657220697320746865207a65726f206160448201526564647265737360d01b6064820152608401610374565b610c6f8161101b565b6000546001600160a01b0316331461097b5760405162461bcd60e51b815260206004820181905260248201527f4f776e61626c653a2063616c6c6572206973206e6f7420746865206f776e65726044820152606401610374565b7f0000000000000000000000000000000000000000000000000000000000000000811115610f055760405163d1459f7960e01b815260040160405180910390fd5b600060868260218110610f1a57610f1a611905565b01549050610f4960017f0000000000000000000000000000000000000000000000000000000000000000611ac2565b8114610fce578260028360218110610f6357610f63611905565b600402018260048110610f7857610f78611905565b01557f00000000000000000000000000000000000000000000000000000000000000008214610fc95760868260218110610fb457610fb4611905565b018054906000610fc383611955565b91905055505b505050565b610fd8828461139f565b925060868260218110610fed57610fed611905565b600091015581610ffc81611955565b92505050610f05565b6000610172826021811061039157610391611905565b600080546001600160a01b038381166001600160a01b0319831681178455604051919092169283917f8be0079c531659141344cd1fd0a4f28419497f9722a3daafe3b4186f6b6457e09190a35050565b8082111561107857505050565b600061012b836021811061108e5761108e611905565b015490506110bd60017f0000000000000000000000000000000000000000000000000000000000000000611ac2565b811461111b578360a784602181106110d7576110d7611905565b6004020182600481106110ec576110ec611905565b015561012b836021811061110257611102611905565b01805490600061111183611955565b919050555061122d565b60008054600160a01b900460ff161561116857611136611490565b60a7856021811061114957611149611905565b60040201548152602081018690526111608161092f565b9150506111fd565b6111706114ae565b60005b838160ff1610156111d75760a7866021811061119157611191611905565b600402018160ff16600481106111a9576111a9611905565b0154828260ff16600581106111c0576111c0611905565b6020020152806111cf81611ad9565b915050611173565b50858184600581106111eb576111eb611905565b60200201526111f98161097d565b9150505b61012b846021811061121157611211611905565b600091015561122b8161122586600161191b565b8561106b565b505b50505050565b7f0000000000000000000000000000000000000000000000000000000000000000811015610c6f5760006086826021811061127057611270611905565b0154905080156113745760006112846114ae565b600061128f85611005565b905060005b848160ff1610156112f857600286602181106112b2576112b2611905565b600402018160ff16600481106112ca576112ca611905565b0154838260ff16600581106112e1576112e1611905565b6020020152806112f081611ad9565b915050611294565b7f00000000000000000000000000000000000000000000000000000000000000008160ff1610156113505781838260ff166005811061133957611339611905565b60200201528061134881611ad9565b9150506112f8565b6113598361097d565b935061136f8461136a88600161191b565b610ec4565b505050505b6086826021811061138757611387611905565b60009101558161139681611955565b92505050611233565b60006113a96114ae565b600284602181106113bc576113bc611905565b60040201548152600284602181106113d6576113d6611905565b60040201600101548160016020020152600284602181106113f9576113f9611905565b600402016002015481600260200201526002846021811061141c5761141c611905565b6004020160030154816003602002015282816004602002015261143e8161097d565b91506002846021811061145357611453611905565b60040201600061147a91905060008155600101600081556001016000815560010160009055565b5092915050565b50610c6f9060218101906114db565b60405180604001604052806002906020820280368337509192915050565b6040518060a001604052806005906020820280368337509192915050565b50610c6f9060848101906114f4565b5b808211156114f057600081556001016114dc565b5090565b808211156114f0576000808255600182018190556002820181905560038201556004016114f4565b60006020828403121561152e57600080fd5b5035919050565b634e487b7160e01b600052604160045260246000fd5b604051601f8201601f1916810167ffffffffffffffff8111828210171561157457611574611535565b604052919050565b60006080828403121561158e57600080fd5b82601f83011261159d57600080fd5b6040516080810181811067ffffffffffffffff821117156115c0576115c0611535565b6040528060808401858111156115d557600080fd5b845b818110156115ef5780358352602092830192016115d7565b509195945050505050565b6000602080838503121561160d57600080fd5b823567ffffffffffffffff8082111561162557600080fd5b818501915085601f83011261163957600080fd5b81358181111561164b5761164b611535565b8060051b915061165c84830161154b565b818152918301840191848101908884111561167657600080fd5b938501935b838510156116945784358252938501939085019061167b565b98975050505050505050565b600080604083850312156116b357600080fd5b50508035926020909101359150565b6000604082840312156116d457600080fd5b82601f8301126116e357600080fd5b6040516040810181811067ffffffffffffffff8211171561170657611706611535565b80604052508060408401858111156115d557600080fd5b600060a0828403121561172f57600080fd5b82601f83011261173e57600080fd5b60405160a0810181811067ffffffffffffffff8211171561176157611761611535565b6040528060a08401858111156115d557600080fd5b60006060828403121561178857600080fd5b82601f83011261179757600080fd5b6040516060810181811067ffffffffffffffff821117156117ba576117ba611535565b6040528060608401858111156115d557600080fd5b6000602082840312156117e157600080fd5b81356001600160a01b03811681146117f857600080fd5b9392505050565b634e487b7160e01b600052601160045260246000fd5b600181815b80851115611850578160001904821115611836576118366117ff565b8085161561184357918102915b93841c939080029061181a565b509250929050565b6000826118675750600161079c565b816118745750600061079c565b816001811461188a5760028114611894576118b0565b600191505061079c565b60ff8411156118a5576118a56117ff565b50506001821b61079c565b5060208310610133831016604e8410600b84101617156118d3575081810a61079c565b6118dd8383611815565b80600019048211156118f1576118f16117ff565b029392505050565b60006117f88383611858565b634e487b7160e01b600052603260045260246000fd5b6000821982111561192e5761192e6117ff565b500190565b60008261195057634e487b7160e01b600052601260045260246000fd5b500690565b6000600019821415611969576119696117ff565b5060010190565b60808101818360005b6004811015611998578151835260209283019290910190600101611979565b50505092915050565b6000602082840312156119b357600080fd5b5051919050565b815160009082906020808601845b838110156119e4578151855293820193908201906001016119c8565b50929695505050505050565b6000825160005b81811015611a1157602081860181015185830152016119f7565b81811115611a20576000828501525b509190910192915050565b60408101818360005b6002811015611998578151835260209283019290910190600101611a34565b60a08101818360005b6005811015611998578151835260209283019290910190600101611a5c565b60608101818360005b6003811015611998578151835260209283019290910190600101611a84565b6000816000190483118215151615611abd57611abd6117ff565b500290565b600082821015611ad457611ad46117ff565b500390565b600060ff821660ff811415611af057611af06117ff565b6001019291505056fea2646970667358221220a40c823ef487ec2cc78073361b55114c1bb37f411cf8a0c30f6d4bcff779722664736f6c634300080a003360e0604052604051620025c1380380620025c183398101604081905262000026916200044f565b62000031336200023c565b7f0ad794e7fb50257e0edc93fe4616c69ea691e7a6c653333b6a5b507d798947276001557ec31c90221285dc87ee66daadc19f64f922e45a613f4f5429d74ddc7d66e0236002557f2afdf0e1d10d07d0df3a8481202bf2595108195e34d4ccb88742641c576aa77d6003557f177bbb5acaafc1f1deb73b8ae33f97132089ab84039048a096e202b1f8c429106004557f25c1a155f21ae70ca3b8bdb27961efdee58bdafff83274c18dd37d0f0a8bfbb560055581517f30644e72e131a029b85045b68181585d2833e84879b9709143e1f593f00000011115806200013957507f30644e72e131a029b85045b68181585d2833e84879b9709143e1f593f0000001826020015110155b1562000158576040516354be831760e11b815260040160405180910390fd5b81516007819055602083015160088190556200017591906200028c565b6080528051601180546001600160a01b039283166001600160a01b03199182161790915560208084015160128054918516918416919091179055604093840151601380549190941692169190911790915560c0959095528351600e5592840151600f5550805160108054948301519383015160609093015160ff90811663010000000263ff0000001994821662010000029490941663ffff0000199582166101000261ffff1990971691909316179490941792909216919091171790554260a052620005b1565b600080546001600160a01b038381166001600160a01b0319831681178455604051919092169283917f8be0079c531659141344cd1fd0a4f28419497f9722a3daafe3b4186f6b6457e09190a35050565b6000620002986200033b565b83815260208101839052620002ad81620002b5565b949350505050565b6040516314d2f97b60e11b815260009073__$6574937f64fc1d7710ec0e28b7a36713bb$__906329a5f2f690620002f190859060040162000564565b602060405180830381865af41580156200030f573d6000803e3d6000fd5b505050506040513d601f19601f8201168201806040525081019062000335919062000597565b92915050565b60405180604001604052806002906020820280368337509192915050565b604051608081016001600160401b03811182821017156200038a57634e487b7160e01b600052604160045260246000fd5b60405290565b604051606081016001600160401b03811182821017156200038a57634e487b7160e01b600052604160045260246000fd5b600060408284031215620003d457600080fd5b604080519081016001600160401b03811182821017156200040557634e487b7160e01b600052604160045260246000fd5b604052825181526020928301519281019290925250919050565b805160ff811681146200043157600080fd5b919050565b6001600160a01b03811681146200044c57600080fd5b50565b60008060008060008587036101808112156200046a57600080fd5b865195506200047d8860208901620003c1565b94506080605f19820112156200049257600080fd5b6200049c62000359565b620004aa606089016200041f565b8152620004ba608089016200041f565b6020820152620004cd60a089016200041f565b6040820152620004e060c089016200041f565b60608201529350620004f68860e08901620003c1565b9250606061011f19820112156200050c57600080fd5b506200051762000390565b610120870151620005288162000436565b81526101408701516200053b8162000436565b6020820152610160870151620005518162000436565b6040820152949793965091945092919050565b60408101818360005b60028110156200058e5781518352602092830192909101906001016200056d565b50505092915050565b600060208284031215620005aa57600080fd5b5051919050565b60805160a05160c051611f8c62000635600039600081816102e70152818161056301528181610812015281816109ff01528181610e3101528181610f6e01526110ad0152600081816102c60152818161053a015281816107e9015281816109d601528181610e0801528181610f450152611084015260006103b80152611f8c6000f3fe608060405234801561001057600080fd5b50600436106101fa5760003560e01c8063715018a61161011a578063ac98e5df116100ad578063bea140b31161007c578063bea140b3146104eb578063c17268d9146104fe578063e1c7392a14610507578063f2fde38b1461050f578063fba630f21461052257600080fd5b8063ac98e5df1461041b578063ae93a21214610471578063b5f38c8114610484578063bc14ee2b146104a157600080fd5b80638aa0ba92116100e95780638aa0ba92146103b35780638da5cb5b146103da5780639c971729146103f55780639cfced971461040857600080fd5b8063715018a6146103725780637296aaea1461037a5780637d0a81c81461038d57806386f3c3f7146103a057600080fd5b80633dfb88b2116101925780635bb93995116101615780635bb93995146103295780635d5909dd1461033c57806362a361bb14610345578063683f3dc31461035857600080fd5b80633dfb88b2146102b15780634909229f146102c45780634f367f0f1461030b57806358bfc3791461031657600080fd5b8063167fd483116101ce578063167fd4831461026a578063184ff47f1461027d57806331e766a514610290578063394b78a21461029e57600080fd5b8062329f2f146101ff5780630396a0ce1461020957806306912d3c146102315780630f4cf69214610253575b600080fd5b61020761052b565b005b600e54600f54610217919082565b604080519283526020830191909152015b60405180910390f35b61024461023f36600461179c565b61065b565b604051610228939291906117f4565b61025c600c5481565b604051908152602001610228565b61025c6102783660046118e5565b610709565b61020761028b36600461191c565b6107e2565b600754600854610217919082565b6102076102ac36600461193e565b6109cf565b61025c6102bf366004611981565b610ba6565b7f00000000000000000000000000000000000000000000000000000000000000007f0000000000000000000000000000000000000000000000000000000000000000610217565b600d54600c54610217565b61025c6103243660046119da565b610c27565b61025c61033736600461191c565b610cc1565b61025c600d5481565b61025c610353366004611a80565b610ce6565b610360600a81565b60405160ff9091168152602001610228565b610207610d20565b610207610388366004611a9c565b610d34565b61025c61039b366004611b65565b610db9565b6102076103ae36600461191c565b610df9565b61025c7f000000000000000000000000000000000000000000000000000000000000000081565b6000546040516001600160a01b039091168152602001610228565b610207610403366004611bc7565b610f36565b61025c610416366004611be0565b61103b565b6010546104449060ff808216916101008104821691620100008204811691630100000090041684565b6040805160ff95861681529385166020850152918416918301919091529091166060820152608001610228565b61020761047f366004611bc7565b611075565b600a546104919060ff1681565b6040519015158152602001610228565b6011546012546013546104c1926001600160a01b03908116928116911683565b604080516001600160a01b0394851681529284166020840152921691810191909152606001610228565b61025c6104f9366004611c39565b61137a565b61025c600b5481565b6102076113b4565b61020761051d366004611ca7565b6114de565b61025c60095481565b61053361155c565b600061055f7f000000000000000000000000000000000000000000000000000000000000000042611cda565b90507f000000000000000000000000000000000000000000000000000000000000000081116105a157604051630931513d60e11b815260040160405180910390fd5b6012546010546040516324a47aeb60e01b81526201000090910460ff1660048201526000916001600160a01b0316906324a47aeb906024016020604051808303816000875af11580156105f8573d6000803e3d6000fd5b505050506040513d601f19601f8201168201806040525081019061061c9190611cf1565b90507fc5624680ab5d50c84507f9e0dc2032163de2bda906ab8a661a53dd4d43bd5dc78160405161064f91815260200190565b60405180910390a15050565b610663611606565b60408051808201909152600080825260208201526000610681611625565b85518152602080870151828201526040805180820182527f171e826ad4a870fd925e0bf0e87884e70e080879c2205ef10114f28a3b6f6dd781527f2bd407d897fbbca9f88adfd2d15252e69de8c1564eb4d3d27162e259172f1a1d818401528151808301909252878252918101839052945092506106ff8484610709565b9150509250925092565b6000610713611644565b602084810180515183528051820151918301919091528051604090810151908301528051606090810151908301525160809081015190820152610754611644565b6020858101805160a0908101518452815160c0015184840152815160e001516040808601919091528251610100015160608601529151610120015160808501528151908101909152865181526107d99181016107af8561103b565b81526020016107bd8461103b565b815260200186600001518152602001866020015181525061103b565b95945050505050565b600061080e7f000000000000000000000000000000000000000000000000000000000000000042611cda565b90507f000000000000000000000000000000000000000000000000000000000000000081106108505760405163148fb9a960e31b815260040160405180910390fd5b600e54600c541061087457604051631ec0b2f760e01b815260040160405180910390fd5b600c805460010190556013546040516323b872dd60e01b8152336004820152306024820152604481018490526001600160a01b03909116906323b872dd906064016020604051808303816000875af11580156108d4573d6000803e3d6000fd5b505050506040513d601f19601f820116820180604052508101906108f89190611d20565b50604080518082019091528381526020810183905260008061091b83600261065b565b601254604051631ffc735d60e01b8152600481018390529395509093506001600160a01b031691631ffc735d91506024016020604051808303816000875af115801561096b573d6000803e3d6000fd5b505050506040513d601f19601f8201168201806040525081019061098f9190611cf1565b507f935afc7bb7cc33eb3e24e20dcfc75f5b21fa58e9c82cca06435238efaf9a3a58826040516109bf9190611d42565b60405180910390a1505050505050565b60006109fb7f000000000000000000000000000000000000000000000000000000000000000042611cda565b90507f00000000000000000000000000000000000000000000000000000000000000008110610a3d5760405163148fb9a960e31b815260040160405180910390fd5b600e54600c5410610a6157604051631ec0b2f760e01b815260040160405180910390fd5b7f30644e72e131a029b85045b68181585d2833e84879b9709143e1f593f00000018235101580610ab557507f30644e72e131a029b85045b68181585d2833e84879b9709143e1f593f0000001826020013510155b15610ad3576040516354be831760e11b815260040160405180910390fd5b600c8054600190810190915583526000610af68461027836869003860186611d51565b601254604051631ffc735d60e01b8152600481018390529192506001600160a01b031690631ffc735d906024016020604051808303816000875af1158015610b42573d6000803e3d6000fd5b505050506040513d601f19601f82011682018060405250810190610b669190611cf1565b507fe2067f06dd7b8159b21a5490f8663f6bb031d9b35ed6d298b5489674cb9cda4b8484604051610b98929190611d6d565b60405180910390a150505050565b60405163248f667760e01b815260009073__$ce9c2c925f157047e54fa833ec4e61409f$__9063248f667790610be0908590600401611d96565b602060405180830381865af4158015610bfd573d6000803e3d6000fd5b505050506040513d601f19601f82011682018060405250810190610c219190611cf1565b92915050565b60007f30644e72e131a029b85045b68181585d2833e84879b9709143e1f593f0000001600283604051602001610c5d9190611dc7565b60408051601f1981840301815290829052610c7791611dfd565b602060405180830381855afa158015610c94573d6000803e3d6000fd5b5050506040513d601f19601f82011682018060405250810190610cb79190611cf1565b610c219190611e38565b6000610ccb611662565b83815260208101839052610cde81610ce6565b949350505050565b6040516314d2f97b60e11b815260009073__$6574937f64fc1d7710ec0e28b7a36713bb$__906329a5f2f690610be0908590600401611e5a565b610d2861155c565b610d3260006115b6565b565b828114610d545760405163ca3487f760e01b815260040160405180910390fd5b8260005b81811015610db157610da9868683818110610d7557610d75611d0a565b90506101600201803603810190610d8c9190611e82565b858584818110610d9e57610d9e611d0a565b9050604002016109cf565b600101610d58565b505050505050565b6000610dc3611680565b8251518152825160209081015181830152830151816002602002015260408301516060820152610df281610ba6565b9392505050565b610e0161155c565b6000610e2d7f000000000000000000000000000000000000000000000000000000000000000042611cda565b90507f00000000000000000000000000000000000000000000000000000000000000008111610e6f57604051630931513d60e11b815260040160405180910390fd5b600a5460ff1615610e935760405163084ef7b960e41b815260040160405180910390fd5b60115460405163cfa1fa0360e01b815260048101859052602481018490526001600160a01b039091169063cfa1fa0390604401600060405180830381600087803b158015610ee057600080fd5b505af1158015610ef4573d6000803e3d6000fd5b505050507fbe5eae95ff0a9a2779506ae62da06dda1e349311d3f2b6ceb990ea42b6a5f20b83604051610f2991815260200190565b60405180910390a1505050565b610f3e61155c565b6000610f6a7f000000000000000000000000000000000000000000000000000000000000000042611cda565b90507f00000000000000000000000000000000000000000000000000000000000000008111610fac57604051630931513d60e11b815260040160405180910390fd5b60125460405163c15da65b60e01b8152600481018490526001600160a01b039091169063c15da65b90602401600060405180830381600087803b158015610ff257600080fd5b505af1158015611006573d6000803e3d6000fd5b505050507f1245b881cb30fdad22b2f9fde2d5c2a3605bbdf272d5e8a2235d8c9e81aba2ce8260405161064f91815260200190565b604051630926f44b60e31b815260009073__$20527677031d76601747626a9845039fe4$__90634937a25890610be0908590600401611e9f565b61107d61155c565b60006110a97f000000000000000000000000000000000000000000000000000000000000000042611cda565b90507f000000000000000000000000000000000000000000000000000000000000000081116110eb57604051630931513d60e11b815260040160405180910390fd5b600a5460ff161561110f5760405163084ef7b960e41b815260040160405180910390fd5b600a805460ff1916600117905560115460408051630c0775ff60e31b815290516001600160a01b039092169163603baff8916004808201926020929091908290030181865afa158015611166573d6000803e3d6000fd5b505050506040513d601f19601f8201168201806040525081019061118a9190611ec7565b6001600160a01b031663b6a64acd6040518163ffffffff1660e01b8152600401602060405180830381865afa1580156111c7573d6000803e3d6000fd5b505050506040513d601f19601f820116820180604052508101906111eb9190611d20565b61120757604051624a03c360e31b815260040160405180910390fd5b60115460405163dd0982a360e01b8152600481018490526001600160a01b039091169063dd0982a3906024016020604051808303816000875af1158015611252573d6000803e3d6000fd5b505050506040513d601f19601f820116820180604052508101906112769190611cf1565b60095561128161169e565b60095481526010546001906112a19082906301000000900460ff16611ee4565b60ff16600581106112b4576112b4611d0a565b01546020820152600060408201526112cb8161137a565b600b556011546040805163122db15360e01b815290516001600160a01b039092169163122db153916004808201926020929091908290030181865afa158015611318573d6000803e3d6000fd5b505050506040513d601f19601f8201168201806040525081019061133c9190611cf1565b600d8190556009546040517fa80928657383ff9d374f1409cf51e7460a64472b6baeb5ded1199830c15bae0192610f29928252602082015260400190565b6040516304b98e1d60e31b815260009073__$dc01a9744591ab014bc46a3b7671cdaefb$__906325cc70e890610be0908590600401611f07565b60065460ff16156113d8576040516342a2e18d60e01b815260040160405180910390fd5b6006805460ff19166001908117909155600c805482019055604080518082019091527f12817f4161f2f5ded33f26c55735a77e80e4f8975483c8c2704745128417f711815260006020820181905290918190819061143790859061065b565b601254604051631ffc735d60e01b81526004810183905293965091945092506001600160a01b031690631ffc735d906024016020604051808303816000875af1158015611488573d6000803e3d6000fd5b505050506040513d601f19601f820116820180604052508101906114ac9190611cf1565b507fe2067f06dd7b8159b21a5490f8663f6bb031d9b35ed6d298b5489674cb9cda4b8383604051610b98929190611f2f565b6114e661155c565b6001600160a01b0381166115505760405162461bcd60e51b815260206004820152602660248201527f4f776e61626c653a206e6577206f776e657220697320746865207a65726f206160448201526564647265737360d01b60648201526084015b60405180910390fd5b611559816115b6565b50565b6000546001600160a01b03163314610d325760405162461bcd60e51b815260206004820181905260248201527f4f776e61626c653a2063616c6c6572206973206e6f7420746865206f776e65726044820152606401611547565b600080546001600160a01b038381166001600160a01b0319831681178455604051919092169283917f8be0079c531659141344cd1fd0a4f28419497f9722a3daafe3b4186f6b6457e09190a35050565b604051806040016040528060008152602001611620611625565b905290565b604051806101400160405280600a906020820280368337509192915050565b6040518060a001604052806005906020820280368337509192915050565b60405180604001604052806002906020820280368337509192915050565b60405180608001604052806004906020820280368337509192915050565b60405180606001604052806003906020820280368337509192915050565b634e487b7160e01b600052604160045260246000fd5b6040805190810167ffffffffffffffff811182821017156116f5576116f56116bc565b60405290565b604051601f8201601f1916810167ffffffffffffffff81118282101715611724576117246116bc565b604052919050565b600082601f83011261173d57600080fd5b6040516040810181811067ffffffffffffffff82111715611760576117606116bc565b806040525080604084018581111561177757600080fd5b845b81811015611791578035835260209283019201611779565b509195945050505050565b600080606083850312156117af57600080fd5b6117b9848461172c565b946040939093013593505050565b8051825260208082015181840160005b600a811015610db1578251825291830191908301906001016117d7565b6101c0810161180382866117c7565b83516101608301526020909301516101808201526101a00152919050565b600061016080838503121561183557600080fd5b61183d6116d2565b915082358252602084603f85011261185457600080fd5b604051610140810181811067ffffffffffffffff82111715611878576118786116bc565b60405291840191808684111561188d57600080fd5b8286015b848110156118a85780358252908301908301611891565b5050908301525092915050565b6000604082840312156118c757600080fd5b6118cf6116d2565b9050813581526020820135602082015292915050565b6000806101a083850312156118f957600080fd5b6119038484611821565b91506119138461016085016118b5565b90509250929050565b6000806040838503121561192f57600080fd5b50508035926020909101359150565b6000808284036101a081121561195357600080fd5b61195d8585611821565b9250604061015f198201121561197257600080fd5b50610160830190509250929050565b60006080828403121561199357600080fd5b82601f8301126119a257600080fd5b6040516080810181811067ffffffffffffffff821117156119c5576119c56116bc565b60405280608084018581111561177757600080fd5b600060208083850312156119ed57600080fd5b823567ffffffffffffffff80821115611a0557600080fd5b818501915085601f830112611a1957600080fd5b813581811115611a2b57611a2b6116bc565b8060051b9150611a3c8483016116fb565b8181529183018401918481019088841115611a5657600080fd5b938501935b83851015611a7457843582529385019390850190611a5b565b98975050505050505050565b600060408284031215611a9257600080fd5b610df2838361172c565b60008060008060408587031215611ab257600080fd5b843567ffffffffffffffff80821115611aca57600080fd5b818701915087601f830112611ade57600080fd5b813581811115611aed57600080fd5b88602061016083028501011115611b0357600080fd5b602092830196509450908601359080821115611b1e57600080fd5b818701915087601f830112611b3257600080fd5b813581811115611b4157600080fd5b8860208260061b8501011115611b5657600080fd5b95989497505060200194505050565b600060808284031215611b7757600080fd5b6040516060810181811067ffffffffffffffff82111715611b9a57611b9a6116bc565b604052611ba784846118b5565b815260408301356020820152606083013560408201528091505092915050565b600060208284031215611bd957600080fd5b5035919050565b600060a08284031215611bf257600080fd5b82601f830112611c0157600080fd5b60405160a0810181811067ffffffffffffffff82111715611c2457611c246116bc565b6040528060a084018581111561177757600080fd5b600060608284031215611c4b57600080fd5b82601f830112611c5a57600080fd5b6040516060810181811067ffffffffffffffff82111715611c7d57611c7d6116bc565b60405280606084018581111561177757600080fd5b6001600160a01b038116811461155957600080fd5b600060208284031215611cb957600080fd5b8135610df281611c92565b634e487b7160e01b600052601160045260246000fd5b600082821015611cec57611cec611cc4565b500390565b600060208284031215611d0357600080fd5b5051919050565b634e487b7160e01b600052603260045260246000fd5b600060208284031215611d3257600080fd5b81518015158114610df257600080fd5b6101608101610c2182846117c7565b600060408284031215611d6357600080fd5b610df283836118b5565b6101a08101611d7c82856117c7565b823561016083015260208301356101808301529392505050565b60808101818360005b6004811015611dbe578151835260209283019290910190600101611d9f565b50505092915050565b815160009082906020808601845b83811015611df157815185529382019390820190600101611dd5565b50929695505050505050565b6000825160005b81811015611e1e5760208186018101518583015201611e04565b81811115611e2d576000828501525b509190910192915050565b600082611e5557634e487b7160e01b600052601260045260246000fd5b500690565b60408101818360005b6002811015611dbe578151835260209283019290910190600101611e63565b60006101608284031215611e9557600080fd5b610df28383611821565b60a08101818360005b6005811015611dbe578151835260209283019290910190600101611ea8565b600060208284031215611ed957600080fd5b8151610df281611c92565b600060ff821660ff841680821015611efe57611efe611cc4565b90039392505050565b60608101818360005b6003811015611dbe578151835260209283019290910190600101611f10565b6101a08101611f3e82856117c7565b82516101608301526020830151610180830152610df256fea2646970667358221220619235e80e3b1f5049a479caf7540796cb5b2401c9bdac06ce41f3ca790422be64736f6c634300080a0033a26469706673582212208134d7e41a27a8375a375a376208853ce27408a8f9e8a2cd1df9af0bcddad1b964736f6c634300080a0033",
  "linkReferences": {
    "contracts/crypto/PoseidonT3.sol": {
      "PoseidonT3": [
        {
          "length": 20,
          "start": 5617
        },
        {
          "length": 20,
          "start": 10918
        },
        {
          "length": 20,
          "start": 15116
        }
      ]
    },
    "contracts/crypto/PoseidonT4.sol": {
      "PoseidonT4": [
        {
          "length": 20,
          "start": 5753
        },
        {
          "length": 20,
          "start": 16800
        }
      ]
    },
    "contracts/crypto/PoseidonT5.sol": {
      "PoseidonT5": [
        {
          "length": 20,
          "start": 5091
        },
        {
          "length": 20,
          "start": 14796
        }
      ]
    },
    "contracts/crypto/PoseidonT6.sol": {
      "PoseidonT6": [
        {
          "length": 20,
          "start": 5695
        },
        {
          "length": 20,
          "start": 15969
        }
      ]
    }
  },
  "deployedLinkReferences": {
    "contracts/crypto/PoseidonT3.sol": {
      "PoseidonT3": [
        {
          "length": 20,
          "start": 5598
        },
        {
          "length": 20,
          "start": 10899
        },
        {
          "length": 20,
          "start": 15097
        }
      ]
    },
    "contracts/crypto/PoseidonT4.sol": {
      "PoseidonT4": [
        {
          "length": 20,
          "start": 5734
        },
        {
          "length": 20,
          "start": 16781
        }
      ]
    },
    "contracts/crypto/PoseidonT5.sol": {
      "PoseidonT5": [
        {
          "length": 20,
          "start": 5072
        },
        {
          "length": 20,
          "start": 14777
        }
      ]
    },
    "contracts/crypto/PoseidonT6.sol": {
      "PoseidonT6": [
        {
          "length": 20,
          "start": 5676
        },
        {
          "length": 20,
          "start": 15950
        }
      ]
    }
  }
}