{
  "_format": "hh-sol-artifact-1",
  "contractName": "ClonableAccQueueQuinaryMaci",
  "sourceName": "contracts/ClonableMaciContracts/ClonableAccQueueQuinaryMaci.sol",
  "abi": [
    {
      "inputs": [],
      "name": "DepthCannotBeZero",
      "type": "error"
    },
    {
      "inputs": [
        {
          "internalType": "uint256",
          "name": "_depth",
          "type": "uint256"
        },
        {
          "internalType": "uint256",
          "name": "max",
          "type": "uint256"
        }
      ],
      "name": "DepthTooLarge",
      "type": "error"
    },
    {
      "inputs": [
        {
          "internalType": "uint256",
          "name": "_depth",
          "type": "uint256"
        },
        {
          "internalType": "uint256",
          "name": "min",
          "type": "uint256"
        }
      ],
      "name": "DepthTooSmall",
      "type": "error"
    },
    {
      "inputs": [],
      "name": "InvalidHashLength",
      "type": "error"
    },
    {
      "inputs": [
        {
          "internalType": "uint256",
          "name": "_index",
          "type": "uint256"
        }
      ],
      "name": "InvalidIndex",
      "type": "error"
    },
    {
      "inputs": [],
      "name": "InvalidLevel",
      "type": "error"
    },
    {
      "inputs": [],
      "name": "NothingToMerge",
      "type": "error"
    },
    {
      "inputs": [],
      "name": "SubDepthCannotBeZero",
      "type": "error"
    },
    {
      "inputs": [],
      "name": "SubTreesAlreadyMerged",
      "type": "error"
    },
    {
      "inputs": [],
      "name": "SubTreesNotMerged",
      "type": "error"
    },
    {
      "inputs": [
        {
          "internalType": "uint256",
          "name": "_subDepth",
          "type": "uint256"
        },
        {
          "internalType": "uint256",
          "name": "max",
          "type": "uint256"
        }
      ],
      "name": "SubdepthTooLarge",
      "type": "error"
    },
    {
      "anonymous": false,
      "inputs": [
        {
          "indexed": false,
          "internalType": "uint8",
          "name": "version",
          "type": "uint8"
        }
      ],
      "name": "Initialized",
      "type": "event"
    },
    {
      "anonymous": false,
      "inputs": [
        {
          "indexed": true,
          "internalType": "address",
          "name": "previousOwner",
          "type": "address"
        },
        {
          "indexed": true,
          "internalType": "address",
          "name": "newOwner",
          "type": "address"
        }
      ],
      "name": "OwnershipTransferred",
      "type": "event"
    },
    {
      "inputs": [],
      "name": "HASH_LENGTH",
      "outputs": [
        {
          "internalType": "uint256",
          "name": "",
          "type": "uint256"
        }
      ],
      "stateMutability": "view",
      "type": "function"
    },
    {
      "inputs": [],
      "name": "MAX_DEPTH",
      "outputs": [
        {
          "internalType": "uint256",
          "name": "",
          "type": "uint256"
        }
      ],
      "stateMutability": "view",
      "type": "function"
    },
    {
      "inputs": [],
      "name": "calcMinHeight",
      "outputs": [
        {
          "internalType": "uint256",
          "name": "depth",
          "type": "uint256"
        }
      ],
      "stateMutability": "view",
      "type": "function"
    },
    {
      "inputs": [
        {
          "internalType": "uint256",
          "name": "_leaf",
          "type": "uint256"
        }
      ],
      "name": "enqueue",
      "outputs": [
        {
          "internalType": "uint256",
          "name": "leafIndex",
          "type": "uint256"
        }
      ],
      "stateMutability": "nonpayable",
      "type": "function"
    },
    {
      "inputs": [],
      "name": "fill",
      "outputs": [],
      "stateMutability": "nonpayable",
      "type": "function"
    },
    {
      "inputs": [
        {
          "internalType": "uint256",
          "name": "_depth",
          "type": "uint256"
        }
      ],
      "name": "getMainRoot",
      "outputs": [
        {
          "internalType": "uint256",
          "name": "mainRoot",
          "type": "uint256"
        }
      ],
      "stateMutability": "view",
      "type": "function"
    },
    {
      "inputs": [],
      "name": "getSmallSRTroot",
      "outputs": [
        {
          "internalType": "uint256",
          "name": "smallSubTreeRoot",
          "type": "uint256"
        }
      ],
      "stateMutability": "view",
      "type": "function"
    },
    {
      "inputs": [],
      "name": "getSrIndices",
      "outputs": [
        {
          "internalType": "uint256",
          "name": "next",
          "type": "uint256"
        },
        {
          "internalType": "uint256",
          "name": "current",
          "type": "uint256"
        }
      ],
      "stateMutability": "view",
      "type": "function"
    },
    {
      "inputs": [
        {
          "internalType": "uint256",
          "name": "_index",
          "type": "uint256"
        }
      ],
      "name": "getSubRoot",
      "outputs": [
        {
          "internalType": "uint256",
          "name": "subRoot",
          "type": "uint256"
        }
      ],
      "stateMutability": "view",
      "type": "function"
    },
    {
      "inputs": [
        {
          "internalType": "uint256[2]",
          "name": "array",
          "type": "uint256[2]"
        }
      ],
      "name": "hash2",
      "outputs": [
        {
          "internalType": "uint256",
          "name": "result",
          "type": "uint256"
        }
      ],
      "stateMutability": "pure",
      "type": "function"
    },
    {
      "inputs": [
        {
          "internalType": "uint256[3]",
          "name": "array",
          "type": "uint256[3]"
        }
      ],
      "name": "hash3",
      "outputs": [
        {
          "internalType": "uint256",
          "name": "result",
          "type": "uint256"
        }
      ],
      "stateMutability": "pure",
      "type": "function"
    },
    {
      "inputs": [
        {
          "internalType": "uint256[4]",
          "name": "array",
          "type": "uint256[4]"
        }
      ],
      "name": "hash4",
      "outputs": [
        {
          "internalType": "uint256",
          "name": "result",
          "type": "uint256"
        }
      ],
      "stateMutability": "pure",
      "type": "function"
    },
    {
      "inputs": [
        {
          "internalType": "uint256[5]",
          "name": "array",
          "type": "uint256[5]"
        }
      ],
      "name": "hash5",
      "outputs": [
        {
          "internalType": "uint256",
          "name": "result",
          "type": "uint256"
        }
      ],
      "stateMutability": "pure",
      "type": "function"
    },
    {
      "inputs": [
        {
          "internalType": "uint256",
          "name": "left",
          "type": "uint256"
        },
        {
          "internalType": "uint256",
          "name": "right",
          "type": "uint256"
        }
      ],
      "name": "hashLeftRight",
      "outputs": [
        {
          "internalType": "uint256",
          "name": "result",
          "type": "uint256"
        }
      ],
      "stateMutability": "pure",
      "type": "function"
    },
    {
      "inputs": [
        {
          "internalType": "uint256",
          "name": "_level",
          "type": "uint256"
        },
        {
          "internalType": "uint256",
          "name": "_leaf",
          "type": "uint256"
        }
      ],
      "name": "hashLevelLeaf",
      "outputs": [
        {
          "internalType": "uint256",
          "name": "hashed",
          "type": "uint256"
        }
      ],
      "stateMutability": "view",
      "type": "function"
    },
    {
      "inputs": [
        {
          "internalType": "uint256",
          "name": "_subDepth",
          "type": "uint256"
        }
      ],
      "name": "initialize",
      "outputs": [],
      "stateMutability": "nonpayable",
      "type": "function"
    },
    {
      "inputs": [
        {
          "internalType": "uint256",
          "name": "_subRoot",
          "type": "uint256"
        }
      ],
      "name": "insertSubTree",
      "outputs": [],
      "stateMutability": "nonpayable",
      "type": "function"
    },
    {
      "inputs": [
        {
          "internalType": "uint256",
          "name": "_depth",
          "type": "uint256"
        }
      ],
      "name": "merge",
      "outputs": [
        {
          "internalType": "uint256",
          "name": "root",
          "type": "uint256"
        }
      ],
      "stateMutability": "nonpayable",
      "type": "function"
    },
    {
      "inputs": [
        {
          "internalType": "uint256",
          "name": "_numSrQueueOps",
          "type": "uint256"
        }
      ],
      "name": "mergeSubRoots",
      "outputs": [],
      "stateMutability": "nonpayable",
      "type": "function"
    },
    {
      "inputs": [],
      "name": "numLeaves",
      "outputs": [
        {
          "internalType": "uint256",
          "name": "",
          "type": "uint256"
        }
      ],
      "stateMutability": "view",
      "type": "function"
    },
    {
      "inputs": [],
      "name": "owner",
      "outputs": [
        {
          "internalType": "address",
          "name": "",
          "type": "address"
        }
      ],
      "stateMutability": "view",
      "type": "function"
    },
    {
      "inputs": [],
      "name": "renounceOwnership",
      "outputs": [],
      "stateMutability": "nonpayable",
      "type": "function"
    },
    {
      "inputs": [
        {
          "internalType": "uint256[]",
          "name": "array",
          "type": "uint256[]"
        }
      ],
      "name": "sha256Hash",
      "outputs": [
        {
          "internalType": "uint256",
          "name": "result",
          "type": "uint256"
        }
      ],
      "stateMutability": "pure",
      "type": "function"
    },
    {
      "inputs": [],
      "name": "subTreesMerged",
      "outputs": [
        {
          "internalType": "bool",
          "name": "",
          "type": "bool"
        }
      ],
      "stateMutability": "view",
      "type": "function"
    },
    {
      "inputs": [
        {
          "internalType": "address",
          "name": "newOwner",
          "type": "address"
        }
      ],
      "name": "transferOwnership",
      "outputs": [],
      "stateMutability": "nonpayable",
      "type": "function"
    },
    {
      "inputs": [],
      "name": "treeMerged",
      "outputs": [
        {
          "internalType": "bool",
          "name": "",
          "type": "bool"
        }
      ],
      "stateMutability": "view",
      "type": "function"
    }
  ],
  "bytecode": "0x608060405234801561001057600080fd5b507f12817f4161f2f5ded33f26c55735a77e80e4f8975483c8c2704745128417f7116065557f1c8de1edeabc24fc4c1595acaabb70be9b70f351d58c6fa338e1e9a994413bfb6066557f22fcda488c14b34fc60eb073fbe92fe10793e2ab14682e0f057332ddbef3d55c6067557f2db474db7c7212646cb15c6177d87be30711e6c04f1139d8e495ef1d1d9982276068557efde404053ec39a19f6ac347121a2264815dda84f910a388cb372e967a5d08c6069557f0723792ffab6ec6cfb3ece1509b9b4fb07e5bdb2299d1538e6e1db916f90cf89606a557f2a4392ec4e3d1811cd6a950cc865ee6f2342910a6551c5dce38cb995576c7c70606b557f1dead4c14f75e9d8449c80b648dcd4694c2ee50da2ba16e5e438f0d77ab02e34606c557f124c53ce0953fffb7ab5e3c143df6cd48ba747d3959fcb8086405d763ed54550606d557f02bae19605746a8cd3f0927b2c01630f36f4d1bab9216ca839833e7ff6efa206606e557f1f8375099becf17173d457d0d07bfb74c7067df1143b5ad987046e8e66817bc9606f557f0e13e954d61bb3fa3b03e7d136ca909b610fa2ca4443d920d94d16684f2b83d46070557f1416ef2fc4f88fcfc4f9eb12f8e214b1c3e31c6c10ece9cfa51f078a3bbf34576071557f032f915ff71e198a7955d2697249f40fb94c65812ed24e670c9700f52fdf6e0e6072557f08bfebf4b3ddb0f8c51dd40193f5996da9f3d799ee0d8beb6be4038132df60b46073557f065ac498cf4a5acaeb3b6cee826da9f834c961fa39feff6ae925b90dff79b6136074557f2e72c628101a93201b912a3e3fe96d39b0a9076ec39b7935a015c59bb32b8a2a6075557f19bba68e7b9da1e6ec42e52d7ab2adaf3b6a5521b1a454ec70f62e0ab702c0856076557f0de1f72745a5af2a34cac412e00eb6c8b5db1f3b52fa1bff88076c2726b83b086077557f2e8f152603b2fac10d6a14c841327c23c502537367ccb1e42fab9a3bd9db2a8d6078557f14e16c3e0dcfd7e621a32627ebf37f6c0afb4467d34c7b7aeffded11769dec856079557f0be1e62127948b4805c85a1d836574f0892ca6473fcde98f3fd1781248a9768f607a557f0930288fbd7c849197c8372f1dd8f9087f8a03f09b9cd904a469c15ef6b1b515607b557f231cac34e215e3f404d2fcfb79e0705deeb3d40978f0ee31072f6cbc1b579e33607c557f2e0e3cd2718ac7199b81dc14e841de40a9536b7ffe95fa1fc9c6b799e43e2c97607d557f0718452506f0a232e98966d84b1a4675a66bd80263a2dc58bdac873825752fc3607e557f162d4ed998307d6e132edbf5c11f62f53d4636aa10cb3c2244c2bf5577168c37607f557f247d6a5544a8f295a894ae77c7efcdcbf52e3bf4e5d0c0d2f40557a61d4498486080557f0b8de3868471f109e91670daca698dba917d1c5535821f33aa9598d1db8e3d196081557f29851997020f527c92e20f030d232b81d334144a641e6a8866b46dd925005bbb6082557f1a9cfcbe29a2b6503a03049727c0bca3111afd62f2836f392080321d1b4ef6426083557f1aa3ead91fa89cc1d6cb1d0eb76a27190c6abfdd3265d6d0a1e5c58feddaddf66084557f0702fc26a7d367e6677efefd95204a7e00144c2fc7dbc2a581aa00d99f51f081608555611b61806104c36000396000f3fe608060405234801561001057600080fd5b506004361061018e5760003560e01c80638da5cb5b116100de578063c00bdbcc11610097578063dda89a6e11610071578063dda89a6e14610324578063e93fb4d41461032e578063f2fde38b14610341578063fe4b84df1461035457600080fd5b8063c00bdbcc146102f6578063c15da65b14610309578063d9c55ce11461031c57600080fd5b80638da5cb5b146102975780639cfced97146102b2578063a27154ba146102c5578063b66c84a1146102cd578063b6a64acd146102d5578063bea140b3146102e357600080fd5b806358bfc3791161014b57806362a361bb1161012557806362a361bb1461023b57806369e7c5861461024e578063715018a61461027157806381d6a24a1461027b57600080fd5b806358bfc379146102025780635bb93995146102155780635bf1fa4d1461022857600080fd5b80631b9b8aa7146101935780631ffc735d146101b957806324a47aeb146101cc5780633bfa6fce146101df5780633dfb88b2146101e75780633e1a8cc1146101fa575b600080fd5b6101a66101a1366004611523565b610367565b6040519081526020015b60405180910390f35b6101a66101c7366004611523565b6103cd565b6101a66101da366004611523565b6104a3565b6101a6610673565b6101a66101f5366004611583565b6106a2565b6101a6610723565b6101a6610210366004611601565b610752565b6101a66102233660046116a7565b6107ec565b6101a66102363660046116a7565b610811565b6101a66102493660046116c9565b6108b0565b6101f75461026190610100900460ff1681565b60405190151581526020016101b0565b6102796108ea565b005b6101f954608a54604080519283526020830191909152016101b0565b6033546040516001600160a01b0390911681526020016101b0565b6101a66102c0366004611724565b6108fe565b6101a6602081565b6101a6600581565b6101f7546102619060ff1681565b6101a66102f136600461177d565b610938565b610279610304366004611523565b610972565b610279610317366004611523565b6109d0565b610279610b7f565b6101a66101fa5481565b6101a661033c366004611523565b610c54565b61027961034f3660046117d6565b610c8f565b610279610362366004611523565b610d05565b60006101fa548260875461037b9190611900565b10156103b1576101fa54604051627289df60e61b81526103a8918491600401918252602082015260400190565b60405180910390fd5b6101d682602181106103c5576103c561190c565b015492915050565b60006103d7610ec6565b506101fa546103e7826000610f20565b6103f2816001611922565b6101fa556104036101d66000611488565b60006101f8556101f7805460ff191690556088546101fa546104259190611935565b60000361049e57608654608b90602181106104425761044261190c565b6004020154608a805460009081526101d5602052604081209290925580549161046a83611957565b9091555050608654608b90602181106104855761048561190c565b60040201600080910181905561049e9061010f90611488565b919050565b60006104ad610ec6565b816000036104ce57604051630543d40760e11b815260040160405180910390fd5b6101f75460ff166104f257604051631e596e4360e11b815260040160405180910390fd5b602082111561051e57604051632cd31ae960e01b815260048101839052602060248201526044016103a8565b6086545b6101fa54816087546105349190611900565b101561054c578061054481611957565b915050610522565b8083101561057657604051627289df60e61b815260048101849052602481018290526044016103a8565b8083036105b2576101f8546101d684602181106105955761059561190c565b015550506101f7805461ff0019166101001790556101f854919050565b6101f8549150805b838110156106455760006105cd8261100c565b60895490915060ff16156105fe576105e3611497565b848152602081018290526105f6816108b0565b945050610632565b6106066114b5565b8481526020810182905260408101829052606081018290526080810182905261062e816108fe565b9450505b508061063d81611957565b9150506105ba565b50816101d6846021811061065b5761065b61190c565b01556101f7805461ff00191661010017905550919050565b60015b608a54816087546106879190611900565b101561069f578061069781611957565b915050610676565b90565b60405163248f667760e01b815260009073__$e61c65d9562aef5fa6ab22c0f787cf1e30$__9063248f6677906106dc908590600401611970565b602060405180830381865af41580156106f9573d6000803e3d6000fd5b505050506040513d601f19601f8201168201806040525081019061071d91906119a1565b92915050565b6101f75460009060ff1661074a57604051631e596e4360e11b815260040160405180910390fd5b506101f85490565b60007f30644e72e131a029b85045b68181585d2833e84879b9709143e1f593f000000160028360405160200161078891906119ba565b60408051601f19818403018152908290526107a2916119f0565b602060405180830381855afa1580156107bf573d6000803e3d6000fd5b5050506040513d601f19601f820116820180604052508101906107e291906119a1565b61071d9190611935565b60006107f6611497565b83815260208101839052610809816108b0565b949350505050565b600061081b6114b5565b608b846021811061082e5761082e61190c565b60040201548152608b84602181106108485761084861190c565b60040201600101548160016020020152608b846021811061086b5761086b61190c565b60040201600201548160026020020152608b846021811061088e5761088e61190c565b60040201600301548160036020020152828160046020020152610809816108fe565b6040516314d2f97b60e11b815260009073__$1540826e134b1b69b7091c82576ee3aadd$__906329a5f2f6906106dc908590600401611a1f565b6108f2610ec6565b6108fc6000611021565b565b604051630926f44b60e31b815260009073__$46fbdf6658faf65265971bdad66851b86c$__90634937a258906106dc908590600401611a47565b6040516304b98e1d60e31b815260009073__$fa059fb1da6d850ca47ea49359bfe89f78$__906325cc70e8906106dc908590600401611a6f565b61097a610ec6565b608a805460009081526101d5602052604081208390558154919061099d83611957565b91905055506088546101fa60008282546109b79190611922565b909155505060006101f855506101f7805460ff19169055565b6109d8610ec6565b6101f75460ff16156109fd57604051630d36aec160e01b815260040160405180910390fd5b6101fa54600003610a21576040516316a0341160e11b815260040160405180910390fd5b6088546101fa54610a329190611935565b15610a3f57610a3f610b7f565b608a54600103610a6857610a536000610c54565b6101f8556101f7805460ff1916600117905550565b6000610a72610673565b6101f9549091506000905b608a54811015610aee578315801590610a9557508382145b15610aa05750505050565b610ab7610aaf6101f954610c54565b600085611073565b6101f98054906000610ac883611957565b91905055508180610ad890611957565b9250508080610ae690611957565b915050610a7d565b50600082608754610aff9190611900565b9050608a546101f95403610b4a576000610b1a60865461100c565b608a549091505b82811015610b4757610b3582600087611073565b80610b3f81611957565b915050610b21565b50505b6101308360218110610b5e57610b5e61190c565b60040201600001546101f85550506101f7805460ff19166001179055505b50565b610b87610ec6565b6088546101fa54610b989190611935565b600003610bc257610baa60865461100c565b608a5460009081526101d56020526040902055610c16565b610bcc600061121d565b608654608b9060218110610be257610be261190c565b6004020154608a5460009081526101d56020526040812091909155610c0990608b906114d3565b610c166101d66000611488565b6000608a546001610c279190611922565b608a819055608854909150610c3c9082611a97565b6101fa555060006101f8556101f7805460ff19169055565b600081608a5411610c7b5760405163042a2e7160e11b8152600481018390526024016103a8565b5060009081526101d5602052604090205490565b610c97610ec6565b6001600160a01b038116610cfc5760405162461bcd60e51b815260206004820152602660248201527f4f776e61626c653a206e6577206f776e657220697320746865207a65726f206160448201526564647265737360d01b60648201526084016103a8565b610b7c81611021565b600054610100900460ff1615808015610d255750600054600160ff909116105b80610d3f5750303b158015610d3f575060005460ff166001145b610da25760405162461bcd60e51b815260206004820152602e60248201527f496e697469616c697a61626c653a20636f6e747261637420697320616c72656160448201526d191e481a5b9a5d1a585b1a5e995960921b60648201526084016103a8565b6000805460ff191660011790558015610dc5576000805461ff0019166101001790555b610dcd61134f565b610dd5611376565b60056000839003610df95760405163682e504160e11b815260040160405180910390fd5b6020831115610e2557604051637ccdcc9760e11b815260048101849052602060248201526044016103a8565b80600214158015610e37575080600514155b15610e5557604051636f7b6c0360e01b815260040160405180910390fd5b6089805460ff19166002831417905560868390556087819055610e788382611900565b608855508015610ec2576000805461ff0019169055604051600181527f7f26b83ff96e1f2b6a682f133852f6798a09c465da95921460cefb38474024989060200160405180910390a15b5050565b6033546001600160a01b031633146108fc5760405162461bcd60e51b815260206004820181905260248201527f4f776e61626c653a2063616c6c6572206973206e6f7420746865206f776e657260448201526064016103a8565b608654811115610f435760405163d1459f7960e01b815260040160405180910390fd5b600061010f8260218110610f5957610f5961190c565b015490506001608754610f6c9190611aae565b8114610fd45782608b8360218110610f8657610f8661190c565b600402018260048110610f9b57610f9b61190c565b01556086548214610fcf5761010f8260218110610fba57610fba61190c565b018054906000610fc983611957565b91905055505b505050565b610fde82846113a6565b925061010f8260218110610ff457610ff461190c565b60009101558161100381611957565b92505050610f43565b6000606582602181106103c5576103c561190c565b603380546001600160a01b038381166001600160a01b0319831681179093556040519116919082907f8be0079c531659141344cd1fd0a4f28419497f9722a3daafe3b4186f6b6457e090600090a35050565b8082111561108057505050565b60006101b483602181106110965761109661190c565b0154905060016087546110a99190611aae565b8114611108578361013084602181106110c4576110c461190c565b6004020182600481106110d9576110d961190c565b01556101b483602181106110ef576110ef61190c565b0180549060006110fe83611957565b9190505550611217565b60895460009060ff16156111515761111e611497565b61013085602181106111325761113261190c565b6004020154815260208101869052611149816108b0565b9150506111e7565b6111596114b5565b60005b838160ff1610156111c157610130866021811061117b5761117b61190c565b600402018160ff16600481106111935761119361190c565b0154828260ff16600581106111aa576111aa61190c565b6020020152806111b981611ac1565b91505061115c565b50858184600581106111d5576111d561190c565b60200201526111e3816108fe565b9150505b6101b484602181106111fb576111fb61190c565b60009101556112158161120f866001611922565b85611073565b505b50505050565b608654811015610b7c57600061010f826021811061123d5761123d61190c565b0154905080156113235760006112516114b5565b600061125c8561100c565b905060005b848160ff1610156112c557608b866021811061127f5761127f61190c565b600402018160ff16600481106112975761129761190c565b0154838260ff16600581106112ae576112ae61190c565b6020020152806112bd81611ac1565b915050611261565b6087548160ff1610156112ff5781838260ff16600581106112e8576112e861190c565b6020020152806112f781611ac1565b9150506112c5565b611308836108fe565b935061131e84611319886001611922565b610f20565b505050505b61010f82602181106113375761133761190c565b60009101558161134681611957565b9250505061121d565b600054610100900460ff166108fc5760405162461bcd60e51b81526004016103a890611ae0565b600054610100900460ff1661139d5760405162461bcd60e51b81526004016103a890611ae0565b6108fc33611021565b60006113b06114b5565b608b84602181106113c3576113c361190c565b60040201548152608b84602181106113dd576113dd61190c565b60040201600101548160016020020152608b84602181106114005761140061190c565b60040201600201548160026020020152608b84602181106114235761142361190c565b60040201600301548160036020020152828160046020020152611445816108fe565b9150608b846021811061145a5761145a61190c565b60040201600061148191905060008155600101600081556001016000815560010160009055565b5092915050565b50610b7c9060218101906114e2565b60405180604001604052806002906020820280368337509192915050565b6040518060a001604052806005906020820280368337509192915050565b50610b7c9060848101906114fb565b5b808211156114f757600081556001016114e3565b5090565b808211156114f7576000808255600182018190556002820181905560038201556004016114fb565b60006020828403121561153557600080fd5b5035919050565b634e487b7160e01b600052604160045260246000fd5b604051601f8201601f1916810167ffffffffffffffff8111828210171561157b5761157b61153c565b604052919050565b60006080828403121561159557600080fd5b82601f8301126115a457600080fd5b6040516080810181811067ffffffffffffffff821117156115c7576115c761153c565b6040528060808401858111156115dc57600080fd5b845b818110156115f65780358352602092830192016115de565b509195945050505050565b6000602080838503121561161457600080fd5b823567ffffffffffffffff8082111561162c57600080fd5b818501915085601f83011261164057600080fd5b8135818111156116525761165261153c565b8060051b9150611663848301611552565b818152918301840191848101908884111561167d57600080fd5b938501935b8385101561169b57843582529385019390850190611682565b98975050505050505050565b600080604083850312156116ba57600080fd5b50508035926020909101359150565b6000604082840312156116db57600080fd5b82601f8301126116ea57600080fd5b6040516040810181811067ffffffffffffffff8211171561170d5761170d61153c565b80604052508060408401858111156115dc57600080fd5b600060a0828403121561173657600080fd5b82601f83011261174557600080fd5b60405160a0810181811067ffffffffffffffff821117156117685761176861153c565b6040528060a08401858111156115dc57600080fd5b60006060828403121561178f57600080fd5b82601f83011261179e57600080fd5b6040516060810181811067ffffffffffffffff821117156117c1576117c161153c565b6040528060608401858111156115dc57600080fd5b6000602082840312156117e857600080fd5b81356001600160a01b03811681146117ff57600080fd5b9392505050565b634e487b7160e01b600052601160045260246000fd5b600181815b8085111561185757816000190482111561183d5761183d611806565b8085161561184a57918102915b93841c9390800290611821565b509250929050565b60008261186e5750600161071d565b8161187b5750600061071d565b8160018114611891576002811461189b576118b7565b600191505061071d565b60ff8411156118ac576118ac611806565b50506001821b61071d565b5060208310610133831016604e8410600b84101617156118da575081810a61071d565b6118e4838361181c565b80600019048211156118f8576118f8611806565b029392505050565b60006117ff838361185f565b634e487b7160e01b600052603260045260246000fd5b8082018082111561071d5761071d611806565b60008261195257634e487b7160e01b600052601260045260246000fd5b500690565b60006001820161196957611969611806565b5060010190565b60808101818360005b6004811015611998578151835260209283019290910190600101611979565b50505092915050565b6000602082840312156119b357600080fd5b5051919050565b815160009082906020808601845b838110156119e4578151855293820193908201906001016119c8565b50929695505050505050565b6000825160005b81811015611a1157602081860181015185830152016119f7565b506000920191825250919050565b60408101818360005b6002811015611998578151835260209283019290910190600101611a28565b60a08101818360005b6005811015611998578151835260209283019290910190600101611a50565b60608101818360005b6003811015611998578151835260209283019290910190600101611a78565b808202811582820484141761071d5761071d611806565b8181038181111561071d5761071d611806565b600060ff821660ff8103611ad757611ad7611806565b60010192915050565b6020808252602b908201527f496e697469616c697a61626c653a20636f6e7472616374206973206e6f74206960408201526a6e697469616c697a696e6760a81b60608201526080019056fea2646970667358221220d6f7352030e8c57173890d28c3a8ace93185eac8bc311dd94e78d60ec6367e4064736f6c63430008130033",
  "linkReferences": {
    "maci-contracts/contracts/crypto/PoseidonT3.sol": {
      "PoseidonT3": [
        {
          "length": 20,
          "start": 3461
        }
      ]
    },
    "maci-contracts/contracts/crypto/PoseidonT4.sol": {
      "PoseidonT4": [
        {
          "length": 20,
          "start": 3597
        }
      ]
    },
    "maci-contracts/contracts/crypto/PoseidonT5.sol": {
      "PoseidonT5": [
        {
          "length": 20,
          "start": 2935
        }
      ]
    },
    "maci-contracts/contracts/crypto/PoseidonT6.sol": {
      "PoseidonT6": [
        {
          "length": 20,
          "start": 3539
        }
      ]
    }
  },
  "deployedLinkReferences": {
    "maci-contracts/contracts/crypto/PoseidonT3.sol": {
      "PoseidonT3": [
        {
          "length": 20,
          "start": 2242
        }
      ]
    },
    "maci-contracts/contracts/crypto/PoseidonT4.sol": {
      "PoseidonT4": [
        {
          "length": 20,
          "start": 2378
        }
      ]
    },
    "maci-contracts/contracts/crypto/PoseidonT5.sol": {
      "PoseidonT5": [
        {
          "length": 20,
          "start": 1716
        }
      ]
    },
    "maci-contracts/contracts/crypto/PoseidonT6.sol": {
      "PoseidonT6": [
        {
          "length": 20,
          "start": 2320
        }
      ]
    }
  }
}