{
  "_format": "hh-sol-artifact-1",
  "contractName": "EASGatekeeper",
  "sourceName": "contracts/gatekeepers/EASGatekeeper.sol",
  "abi": [
    {
      "inputs": [
        {
          "internalType": "address",
          "name": "_eas",
          "type": "address"
        },
        {
          "internalType": "address",
          "name": "_attester",
          "type": "address"
        },
        {
          "internalType": "bytes32",
          "name": "_schema",
          "type": "bytes32"
        }
      ],
      "stateMutability": "payable",
      "type": "constructor"
    },
    {
      "inputs": [],
      "name": "AlreadyRegistered",
      "type": "error"
    },
    {
      "inputs": [],
      "name": "AttestationRevoked",
      "type": "error"
    },
    {
      "inputs": [],
      "name": "AttesterNotTrusted",
      "type": "error"
    },
    {
      "inputs": [],
      "name": "InvalidSchema",
      "type": "error"
    },
    {
      "inputs": [],
      "name": "NotYourAttestation",
      "type": "error"
    },
    {
      "inputs": [],
      "name": "OnlyMACI",
      "type": "error"
    },
    {
      "inputs": [],
      "name": "ZeroAddress",
      "type": "error"
    },
    {
      "anonymous": false,
      "inputs": [
        {
          "indexed": true,
          "internalType": "address",
          "name": "previousOwner",
          "type": "address"
        },
        {
          "indexed": true,
          "internalType": "address",
          "name": "newOwner",
          "type": "address"
        }
      ],
      "name": "OwnershipTransferred",
      "type": "event"
    },
    {
      "inputs": [],
      "name": "attester",
      "outputs": [
        {
          "internalType": "address",
          "name": "",
          "type": "address"
        }
      ],
      "stateMutability": "view",
      "type": "function"
    },
    {
      "inputs": [],
      "name": "maci",
      "outputs": [
        {
          "internalType": "address",
          "name": "",
          "type": "address"
        }
      ],
      "stateMutability": "view",
      "type": "function"
    },
    {
      "inputs": [],
      "name": "owner",
      "outputs": [
        {
          "internalType": "address",
          "name": "",
          "type": "address"
        }
      ],
      "stateMutability": "view",
      "type": "function"
    },
    {
      "inputs": [
        {
          "internalType": "address",
          "name": "_user",
          "type": "address"
        },
        {
          "internalType": "bytes",
          "name": "_data",
          "type": "bytes"
        }
      ],
      "name": "register",
      "outputs": [],
      "stateMutability": "nonpayable",
      "type": "function"
    },
    {
      "inputs": [
        {
          "internalType": "bytes32",
          "name": "",
          "type": "bytes32"
        }
      ],
      "name": "registeredAttestations",
      "outputs": [
        {
          "internalType": "bool",
          "name": "",
          "type": "bool"
        }
      ],
      "stateMutability": "view",
      "type": "function"
    },
    {
      "inputs": [],
      "name": "renounceOwnership",
      "outputs": [],
      "stateMutability": "nonpayable",
      "type": "function"
    },
    {
      "inputs": [],
      "name": "schema",
      "outputs": [
        {
          "internalType": "bytes32",
          "name": "",
          "type": "bytes32"
        }
      ],
      "stateMutability": "view",
      "type": "function"
    },
    {
      "inputs": [
        {
          "internalType": "address",
          "name": "_maci",
          "type": "address"
        }
      ],
      "name": "setMaciInstance",
      "outputs": [],
      "stateMutability": "nonpayable",
      "type": "function"
    },
    {
      "inputs": [
        {
          "internalType": "address",
          "name": "newOwner",
          "type": "address"
        }
      ],
      "name": "transferOwnership",
      "outputs": [],
      "stateMutability": "nonpayable",
      "type": "function"
    }
  ],
  "bytecode": "0x60e0604052604051610a26380380610a26833981016040819052610022916100ec565b61002b33610080565b6001600160a01b038316158061004857506001600160a01b038216155b156100665760405163d92e233d60e01b815260040160405180910390fd5b6001600160a01b0392831660805260a0521660c052610128565b600080546001600160a01b038381166001600160a01b0319831681178455604051919092169283917f8be0079c531659141344cd1fd0a4f28419497f9722a3daafe3b4186f6b6457e09190a35050565b80516001600160a01b03811681146100e757600080fd5b919050565b60008060006060848603121561010157600080fd5b61010a846100d0565b9250610118602085016100d0565b9150604084015190509250925092565b60805160a05160c0516108c161016560003960008181610128015261035d01526000818161017b0152610319015260006102a601526108c16000f3fe608060405234801561001057600080fd5b50600436106100935760003560e01c806347b0c3b31161006657806347b0c3b314610123578063715018a61461014a5780638da5cb5b14610152578063f2fde38b14610163578063f8895cc81461017657600080fd5b8063013209db1461009857806313e65cf3146100d057806324b8fbf6146100e557806334a0922c146100f8575b600080fd5b6100bb6100a6366004610556565b60026020526000908152604090205460ff1681565b60405190151581526020015b60405180910390f35b6100e36100de366004610584565b6101ab565b005b6100e36100f3366004610641565b6101fc565b60015461010b906001600160a01b031681565b6040516001600160a01b0390911681526020016100c7565b61010b7f000000000000000000000000000000000000000000000000000000000000000081565b6100e361041a565b6000546001600160a01b031661010b565b6100e3610171366004610584565b61042e565b61019d7f000000000000000000000000000000000000000000000000000000000000000081565b6040519081526020016100c7565b6101b36104ac565b6001600160a01b0381166101da5760405163d92e233d60e01b815260040160405180910390fd5b600180546001600160a01b0319166001600160a01b0392909216919091179055565b60008180602001905181019061021291906106d4565b6001549091506001600160a01b0316331461024057604051630346d90560e21b815260040160405180910390fd5b60008181526002602052604090205460ff161561027057604051630ea075bf60e21b815260040160405180910390fd5b600081815260026020526040808220805460ff19166001179055516328c44a9960e21b8152600481018390526001600160a01b037f0000000000000000000000000000000000000000000000000000000000000000169063a3112a6490602401600060405180830381865afa1580156102ed573d6000803e3d6000fd5b505050506040513d6000823e601f3d908101601f191682016040526103159190810190610794565b90507f000000000000000000000000000000000000000000000000000000000000000081602001511461035b57604051635f9bd90760e11b815260040160405180910390fd5b7f00000000000000000000000000000000000000000000000000000000000000006001600160a01b03168160e001516001600160a01b0316146103b15760405163cd74a32b60e01b815260040160405180910390fd5b608081015167ffffffffffffffff16156103de57604051637b6227e960e11b815260040160405180910390fd5b836001600160a01b03168160c001516001600160a01b03161461041457604051633f97208360e11b815260040160405180910390fd5b50505050565b6104226104ac565b61042c6000610506565b565b6104366104ac565b6001600160a01b0381166104a05760405162461bcd60e51b815260206004820152602660248201527f4f776e61626c653a206e6577206f776e657220697320746865207a65726f206160448201526564647265737360d01b60648201526084015b60405180910390fd5b6104a981610506565b50565b6000546001600160a01b0316331461042c5760405162461bcd60e51b815260206004820181905260248201527f4f776e61626c653a2063616c6c6572206973206e6f7420746865206f776e65726044820152606401610497565b600080546001600160a01b038381166001600160a01b0319831681178455604051919092169283917f8be0079c531659141344cd1fd0a4f28419497f9722a3daafe3b4186f6b6457e09190a35050565b60006020828403121561056857600080fd5b5035919050565b6001600160a01b03811681146104a957600080fd5b60006020828403121561059657600080fd5b81356105a18161056f565b9392505050565b634e487b7160e01b600052604160045260246000fd5b604051610140810167ffffffffffffffff811182821017156105e2576105e26105a8565b60405290565b604051601f8201601f1916810167ffffffffffffffff81118282101715610611576106116105a8565b604052919050565b600067ffffffffffffffff821115610633576106336105a8565b50601f01601f191660200190565b6000806040838503121561065457600080fd5b823561065f8161056f565b9150602083013567ffffffffffffffff81111561067b57600080fd5b8301601f8101851361068c57600080fd5b803561069f61069a82610619565b6105e8565b8181528660208385010111156106b457600080fd5b816020840160208301376000602083830101528093505050509250929050565b6000602082840312156106e657600080fd5b5051919050565b805167ffffffffffffffff8116811461070557600080fd5b919050565b80516107058161056f565b8051801515811461070557600080fd5b600082601f83011261073657600080fd5b815161074461069a82610619565b8181526020858184870101111561075a57600080fd5b60005b8381101561077857858101820151838201830152810161075d565b838111156107895760008285850101525b509095945050505050565b6000602082840312156107a657600080fd5b815167ffffffffffffffff808211156107be57600080fd5b9083019061014082860312156107d357600080fd5b6107db6105be565b82518152602083015160208201526107f5604084016106ed565b6040820152610806606084016106ed565b6060820152610817608084016106ed565b608082015260a083015160a082015261083260c0840161070a565b60c082015261084360e0840161070a565b60e0820152610100610856818501610715565b90820152610120838101518381111561086e57600080fd5b61087a88828701610725565b91830191909152509594505050505056fea2646970667358221220f26924191d38d956a50bcaeee12142306e90f85cd3d61cd39455c606ecb4e13664736f6c634300080a0033",
  "linkReferences": {},
  "deployedLinkReferences": {}
}