{
  "_format": "hh-sol-artifact-1",
  "contractName": "QVMACI",
  "sourceName": "contracts/strategies/qv-maci/QVMACI.sol",
  "abi": [
    {
      "inputs": [
        {
          "internalType": "address",
          "name": "_allo",
          "type": "address"
        },
        {
          "internalType": "string",
          "name": "_name",
          "type": "string"
        },
        {
          "internalType": "address",
          "name": "_maciFactory",
          "type": "address"
        }
      ],
      "stateMutability": "nonpayable",
      "type": "constructor"
    },
    {
      "inputs": [],
      "name": "ALLOCATION_ACTIVE",
      "type": "error"
    },
    {
      "inputs": [],
      "name": "ALLOCATION_NOT_ACTIVE",
      "type": "error"
    },
    {
      "inputs": [],
      "name": "ALLOCATION_NOT_ENDED",
      "type": "error"
    },
    {
      "inputs": [],
      "name": "ALREADY_INITIALIZED",
      "type": "error"
    },
    {
      "inputs": [],
      "name": "AMOUNT_MISMATCH",
      "type": "error"
    },
    {
      "inputs": [],
      "name": "ANCHOR_ERROR",
      "type": "error"
    },
    {
      "inputs": [],
      "name": "ARRAY_MISMATCH",
      "type": "error"
    },
    {
      "inputs": [],
      "name": "EmptyTallyHash",
      "type": "error"
    },
    {
      "inputs": [],
      "name": "INVALID",
      "type": "error"
    },
    {
      "inputs": [],
      "name": "INVALID_ADDRESS",
      "type": "error"
    },
    {
      "inputs": [],
      "name": "INVALID_FEE",
      "type": "error"
    },
    {
      "inputs": [],
      "name": "INVALID_METADATA",
      "type": "error"
    },
    {
      "inputs": [],
      "name": "INVALID_REGISTRATION",
      "type": "error"
    },
    {
      "inputs": [],
      "name": "IS_APPROVED_STRATEGY",
      "type": "error"
    },
    {
      "inputs": [
        {
          "internalType": "uint256",
          "name": "total",
          "type": "uint256"
        },
        {
          "internalType": "uint256",
          "name": "actual",
          "type": "uint256"
        }
      ],
      "name": "IncompleteTallyResults",
      "type": "error"
    },
    {
      "inputs": [],
      "name": "IncorrectPerVOSpentVoiceCredits",
      "type": "error"
    },
    {
      "inputs": [],
      "name": "IncorrectSpentVoiceCredits",
      "type": "error"
    },
    {
      "inputs": [],
      "name": "IncorrectTallyResult",
      "type": "error"
    },
    {
      "inputs": [],
      "name": "MISMATCH",
      "type": "error"
    },
    {
      "inputs": [],
      "name": "MaciNotSet",
      "type": "error"
    },
    {
      "inputs": [],
      "name": "NONCE_NOT_AVAILABLE",
      "type": "error"
    },
    {
      "inputs": [],
      "name": "NON_ZERO_VALUE",
      "type": "error"
    },
    {
      "inputs": [],
      "name": "NOT_APPROVED_STRATEGY",
      "type": "error"
    },
    {
      "inputs": [],
      "name": "NOT_ENOUGH_FUNDS",
      "type": "error"
    },
    {
      "inputs": [],
      "name": "NOT_IMPLEMENTED",
      "type": "error"
    },
    {
      "inputs": [],
      "name": "NOT_INITIALIZED",
      "type": "error"
    },
    {
      "inputs": [],
      "name": "NOT_PENDING_OWNER",
      "type": "error"
    },
    {
      "inputs": [],
      "name": "NoVotes",
      "type": "error"
    },
    {
      "inputs": [],
      "name": "NotCoordinator",
      "type": "error"
    },
    {
      "inputs": [],
      "name": "OnlyMaciCanRegisterVoters",
      "type": "error"
    },
    {
      "inputs": [],
      "name": "POOL_ACTIVE",
      "type": "error"
    },
    {
      "inputs": [],
      "name": "POOL_INACTIVE",
      "type": "error"
    },
    {
      "inputs": [],
      "name": "RECIPIENT_ALREADY_ACCEPTED",
      "type": "error"
    },
    {
      "inputs": [
        {
          "internalType": "address",
          "name": "recipientId",
          "type": "address"
        }
      ],
      "name": "RECIPIENT_ERROR",
      "type": "error"
    },
    {
      "inputs": [],
      "name": "RECIPIENT_NOT_ACCEPTED",
      "type": "error"
    },
    {
      "inputs": [],
      "name": "REGISTRATION_ACTIVE",
      "type": "error"
    },
    {
      "inputs": [],
      "name": "REGISTRATION_NOT_ACTIVE",
      "type": "error"
    },
    {
      "inputs": [],
      "name": "RoundAlreadyFinalized",
      "type": "error"
    },
    {
      "inputs": [],
      "name": "TallyHashNotPublished",
      "type": "error"
    },
    {
      "inputs": [],
      "name": "UNAUTHORIZED",
      "type": "error"
    },
    {
      "inputs": [],
      "name": "UserNotVerified",
      "type": "error"
    },
    {
      "inputs": [],
      "name": "VoteResultsAlreadyVerified",
      "type": "error"
    },
    {
      "inputs": [],
      "name": "VotesNotTallied",
      "type": "error"
    },
    {
      "inputs": [],
      "name": "ZERO_ADDRESS",
      "type": "error"
    },
    {
      "anonymous": false,
      "inputs": [
        {
          "indexed": true,
          "internalType": "address",
          "name": "recipientId",
          "type": "address"
        },
        {
          "indexed": false,
          "internalType": "uint256",
          "name": "votes",
          "type": "uint256"
        },
        {
          "indexed": false,
          "internalType": "address",
          "name": "allocator",
          "type": "address"
        }
      ],
      "name": "Allocated",
      "type": "event"
    },
    {
      "anonymous": false,
      "inputs": [
        {
          "indexed": true,
          "internalType": "address",
          "name": "recipientId",
          "type": "address"
        },
        {
          "indexed": false,
          "internalType": "uint256",
          "name": "amount",
          "type": "uint256"
        },
        {
          "indexed": false,
          "internalType": "address",
          "name": "token",
          "type": "address"
        },
        {
          "indexed": false,
          "internalType": "address",
          "name": "sender",
          "type": "address"
        }
      ],
      "name": "Allocated",
      "type": "event"
    },
    {
      "anonymous": false,
      "inputs": [
        {
          "indexed": true,
          "internalType": "address",
          "name": "allocator",
          "type": "address"
        },
        {
          "indexed": false,
          "internalType": "address",
          "name": "sender",
          "type": "address"
        }
      ],
      "name": "AllocatorAdded",
      "type": "event"
    },
    {
      "anonymous": false,
      "inputs": [
        {
          "indexed": true,
          "internalType": "address",
          "name": "allocator",
          "type": "address"
        },
        {
          "indexed": false,
          "internalType": "address",
          "name": "sender",
          "type": "address"
        }
      ],
      "name": "AllocatorRemoved",
      "type": "event"
    },
    {
      "anonymous": false,
      "inputs": [
        {
          "indexed": true,
          "internalType": "address",
          "name": "recipientId",
          "type": "address"
        },
        {
          "indexed": false,
          "internalType": "address",
          "name": "recipientAddress",
          "type": "address"
        },
        {
          "indexed": false,
          "internalType": "uint256",
          "name": "amount",
          "type": "uint256"
        },
        {
          "indexed": false,
          "internalType": "address",
          "name": "sender",
          "type": "address"
        }
      ],
      "name": "Distributed",
      "type": "event"
    },
    {
      "anonymous": false,
      "inputs": [
        {
          "indexed": false,
          "internalType": "uint256",
          "name": "poolId",
          "type": "uint256"
        },
        {
          "indexed": false,
          "internalType": "bytes",
          "name": "data",
          "type": "bytes"
        }
      ],
      "name": "Initialized",
      "type": "event"
    },
    {
      "anonymous": false,
      "inputs": [
        {
          "indexed": false,
          "internalType": "address",
          "name": "maci",
          "type": "address"
        },
        {
          "indexed": false,
          "internalType": "address",
          "name": "poll",
          "type": "address"
        },
        {
          "indexed": false,
          "internalType": "address",
          "name": "messageProcessor",
          "type": "address"
        },
        {
          "indexed": false,
          "internalType": "address",
          "name": "tally",
          "type": "address"
        },
        {
          "indexed": false,
          "internalType": "address",
          "name": "subsidy",
          "type": "address"
        }
      ],
      "name": "MaciSet",
      "type": "event"
    },
    {
      "anonymous": false,
      "inputs": [
        {
          "indexed": false,
          "internalType": "bool",
          "name": "active",
          "type": "bool"
        }
      ],
      "name": "PoolActive",
      "type": "event"
    },
    {
      "anonymous": false,
      "inputs": [
        {
          "indexed": true,
          "internalType": "address",
          "name": "recipientId",
          "type": "address"
        },
        {
          "indexed": false,
          "internalType": "uint256",
          "name": "applicationId",
          "type": "uint256"
        },
        {
          "indexed": false,
          "internalType": "enum IStrategy.Status",
          "name": "status",
          "type": "uint8"
        },
        {
          "indexed": false,
          "internalType": "address",
          "name": "sender",
          "type": "address"
        }
      ],
      "name": "RecipientStatusUpdated",
      "type": "event"
    },
    {
      "anonymous": false,
      "inputs": [
        {
          "indexed": false,
          "internalType": "address",
          "name": "recipientId",
          "type": "address"
        },
        {
          "indexed": false,
          "internalType": "uint256",
          "name": "recipientIndex",
          "type": "uint256"
        }
      ],
      "name": "RecipientVotingOptionAdded",
      "type": "event"
    },
    {
      "anonymous": false,
      "inputs": [
        {
          "indexed": true,
          "internalType": "address",
          "name": "recipientId",
          "type": "address"
        },
        {
          "indexed": false,
          "internalType": "bytes",
          "name": "data",
          "type": "bytes"
        },
        {
          "indexed": false,
          "internalType": "address",
          "name": "sender",
          "type": "address"
        }
      ],
      "name": "Registered",
      "type": "event"
    },
    {
      "anonymous": false,
      "inputs": [
        {
          "indexed": true,
          "internalType": "address",
          "name": "recipientId",
          "type": "address"
        },
        {
          "indexed": false,
          "internalType": "uint256",
          "name": "applicationId",
          "type": "uint256"
        },
        {
          "indexed": false,
          "internalType": "enum IStrategy.Status",
          "name": "status",
          "type": "uint8"
        },
        {
          "indexed": false,
          "internalType": "address",
          "name": "sender",
          "type": "address"
        }
      ],
      "name": "Reviewed",
      "type": "event"
    },
    {
      "anonymous": false,
      "inputs": [
        {
          "indexed": false,
          "internalType": "string",
          "name": "tallyHash",
          "type": "string"
        }
      ],
      "name": "TallyPublished",
      "type": "event"
    },
    {
      "anonymous": false,
      "inputs": [
        {
          "indexed": true,
          "internalType": "uint256",
          "name": "voteOptionIndex",
          "type": "uint256"
        },
        {
          "indexed": false,
          "internalType": "uint256",
          "name": "tally",
          "type": "uint256"
        }
      ],
      "name": "TallyResultsAdded",
      "type": "event"
    },
    {
      "anonymous": false,
      "inputs": [
        {
          "indexed": false,
          "internalType": "uint64",
          "name": "registrationStartTime",
          "type": "uint64"
        },
        {
          "indexed": false,
          "internalType": "uint64",
          "name": "registrationEndTime",
          "type": "uint64"
        },
        {
          "indexed": false,
          "internalType": "uint64",
          "name": "allocationStartTime",
          "type": "uint64"
        },
        {
          "indexed": false,
          "internalType": "uint64",
          "name": "allocationEndTime",
          "type": "uint64"
        },
        {
          "indexed": false,
          "internalType": "address",
          "name": "sender",
          "type": "address"
        }
      ],
      "name": "TimestampsUpdated",
      "type": "event"
    },
    {
      "anonymous": false,
      "inputs": [
        {
          "indexed": true,
          "internalType": "address",
          "name": "recipientId",
          "type": "address"
        },
        {
          "indexed": false,
          "internalType": "uint256",
          "name": "applicationId",
          "type": "uint256"
        },
        {
          "indexed": false,
          "internalType": "bytes",
          "name": "data",
          "type": "bytes"
        },
        {
          "indexed": false,
          "internalType": "address",
          "name": "sender",
          "type": "address"
        },
        {
          "indexed": false,
          "internalType": "enum IStrategy.Status",
          "name": "status",
          "type": "uint8"
        }
      ],
      "name": "UpdatedRegistration",
      "type": "event"
    },
    {
      "inputs": [],
      "name": "MESSAGE_DATA_LENGTH",
      "outputs": [
        {
          "internalType": "uint8",
          "name": "",
          "type": "uint8"
        }
      ],
      "stateMutability": "view",
      "type": "function"
    },
    {
      "inputs": [],
      "name": "NATIVE",
      "outputs": [
        {
          "internalType": "address",
          "name": "",
          "type": "address"
        }
      ],
      "stateMutability": "view",
      "type": "function"
    },
    {
      "inputs": [],
      "name": "TREE_ARITY",
      "outputs": [
        {
          "internalType": "uint256",
          "name": "",
          "type": "uint256"
        }
      ],
      "stateMutability": "view",
      "type": "function"
    },
    {
      "inputs": [
        {
          "internalType": "uint256",
          "name": "_voteOptionIndex",
          "type": "uint256"
        },
        {
          "internalType": "uint256",
          "name": "_tallyResult",
          "type": "uint256"
        },
        {
          "internalType": "uint256[][]",
          "name": "_tallyResultProof",
          "type": "uint256[][]"
        },
        {
          "internalType": "uint256",
          "name": "_tallyResultSalt",
          "type": "uint256"
        },
        {
          "internalType": "uint256",
          "name": "_spentVoiceCreditsHash",
          "type": "uint256"
        },
        {
          "internalType": "uint256",
          "name": "_perVOSpentVoiceCreditsHash",
          "type": "uint256"
        }
      ],
      "name": "_addTallyResult",
      "outputs": [],
      "stateMutability": "nonpayable",
      "type": "function"
    },
    {
      "inputs": [],
      "name": "_maci",
      "outputs": [
        {
          "internalType": "address",
          "name": "",
          "type": "address"
        }
      ],
      "stateMutability": "view",
      "type": "function"
    },
    {
      "inputs": [],
      "name": "_pollContracts",
      "outputs": [
        {
          "internalType": "address",
          "name": "poll",
          "type": "address"
        },
        {
          "internalType": "address",
          "name": "messageProcessor",
          "type": "address"
        },
        {
          "internalType": "address",
          "name": "tally",
          "type": "address"
        },
        {
          "internalType": "address",
          "name": "subsidy",
          "type": "address"
        }
      ],
      "stateMutability": "view",
      "type": "function"
    },
    {
      "inputs": [
        {
          "internalType": "address",
          "name": "_allocator",
          "type": "address"
        }
      ],
      "name": "addAllocator",
      "outputs": [],
      "stateMutability": "nonpayable",
      "type": "function"
    },
    {
      "inputs": [
        {
          "internalType": "bytes",
          "name": "_data",
          "type": "bytes"
        },
        {
          "internalType": "address",
          "name": "_sender",
          "type": "address"
        }
      ],
      "name": "allocate",
      "outputs": [],
      "stateMutability": "payable",
      "type": "function"
    },
    {
      "inputs": [],
      "name": "allocationEndTime",
      "outputs": [
        {
          "internalType": "uint64",
          "name": "",
          "type": "uint64"
        }
      ],
      "stateMutability": "view",
      "type": "function"
    },
    {
      "inputs": [],
      "name": "allocationStartTime",
      "outputs": [
        {
          "internalType": "uint64",
          "name": "",
          "type": "uint64"
        }
      ],
      "stateMutability": "view",
      "type": "function"
    },
    {
      "inputs": [
        {
          "internalType": "address",
          "name": "",
          "type": "address"
        }
      ],
      "name": "allowedAllocators",
      "outputs": [
        {
          "internalType": "bool",
          "name": "",
          "type": "bool"
        }
      ],
      "stateMutability": "view",
      "type": "function"
    },
    {
      "inputs": [],
      "name": "coordinator",
      "outputs": [
        {
          "internalType": "address",
          "name": "",
          "type": "address"
        }
      ],
      "stateMutability": "view",
      "type": "function"
    },
    {
      "inputs": [],
      "name": "coordinatorPubKey",
      "outputs": [
        {
          "internalType": "uint256",
          "name": "x",
          "type": "uint256"
        },
        {
          "internalType": "uint256",
          "name": "y",
          "type": "uint256"
        }
      ],
      "stateMutability": "view",
      "type": "function"
    },
    {
      "inputs": [
        {
          "internalType": "address[]",
          "name": "_recipientIds",
          "type": "address[]"
        },
        {
          "internalType": "bytes",
          "name": "_data",
          "type": "bytes"
        },
        {
          "internalType": "address",
          "name": "_sender",
          "type": "address"
        }
      ],
      "name": "distribute",
      "outputs": [],
      "stateMutability": "nonpayable",
      "type": "function"
    },
    {
      "inputs": [],
      "name": "distributionStarted",
      "outputs": [
        {
          "internalType": "bool",
          "name": "",
          "type": "bool"
        }
      ],
      "stateMutability": "view",
      "type": "function"
    },
    {
      "inputs": [
        {
          "internalType": "uint256",
          "name": "_totalSpent",
          "type": "uint256"
        },
        {
          "internalType": "uint256",
          "name": "_totalSpentSalt",
          "type": "uint256"
        },
        {
          "internalType": "uint256",
          "name": "_newResultCommitment",
          "type": "uint256"
        },
        {
          "internalType": "uint256",
          "name": "_perVOSpentVoiceCreditsHash",
          "type": "uint256"
        }
      ],
      "name": "finalize",
      "outputs": [],
      "stateMutability": "nonpayable",
      "type": "function"
    },
    {
      "inputs": [],
      "name": "getAllo",
      "outputs": [
        {
          "internalType": "contract IAllo",
          "name": "",
          "type": "address"
        }
      ],
      "stateMutability": "view",
      "type": "function"
    },
    {
      "inputs": [
        {
          "internalType": "address[]",
          "name": "_recipientIds",
          "type": "address[]"
        },
        {
          "internalType": "bytes[]",
          "name": "_data",
          "type": "bytes[]"
        }
      ],
      "name": "getPayouts",
      "outputs": [
        {
          "components": [
            {
              "internalType": "address",
              "name": "recipientAddress",
              "type": "address"
            },
            {
              "internalType": "uint256",
              "name": "amount",
              "type": "uint256"
            }
          ],
          "internalType": "struct IStrategy.PayoutSummary[]",
          "name": "",
          "type": "tuple[]"
        }
      ],
      "stateMutability": "view",
      "type": "function"
    },
    {
      "inputs": [],
      "name": "getPoolAmount",
      "outputs": [
        {
          "internalType": "uint256",
          "name": "",
          "type": "uint256"
        }
      ],
      "stateMutability": "view",
      "type": "function"
    },
    {
      "inputs": [],
      "name": "getPoolId",
      "outputs": [
        {
          "internalType": "uint256",
          "name": "",
          "type": "uint256"
        }
      ],
      "stateMutability": "view",
      "type": "function"
    },
    {
      "inputs": [
        {
          "internalType": "address",
          "name": "_recipientId",
          "type": "address"
        }
      ],
      "name": "getRecipientStatus",
      "outputs": [
        {
          "internalType": "enum IStrategy.Status",
          "name": "",
          "type": "uint8"
        }
      ],
      "stateMutability": "view",
      "type": "function"
    },
    {
      "inputs": [],
      "name": "getStrategyId",
      "outputs": [
        {
          "internalType": "bytes32",
          "name": "",
          "type": "bytes32"
        }
      ],
      "stateMutability": "view",
      "type": "function"
    },
    {
      "inputs": [
        {
          "internalType": "address",
          "name": "",
          "type": "address"
        },
        {
          "internalType": "bytes",
          "name": "_data",
          "type": "bytes"
        }
      ],
      "name": "getVoiceCredits",
      "outputs": [
        {
          "internalType": "uint256",
          "name": "",
          "type": "uint256"
        }
      ],
      "stateMutability": "view",
      "type": "function"
    },
    {
      "inputs": [
        {
          "internalType": "uint256",
          "name": "_amount",
          "type": "uint256"
        }
      ],
      "name": "increasePoolAmount",
      "outputs": [],
      "stateMutability": "nonpayable",
      "type": "function"
    },
    {
      "inputs": [
        {
          "internalType": "uint256",
          "name": "_poolId",
          "type": "uint256"
        },
        {
          "internalType": "bytes",
          "name": "_data",
          "type": "bytes"
        }
      ],
      "name": "initialize",
      "outputs": [],
      "stateMutability": "nonpayable",
      "type": "function"
    },
    {
      "inputs": [],
      "name": "isFinalized",
      "outputs": [
        {
          "internalType": "bool",
          "name": "",
          "type": "bool"
        }
      ],
      "stateMutability": "view",
      "type": "function"
    },
    {
      "inputs": [],
      "name": "isPoolActive",
      "outputs": [
        {
          "internalType": "bool",
          "name": "",
          "type": "bool"
        }
      ],
      "stateMutability": "view",
      "type": "function"
    },
    {
      "inputs": [
        {
          "internalType": "address",
          "name": "_allocator",
          "type": "address"
        }
      ],
      "name": "isValidAllocator",
      "outputs": [
        {
          "internalType": "bool",
          "name": "",
          "type": "bool"
        }
      ],
      "stateMutability": "view",
      "type": "function"
    },
    {
      "inputs": [],
      "name": "maciFactory",
      "outputs": [
        {
          "internalType": "address",
          "name": "",
          "type": "address"
        }
      ],
      "stateMutability": "view",
      "type": "function"
    },
    {
      "inputs": [],
      "name": "maxVoiceCreditsPerAllocator",
      "outputs": [
        {
          "internalType": "uint256",
          "name": "",
          "type": "uint256"
        }
      ],
      "stateMutability": "view",
      "type": "function"
    },
    {
      "inputs": [],
      "name": "metadataRequired",
      "outputs": [
        {
          "internalType": "bool",
          "name": "",
          "type": "bool"
        }
      ],
      "stateMutability": "view",
      "type": "function"
    },
    {
      "inputs": [
        {
          "internalType": "bytes[]",
          "name": "data",
          "type": "bytes[]"
        }
      ],
      "name": "multicall",
      "outputs": [
        {
          "internalType": "bytes[]",
          "name": "results",
          "type": "bytes[]"
        }
      ],
      "stateMutability": "nonpayable",
      "type": "function"
    },
    {
      "inputs": [
        {
          "internalType": "address",
          "name": "",
          "type": "address"
        }
      ],
      "name": "paidOut",
      "outputs": [
        {
          "internalType": "bool",
          "name": "",
          "type": "bool"
        }
      ],
      "stateMutability": "view",
      "type": "function"
    },
    {
      "inputs": [
        {
          "internalType": "string",
          "name": "_tallyHash",
          "type": "string"
        }
      ],
      "name": "publishTallyHash",
      "outputs": [],
      "stateMutability": "nonpayable",
      "type": "function"
    },
    {
      "inputs": [
        {
          "internalType": "address",
          "name": "",
          "type": "address"
        }
      ],
      "name": "recipientIdToIndex",
      "outputs": [
        {
          "internalType": "uint256",
          "name": "",
          "type": "uint256"
        }
      ],
      "stateMutability": "view",
      "type": "function"
    },
    {
      "inputs": [
        {
          "internalType": "uint256",
          "name": "",
          "type": "uint256"
        }
      ],
      "name": "recipientIndexToAddress",
      "outputs": [
        {
          "internalType": "address",
          "name": "",
          "type": "address"
        }
      ],
      "stateMutability": "view",
      "type": "function"
    },
    {
      "inputs": [
        {
          "internalType": "address",
          "name": "",
          "type": "address"
        }
      ],
      "name": "recipients",
      "outputs": [
        {
          "internalType": "uint256",
          "name": "totalVotesReceived",
          "type": "uint256"
        },
        {
          "internalType": "bool",
          "name": "useRegistryAnchor",
          "type": "bool"
        },
        {
          "internalType": "address",
          "name": "recipientAddress",
          "type": "address"
        },
        {
          "components": [
            {
              "internalType": "uint256",
              "name": "protocol",
              "type": "uint256"
            },
            {
              "internalType": "string",
              "name": "pointer",
              "type": "string"
            }
          ],
          "internalType": "struct Metadata",
          "name": "metadata",
          "type": "tuple"
        },
        {
          "internalType": "enum IStrategy.Status",
          "name": "recipientStatus",
          "type": "uint8"
        },
        {
          "internalType": "bool",
          "name": "tallyVerified",
          "type": "bool"
        },
        {
          "internalType": "uint256",
          "name": "applicationId",
          "type": "uint256"
        }
      ],
      "stateMutability": "view",
      "type": "function"
    },
    {
      "inputs": [
        {
          "internalType": "address",
          "name": "",
          "type": "address"
        },
        {
          "internalType": "bytes",
          "name": "_data",
          "type": "bytes"
        }
      ],
      "name": "register",
      "outputs": [],
      "stateMutability": "view",
      "type": "function"
    },
    {
      "inputs": [
        {
          "internalType": "bytes",
          "name": "_data",
          "type": "bytes"
        },
        {
          "internalType": "address",
          "name": "_sender",
          "type": "address"
        }
      ],
      "name": "registerRecipient",
      "outputs": [
        {
          "internalType": "address",
          "name": "recipientId",
          "type": "address"
        }
      ],
      "stateMutability": "payable",
      "type": "function"
    },
    {
      "inputs": [],
      "name": "registrationEndTime",
      "outputs": [
        {
          "internalType": "uint64",
          "name": "",
          "type": "uint64"
        }
      ],
      "stateMutability": "view",
      "type": "function"
    },
    {
      "inputs": [],
      "name": "registrationStartTime",
      "outputs": [
        {
          "internalType": "uint64",
          "name": "",
          "type": "uint64"
        }
      ],
      "stateMutability": "view",
      "type": "function"
    },
    {
      "inputs": [],
      "name": "registryGating",
      "outputs": [
        {
          "internalType": "bool",
          "name": "",
          "type": "bool"
        }
      ],
      "stateMutability": "view",
      "type": "function"
    },
    {
      "inputs": [
        {
          "internalType": "address",
          "name": "_allocator",
          "type": "address"
        }
      ],
      "name": "removeAllocator",
      "outputs": [],
      "stateMutability": "nonpayable",
      "type": "function"
    },
    {
      "inputs": [
        {
          "internalType": "address[]",
          "name": "_recipientIds",
          "type": "address[]"
        },
        {
          "internalType": "enum IStrategy.Status[]",
          "name": "_recipientStatuses",
          "type": "uint8[]"
        }
      ],
      "name": "reviewRecipients",
      "outputs": [],
      "stateMutability": "nonpayable",
      "type": "function"
    },
    {
      "inputs": [],
      "name": "reviewThreshold",
      "outputs": [
        {
          "internalType": "uint256",
          "name": "",
          "type": "uint256"
        }
      ],
      "stateMutability": "view",
      "type": "function"
    },
    {
      "inputs": [
        {
          "internalType": "address",
          "name": "",
          "type": "address"
        },
        {
          "internalType": "uint256",
          "name": "",
          "type": "uint256"
        },
        {
          "internalType": "address",
          "name": "",
          "type": "address"
        }
      ],
      "name": "reviewedByManager",
      "outputs": [
        {
          "internalType": "enum IStrategy.Status",
          "name": "",
          "type": "uint8"
        }
      ],
      "stateMutability": "view",
      "type": "function"
    },
    {
      "inputs": [
        {
          "internalType": "address",
          "name": "",
          "type": "address"
        },
        {
          "internalType": "uint256",
          "name": "",
          "type": "uint256"
        },
        {
          "internalType": "enum IStrategy.Status",
          "name": "",
          "type": "uint8"
        }
      ],
      "name": "reviewsByStatus",
      "outputs": [
        {
          "internalType": "uint256",
          "name": "",
          "type": "uint256"
        }
      ],
      "stateMutability": "view",
      "type": "function"
    },
    {
      "inputs": [
        {
          "components": [
            {
              "internalType": "uint256",
              "name": "x",
              "type": "uint256"
            },
            {
              "internalType": "uint256",
              "name": "y",
              "type": "uint256"
            }
          ],
          "internalType": "struct DomainObjs.PubKey",
          "name": "pubKey",
          "type": "tuple"
        }
      ],
      "name": "signup",
      "outputs": [],
      "stateMutability": "nonpayable",
      "type": "function"
    },
    {
      "inputs": [],
      "name": "tallyHash",
      "outputs": [
        {
          "internalType": "string",
          "name": "",
          "type": "string"
        }
      ],
      "stateMutability": "view",
      "type": "function"
    },
    {
      "inputs": [],
      "name": "totalRecipientVotes",
      "outputs": [
        {
          "internalType": "uint256",
          "name": "",
          "type": "uint256"
        }
      ],
      "stateMutability": "view",
      "type": "function"
    },
    {
      "inputs": [],
      "name": "totalTallyResults",
      "outputs": [
        {
          "internalType": "uint256",
          "name": "",
          "type": "uint256"
        }
      ],
      "stateMutability": "view",
      "type": "function"
    },
    {
      "inputs": [
        {
          "internalType": "address",
          "name": "_token",
          "type": "address"
        }
      ],
      "name": "withdraw",
      "outputs": [],
      "stateMutability": "nonpayable",
      "type": "function"
    },
    {
      "stateMutability": "payable",
      "type": "receive"
    }
  ],
  "bytecode": "0x60c06040523480156200001157600080fd5b5060405162004ce238038062004ce28339810160408190526200003491620000fe565b6001600160a01b03831660805260405183908390829082906200005c908290602001620001de565b60408051808303601f19018152919052805160209091012060a0525050601180546001600160a01b0319166001600160a01b039490941693909317909255506200021392505050565b80516001600160a01b0381168114620000bd57600080fd5b919050565b634e487b7160e01b600052604160045260246000fd5b60005b83811015620000f5578181015183820152602001620000db565b50506000910152565b6000806000606084860312156200011457600080fd5b6200011f84620000a5565b60208501519093506001600160401b03808211156200013d57600080fd5b818601915086601f8301126200015257600080fd5b815181811115620001675762000167620000c2565b604051601f8201601f19908116603f01168101908382118183101715620001925762000192620000c2565b81604052828152896020848701011115620001ac57600080fd5b620001bf836020830160208801620000d8565b8096505050505050620001d560408501620000a5565b90509250925092565b6020815260008251806020840152620001ff816040850160208701620000d8565b601f01601f19169190910160400192915050565b60805160a051614a866200025c60003960006105540152600081816103a201528181611c9c01528181611d2f01528181611f020152818161288d0152612f8d0152614a866000f3fe6080604052600436106103035760003560e01c80637c1887dd11610190578063cf96453b116100dc578063dff7d2c711610095578063edd146cc1161006f578063edd146cc14610a13578063ef2920fc14610a33578063f5b0dfb714610a46578063fccf97eb14610a6657600080fd5b8063dff7d2c714610999578063eb11af93146109c0578063eb820312146109e057600080fd5b8063cf96453b146108af578063d2e17f59146108fd578063d46a176f14610924578063d621a99a14610944578063d754d32614610964578063df868ed31461098457600080fd5b8063a0cf0aea11610149578063ac9650d811610123578063ac9650d814610816578063b2b878d014610843578063b36543a914610870578063cb0e85a61461089057600080fd5b8063a0cf0aea146107b4578063a647d23e146107dc578063aa041df1146107f657600080fd5b80637c1887dd146106ca5780637f8359831461070857806381f03fcb1461072857806382c2e0fb146107585780638d4e40831461077a5780639af5c09d1461079457600080fd5b806341f441251161024f5780634d31d0871161020857806357825849116101e25780635782584914610657578063590107011461066d578063683f3dc314610683578063792e17a6146106aa57600080fd5b80634d31d087146105f757806351cff8d91461061757806352abcbcf1461063757600080fd5b806341f441251461052557806342fda9c7146105455780634533d678146105785780634a4f8e04146105b75780634ab4ba42146105cd5780634b34e021146105e257600080fd5b806321755088116102bc5780632bbe0cae116102965780632bbe0cae146104a057806331e766a5146104b357806338fff2d0146104e35780633c2dedb0146104f857600080fd5b8063217550881461042057806324b8fbf614610450578063259d6dde1461047057600080fd5b806307fca3811461030f5780630a009097146103315780630a6f0ee91461037357806315cc481e1461039357806317bf5a5c146103c65780631b99d669146103fc57600080fd5b3661030a57005b600080fd5b34801561031b57600080fd5b5061032f61032a3660046132bb565b610acc565b005b34801561033d57600080fd5b506017546103569061010090046001600160a01b031681565b6040516001600160a01b0390911681526020015b60405180910390f35b34801561037f57600080fd5b5061032f61038e3660046134bd565b610b2f565b34801561039f57600080fd5b507f0000000000000000000000000000000000000000000000000000000000000000610356565b3480156103d257600080fd5b506103566103e1366004613534565b600f602052600090815260409020546001600160a01b031681565b34801561040857600080fd5b50610412601b5481565b60405190815260200161036a565b34801561042c57600080fd5b506006546104409062010000900460ff1681565b604051901515815260200161036a565b34801561045c57600080fd5b5061032f61046b36600461354d565b610b4f565b34801561047c57600080fd5b5061044061048b3660046132bb565b60086020526000908152604090205460ff1681565b6103566104ae36600461359c565b610bdb565b3480156104bf57600080fd5b506018546019546104ce919082565b6040805192835260208301919091520161036a565b3480156104ef57600080fd5b50600154610412565b34801561050457600080fd5b506104126105133660046132bb565b60106020526000908152604090205481565b34801561053157600080fd5b5061032f6105403660046132bb565b610c00565b34801561055157600080fd5b507f0000000000000000000000000000000000000000000000000000000000000000610412565b34801561058457600080fd5b5060055461059f90600160c01b90046001600160401b031681565b6040516001600160401b03909116815260200161036a565b3480156105c357600080fd5b5061041260075481565b3480156105d957600080fd5b50600254610412565b3480156105ee57600080fd5b50610412600581565b34801561060357600080fd5b506104406106123660046132bb565b610c5e565b34801561062357600080fd5b5061032f6106323660046132bb565b610c7f565b34801561064357600080fd5b5061032f6106523660046135ed565b610cea565b34801561066357600080fd5b5061041260045481565b34801561067957600080fd5b5061041260035481565b34801561068f57600080fd5b50610698600a81565b60405160ff909116815260200161036a565b3480156106b657600080fd5b50601154610356906001600160a01b031681565b3480156106d657600080fd5b506104126106e5366004613633565b600d60209081526000938452604080852082529284528284209052825290205481565b34801561071457600080fd5b5061032f6107233660046136bc565b611044565b34801561073457600080fd5b506104406107433660046132bb565b600c6020526000908152604090205460ff1681565b34801561076457600080fd5b5061076d61143b565b60405161036a9190613777565b34801561078657600080fd5b506017546104409060ff1681565b3480156107a057600080fd5b5060055461059f906001600160401b031681565b3480156107c057600080fd5b5061035673eeeeeeeeeeeeeeeeeeeeeeeeeeeeeeeeeeeeeeee81565b3480156107e857600080fd5b506006546104409060ff1681565b34801561080257600080fd5b50601254610356906001600160a01b031681565b34801561082257600080fd5b5061083661083136600461378a565b6114c9565b60405161036a91906137cb565b34801561084f57600080fd5b5061086361085e36600461382d565b6115bd565b60405161036a9190613901565b34801561087c57600080fd5b5061041261088b36600461354d565b6116bb565b34801561089c57600080fd5b5060065461044090610100900460ff1681565b3480156108bb57600080fd5b506108f06108ca366004613959565b600e60209081526000938452604080852082529284528284209052825290205460ff1681565b60405161036a91906139c8565b34801561090957600080fd5b5060055461059f90600160801b90046001600160401b031681565b34801561093057600080fd5b5061032f61093f3660046139d6565b61170f565b34801561095057600080fd5b5061032f61095f3660046139e8565b61180c565b34801561097057600080fd5b5061032f61097f366004613b2d565b6119c6565b34801561099057600080fd5b50610440611a8f565b3480156109a557600080fd5b5060055461059f90600160401b90046001600160401b031681565b3480156109cc57600080fd5b506108f06109db3660046132bb565b611a9e565b3480156109ec57600080fd5b50610a006109fb3660046132bb565b611ac2565b60405161036a9796959493929190613b9e565b348015610a1f57600080fd5b5061032f610a2e366004613c07565b611bb9565b61032f610a4136600461359c565b611c21565b348015610a5257600080fd5b5061032f610a61366004613534565b611c3f565b348015610a7257600080fd5b50601354601454601554601654610a99936001600160a01b03908116938116928116911684565b604080516001600160a01b039586168152938516602085015291841691830191909152909116606082015260800161036a565b33610ad681611c72565b6001600160a01b038216600081815260086020908152604091829020805460ff1916905590513381527f4ddda4f889f9f60f81c0cccbc54ac7d1eb39b079ab7f29c2a1ceda4e0187085f91015b60405180910390a25050565b610b37611d24565b610b3f611d6f565b610b4a838383611d92565b505050565b6012546001600160a01b03163314610b795760405162110daf60e41b815260040160405180910390fd5b600081806020019051810190610b8f9190613c37565b90506000610bb5826001600160a01b031660009081526008602052604090205460ff1690565b905080610bd557604051637d93d32b60e01b815260040160405180910390fd5b50505050565b6000610be5611d24565b610bed611d6f565b610bf78383612053565b90505b92915050565b33610c0a81611c72565b6001600160a01b038216600081815260086020908152604091829020805460ff1916600117905590513381527fc5137efba0dae412f1520f1f5633a45f7831a93f83d0db6c31d7fc2a877b88879101610b23565b6001600160a01b03811660009081526008602052604081205460ff16610bfa565b33610c8981611c72565b600554610ca990600160c01b90046001600160401b031662278d00613c6a565b6001600160401b03164211610cd157604051637fcce2a960e01b815260040160405180910390fd5b6000610cdd833061237d565b9050610b4a8333836123c6565b33610cf481611c72565b610cfc612400565b600080610d196013546015546001600160a01b0391821692911690565b601754919350915060ff1615610d4257604051630653ad9b60e31b815260040160405180910390fd5b6012546001600160a01b0316610d6b5760405163ba487f8360e01b815260040160405180910390fd5b600080836001600160a01b0316634909229f6040518163ffffffff1660e01b81526004016040805180830381865afa158015610dab573d6000803e3d6000fd5b505050506040513d601f19601f82011682018060405250810190610dcf9190613c8a565b90925090506000610de08342613cae565b9050818111610e0257604051634543ced160e11b815260040160405180910390fd5b836001600160a01b031663e3ff76066040518163ffffffff1660e01b8152600401602060405180830381865afa158015610e40573d6000803e3d6000fd5b505050506040513d601f19601f82011682018060405250810190610e649190613cd1565b610e8157604051633e95b0b360e01b815260040160405180910390fd5b601a8054610e8e90613cec565b9050600003610eb05760405163b5804a8960e01b815260040160405180910390fd5b6000856001600160a01b031663ac98e5df6040518163ffffffff1660e01b8152600401608060405180830381865afa158015610ef0573d6000803e3d6000fd5b505050506040513d601f19601f82011682018060405250810190610f149190613d31565b935050505060008160ff166005610f2b9190613e69565b905080601b5414610f6657601b54604051638450532f60e01b8152610f5d918391600401918252602082015260400190565b60405180910390fd5b8b600003610f8757604051630198e16360e41b815260040160405180910390fd5b6040516310bc5f5160e01b8152600481018d9052602481018c9052604481018b9052606481018a90526000906001600160a01b038816906310bc5f5190608401602060405180830381865afa158015610fe4573d6000803e3d6000fd5b505050506040513d601f19601f820116820180604052508101906110089190613cd1565b9050806110285760405163e5d02d8b60e01b815260040160405180910390fd5b50506017805460ff191660011790555050505050505050505050565b3361104e81611c72565b611056612432565b8382811461107757604051637fcce2a960e01b815260040160405180910390fd5b6000816001600160401b03811115611091576110916132d8565b6040519080825280602002602001820160405280156110ba578160200160208202803683370190505b50905060005b828110156114315760008686838181106110dc576110dc613e75565b90506020020160208101906110f19190613e8b565b905080600681111561110557611105613990565b83838151811061111757611117613e75565b602002602001019060ff16908160ff1681525050600089898481811061113f5761113f613e75565b905060200201602081019061115491906132bb565b6001600160a01b0381166000908152600b602052604081206005810154929350919084600681111561118857611188613990565b14806111a5575060048460068111156111a3576111a3613990565b145b156111ce5760405163f4a513b960e01b81526001600160a01b0384166004820152602401610f5d565b6001600160a01b0383166000908152600e60209081526040808320848452825280832033845290915281205460ff16600681111561120e5761120e613990565b11156112385760405163f4a513b960e01b81526001600160a01b0384166004820152602401610f5d565b6001600160a01b0383166000908152600e6020908152604080832084845282528083203384529091529020805485919060ff1916600183600681111561128057611280613990565b02179055506001600160a01b0383166000908152600d602090815260408083208484529091528120908560068111156112bb576112bb613990565b60068111156112cc576112cc613990565b815260200190815260200160002060008154809291906112eb90613ea6565b90915550506004546001600160a01b0384166000908152600d6020908152604080832085845290915281209086600681111561132957611329613990565b600681111561133a5761133a613990565b815260200190815260200160002054106113dd5760048201805485919060ff1916600183600681111561136f5761136f613990565b0217905550600284600681111561138857611388613990565b036113965761139683612464565b826001600160a01b03167f8d3031e5c1c3d32d10a32b857e83ec347f244057dc2dfaf266600cdc7f97c273828660006040516113d493929190613ebf565b60405180910390a25b826001600160a01b03167f296facfa5767c7b9c26d407470403f9cd96181a04e27329e4d006a59b458c6b382863360405161141a93929190613ebf565b60405180910390a2846001019450505050506110c0565b5050505050505050565b601a805461144890613cec565b80601f016020809104026020016040519081016040528092919081815260200182805461147490613cec565b80156114c15780601f10611496576101008083540402835291602001916114c1565b820191906000526020600020905b8154815290600101906020018083116114a457829003601f168201915b505050505081565b6060816001600160401b038111156114e3576114e36132d8565b60405190808252806020026020018201604052801561151657816020015b60608152602001906001900390816115015790505b50905060005b828110156115b6576115863085858481811061153a5761153a613e75565b905060200281019061154c9190613eec565b8080601f0160208091040260200160405190810160405280939291908181526020018383808284376000920191909152506124eb92505050565b82828151811061159857611598613e75565b602002602001018190525080806115ae90613ea6565b91505061151c565b5092915050565b815181516060919081146115e457604051633da4c02b60e11b815260040160405180910390fd5b6000816001600160401b038111156115fe576115fe6132d8565b60405190808252806020026020018201604052801561164357816020015b604080518082019091526000808252602082015281526020019060019003908161161c5790505b50905060005b828110156116b25761168d86828151811061166657611666613e75565b602002602001015186838151811061168057611680613e75565b6020026020010151612510565b82828151811061169f5761169f613e75565b6020908102919091010152600101611649565b50949350505050565b600080828060200190518101906116d29190613c37565b90506116f6816001600160a01b031660009081526008602052604090205460ff1690565b611704576000915050610bfa565b505060075492915050565b6012546001600160a01b03166117385760405163ba487f8360e01b815260040160405180910390fd5b60175460ff161561175c57604051630653ad9b60e31b815260040160405180910390fd5b600754604080513360208201529081019190915260009060600160408051601f1981840301815282825233602084015292506000910160408051601f19818403018152908290526012546319b2090560e11b83529092506001600160a01b031690633364120a906117d590869086908690600401613f32565b600060405180830381600087803b1580156117ef57600080fd5b505af1158015611803573d6000803e3d6000fd5b50505050505050565b60175461010090046001600160a01b0316331461183c57604051634f6429f360e11b815260040160405180910390fd5b6000806118596013546015546001600160a01b0391821692911690565b915091506000826001600160a01b031663ac98e5df6040518163ffffffff1660e01b8152600401608060405180830381865afa15801561189d573d6000803e3d6000fd5b505050506040513d601f19601f820116820180604052508101906118c19190613d31565b93505050506000826001600160a01b031663a21fb5118b8b8b8b878c8c6040518863ffffffff1660e01b81526004016119009796959493929190613f72565b602060405180830381865afa15801561191d573d6000803e3d6000fd5b505050506040513d601f19601f820116820180604052508101906119419190613cd1565b905080611961576040516322b358b360e11b815260040160405180910390fd5b61196b8a8a6126e2565b601b805490600061197b83613ea6565b9190505550897fcc3ebaeb86d31a2bd5e5cbf277392c258fe458af2031a9e0e377f5611aeeb9cf8a6040516119b291815260200190565b60405180910390a250505050505050505050565b60175461010090046001600160a01b031633146119f657604051634f6429f360e11b815260040160405180910390fd5b6119fe612400565b60175460ff1615611a2257604051630653ad9b60e31b815260040160405180910390fd5b6000819003611a445760405163e1f067e760e01b815260040160405180910390fd5b601a611a51828483614071565b507f25889b4220280b76437c086efe0bbecb5315f90890d209d027b11cceb7bdd3fb8282604051611a83929190614131565b60405180910390a15050565b6000611a99612823565b905090565b6001600160a01b0381166000908152600b602052604081206004015460ff16610bfa565b600b602090815260009182526040918290208054600182015484518086019095526002830180548652600384018054939660ff8416966101009094046001600160a01b03169594909384019190611b1890613cec565b80601f0160208091040260200160405190810160405280929190818152602001828054611b4490613cec565b8015611b915780601f10611b6657610100808354040283529160200191611b91565b820191906000526020600020905b815481529060010190602001808311611b7457829003601f168201915b505050919092525050506004820154600590920154909160ff80821692610100909204169087565b611bc1611d24565b600081806020019051810190611bd79190614228565b9050611be38382612866565b7f91efa3d50feccde0d0d202f8ae5c41ca0b2be614cebcb2bd2f4b019396e6568a8383604051611c149291906142ef565b60405180910390a1505050565b611c29611d24565b611c31611d6f565b611c3b8282612b3d565b5050565b611c47611d24565b611c5081612c3e565b8060026000828254611c629190614308565b90915550611c6f90508181565b50565b6001546040516329e40d4b60e01b815260048101919091526001600160a01b0382811660248301527f000000000000000000000000000000000000000000000000000000000000000016906329e40d4b90604401602060405180830381865afa158015611ce3573d6000803e3d6000fd5b505050506040513d601f19601f82011682018060405250810190611d079190613cd1565b611c6f5760405163075fd2b160e01b815260040160405180910390fd5b336001600160a01b037f00000000000000000000000000000000000000000000000000000000000000001614611d6d5760405163075fd2b160e01b815260040160405180910390fd5b565b600154600003611d6d57604051630f68fe6360e21b815260040160405180910390fd5b80611d9c81611c72565b611da4612400565b83516000816001600160401b03811115611dc057611dc06132d8565b604051908082528060200260200182016040528015611de9578160200160208202803683370190505b50905060005b82811015612028576000878281518110611e0b57611e0b613e75565b602002602001015190506000600b6000836001600160a01b03166001600160a01b0316815260200190815260200160002090506000611e598360405180602001604052806000815250612510565b905060008160200151905080868681518110611e7757611e77613e75565b6020908102919091018101919091526001600160a01b0385166000908152600c909152604090205460ff1680611eb35750611eb184612c68565b155b80611ebc575080155b15611ee55760405163f4a513b960e01b81526001600160a01b0385166004820152602401610f5d565b60015460405163068bcd8d60e01b81526000916001600160a01b037f0000000000000000000000000000000000000000000000000000000000000000169163068bcd8d91611f399160040190815260200190565b600060405180830381865afa158015611f56573d6000803e3d6000fd5b505050506040513d6000823e601f3d908101601f19168201604052611f7e91908101906143b1565b60408101516001860154919250611fa39161010090046001600160a01b0316846123c6565b6001600160a01b038581166000818152600c6020908152604091829020805460ff19166001908117909155880154825161010090910485168152908101869052928d1690830152907fb5b51454adfa840bd593658325a60a50b0216f12eb5d2937efe6cea935675b7d9060600160405180910390a28560010195505050505050611def565b5060065462010000900460ff1661204b576006805462ff00001916620100001790555b505050505050565b600061205d612ca3565b600080600061207f604051806040016040528060008152602001606081525090565b60065460ff16156120d1578680602001905181019061209e9190614464565b919650945090506120af8587612ced565b6120cc5760405163075fd2b160e01b815260040160405180910390fd5b61213b565b868060200190518101906120e59190614464565b91955093506001600160a01b038416151592509050816121055785612107565b825b945081801561211d575061211b8587612ced565b155b1561213b5760405163075fd2b160e01b815260040160405180910390fd5b600654610100900460ff16801561215e5750602081015151158061215e57508051155b1561217c5760405163c19e07c560e01b815260040160405180910390fd5b6001600160a01b0384166121ae5760405163f4a513b960e01b81526001600160a01b0386166004820152602401610f5d565b6001600160a01b038086166000908152600b6020908152604090912060018101805493881661010002610100600160a81b03199094169390931790925582516002830190815590830151839190600384019061220a90826144c7565b505060065460ff16905061221e5782612221565b60015b60018201805460ff191691151591909117905560058101805460009061224690613ea6565b90915550600481015460ff16600081600681111561226657612266613990565b036122c45760048201805460ff191660011790556040516001600160a01b038816907fa197306e3dd5494a61a695381aa809a53b8e377a685e84e404a85d5a8da6cc62906122b7908c908c90614586565b60405180910390a2612371565b60038160068111156122d8576122d8613990565b036122f2576004828101805460ff1916909117905561231b565b600281600681111561230657612306613990565b0361231b5760048201805460ff191660011790555b600582015460048301546040516001600160a01b038a16927f63220f42dd2285448c45b5c8b4140e605629fd1394a1b2431a0ab0efd904e14a92612368928e918e9160ff909116906145b0565b60405180910390a25b50505050505092915050565b600073eeeeeeeeeeeeeeeeeeeeeeeeeeeeeeeeeeeeeeed196001600160a01b038416016123b557506001600160a01b03811631610bfa565b6123bf8383612de5565b9050610bfa565b73eeeeeeeeeeeeeeeeeeeeeeeeeeeeeeeeeeeeeeed196001600160a01b038416016123f557610b4a8282612e11565b610b4a838383612e2d565b600554600160c01b90046001600160401b03164211611d6d57604051634543ced160e11b815260040160405180910390fd5b600554600160c01b90046001600160401b0316421115611d6d5760405162b828c960e81b815260040160405180910390fd5b612472600a80546001019055565b600061247d600a5490565b6001600160a01b0383166000818152601060209081526040808320859055848352600f82529182902080546001600160a01b03191684179055815192835282018390529192507f80ab3c6c66ba47eb0427e8e53669e9534973400a90c44a668f7f990ccdf3989a9101611a83565b6060610bf78383604051806060016040528060278152602001614a2a60279139612e73565b604080518082018252600080825260208083018290526001600160a01b038681168352600b8252848320855160e08101875281548152600182015460ff81161515828601526101009004909216828701528551808701909652600281018054875260038201805496979596939592946060870194908401919061259290613cec565b80601f01602080910402602001604051908101604052809291908181526020018280546125be90613cec565b801561260b5780601f106125e05761010080835404028352916020019161260b565b820191906000526020600020905b8154815290600101906020018083116125ee57829003601f168201915b505050919092525050508152600482015460209091019060ff16600681111561263657612636613990565b600681111561264757612647613990565b8152600482015460ff610100909104811615156020808401919091526005909301546040928301526001600160a01b0388166000908152600c9093529082205492935090911615801561269b575060035415155b156126bf5760035482516002546126b291906145f0565b6126bc9190614607565b90505b6040805180820182529201516001600160a01b0316825260208201529392505050565b6000828152600f60209081526040808320546001600160a01b0316808452600b9092529091206004810154610100900460ff16156127335760405163f07fd83360e01b815260040160405180910390fd5b60048101805461ff00191661010017905561274d82612c68565b6127755760405163f4a513b960e01b81526001600160a01b0383166004820152602401610f5d565b8260000361279657604051637fcce2a960e01b815260040160405180910390fd5b60006127b26127ad85670de0b6b3a76400006145f0565b612eed565b905080600360008282546127c69190614308565b9091555050808255601754604080518381526101009092046001600160a01b0390811660208401528516917fe19137169fc4bceb2391a0921a61084851c12884df4897f569ec45a4ee46b7e3910160405180910390a25050505050565b600554600090426001600160401b03909116118015906128555750600554600160401b90046001600160401b03164211155b156128605750600190565b50600090565b612874828260000151612f46565b60405163068bcd8d60e01b8152600481018390526000907f00000000000000000000000000000000000000000000000000000000000000006001600160a01b03169063068bcd8d90602401600060405180830381865afa1580156128dc573d6000803e3d6000fd5b505050506040513d6000823e601f3d908101601f1916820160405261290491908101906143b1565b60209081015183820151805160178054610100600160a81b0319166101006001600160a01b03938416810291909117918290558386015180516018559095015160195560409283015192516305f6a09160e41b815282851660048201819052602482015260006044820152949004811660648501529193501690635f6a0910906084016020604051808303816000875af11580156129a6573d6000803e3d6000fd5b505050506040513d601f19601f820116820180604052508101906129ca9190613c37565b601280546001600160a01b0319166001600160a01b0392909216919091179055815160c00151600090612a079042906001600160401b0316613cae565b6012546020808601510151604051630532b8b160e01b81529293506001600160a01b0390911691630532b8b191612a4391859190600401614629565b6080604051808303816000875af1158015612a62573d6000803e3d6000fd5b505050506040513d601f19601f82011682018060405250810190612a869190614647565b8051601380546001600160a01b039283166001600160a01b03199182168117909255602080850151601480549186169184168217905560408087015160158054918816918616821790556060978801516016805491891691909616811790955560125482519716875292860194909452928401929092529282015260808101919091527f17d166d696bda56f9d9826ecc3ec4bf2c29b98e7f76d3953cf833b877171c3179060a0015b60405180910390a150505050565b60135482516001600160a01b0390911690600090612b64908501602090810190860161472f565b60208101515181515191925014612b8e57604051637fcce2a960e01b815260040160405180910390fd5b8051602082015160405163394b557560e11b81526001600160a01b03851692637296aaea92612bbf926004016148ca565b600060405180830381600087803b158015612bd957600080fd5b505af1158015612bed573d6000803e3d6000fd5b5050825151604080519182526001600160a01b0387166020830152600093507fe19137169fc4bceb2391a0921a61084851c12884df4897f569ec45a4ee46b7e392500160405180910390a250505050565b60065462010000900460ff1615611c6f57604051637fcce2a960e01b815260040160405180910390fd5b600060026001600160a01b0383166000908152600b602052604090206004015460ff166006811115612c9c57612c9c613990565b1492915050565b600554426001600160401b039091161180612ccf5750600554600160401b90046001600160401b031642115b15611d6d57604051635b04f6ad60e11b815260040160405180910390fd5b60095460405163dd93da4360e01b81526001600160a01b038481166004830152600092839291169063dd93da4390602401600060405180830381865afa158015612d3b573d6000803e3d6000fd5b505050506040513d6000823e601f3d908101601f19168201604052612d639190810190614947565b6009548151604051635e8a791560e01b815260048101919091526001600160a01b038681166024830152929350911690635e8a791590604401602060405180830381865afa158015612db9573d6000803e3d6000fd5b505050506040513d601f19601f82011682018060405250810190612ddd9190613cd1565b949350505050565b6000816014526370a0823160601b60005260208060246010865afa601f3d111660205102905092915050565b60008060008084865af1611c3b5763b12d13eb6000526004601cfd5b816014528060345263a9059cbb60601b60005260206000604460106000875af13d156001600051141716612e69576390b8ec186000526004601cfd5b6000603452505050565b6060600080856001600160a01b031685604051612e909190614a0d565b600060405180830381855af49150503d8060008114612ecb576040519150601f19603f3d011682016040523d82523d6000602084013e612ed0565b606091505b5091509150612ee186838387613052565b925050505b9392505050565b6000806002612efd846001614308565b612f079190614607565b90508291505b81811015612f4057905080600281612f258186614607565b612f2f9190614308565b612f399190614607565b9050612f0d565b50919050565b612f4f826130cb565b80516006805460208085015161ffff1990921693151561ff001916939093176101009115159190910217905560408051635ab1bd5360e01b815290517f00000000000000000000000000000000000000000000000000000000000000006001600160a01b031692635ab1bd5392600480820193918290030181865afa158015612fdc573d6000803e3d6000fd5b505050506040513d601f19601f820116820180604052508101906130009190613c37565b600980546001600160a01b0319166001600160a01b039290921691909117905560408101516004556060810151608082015160a083015160c08401516130489392919061311a565b60e0015160075550565b606083156130c15782516000036130ba576001600160a01b0385163b6130ba5760405162461bcd60e51b815260206004820152601d60248201527f416464726573733a2063616c6c20746f206e6f6e2d636f6e74726163740000006044820152606401610f5d565b5081612ddd565b612ddd838361327c565b6130d3611d24565b600154156130f45760405163439a74c960e01b815260040160405180910390fd5b8060000361311557604051637fcce2a960e01b815260040160405180910390fd5b600155565b836001600160401b03164211806131425750826001600160401b0316846001600160401b0316115b8061315e5750816001600160401b0316846001600160401b0316115b8061317a5750806001600160401b0316826001600160401b0316115b806131965750806001600160401b0316836001600160401b0316115b156131b457604051637fcce2a960e01b815260040160405180910390fd5b600580546001600160401b03838116600160c01b9081026001600160c01b03878416600160801b908102919091166fffffffffffffffffffffffffffffffff8a8616600160401b9081026fffffffffffffffffffffffffffffffff199098168d88161797909717161791909117948590556040805186851681529486048416602086015290850483169084015290920490911660608201523360808201527fcb0fb7a7b87db2f472ee8977444cfdbc51993ce660aca27a5969a724fae6dcf39060a001612b2f565b81511561328c5781518083602001fd5b8060405162461bcd60e51b8152600401610f5d9190613777565b6001600160a01b0381168114611c6f57600080fd5b6000602082840312156132cd57600080fd5b8135612ee6816132a6565b634e487b7160e01b600052604160045260246000fd5b604080519081016001600160401b0381118282101715613310576133106132d8565b60405290565b60405161010081016001600160401b0381118282101715613310576133106132d8565b60405160c081016001600160401b0381118282101715613310576133106132d8565b60405161014081016001600160401b0381118282101715613310576133106132d8565b604051601f8201601f191681016001600160401b03811182821017156133a6576133a66132d8565b604052919050565b60006001600160401b038211156133c7576133c76132d8565b5060051b60200190565b600082601f8301126133e257600080fd5b813560206133f76133f2836133ae565b61337e565b82815260059290921b8401810191818101908684111561341657600080fd5b8286015b8481101561343a57803561342d816132a6565b835291830191830161341a565b509695505050505050565b60006001600160401b0382111561345e5761345e6132d8565b50601f01601f191660200190565b600082601f83011261347d57600080fd5b813561348b6133f282613445565b8181528460208386010111156134a057600080fd5b816020850160208301376000918101602001919091529392505050565b6000806000606084860312156134d257600080fd5b83356001600160401b03808211156134e957600080fd5b6134f5878388016133d1565b9450602086013591508082111561350b57600080fd5b506135188682870161346c565b9250506040840135613529816132a6565b809150509250925092565b60006020828403121561354657600080fd5b5035919050565b6000806040838503121561356057600080fd5b823561356b816132a6565b915060208301356001600160401b0381111561358657600080fd5b6135928582860161346c565b9150509250929050565b600080604083850312156135af57600080fd5b82356001600160401b038111156135c557600080fd5b6135d18582860161346c565b92505060208301356135e2816132a6565b809150509250929050565b6000806000806080858703121561360357600080fd5b5050823594602084013594506040840135936060013592509050565b80356007811061362e57600080fd5b919050565b60008060006060848603121561364857600080fd5b8335613653816132a6565b9250602084013591506136686040850161361f565b90509250925092565b60008083601f84011261368357600080fd5b5081356001600160401b0381111561369a57600080fd5b6020830191508360208260051b85010111156136b557600080fd5b9250929050565b600080600080604085870312156136d257600080fd5b84356001600160401b03808211156136e957600080fd5b6136f588838901613671565b9096509450602087013591508082111561370e57600080fd5b5061371b87828801613671565b95989497509550505050565b60005b8381101561374257818101518382015260200161372a565b50506000910152565b60008151808452613763816020860160208601613727565b601f01601f19169290920160200192915050565b602081526000610bf7602083018461374b565b6000806020838503121561379d57600080fd5b82356001600160401b038111156137b357600080fd5b6137bf85828601613671565b90969095509350505050565b6000602080830181845280855180835260408601915060408160051b870101925083870160005b8281101561382057603f1988860301845261380e85835161374b565b945092850192908501906001016137f2565b5092979650505050505050565b6000806040838503121561384057600080fd5b82356001600160401b038082111561385757600080fd5b613863868387016133d1565b935060209150818501358181111561387a57600080fd5b8501601f8101871361388b57600080fd5b80356138996133f2826133ae565b81815260059190911b820184019084810190898311156138b857600080fd5b8584015b838110156138f0578035868111156138d45760008081fd5b6138e28c898389010161346c565b8452509186019186016138bc565b508096505050505050509250929050565b602080825282518282018190526000919060409081850190868401855b8281101561394c57815180516001600160a01b0316855286015186850152928401929085019060010161391e565b5091979650505050505050565b60008060006060848603121561396e57600080fd5b8335613979816132a6565b9250602084013591506040840135613529816132a6565b634e487b7160e01b600052602160045260246000fd5b600781106139c457634e487b7160e01b600052602160045260246000fd5b9052565b60208101610bfa82846139a6565b600060408284031215612f4057600080fd5b60008060008060008060c08789031215613a0157600080fd5b86359550602087013594506001600160401b0360408801351115613a2457600080fd5b6040870135870188601f820112613a3a57600080fd5b613a476133f282356133ae565b81358082526020808301929160051b8401018b1015613a6557600080fd5b602083015b6020843560051b850101811015613b09576001600160401b0381351115613a9057600080fd5b803584018c603f820112613aa357600080fd5b613ab36133f260208301356133ae565b602082810135808352908201919060051b83016040018f811115613ad657600080fd5b6040840193505b80841015613af8578335835260209384019390920191613add565b508552505060209283019201613a6a565b50979a96995096976060810135975060808101359660a09091013595509350505050565b60008060208385031215613b4057600080fd5b82356001600160401b0380821115613b5757600080fd5b818501915085601f830112613b6b57600080fd5b813581811115613b7a57600080fd5b866020828501011115613b8c57600080fd5b60209290920196919550909350505050565b878152861515602082015260018060a01b038616604082015260e06060820152845160e0820152600060208601516040610100840152613be261012084018261374b565b915050613bf260808301866139a6565b92151560a082015260c0015295945050505050565b60008060408385031215613c1a57600080fd5b8235915060208301356001600160401b0381111561358657600080fd5b600060208284031215613c4957600080fd5b8151612ee6816132a6565b634e487b7160e01b600052601160045260246000fd5b6001600160401b038181168382160190808211156115b6576115b6613c54565b60008060408385031215613c9d57600080fd5b505080516020909101519092909150565b81810381811115610bfa57610bfa613c54565b8051801515811461362e57600080fd5b600060208284031215613ce357600080fd5b610bf782613cc1565b600181811c90821680613d0057607f821691505b602082108103612f4057634e487b7160e01b600052602260045260246000fd5b805160ff8116811461362e57600080fd5b60008060008060808587031215613d4757600080fd5b613d5085613d20565b9350613d5e60208601613d20565b9250613d6c60408601613d20565b9150613d7a60608601613d20565b905092959194509250565b600181815b80851115613dc0578160001904821115613da657613da6613c54565b80851615613db357918102915b93841c9390800290613d8a565b509250929050565b600082613dd757506001610bfa565b81613de457506000610bfa565b8160018114613dfa5760028114613e0457613e20565b6001915050610bfa565b60ff841115613e1557613e15613c54565b50506001821b610bfa565b5060208310610133831016604e8410600b8410161715613e43575081810a610bfa565b613e4d8383613d85565b8060001904821115613e6157613e61613c54565b029392505050565b6000610bf78383613dc8565b634e487b7160e01b600052603260045260246000fd5b600060208284031215613e9d57600080fd5b610bf78261361f565b600060018201613eb857613eb8613c54565b5060010190565b83815260608101613ed360208301856139a6565b6001600160a01b03929092166040919091015292915050565b6000808335601e19843603018112613f0357600080fd5b8301803591506001600160401b03821115613f1d57600080fd5b6020019150368190038213156136b557600080fd5b8335815260208401356020820152608060408201526000613f56608083018561374b565b8281036060840152613f68818561374b565b9695505050505050565b600060e082018983526020898185015260e0604085015281895180845261010093508386019150838160051b8701019350828b016000805b83811015613ffe5788870360ff19018552825180518089529087019087890190845b81811015613fe857835183529289019291890191600101613fcc565b5090985050509385019391850191600101613faa565b5050505050606084018890525060ff86166080840152905060a082019390935260c0015295945050505050565b601f821115610b4a57600081815260208120601f850160051c810160208610156140525750805b601f850160051c820191505b8181101561204b5782815560010161405e565b6001600160401b03831115614088576140886132d8565b61409c836140968354613cec565b8361402b565b6000601f8411600181146140d057600085156140b85750838201355b600019600387901b1c1916600186901b17835561412a565b600083815260209020601f19861690835b8281101561410157868501358255602094850194600190920191016140e1565b508682101561411e5760001960f88860031b161c19848701351681555b505060018560011b0183555b5050505050565b60208152816020820152818360408301376000818301604090810191909152601f909201601f19160101919050565b80516001600160401b038116811461362e57600080fd5b805161362e816132a6565b60006040828403121561419457600080fd5b61419c6132ee565b9050815181526020820151602082015292915050565b6000608082840312156141c457600080fd5b604051606081018181106001600160401b03821117156141e6576141e66132d8565b806040525080915082516141f9816132a6565b81526142088460208501614182565b6020820152606083015161421b816132a6565b6040919091015292915050565b600081830361018081121561423c57600080fd5b6142446132ee565b6101008083121561425457600080fd5b61425c613316565b925061426785613cc1565b835261427560208601613cc1565b60208401526040850151604084015261429060608601614160565b60608401526142a160808601614160565b60808401526142b260a08601614160565b60a08401526142c360c08601614160565b60c084015260e085015160e08401528282526142e1868287016141b2565b602083015250949350505050565b828152604060208201526000612ddd604083018461374b565b80820180821115610bfa57610bfa613c54565b600082601f83011261432c57600080fd5b815161433a6133f282613445565b81815284602083860101111561434f57600080fd5b612ddd826020830160208701613727565b60006040828403121561437257600080fd5b61437a6132ee565b90508151815260208201516001600160401b0381111561439957600080fd5b6143a58482850161431b565b60208301525092915050565b6000602082840312156143c357600080fd5b81516001600160401b03808211156143da57600080fd5b9083019060c082860312156143ee57600080fd5b6143f6613339565b825181526020830151614408816132a6565b6020820152604083015161441b816132a6565b604082015260608301518281111561443257600080fd5b61443e87828601614360565b6060830152506080830151608082015260a083015160a082015280935050505092915050565b60008060006060848603121561447957600080fd5b8351614484816132a6565b6020850151909350614495816132a6565b60408501519092506001600160401b038111156144b157600080fd5b6144bd86828701614360565b9150509250925092565b81516001600160401b038111156144e0576144e06132d8565b6144f4816144ee8454613cec565b8461402b565b602080601f83116001811461452957600084156145115750858301515b600019600386901b1c1916600185901b17855561204b565b600085815260208120601f198616915b8281101561455857888601518255948401946001909101908401614539565b50858210156145765787850151600019600388901b60f8161c191681555b5050505050600190811b01905550565b604081526000614599604083018561374b565b905060018060a01b03831660208301529392505050565b8481526080602082015260006145c9608083018661374b565b6001600160a01b038516604084015290506145e760608301846139a6565b95945050505050565b8082028115828204841417610bfa57610bfa613c54565b60008261462457634e487b7160e01b600052601260045260246000fd5b500490565b82815260608101612ee6602083018480518252602090810151910152565b60006080828403121561465957600080fd5b604051608081018181106001600160401b038211171561467b5761467b6132d8565b6040528251614689816132a6565b81526020830151614699816132a6565b602082015260408301516146ac816132a6565b604082015260608301516146bf816132a6565b60608201529392505050565b600082601f8301126146dc57600080fd5b815160206146ec6133f2836133ae565b82815260069290921b8401810191818101908684111561470b57600080fd5b8286015b8481101561343a576147218882614182565b83529183019160400161470f565b6000602080838503121561474257600080fd5b82516001600160401b038082111561475957600080fd5b908401906040828703121561476d57600080fd5b6147756132ee565b82518281111561478457600080fd5b8301601f8101881361479557600080fd5b80516147a36133f2826133ae565b818152610160918202830187019187820191908b8411156147c357600080fd5b938801935b838510156148475780858d0312156147e05760008081fd5b6147e86132ee565b855181528c603f8701126147fc5760008081fd5b61480461335b565b808388018f8111156148165760008081fd5b8c89015b818110156148315780518452928d01928d0161481a565b5050828c015250835293840193918801916147c8565b508452505050828401518281111561485e57600080fd5b61486a888286016146cb565b948201949094529695505050505050565b600081518084526020808501945080840160005b838110156148bf576148ac87835180518252602090810151910152565b604096909601959082019060010161488f565b509495945050505050565b60408082528351908201819052600090602090606084019082870184805b8381101561493257825180518652860151868601835b600a81101561491b578251825291880191908801906001016148fe565b5050506101609490940193918501916001016148e8565b5050505083810382850152612ee1818661487b565b60006020828403121561495957600080fd5b81516001600160401b038082111561497057600080fd5b9083019060c0828603121561498457600080fd5b61498c613339565b82518152602083015160208201526040830151828111156149ac57600080fd5b6149b88782860161431b565b6040830152506060830151828111156149d057600080fd5b6149dc87828601614360565b6060830152506149ee60808401614177565b60808201526149ff60a08401614177565b60a082015295945050505050565b60008251614a1f818460208701613727565b919091019291505056fe416464726573733a206c6f772d6c6576656c2064656c65676174652063616c6c206661696c6564a2646970667358221220a0961f9b15e49617f816835ab7e9dacca9b81514d8baf97cd14dd36406088e3b64736f6c63430008130033",
  "linkReferences": {},
  "deployedLinkReferences": {}
}