{
  "_format": "hh-sol-artifact-1",
  "contractName": "AccQueueBinaryMaci",
  "sourceName": "contracts/trees/AccQueueBinaryMaci.sol",
  "abi": [
    {
      "inputs": [
        {
          "internalType": "uint256",
          "name": "_subDepth",
          "type": "uint256"
        }
      ],
      "stateMutability": "nonpayable",
      "type": "constructor"
    },
    {
      "inputs": [],
      "name": "DepthCannotBeZero",
      "type": "error"
    },
    {
      "inputs": [
        {
          "internalType": "uint256",
          "name": "_depth",
          "type": "uint256"
        },
        {
          "internalType": "uint256",
          "name": "max",
          "type": "uint256"
        }
      ],
      "name": "DepthTooLarge",
      "type": "error"
    },
    {
      "inputs": [
        {
          "internalType": "uint256",
          "name": "_depth",
          "type": "uint256"
        },
        {
          "internalType": "uint256",
          "name": "min",
          "type": "uint256"
        }
      ],
      "name": "DepthTooSmall",
      "type": "error"
    },
    {
      "inputs": [],
      "name": "InvalidHashLength",
      "type": "error"
    },
    {
      "inputs": [
        {
          "internalType": "uint256",
          "name": "_index",
          "type": "uint256"
        }
      ],
      "name": "InvalidIndex",
      "type": "error"
    },
    {
      "inputs": [],
      "name": "InvalidLevel",
      "type": "error"
    },
    {
      "inputs": [],
      "name": "NothingToMerge",
      "type": "error"
    },
    {
      "inputs": [],
      "name": "SubDepthCannotBeZero",
      "type": "error"
    },
    {
      "inputs": [],
      "name": "SubTreesAlreadyMerged",
      "type": "error"
    },
    {
      "inputs": [],
      "name": "SubTreesNotMerged",
      "type": "error"
    },
    {
      "inputs": [
        {
          "internalType": "uint256",
          "name": "_subDepth",
          "type": "uint256"
        },
        {
          "internalType": "uint256",
          "name": "max",
          "type": "uint256"
        }
      ],
      "name": "SubdepthTooLarge",
      "type": "error"
    },
    {
      "anonymous": false,
      "inputs": [
        {
          "indexed": true,
          "internalType": "address",
          "name": "previousOwner",
          "type": "address"
        },
        {
          "indexed": true,
          "internalType": "address",
          "name": "newOwner",
          "type": "address"
        }
      ],
      "name": "OwnershipTransferred",
      "type": "event"
    },
    {
      "inputs": [],
      "name": "MAX_DEPTH",
      "outputs": [
        {
          "internalType": "uint256",
          "name": "",
          "type": "uint256"
        }
      ],
      "stateMutability": "view",
      "type": "function"
    },
    {
      "inputs": [],
      "name": "calcMinHeight",
      "outputs": [
        {
          "internalType": "uint256",
          "name": "depth",
          "type": "uint256"
        }
      ],
      "stateMutability": "view",
      "type": "function"
    },
    {
      "inputs": [
        {
          "internalType": "uint256",
          "name": "_leaf",
          "type": "uint256"
        }
      ],
      "name": "enqueue",
      "outputs": [
        {
          "internalType": "uint256",
          "name": "leafIndex",
          "type": "uint256"
        }
      ],
      "stateMutability": "nonpayable",
      "type": "function"
    },
    {
      "inputs": [],
      "name": "fill",
      "outputs": [],
      "stateMutability": "nonpayable",
      "type": "function"
    },
    {
      "inputs": [
        {
          "internalType": "uint256",
          "name": "_depth",
          "type": "uint256"
        }
      ],
      "name": "getMainRoot",
      "outputs": [
        {
          "internalType": "uint256",
          "name": "mainRoot",
          "type": "uint256"
        }
      ],
      "stateMutability": "view",
      "type": "function"
    },
    {
      "inputs": [],
      "name": "getSmallSRTroot",
      "outputs": [
        {
          "internalType": "uint256",
          "name": "smallSubTreeRoot",
          "type": "uint256"
        }
      ],
      "stateMutability": "view",
      "type": "function"
    },
    {
      "inputs": [],
      "name": "getSrIndices",
      "outputs": [
        {
          "internalType": "uint256",
          "name": "next",
          "type": "uint256"
        },
        {
          "internalType": "uint256",
          "name": "current",
          "type": "uint256"
        }
      ],
      "stateMutability": "view",
      "type": "function"
    },
    {
      "inputs": [
        {
          "internalType": "uint256",
          "name": "_index",
          "type": "uint256"
        }
      ],
      "name": "getSubRoot",
      "outputs": [
        {
          "internalType": "uint256",
          "name": "subRoot",
          "type": "uint256"
        }
      ],
      "stateMutability": "view",
      "type": "function"
    },
    {
      "inputs": [
        {
          "internalType": "uint256[2]",
          "name": "array",
          "type": "uint256[2]"
        }
      ],
      "name": "hash2",
      "outputs": [
        {
          "internalType": "uint256",
          "name": "result",
          "type": "uint256"
        }
      ],
      "stateMutability": "pure",
      "type": "function"
    },
    {
      "inputs": [
        {
          "internalType": "uint256[3]",
          "name": "array",
          "type": "uint256[3]"
        }
      ],
      "name": "hash3",
      "outputs": [
        {
          "internalType": "uint256",
          "name": "result",
          "type": "uint256"
        }
      ],
      "stateMutability": "pure",
      "type": "function"
    },
    {
      "inputs": [
        {
          "internalType": "uint256[4]",
          "name": "array",
          "type": "uint256[4]"
        }
      ],
      "name": "hash4",
      "outputs": [
        {
          "internalType": "uint256",
          "name": "result",
          "type": "uint256"
        }
      ],
      "stateMutability": "pure",
      "type": "function"
    },
    {
      "inputs": [
        {
          "internalType": "uint256[5]",
          "name": "array",
          "type": "uint256[5]"
        }
      ],
      "name": "hash5",
      "outputs": [
        {
          "internalType": "uint256",
          "name": "result",
          "type": "uint256"
        }
      ],
      "stateMutability": "pure",
      "type": "function"
    },
    {
      "inputs": [
        {
          "internalType": "uint256",
          "name": "left",
          "type": "uint256"
        },
        {
          "internalType": "uint256",
          "name": "right",
          "type": "uint256"
        }
      ],
      "name": "hashLeftRight",
      "outputs": [
        {
          "internalType": "uint256",
          "name": "result",
          "type": "uint256"
        }
      ],
      "stateMutability": "pure",
      "type": "function"
    },
    {
      "inputs": [
        {
          "internalType": "uint256",
          "name": "_level",
          "type": "uint256"
        },
        {
          "internalType": "uint256",
          "name": "_leaf",
          "type": "uint256"
        }
      ],
      "name": "hashLevelLeaf",
      "outputs": [
        {
          "internalType": "uint256",
          "name": "hashed",
          "type": "uint256"
        }
      ],
      "stateMutability": "view",
      "type": "function"
    },
    {
      "inputs": [
        {
          "internalType": "uint256",
          "name": "_subRoot",
          "type": "uint256"
        }
      ],
      "name": "insertSubTree",
      "outputs": [],
      "stateMutability": "nonpayable",
      "type": "function"
    },
    {
      "inputs": [
        {
          "internalType": "uint256",
          "name": "_depth",
          "type": "uint256"
        }
      ],
      "name": "merge",
      "outputs": [
        {
          "internalType": "uint256",
          "name": "root",
          "type": "uint256"
        }
      ],
      "stateMutability": "nonpayable",
      "type": "function"
    },
    {
      "inputs": [
        {
          "internalType": "uint256",
          "name": "_numSrQueueOps",
          "type": "uint256"
        }
      ],
      "name": "mergeSubRoots",
      "outputs": [],
      "stateMutability": "nonpayable",
      "type": "function"
    },
    {
      "inputs": [],
      "name": "numLeaves",
      "outputs": [
        {
          "internalType": "uint256",
          "name": "",
          "type": "uint256"
        }
      ],
      "stateMutability": "view",
      "type": "function"
    },
    {
      "inputs": [],
      "name": "owner",
      "outputs": [
        {
          "internalType": "address",
          "name": "",
          "type": "address"
        }
      ],
      "stateMutability": "view",
      "type": "function"
    },
    {
      "inputs": [],
      "name": "renounceOwnership",
      "outputs": [],
      "stateMutability": "nonpayable",
      "type": "function"
    },
    {
      "inputs": [
        {
          "internalType": "uint256[]",
          "name": "array",
          "type": "uint256[]"
        }
      ],
      "name": "sha256Hash",
      "outputs": [
        {
          "internalType": "uint256",
          "name": "result",
          "type": "uint256"
        }
      ],
      "stateMutability": "pure",
      "type": "function"
    },
    {
      "inputs": [],
      "name": "subTreesMerged",
      "outputs": [
        {
          "internalType": "bool",
          "name": "",
          "type": "bool"
        }
      ],
      "stateMutability": "view",
      "type": "function"
    },
    {
      "inputs": [
        {
          "internalType": "address",
          "name": "newOwner",
          "type": "address"
        }
      ],
      "name": "transferOwnership",
      "outputs": [],
      "stateMutability": "nonpayable",
      "type": "function"
    },
    {
      "inputs": [],
      "name": "treeMerged",
      "outputs": [
        {
          "internalType": "bool",
          "name": "",
          "type": "bool"
        }
      ],
      "stateMutability": "view",
      "type": "function"
    }
  ],
  "bytecode": "0x60e06040523480156200001157600080fd5b506040516200217038038062002170833981016040819052620000349162000615565b808060026200004333620005c5565b81620000625760405163682e504160e11b815260040160405180910390fd5b60208211156200009357604051637ccdcc9760e11b8152600481018390526020602482015260440160405180910390fd5b80600214158015620000a6575080600514155b15620000c557604051636f7b6c0360e01b815260040160405180910390fd5b6000805460ff60a01b191660028314600160a01b02179055608082905260a0819052620000f3828262000744565b60c05250507f12817f4161f2f5ded33f26c55735a77e80e4f8975483c8c2704745128417f7116101725550507f1eb18f95e1d37fef1d31c1f2eabf0fb521bf8d635393897e5c3a0b2acd514d7a610173557f2216e9dc1b620318a314c751de830a83ce68d18e2391ddebce7456cb9acf7c68610174557f0df8027f4112bc471271b7549566c2a0a96b358af40756eaa0bd75a64ae6855c610175557f2748e20e9d1016edcd8d774aec93c4a3af73c66fc45ef61e242596b6be3d58a7610176557f02475737003fd1cf99a880f2701571435d5681546082dfebb30774a2006cd8e1610177557f056e848f4a8eb8f3cd39238ac69b955f215234b82c5ddf26a990799999c81530610178557f13470e61f47a09322f143fa1ec2a72eaf29a78ab2a60031a020368716b6d533c610179557f0374874d20fb109b0261c9935b0124c9cd3ab53a2cc150e4dc059b6d3eb8bbc961017a557f05bc2adabe2d2493a75560d1c5d09462debc3ecc208add0badac60671f04aa1461017b557f107b2f1361ee61cce04031dc2bdd97ea530ab9807ac595533d5b1cbc8cecaedf61017c557f0c76306e0bea386c3548577b203c01ba8b87092d256ad0be4b131c2cef2f0a5d61017d557f0ebe0f842596c4b3106b71da89fe589e81e88fbb8a218acc48262e3a5154d44261017e557f19f194c00e265dea222fb82d302c80dd7e78a563e822ebc7921a685e82a0623b61017f557f1dc3efd89743655708851b437c7a16fcd84722dd7b3549154bf0dd56b52ee82a610180557f106c70c243d8057c7fcd6eff2bd6c2c68b609d70d9e112442dba86a9261b97f4610181557f071e96e5a4ac6f8f5bceea3640debd17352342762a2ee143f46f330889dbbdc0610182557f0c9b62b5319bbbf6db8b4d5309fb712ce8e67413515bf81012c9d1e75830b1fc610183557f27ea7eb1fddc5e124ed14f68c10ab01e9b5054eea0bbe1747d4d94c8dd19d217610184557f2308729960e09b7300dd3f967579c3dd44f76701c23e4715b2aca962737a3ecd610185557f230e84ef9a9351d5e93eaeef01bbc92888acd2de374ce85e53033a886b9872f9610186557f257816a72cddcc48d35e54f6c5dc4fd48b64cf19b0679f0928f196bce392e044610187557f09bfe62706cd0490774111afa85d00d2003d5278ee878824e16b5ee727c4a2c4610188557f08d7e0972150f8774e2307a95a90306ef29b50aeb68732f75dea05dcf49f6322610189557f0d10fd66038935f30ada10184cd823c396873043f4c62d2399b10fe93b77750061018a557f126a7e69684fc2886a5e4ec1d843edfb04bbde55e7210f9985a802c38afe872361018b557f300bbb79c031501d591b4a705859620ef3b0242c5b56083313932e66ec30319b61018c557f1ec0181253bf696878c6fdd4f8c041ba06930993e5b3a8d9e89bcfe070f0bc2761018d557f06126523f9ee30de0c1c00184beaef62430fdd9a5fa3efcee5c908dc0dda253861018e557f08e5a4b474e905d4cddc0722428448f3dc9080de59e850efb0c24f66a52b3dfb61018f557f1dc520e82d99f72cbe6f0e38d5434b2710c9da87ee587794aa3a04ee348b8432610190557f0434426018cdc007b25a149d486893ec448bb0b610080c06d6f8b18cb01a4a7a610191557f079d4f407c3258fca701c5b7eb8b334b1beb5c178daaa9088cd11b11b1461ae66101925562000759565b600080546001600160a01b038381166001600160a01b0319831681178455604051919092169283917f8be0079c531659141344cd1fd0a4f28419497f9722a3daafe3b4186f6b6457e09190a35050565b6000602082840312156200062857600080fd5b5051919050565b634e487b7160e01b600052601160045260246000fd5b600181815b80851115620006865781600019048211156200066a576200066a6200062f565b808516156200067857918102915b93841c93908002906200064a565b509250929050565b6000826200069f575060016200073e565b81620006ae575060006200073e565b8160018114620006c75760028114620006d257620006f2565b60019150506200073e565b60ff841115620006e657620006e66200062f565b50506001821b6200073e565b5060208310610133831016604e8410600b841016171562000717575081810a6200073e565b62000723838362000645565b80600019048211156200073a576200073a6200062f565b0290505b92915050565b60006200075283836200068e565b9392505050565b60805160a05160c05161197062000800600039600081816103ea015281816109ae01528181610a4801528181610c070152610d0701526000818161032301528181610568015281816106e301528181610b3b01528181610eb00152611024015260008181610417015281816104780152818161053e01528181610b7501528181610c3d01528181610c8701528181610e5101528181610f0701526111c001526119706000f3fe608060405234801561001057600080fd5b50600436106101585760003560e01c806381d6a24a116100c3578063c00bdbcc1161007c578063c00bdbcc146102b8578063c15da65b146102cb578063d9c55ce1146102de578063dda89a6e146102e6578063e93fb4d4146102f0578063f2fde38b1461030357600080fd5b806381d6a24a146102455780638da5cb5b146102615780639cfced971461027c578063a27154ba1461028f578063b6a64acd14610297578063bea140b3146102a557600080fd5b806358bfc3791161011557806358bfc379146101cc5780635bb93995146101df5780635bf1fa4d146101f257806362a361bb1461020557806369e7c58614610218578063715018a61461023b57600080fd5b80631b9b8aa71461015d5780631ffc735d1461018357806324a47aeb146101965780633bfa6fce146101a95780633dfb88b2146101b15780633e1a8cc1146101c4575b600080fd5b61017061016b366004611364565b610316565b6040519081526020015b60405180910390f35b610170610191366004611364565b610399565b6101706101a4366004611364565b6104c4565b6101706106d7565b6101706101bf3660046113c4565b610721565b6101706107a2565b6101706101da366004611442565b6107d1565b6101706101ed3660046114e8565b61086b565b6101706102003660046114e8565b610890565b61017061021336600461150a565b6108ba565b61016e5461022b90610100900460ff1681565b604051901515815260200161017a565b6102436108f4565b005b610170546001546040805192835260208301919091520161017a565b6000546040516001600160a01b03909116815260200161017a565b61017061028a366004611565565b610908565b610170602081565b61016e5461022b9060ff1681565b6101706102b33660046115be565b610942565b6102436102c6366004611364565b61097c565b6102436102d9366004611364565b6109f8565b610243610bfd565b6101706101715481565b6101706102fe366004611364565b610d44565b610243610311366004611617565b610d7f565b61017154600090610347837f000000000000000000000000000000000000000000000000000000000000000061173a565b101561037d5761017154604051627289df60e61b8152610374918491600401918252602082015260400190565b60405180910390fd5b61014d826021811061039157610391611746565b015492915050565b60006103a3610df5565b50610171546103b3826000610e4f565b6103be81600161175c565b610171556103cf61014d60006112c9565b600061016f5561016e805460ff191690556101715461040f907f000000000000000000000000000000000000000000000000000000000000000090611774565b6104bf5760027f00000000000000000000000000000000000000000000000000000000000000006021811061044657610446611746565b600402015460018054600090815261014c602052604081209290925580549161046e83611796565b90915550600290507f0000000000000000000000000000000000000000000000000000000000000000602181106104a7576104a7611746565b6004020160008091018190556104bf906086906112c9565b919050565b60006104ce610df5565b816104ec57604051630543d40760e11b815260040160405180910390fd5b61016e5460ff1661051057604051631e596e4360e11b815260040160405180910390fd5b602082111561053c57604051632cd31ae960e01b81526004810183905260206024820152604401610374565b7f00000000000000000000000000000000000000000000000000000000000000005b6101715461058c827f000000000000000000000000000000000000000000000000000000000000000061173a565b10610596576105a8565b806105a081611796565b91505061055e565b808310156105d257604051627289df60e61b81526004810184905260248101829052604401610374565b8083141561060f5761016f5461014d84602181106105f2576105f2611746565b0155505061016e805461ff00191661010017905561016f54919050565b61016f549150805b838110156106a957600061062a82610f90565b600054909150600160a01b900460ff1615610662576106476112d8565b8481526020810182905261065a816108ba565b945050610696565b61066a6112f6565b8481526020810182905260408101829052606081018290526080810182905261069281610908565b9450505b50806106a181611796565b915050610617565b508161014d84602181106106bf576106bf611746565b015561016e805461ff00191661010017905550919050565b60015b600154610707827f000000000000000000000000000000000000000000000000000000000000000061173a565b1061070f5790565b8061071981611796565b9150506106da565b60405163248f667760e01b815260009073__$ce9c2c925f157047e54fa833ec4e61409f$__9063248f66779061075b9085906004016117b1565b602060405180830381865af4158015610778573d6000803e3d6000fd5b505050506040513d601f19601f8201168201806040525081019061079c91906117e2565b92915050565b61016e5460009060ff166107c957604051631e596e4360e11b815260040160405180910390fd5b5061016f5490565b60007f30644e72e131a029b85045b68181585d2833e84879b9709143e1f593f000000160028360405160200161080791906117fb565b60408051601f198184030181529082905261082191611831565b602060405180830381855afa15801561083e573d6000803e3d6000fd5b5050506040513d601f19601f8201168201806040525081019061086191906117e2565b61079c9190611774565b60006108756112d8565b83815260208101839052610888816108ba565b949350505050565b60006108b3600284602181106108a8576108a8611746565b60040201548361086b565b9392505050565b6040516314d2f97b60e11b815260009073__$6574937f64fc1d7710ec0e28b7a36713bb$__906329a5f2f69061075b90859060040161186c565b6108fc610df5565b6109066000610fa6565b565b604051630926f44b60e31b815260009073__$20527677031d76601747626a9845039fe4$__90634937a2589061075b908590600401611894565b6040516304b98e1d60e31b815260009073__$dc01a9744591ab014bc46a3b7671cdaefb$__906325cc70e89061075b9085906004016118bc565b610984610df5565b60018054600090815261014c60205260408120839055815491906109a783611796565b91905055507f000000000000000000000000000000000000000000000000000000000000000061017160008282546109df919061175c565b9091555050600061016f555061016e805460ff19169055565b610a00610df5565b61016e5460ff1615610a2557604051630d36aec160e01b815260040160405180910390fd5b61017154610a46576040516316a0341160e11b815260040160405180910390fd5b7f000000000000000000000000000000000000000000000000000000000000000061017154610a759190611774565b15610a8257610a82610bfd565b60015460011415610aac57610a976000610d44565b61016f5561016e805460ff1916600117905550565b6000610ab66106d7565b610170549091506000905b600154811015610b32578315801590610ad957508382145b15610ae45750505050565b610afb610af361017054610d44565b600085610ff6565b6101708054906000610b0c83611796565b91905055508180610b1c90611796565b9250508080610b2a90611796565b915050610ac1565b506000610b5f837f000000000000000000000000000000000000000000000000000000000000000061173a565b9050600154610170541415610bc9576000610b997f0000000000000000000000000000000000000000000000000000000000000000610f90565b6001549091505b82811015610bc657610bb482600087610ff6565b80610bbe81611796565b915050610ba0565b50505b60a78360218110610bdc57610bdc611746565b600402016000015461016f55505061016e805460ff19166001179055505b50565b610c05610df5565b7f000000000000000000000000000000000000000000000000000000000000000061017154610c349190611774565b610c7957610c617f0000000000000000000000000000000000000000000000000000000000000000610f90565b600154600090815261014c6020526040902055610cea565b610c8360006111be565b60027f000000000000000000000000000000000000000000000000000000000000000060218110610cb657610cb6611746565b6004020154600154600090815261014c6020526040812091909155610cdd90600290611314565b610cea61014d60006112c9565b60006001546001610cfb919061175c565b60018190559050610d2c7f0000000000000000000000000000000000000000000000000000000000000000826118e4565b6101715550600061016f5561016e805460ff19169055565b60008160015411610d6b5760405163042a2e7160e11b815260048101839052602401610374565b50600090815261014c602052604090205490565b610d87610df5565b6001600160a01b038116610dec5760405162461bcd60e51b815260206004820152602660248201527f4f776e61626c653a206e6577206f776e657220697320746865207a65726f206160448201526564647265737360d01b6064820152608401610374565b610bfa81610fa6565b6000546001600160a01b031633146109065760405162461bcd60e51b815260206004820181905260248201527f4f776e61626c653a2063616c6c6572206973206e6f7420746865206f776e65726044820152606401610374565b7f0000000000000000000000000000000000000000000000000000000000000000811115610e905760405163d1459f7960e01b815260040160405180910390fd5b600060868260218110610ea557610ea5611746565b01549050610ed460017f0000000000000000000000000000000000000000000000000000000000000000611903565b8114610f59578260028360218110610eee57610eee611746565b600402018260048110610f0357610f03611746565b01557f00000000000000000000000000000000000000000000000000000000000000008214610f545760868260218110610f3f57610f3f611746565b018054906000610f4e83611796565b91905055505b505050565b610f63828461128b565b925060868260218110610f7857610f78611746565b600091015581610f8781611796565b92505050610e90565b6000610172826021811061039157610391611746565b600080546001600160a01b038381166001600160a01b0319831681178455604051919092169283917f8be0079c531659141344cd1fd0a4f28419497f9722a3daafe3b4186f6b6457e09190a35050565b8082111561100357505050565b600061012b836021811061101957611019611746565b0154905061104860017f0000000000000000000000000000000000000000000000000000000000000000611903565b81146110a6578360a7846021811061106257611062611746565b60040201826004811061107757611077611746565b015561012b836021811061108d5761108d611746565b01805490600061109c83611796565b91905055506111b8565b60008054600160a01b900460ff16156110f3576110c16112d8565b60a785602181106110d4576110d4611746565b60040201548152602081018690526110eb816108ba565b915050611188565b6110fb6112f6565b60005b838160ff1610156111625760a7866021811061111c5761111c611746565b600402018160ff166004811061113457611134611746565b0154828260ff166005811061114b5761114b611746565b60200201528061115a8161191a565b9150506110fe565b508581846005811061117657611176611746565b602002015261118481610908565b9150505b61012b846021811061119c5761119c611746565b60009101556111b6816111b086600161175c565b85610ff6565b505b50505050565b7f0000000000000000000000000000000000000000000000000000000000000000811015610bfa576000608682602181106111fb576111fb611746565b01549050801561126057600061120f6112d8565b600061121a85610f90565b90506002856021811061122f5761122f611746565b6004020154825260208201819052611246826108ba565b925061125c8361125787600161175c565b610e4f565b5050505b6086826021811061127357611273611746565b60009101558161128281611796565b925050506111be565b60006112a3600284602181106108a8576108a8611746565b9050600283602181106112b8576112b8611746565b600402016000016000905592915050565b50610bfa906021810190611323565b60405180604001604052806002906020820280368337509192915050565b6040518060a001604052806005906020820280368337509192915050565b50610bfa90608481019061133c565b5b808211156113385760008155600101611324565b5090565b808211156113385760008082556001820181905560028201819055600382015560040161133c565b60006020828403121561137657600080fd5b5035919050565b634e487b7160e01b600052604160045260246000fd5b604051601f8201601f1916810167ffffffffffffffff811182821017156113bc576113bc61137d565b604052919050565b6000608082840312156113d657600080fd5b82601f8301126113e557600080fd5b6040516080810181811067ffffffffffffffff821117156114085761140861137d565b60405280608084018581111561141d57600080fd5b845b8181101561143757803583526020928301920161141f565b509195945050505050565b6000602080838503121561145557600080fd5b823567ffffffffffffffff8082111561146d57600080fd5b818501915085601f83011261148157600080fd5b8135818111156114935761149361137d565b8060051b91506114a4848301611393565b81815291830184019184810190888411156114be57600080fd5b938501935b838510156114dc578435825293850193908501906114c3565b98975050505050505050565b600080604083850312156114fb57600080fd5b50508035926020909101359150565b60006040828403121561151c57600080fd5b82601f83011261152b57600080fd5b6040516040810181811067ffffffffffffffff8211171561154e5761154e61137d565b806040525080604084018581111561141d57600080fd5b600060a0828403121561157757600080fd5b82601f83011261158657600080fd5b60405160a0810181811067ffffffffffffffff821117156115a9576115a961137d565b6040528060a084018581111561141d57600080fd5b6000606082840312156115d057600080fd5b82601f8301126115df57600080fd5b6040516060810181811067ffffffffffffffff821117156116025761160261137d565b60405280606084018581111561141d57600080fd5b60006020828403121561162957600080fd5b81356001600160a01b03811681146108b357600080fd5b634e487b7160e01b600052601160045260246000fd5b600181815b8085111561169157816000190482111561167757611677611640565b8085161561168457918102915b93841c939080029061165b565b509250929050565b6000826116a85750600161079c565b816116b55750600061079c565b81600181146116cb57600281146116d5576116f1565b600191505061079c565b60ff8411156116e6576116e6611640565b50506001821b61079c565b5060208310610133831016604e8410600b8410161715611714575081810a61079c565b61171e8383611656565b806000190482111561173257611732611640565b029392505050565b60006108b38383611699565b634e487b7160e01b600052603260045260246000fd5b6000821982111561176f5761176f611640565b500190565b60008261179157634e487b7160e01b600052601260045260246000fd5b500690565b60006000198214156117aa576117aa611640565b5060010190565b60808101818360005b60048110156117d95781518352602092830192909101906001016117ba565b50505092915050565b6000602082840312156117f457600080fd5b5051919050565b815160009082906020808601845b8381101561182557815185529382019390820190600101611809565b50929695505050505050565b6000825160005b818110156118525760208186018101518583015201611838565b81811115611861576000828501525b509190910192915050565b60408101818360005b60028110156117d9578151835260209283019290910190600101611875565b60a08101818360005b60058110156117d957815183526020928301929091019060010161189d565b60608101818360005b60038110156117d95781518352602092830192909101906001016118c5565b60008160001904831182151516156118fe576118fe611640565b500290565b60008282101561191557611915611640565b500390565b600060ff821660ff81141561193157611931611640565b6001019291505056fea2646970667358221220ca9e9834659122801755c5fd516b1155a00dc20f8d940b882a7c00cb7cffa7ee64736f6c634300080a0033",
  "linkReferences": {
    "contracts/crypto/PoseidonT3.sol": {
      "PoseidonT3": [
        {
          "length": 20,
          "start": 4300
        }
      ]
    },
    "contracts/crypto/PoseidonT4.sol": {
      "PoseidonT4": [
        {
          "length": 20,
          "start": 4436
        }
      ]
    },
    "contracts/crypto/PoseidonT5.sol": {
      "PoseidonT5": [
        {
          "length": 20,
          "start": 3891
        }
      ]
    },
    "contracts/crypto/PoseidonT6.sol": {
      "PoseidonT6": [
        {
          "length": 20,
          "start": 4378
        }
      ]
    }
  },
  "deployedLinkReferences": {
    "contracts/crypto/PoseidonT3.sol": {
      "PoseidonT3": [
        {
          "length": 20,
          "start": 2252
        }
      ]
    },
    "contracts/crypto/PoseidonT4.sol": {
      "PoseidonT4": [
        {
          "length": 20,
          "start": 2388
        }
      ]
    },
    "contracts/crypto/PoseidonT5.sol": {
      "PoseidonT5": [
        {
          "length": 20,
          "start": 1843
        }
      ]
    },
    "contracts/crypto/PoseidonT6.sol": {
      "PoseidonT6": [
        {
          "length": 20,
          "start": 2330
        }
      ]
    }
  }
}