{
  "_format": "hh-sol-artifact-1",
  "contractName": "AccQueueQuinaryBlankSl",
  "sourceName": "contracts/trees/AccQueueQuinaryBlankSl.sol",
  "abi": [
    {
      "inputs": [
        {
          "internalType": "uint256",
          "name": "_subDepth",
          "type": "uint256"
        }
      ],
      "stateMutability": "nonpayable",
      "type": "constructor"
    },
    {
      "inputs": [],
      "name": "DepthCannotBeZero",
      "type": "error"
    },
    {
      "inputs": [
        {
          "internalType": "uint256",
          "name": "_depth",
          "type": "uint256"
        },
        {
          "internalType": "uint256",
          "name": "max",
          "type": "uint256"
        }
      ],
      "name": "DepthTooLarge",
      "type": "error"
    },
    {
      "inputs": [
        {
          "internalType": "uint256",
          "name": "_depth",
          "type": "uint256"
        },
        {
          "internalType": "uint256",
          "name": "min",
          "type": "uint256"
        }
      ],
      "name": "DepthTooSmall",
      "type": "error"
    },
    {
      "inputs": [],
      "name": "InvalidHashLength",
      "type": "error"
    },
    {
      "inputs": [
        {
          "internalType": "uint256",
          "name": "_index",
          "type": "uint256"
        }
      ],
      "name": "InvalidIndex",
      "type": "error"
    },
    {
      "inputs": [],
      "name": "InvalidLevel",
      "type": "error"
    },
    {
      "inputs": [],
      "name": "NothingToMerge",
      "type": "error"
    },
    {
      "inputs": [],
      "name": "SubDepthCannotBeZero",
      "type": "error"
    },
    {
      "inputs": [],
      "name": "SubTreesAlreadyMerged",
      "type": "error"
    },
    {
      "inputs": [],
      "name": "SubTreesNotMerged",
      "type": "error"
    },
    {
      "inputs": [
        {
          "internalType": "uint256",
          "name": "_subDepth",
          "type": "uint256"
        },
        {
          "internalType": "uint256",
          "name": "max",
          "type": "uint256"
        }
      ],
      "name": "SubdepthTooLarge",
      "type": "error"
    },
    {
      "anonymous": false,
      "inputs": [
        {
          "indexed": true,
          "internalType": "address",
          "name": "previousOwner",
          "type": "address"
        },
        {
          "indexed": true,
          "internalType": "address",
          "name": "newOwner",
          "type": "address"
        }
      ],
      "name": "OwnershipTransferred",
      "type": "event"
    },
    {
      "inputs": [],
      "name": "MAX_DEPTH",
      "outputs": [
        {
          "internalType": "uint256",
          "name": "",
          "type": "uint256"
        }
      ],
      "stateMutability": "view",
      "type": "function"
    },
    {
      "inputs": [],
      "name": "calcMinHeight",
      "outputs": [
        {
          "internalType": "uint256",
          "name": "depth",
          "type": "uint256"
        }
      ],
      "stateMutability": "view",
      "type": "function"
    },
    {
      "inputs": [
        {
          "internalType": "uint256",
          "name": "_leaf",
          "type": "uint256"
        }
      ],
      "name": "enqueue",
      "outputs": [
        {
          "internalType": "uint256",
          "name": "leafIndex",
          "type": "uint256"
        }
      ],
      "stateMutability": "nonpayable",
      "type": "function"
    },
    {
      "inputs": [],
      "name": "fill",
      "outputs": [],
      "stateMutability": "nonpayable",
      "type": "function"
    },
    {
      "inputs": [
        {
          "internalType": "uint256",
          "name": "_depth",
          "type": "uint256"
        }
      ],
      "name": "getMainRoot",
      "outputs": [
        {
          "internalType": "uint256",
          "name": "mainRoot",
          "type": "uint256"
        }
      ],
      "stateMutability": "view",
      "type": "function"
    },
    {
      "inputs": [],
      "name": "getSmallSRTroot",
      "outputs": [
        {
          "internalType": "uint256",
          "name": "smallSubTreeRoot",
          "type": "uint256"
        }
      ],
      "stateMutability": "view",
      "type": "function"
    },
    {
      "inputs": [],
      "name": "getSrIndices",
      "outputs": [
        {
          "internalType": "uint256",
          "name": "next",
          "type": "uint256"
        },
        {
          "internalType": "uint256",
          "name": "current",
          "type": "uint256"
        }
      ],
      "stateMutability": "view",
      "type": "function"
    },
    {
      "inputs": [
        {
          "internalType": "uint256",
          "name": "_index",
          "type": "uint256"
        }
      ],
      "name": "getSubRoot",
      "outputs": [
        {
          "internalType": "uint256",
          "name": "subRoot",
          "type": "uint256"
        }
      ],
      "stateMutability": "view",
      "type": "function"
    },
    {
      "inputs": [
        {
          "internalType": "uint256[2]",
          "name": "array",
          "type": "uint256[2]"
        }
      ],
      "name": "hash2",
      "outputs": [
        {
          "internalType": "uint256",
          "name": "result",
          "type": "uint256"
        }
      ],
      "stateMutability": "pure",
      "type": "function"
    },
    {
      "inputs": [
        {
          "internalType": "uint256[3]",
          "name": "array",
          "type": "uint256[3]"
        }
      ],
      "name": "hash3",
      "outputs": [
        {
          "internalType": "uint256",
          "name": "result",
          "type": "uint256"
        }
      ],
      "stateMutability": "pure",
      "type": "function"
    },
    {
      "inputs": [
        {
          "internalType": "uint256[4]",
          "name": "array",
          "type": "uint256[4]"
        }
      ],
      "name": "hash4",
      "outputs": [
        {
          "internalType": "uint256",
          "name": "result",
          "type": "uint256"
        }
      ],
      "stateMutability": "pure",
      "type": "function"
    },
    {
      "inputs": [
        {
          "internalType": "uint256[5]",
          "name": "array",
          "type": "uint256[5]"
        }
      ],
      "name": "hash5",
      "outputs": [
        {
          "internalType": "uint256",
          "name": "result",
          "type": "uint256"
        }
      ],
      "stateMutability": "pure",
      "type": "function"
    },
    {
      "inputs": [
        {
          "internalType": "uint256",
          "name": "left",
          "type": "uint256"
        },
        {
          "internalType": "uint256",
          "name": "right",
          "type": "uint256"
        }
      ],
      "name": "hashLeftRight",
      "outputs": [
        {
          "internalType": "uint256",
          "name": "result",
          "type": "uint256"
        }
      ],
      "stateMutability": "pure",
      "type": "function"
    },
    {
      "inputs": [
        {
          "internalType": "uint256",
          "name": "_level",
          "type": "uint256"
        },
        {
          "internalType": "uint256",
          "name": "_leaf",
          "type": "uint256"
        }
      ],
      "name": "hashLevelLeaf",
      "outputs": [
        {
          "internalType": "uint256",
          "name": "hashed",
          "type": "uint256"
        }
      ],
      "stateMutability": "view",
      "type": "function"
    },
    {
      "inputs": [
        {
          "internalType": "uint256",
          "name": "_subRoot",
          "type": "uint256"
        }
      ],
      "name": "insertSubTree",
      "outputs": [],
      "stateMutability": "nonpayable",
      "type": "function"
    },
    {
      "inputs": [
        {
          "internalType": "uint256",
          "name": "_depth",
          "type": "uint256"
        }
      ],
      "name": "merge",
      "outputs": [
        {
          "internalType": "uint256",
          "name": "root",
          "type": "uint256"
        }
      ],
      "stateMutability": "nonpayable",
      "type": "function"
    },
    {
      "inputs": [
        {
          "internalType": "uint256",
          "name": "_numSrQueueOps",
          "type": "uint256"
        }
      ],
      "name": "mergeSubRoots",
      "outputs": [],
      "stateMutability": "nonpayable",
      "type": "function"
    },
    {
      "inputs": [],
      "name": "numLeaves",
      "outputs": [
        {
          "internalType": "uint256",
          "name": "",
          "type": "uint256"
        }
      ],
      "stateMutability": "view",
      "type": "function"
    },
    {
      "inputs": [],
      "name": "owner",
      "outputs": [
        {
          "internalType": "address",
          "name": "",
          "type": "address"
        }
      ],
      "stateMutability": "view",
      "type": "function"
    },
    {
      "inputs": [],
      "name": "renounceOwnership",
      "outputs": [],
      "stateMutability": "nonpayable",
      "type": "function"
    },
    {
      "inputs": [
        {
          "internalType": "uint256[]",
          "name": "array",
          "type": "uint256[]"
        }
      ],
      "name": "sha256Hash",
      "outputs": [
        {
          "internalType": "uint256",
          "name": "result",
          "type": "uint256"
        }
      ],
      "stateMutability": "pure",
      "type": "function"
    },
    {
      "inputs": [],
      "name": "subTreesMerged",
      "outputs": [
        {
          "internalType": "bool",
          "name": "",
          "type": "bool"
        }
      ],
      "stateMutability": "view",
      "type": "function"
    },
    {
      "inputs": [
        {
          "internalType": "address",
          "name": "newOwner",
          "type": "address"
        }
      ],
      "name": "transferOwnership",
      "outputs": [],
      "stateMutability": "nonpayable",
      "type": "function"
    },
    {
      "inputs": [],
      "name": "treeMerged",
      "outputs": [
        {
          "internalType": "bool",
          "name": "",
          "type": "bool"
        }
      ],
      "stateMutability": "view",
      "type": "function"
    }
  ],
  "bytecode": "0x60e06040523480156200001157600080fd5b506040516200233638038062002336833981016040819052620000349162000615565b808060056200004333620005c5565b81620000625760405163682e504160e11b815260040160405180910390fd5b60208211156200009357604051637ccdcc9760e11b8152600481018390526020602482015260440160405180910390fd5b80600214158015620000a6575080600514155b15620000c557604051636f7b6c0360e01b815260040160405180910390fd5b6000805460ff60a01b191660028314600160a01b02179055608082905260a0819052620000f3828262000744565b60c05250507f0ef71f46e11a513c599eed9dd03576c33439bcfb1cee155316f90541e41649ba6101725550507f0404a2ed0a1df2006441895d9a65ffffdd4968cb5f555fe72a6da7aaec83e1a0610173557f0b1c3d09dd575749a374a9dc1ee32af8c2312e24ad33a3e40fce8120b0f25fe3610174557f1f60ed72fc1915366d2e52cfc7ddc0ff854c7aee9abbc07d1ca88ada842354dc610175557f2ca1efc603fc121baf791319195ee3ab7fa075cee664d008f9ab2870f5028360610176557f2a0381fc4fb108733dfc58c355f2de753bcde61bd988eaa7d33fc967262be5ad610177557f12c6c7cce0332367373dafc95d75b98dd58980410434929dff09466a4ba262db610178557f2f212d3cc7e7334c4a10ced1be011b9cd70f73cca5522fc4137a51be8a17d18e610179557f0968ef20d515d8d743b2cf66603f8b86f3fdeee932fdc911774bb8699566e11c61017a557f2e3604981890fb676c3dac1e14c5c201573f99d1b9e67025109baf274b10e9dd61017b557f147d317fd4b7a1dd6cb961cfba444466b3c431ea638c8df74a89fc591d1a3a5161017c557f10ea2b72952b619afd5b9bc50561df8de0c6e1ba9b5ad66b179c39c420304a7561017d557f1c49f7b357d244d9144676ad23f79465ef5b88ef0f91762a3d35997688af9a5a61017e557f05ca0cfef8158efc5c4af44122e2765179b5463618d5c5ac6185c192332cade961017f557f0ae1595634e8a2e23620f33f9b2b5a23387a28f5833814646900110842f3a109610180557f08be8c2a6a099d9cdc96f9197af6ad99595d73419eb0694eaea432fa18baa203610181557f207f689ce35cf857ee6e68c42d31bb2191d1e84d7a295ccd63995ca7369d20eb610182557f2a6f6b7e4a2cd1a6466ed17debb0a27904e99adbd72be85566a87340f41efd05610183557f0f0725795350566920bbf56d3f22c4d38e832e638c9cb91811f83194e9dd74be610184557f02cd50632e5c5b00a9a93f434797725ec0f85f11ba1b6a844f0cd10c70df6392610185557f08868b85d2fa4c17eec0a7d8bca4671a00474bff80e801981437b77aa11d10b5610186557f294a84b7b46ea0a781877a2c0efd1ee56758d9ee55722721867efe53f4645286610187557f02cb8070979a018bb919f0d1a25d5ad3d5a376c4cf66f36d33434d221ca77e88610188557f05dfce8303f471d776762f2ddd37f05191b8bf5064d8d28e892cd4ec21e7aab4610189557f28a47617aa1e26bf42fd3b26e88aa717fd759bb92b22faaf5ad82090680b523161018a557f1de9253f5fa546603817abd83d1a13c8562f2bf6a0069a546fe546ca0c03c17061018b557f1cb9bd316e341b873dbbef94fd699c6e3a638451de2817db1620235db2b6c39e61018c557f0654785b2917d7c659a95738add3d8eb51cbbefc0f521c2640bc74b0fec5816261018d557f2eed74eacf5de60a758f815cb5e73015455c38408143fc25810d03e1ec9e352461018e557f16bea3363deb4753db67be8b19110b169ae39f33113a92773c41a8b025ca5a9361018f557f2b0dd3b7e0a7e234a4a1b48dd0e9083dc8bfc8cd7f72abdb93a1b8e5ef3e22ed610190557f0bc1ca795d5a059b1dc0c51f72c46f2288cb139ebf09f38ac3e8bca0485ed497610191557f249ca1610a7f80bbf422388c18ef9777fcdab26ee718e2b39e4011973a9023306101925562000759565b600080546001600160a01b038381166001600160a01b0319831681178455604051919092169283917f8be0079c531659141344cd1fd0a4f28419497f9722a3daafe3b4186f6b6457e09190a35050565b6000602082840312156200062857600080fd5b5051919050565b634e487b7160e01b600052601160045260246000fd5b600181815b80851115620006865781600019048211156200066a576200066a6200062f565b808516156200067857918102915b93841c93908002906200064a565b509250929050565b6000826200069f575060016200073e565b81620006ae575060006200073e565b8160018114620006c75760028114620006d257620006f2565b60019150506200073e565b60ff841115620006e657620006e66200062f565b50506001821b6200073e565b5060208310610133831016604e8410600b841016171562000717575081810a6200073e565b62000723838362000645565b80600019048211156200073a576200073a6200062f565b0290505b92915050565b60006200075283836200068e565b9392505050565b60805160a05160c051611b2f62000807600039600081816103ea01528181610a2301528181610abd01528181610c7c0152610d7c01526000818161032301528181610568015281816106e301528181610bb001528181610f250152818161109901526112fa015260008181610417015281816104780152818161053e01528181610bea01528181610cb201528181610cfc01528181610ec601528181610f7c01526112350152611b2f6000f3fe608060405234801561001057600080fd5b50600436106101585760003560e01c806381d6a24a116100c3578063c00bdbcc1161007c578063c00bdbcc146102b8578063c15da65b146102cb578063d9c55ce1146102de578063dda89a6e146102e6578063e93fb4d4146102f0578063f2fde38b1461030357600080fd5b806381d6a24a146102455780638da5cb5b146102615780639cfced971461027c578063a27154ba1461028f578063b6a64acd14610297578063bea140b3146102a557600080fd5b806358bfc3791161011557806358bfc379146101cc5780635bb93995146101df5780635bf1fa4d146101f257806362a361bb1461020557806369e7c58614610218578063715018a61461023b57600080fd5b80631b9b8aa71461015d5780631ffc735d1461018357806324a47aeb146101965780633bfa6fce146101a95780633dfb88b2146101b15780633e1a8cc1146101c4575b600080fd5b61017061016b36600461151c565b610316565b6040519081526020015b60405180910390f35b61017061019136600461151c565b610399565b6101706101a436600461151c565b6104c4565b6101706106d7565b6101706101bf36600461157c565b610721565b6101706107a2565b6101706101da3660046115fa565b6107d1565b6101706101ed3660046116a0565b61086b565b6101706102003660046116a0565b610890565b6101706102133660046116c2565b61092f565b61016e5461022b90610100900460ff1681565b604051901515815260200161017a565b610243610969565b005b610170546001546040805192835260208301919091520161017a565b6000546040516001600160a01b03909116815260200161017a565b61017061028a36600461171d565b61097d565b610170602081565b61016e5461022b9060ff1681565b6101706102b3366004611776565b6109b7565b6102436102c636600461151c565b6109f1565b6102436102d936600461151c565b610a6d565b610243610c72565b6101706101715481565b6101706102fe36600461151c565b610db9565b6102436103113660046117cf565b610df4565b61017154600090610347837f00000000000000000000000000000000000000000000000000000000000000006118f9565b101561037d5761017154604051627289df60e61b8152610374918491600401918252602082015260400190565b60405180910390fd5b61014d826021811061039157610391611905565b015492915050565b60006103a3610e6a565b50610171546103b3826000610ec4565b6103be81600161191b565b610171556103cf61014d6000611481565b600061016f5561016e805460ff191690556101715461040f907f000000000000000000000000000000000000000000000000000000000000000090611933565b6104bf5760027f00000000000000000000000000000000000000000000000000000000000000006021811061044657610446611905565b600402015460018054600090815261014c602052604081209290925580549161046e83611955565b90915550600290507f0000000000000000000000000000000000000000000000000000000000000000602181106104a7576104a7611905565b6004020160008091018190556104bf90608690611481565b919050565b60006104ce610e6a565b816104ec57604051630543d40760e11b815260040160405180910390fd5b61016e5460ff1661051057604051631e596e4360e11b815260040160405180910390fd5b602082111561053c57604051632cd31ae960e01b81526004810183905260206024820152604401610374565b7f00000000000000000000000000000000000000000000000000000000000000005b6101715461058c827f00000000000000000000000000000000000000000000000000000000000000006118f9565b10610596576105a8565b806105a081611955565b91505061055e565b808310156105d257604051627289df60e61b81526004810184905260248101829052604401610374565b8083141561060f5761016f5461014d84602181106105f2576105f2611905565b0155505061016e805461ff00191661010017905561016f54919050565b61016f549150805b838110156106a957600061062a82611005565b600054909150600160a01b900460ff161561066257610647611490565b8481526020810182905261065a8161092f565b945050610696565b61066a6114ae565b848152602081018290526040810182905260608101829052608081018290526106928161097d565b9450505b50806106a181611955565b915050610617565b508161014d84602181106106bf576106bf611905565b015561016e805461ff00191661010017905550919050565b60015b600154610707827f00000000000000000000000000000000000000000000000000000000000000006118f9565b1061070f5790565b8061071981611955565b9150506106da565b60405163248f667760e01b815260009073__$ce9c2c925f157047e54fa833ec4e61409f$__9063248f66779061075b908590600401611970565b602060405180830381865af4158015610778573d6000803e3d6000fd5b505050506040513d601f19601f8201168201806040525081019061079c91906119a1565b92915050565b61016e5460009060ff166107c957604051631e596e4360e11b815260040160405180910390fd5b5061016f5490565b60007f30644e72e131a029b85045b68181585d2833e84879b9709143e1f593f000000160028360405160200161080791906119ba565b60408051601f1981840301815290829052610821916119f0565b602060405180830381855afa15801561083e573d6000803e3d6000fd5b5050506040513d601f19601f8201168201806040525081019061086191906119a1565b61079c9190611933565b6000610875611490565b838152602081018390526108888161092f565b949350505050565b600061089a6114ae565b600284602181106108ad576108ad611905565b60040201548152600284602181106108c7576108c7611905565b60040201600101548160016020020152600284602181106108ea576108ea611905565b600402016002015481600260200201526002846021811061090d5761090d611905565b600402016003015481600360200201528281600460200201526108888161097d565b6040516314d2f97b60e11b815260009073__$6574937f64fc1d7710ec0e28b7a36713bb$__906329a5f2f69061075b908590600401611a2b565b610971610e6a565b61097b600061101b565b565b604051630926f44b60e31b815260009073__$20527677031d76601747626a9845039fe4$__90634937a2589061075b908590600401611a53565b6040516304b98e1d60e31b815260009073__$dc01a9744591ab014bc46a3b7671cdaefb$__906325cc70e89061075b908590600401611a7b565b6109f9610e6a565b60018054600090815261014c6020526040812083905581549190610a1c83611955565b91905055507f00000000000000000000000000000000000000000000000000000000000000006101716000828254610a54919061191b565b9091555050600061016f555061016e805460ff19169055565b610a75610e6a565b61016e5460ff1615610a9a57604051630d36aec160e01b815260040160405180910390fd5b61017154610abb576040516316a0341160e11b815260040160405180910390fd5b7f000000000000000000000000000000000000000000000000000000000000000061017154610aea9190611933565b15610af757610af7610c72565b60015460011415610b2157610b0c6000610db9565b61016f5561016e805460ff1916600117905550565b6000610b2b6106d7565b610170549091506000905b600154811015610ba7578315801590610b4e57508382145b15610b595750505050565b610b70610b6861017054610db9565b60008561106b565b6101708054906000610b8183611955565b91905055508180610b9190611955565b9250508080610b9f90611955565b915050610b36565b506000610bd4837f00000000000000000000000000000000000000000000000000000000000000006118f9565b9050600154610170541415610c3e576000610c0e7f0000000000000000000000000000000000000000000000000000000000000000611005565b6001549091505b82811015610c3b57610c298260008761106b565b80610c3381611955565b915050610c15565b50505b60a78360218110610c5157610c51611905565b600402016000015461016f55505061016e805460ff19166001179055505b50565b610c7a610e6a565b7f000000000000000000000000000000000000000000000000000000000000000061017154610ca99190611933565b610cee57610cd67f0000000000000000000000000000000000000000000000000000000000000000611005565b600154600090815261014c6020526040902055610d5f565b610cf86000611233565b60027f000000000000000000000000000000000000000000000000000000000000000060218110610d2b57610d2b611905565b6004020154600154600090815261014c6020526040812091909155610d52906002906114cc565b610d5f61014d6000611481565b60006001546001610d70919061191b565b60018190559050610da17f000000000000000000000000000000000000000000000000000000000000000082611aa3565b6101715550600061016f5561016e805460ff19169055565b60008160015411610de05760405163042a2e7160e11b815260048101839052602401610374565b50600090815261014c602052604090205490565b610dfc610e6a565b6001600160a01b038116610e615760405162461bcd60e51b815260206004820152602660248201527f4f776e61626c653a206e6577206f776e657220697320746865207a65726f206160448201526564647265737360d01b6064820152608401610374565b610c6f8161101b565b6000546001600160a01b0316331461097b5760405162461bcd60e51b815260206004820181905260248201527f4f776e61626c653a2063616c6c6572206973206e6f7420746865206f776e65726044820152606401610374565b7f0000000000000000000000000000000000000000000000000000000000000000811115610f055760405163d1459f7960e01b815260040160405180910390fd5b600060868260218110610f1a57610f1a611905565b01549050610f4960017f0000000000000000000000000000000000000000000000000000000000000000611ac2565b8114610fce578260028360218110610f6357610f63611905565b600402018260048110610f7857610f78611905565b01557f00000000000000000000000000000000000000000000000000000000000000008214610fc95760868260218110610fb457610fb4611905565b018054906000610fc383611955565b91905055505b505050565b610fd8828461139f565b925060868260218110610fed57610fed611905565b600091015581610ffc81611955565b92505050610f05565b6000610172826021811061039157610391611905565b600080546001600160a01b038381166001600160a01b0319831681178455604051919092169283917f8be0079c531659141344cd1fd0a4f28419497f9722a3daafe3b4186f6b6457e09190a35050565b8082111561107857505050565b600061012b836021811061108e5761108e611905565b015490506110bd60017f0000000000000000000000000000000000000000000000000000000000000000611ac2565b811461111b578360a784602181106110d7576110d7611905565b6004020182600481106110ec576110ec611905565b015561012b836021811061110257611102611905565b01805490600061111183611955565b919050555061122d565b60008054600160a01b900460ff161561116857611136611490565b60a7856021811061114957611149611905565b60040201548152602081018690526111608161092f565b9150506111fd565b6111706114ae565b60005b838160ff1610156111d75760a7866021811061119157611191611905565b600402018160ff16600481106111a9576111a9611905565b0154828260ff16600581106111c0576111c0611905565b6020020152806111cf81611ad9565b915050611173565b50858184600581106111eb576111eb611905565b60200201526111f98161097d565b9150505b61012b846021811061121157611211611905565b600091015561122b8161122586600161191b565b8561106b565b505b50505050565b7f0000000000000000000000000000000000000000000000000000000000000000811015610c6f5760006086826021811061127057611270611905565b0154905080156113745760006112846114ae565b600061128f85611005565b905060005b848160ff1610156112f857600286602181106112b2576112b2611905565b600402018160ff16600481106112ca576112ca611905565b0154838260ff16600581106112e1576112e1611905565b6020020152806112f081611ad9565b915050611294565b7f00000000000000000000000000000000000000000000000000000000000000008160ff1610156113505781838260ff166005811061133957611339611905565b60200201528061134881611ad9565b9150506112f8565b6113598361097d565b935061136f8461136a88600161191b565b610ec4565b505050505b6086826021811061138757611387611905565b60009101558161139681611955565b92505050611233565b60006113a96114ae565b600284602181106113bc576113bc611905565b60040201548152600284602181106113d6576113d6611905565b60040201600101548160016020020152600284602181106113f9576113f9611905565b600402016002015481600260200201526002846021811061141c5761141c611905565b6004020160030154816003602002015282816004602002015261143e8161097d565b91506002846021811061145357611453611905565b60040201600061147a91905060008155600101600081556001016000815560010160009055565b5092915050565b50610c6f9060218101906114db565b60405180604001604052806002906020820280368337509192915050565b6040518060a001604052806005906020820280368337509192915050565b50610c6f9060848101906114f4565b5b808211156114f057600081556001016114dc565b5090565b808211156114f0576000808255600182018190556002820181905560038201556004016114f4565b60006020828403121561152e57600080fd5b5035919050565b634e487b7160e01b600052604160045260246000fd5b604051601f8201601f1916810167ffffffffffffffff8111828210171561157457611574611535565b604052919050565b60006080828403121561158e57600080fd5b82601f83011261159d57600080fd5b6040516080810181811067ffffffffffffffff821117156115c0576115c0611535565b6040528060808401858111156115d557600080fd5b845b818110156115ef5780358352602092830192016115d7565b509195945050505050565b6000602080838503121561160d57600080fd5b823567ffffffffffffffff8082111561162557600080fd5b818501915085601f83011261163957600080fd5b81358181111561164b5761164b611535565b8060051b915061165c84830161154b565b818152918301840191848101908884111561167657600080fd5b938501935b838510156116945784358252938501939085019061167b565b98975050505050505050565b600080604083850312156116b357600080fd5b50508035926020909101359150565b6000604082840312156116d457600080fd5b82601f8301126116e357600080fd5b6040516040810181811067ffffffffffffffff8211171561170657611706611535565b80604052508060408401858111156115d557600080fd5b600060a0828403121561172f57600080fd5b82601f83011261173e57600080fd5b60405160a0810181811067ffffffffffffffff8211171561176157611761611535565b6040528060a08401858111156115d557600080fd5b60006060828403121561178857600080fd5b82601f83011261179757600080fd5b6040516060810181811067ffffffffffffffff821117156117ba576117ba611535565b6040528060608401858111156115d557600080fd5b6000602082840312156117e157600080fd5b81356001600160a01b03811681146117f857600080fd5b9392505050565b634e487b7160e01b600052601160045260246000fd5b600181815b80851115611850578160001904821115611836576118366117ff565b8085161561184357918102915b93841c939080029061181a565b509250929050565b6000826118675750600161079c565b816118745750600061079c565b816001811461188a5760028114611894576118b0565b600191505061079c565b60ff8411156118a5576118a56117ff565b50506001821b61079c565b5060208310610133831016604e8410600b84101617156118d3575081810a61079c565b6118dd8383611815565b80600019048211156118f1576118f16117ff565b029392505050565b60006117f88383611858565b634e487b7160e01b600052603260045260246000fd5b6000821982111561192e5761192e6117ff565b500190565b60008261195057634e487b7160e01b600052601260045260246000fd5b500690565b6000600019821415611969576119696117ff565b5060010190565b60808101818360005b6004811015611998578151835260209283019290910190600101611979565b50505092915050565b6000602082840312156119b357600080fd5b5051919050565b815160009082906020808601845b838110156119e4578151855293820193908201906001016119c8565b50929695505050505050565b6000825160005b81811015611a1157602081860181015185830152016119f7565b81811115611a20576000828501525b509190910192915050565b60408101818360005b6002811015611998578151835260209283019290910190600101611a34565b60a08101818360005b6005811015611998578151835260209283019290910190600101611a5c565b60608101818360005b6003811015611998578151835260209283019290910190600101611a84565b6000816000190483118215151615611abd57611abd6117ff565b500290565b600082821015611ad457611ad46117ff565b500390565b600060ff821660ff811415611af057611af06117ff565b6001019291505056fea26469706673582212207a9f105f25dc96ce802de540f04b7c38b41ba830e99576ffc5cb60fff7909f2364736f6c634300080a0033",
  "linkReferences": {
    "contracts/crypto/PoseidonT3.sol": {
      "PoseidonT3": [
        {
          "length": 20,
          "start": 4424
        }
      ]
    },
    "contracts/crypto/PoseidonT4.sol": {
      "PoseidonT4": [
        {
          "length": 20,
          "start": 4560
        }
      ]
    },
    "contracts/crypto/PoseidonT5.sol": {
      "PoseidonT5": [
        {
          "length": 20,
          "start": 3898
        }
      ]
    },
    "contracts/crypto/PoseidonT6.sol": {
      "PoseidonT6": [
        {
          "length": 20,
          "start": 4502
        }
      ]
    }
  },
  "deployedLinkReferences": {
    "contracts/crypto/PoseidonT3.sol": {
      "PoseidonT3": [
        {
          "length": 20,
          "start": 2369
        }
      ]
    },
    "contracts/crypto/PoseidonT4.sol": {
      "PoseidonT4": [
        {
          "length": 20,
          "start": 2505
        }
      ]
    },
    "contracts/crypto/PoseidonT5.sol": {
      "PoseidonT5": [
        {
          "length": 20,
          "start": 1843
        }
      ]
    },
    "contracts/crypto/PoseidonT6.sol": {
      "PoseidonT6": [
        {
          "length": 20,
          "start": 2447
        }
      ]
    }
  }
}