{
  "_format": "hh-sol-artifact-1",
  "contractName": "TallyFactory",
  "sourceName": "contracts/TallyFactory.sol",
  "abi": [
    {
      "inputs": [
        {
          "internalType": "address",
          "name": "_verifier",
          "type": "address"
        },
        {
          "internalType": "address",
          "name": "_vkRegistry",
          "type": "address"
        },
        {
          "internalType": "address",
          "name": "_poll",
          "type": "address"
        },
        {
          "internalType": "address",
          "name": "_messageProcessor",
          "type": "address"
        },
        {
          "internalType": "address",
          "name": "_owner",
          "type": "address"
        }
      ],
      "name": "deploy",
      "outputs": [
        {
          "internalType": "address",
          "name": "tallyAddr",
          "type": "address"
        }
      ],
      "stateMutability": "nonpayable",
      "type": "function"
    }
  ],
  "bytecode": "0x608060405234801561001057600080fd5b5061222d806100206000396000f3fe608060405234801561001057600080fd5b506004361061002b5760003560e01c80639937a67814610030575b600080fd5b61004361003e36600461014a565b61005f565b6040516001600160a01b03909116815260200160405180910390f35b6000808686868660405161007290610121565b6001600160a01b039485168152928416602084015290831660408301529091166060820152608001604051809103906000f0801580156100b6573d6000803e3d6000fd5b5060405163f2fde38b60e01b81526001600160a01b0385811660048301529192509082169063f2fde38b90602401600060405180830381600087803b1580156100fe57600080fd5b505af1158015610112573d6000803e3d6000fd5b50929998505050505050505050565b612048806101b083390190565b80356001600160a01b038116811461014557600080fd5b919050565b600080600080600060a0868803121561016257600080fd5b61016b8661012e565b94506101796020870161012e565b93506101876040870161012e565b92506101956060870161012e565b91506101a36080870161012e565b9050929550929590935056fe61010060405260405162002048380380620020488339810160408190526200002791620000c2565b620000323362000055565b6001600160a01b0393841660805291831660a052821660c0521660e0526200011f565b600080546001600160a01b038381166001600160a01b0319831681178455604051919092169283917f8be0079c531659141344cd1fd0a4f28419497f9722a3daafe3b4186f6b6457e09190a35050565b80516001600160a01b0381168114620000bd57600080fd5b919050565b60008060008060808587031215620000d957600080fd5b620000e485620000a5565b9350620000f460208601620000a5565b92506200010460408601620000a5565b91506200011460608601620000a5565b905092959194509250565b60805160a05160c05160e051611ea2620001a660003960008181610359015281816103e301526104890152600081816102f00152818161051c0152818161054c0152818161061b0152818161099901528181610a2301528181610d990152610e220152600081816101a50152610aab0152600081816102010152610bda0152611ea26000f3fe608060405234801561001057600080fd5b50600436106101735760003560e01c8063715018a6116100de578063afb93bd311610097578063d0380fe211610071578063d0380fe214610354578063d13181b81461037b578063e3ff760614610384578063f2fde38b1461038c57600080fd5b8063afb93bd314610325578063b03698f21461032e578063bea140b31461034157600080fd5b8063715018a6146102ac5780637485dba1146102b45780638da5cb5b146102c75780639cfced97146102d8578063a1175279146102eb578063a21fb5111461031257600080fd5b80633dfb88b2116101305780633dfb88b21461023657806358bfc379146102575780635bb939951461026a578063617502931461027d57806362a361bb146102865780636b148b601461029957600080fd5b806310bc5f511461017857806313fb8932146101a057806316425eeb146101df57806323e3feb1146101e95780632b7ac3f3146101fc5780632d966bf414610223575b600080fd5b61018b61018636600461121d565b61039f565b60405190151581526020015b60405180910390f35b6101c77f000000000000000000000000000000000000000000000000000000000000000081565b6040516001600160a01b039091168152602001610197565b6101e76103d9565b005b6101e76101f7366004611261565b61050f565b6101c77f000000000000000000000000000000000000000000000000000000000000000081565b61018b6102313660046112ae565b6106e6565b6102496102443660046113f7565b610739565b604051908152602001610197565b610249610265366004611499565b6107ba565b610249610278366004611524565b610854565b61024960015481565b610249610294366004611546565b610879565b6102496102a736600461121d565b6108b3565b6101e7610980565b61018b6102c23660046115a6565b610992565b6000546001600160a01b03166101c7565b6102496102e63660046115ee565b610c63565b6101c77f000000000000000000000000000000000000000000000000000000000000000081565b61018b6103203660046112ae565b610c9d565b61024960025481565b61024961033c366004611647565b610cd3565b61024961034f366004611673565b610d5a565b6101c77f000000000000000000000000000000000000000000000000000000000000000081565b61024960035481565b61018b610d94565b6101e761039a3660046116e1565b610ec6565b60006103a96111c3565b8381526103b68686610854565b6020820152604081018390526001546103ce82610d5a565b149695505050505050565b6103e1610f44565b7f00000000000000000000000000000000000000000000000000000000000000006001600160a01b0316638763d0c46040518163ffffffff1660e01b8152600401602060405180830381865afa15801561043f573d6000803e3d6000fd5b505050506040513d601f19601f82011682018060405250810190610463919061171b565b6104805760405163f13e1b8560e01b815260040160405180910390fd5b60035461050d577f00000000000000000000000000000000000000000000000000000000000000006001600160a01b031663d13181b86040518163ffffffff1660e01b8152600401602060405180830381865afa1580156104e5573d6000803e3d6000fd5b505050506040513d601f19601f82011682018060405250810190610509919061173d565b6003555b565b610517610f44565b6105407f0000000000000000000000000000000000000000000000000000000000000000610f9e565b6105486103d9565b60007f00000000000000000000000000000000000000000000000000000000000000006001600160a01b031663ac98e5df6040518163ffffffff1660e01b8152600401608060405180830381865afa1580156105a8573d6000803e3d6000fd5b505050506040513d601f19601f820116820180604052508101906105cc9190611756565b505050905060008160056105e091906118af565b90506000816002546105f291906118be565b60028054600101905560408051634f367f0f60e01b815281519293506000926001600160a01b037f00000000000000000000000000000000000000000000000000000000000000001692634f367f0f92600480820193918290030181865afa158015610662573d6000803e3d6000fd5b505050506040513d601f19601f8201168201806040525081019061068691906118dd565b5090508082106106a95760405163b3f8c18960e01b815260040160405180910390fd5b60006106b8868385878b610992565b9050806106d8576040516341acf34d60e01b815260040160405180910390fd5b505050600193909355505050565b6000806106f6858b8b8b8b61103b565b90506107006111c3565b838152602081018590526107148288610854565b8160025b602002015260015461072982610d5a565b149b9a5050505050505050505050565b60405163248f667760e01b815260009073__$ce9c2c925f157047e54fa833ec4e61409f$__9063248f667790610773908590600401611901565b602060405180830381865af4158015610790573d6000803e3d6000fd5b505050506040513d601f19601f820116820180604052508101906107b4919061173d565b92915050565b60007f30644e72e131a029b85045b68181585d2833e84879b9709143e1f593f00000016002836040516020016107f09190611932565b60408051601f198184030181529082905261080a91611968565b602060405180830381855afa158015610827573d6000803e3d6000fd5b5050506040513d601f19601f8201168201806040525081019061084a919061173d565b6107b491906119b9565b600061085e6111e1565b8381526020810183905261087181610879565b949350505050565b6040516314d2f97b60e11b815260009073__$6574937f64fc1d7710ec0e28b7a36713bb$__906329a5f2f6906107739085906004016119cd565b6000806108c1868686610cd3565b60408051600480825260a08201909252919250600091906020820160808036833701905050905081816000815181106108fc576108fc611705565b6020026020010181815250506003548160018151811061091e5761091e611705565b6020026020010181815250506001548160028151811061094057610940611705565b602002602001018181525050838160038151811061096057610960611705565b602002602001018181525050610975816107ba565b979650505050505050565b610988610f44565b61050d6000611173565b60008060007f00000000000000000000000000000000000000000000000000000000000000006001600160a01b031663ac98e5df6040518163ffffffff1660e01b8152600401608060405180830381865afa1580156109f5573d6000803e3d6000fd5b505050506040513d601f19601f82011682018060405250810190610a199190611756565b93505050915060007f00000000000000000000000000000000000000000000000000000000000000006001600160a01b031663bc14ee2b6040518163ffffffff1660e01b8152600401606060405180830381865afa158015610a7f573d6000803e3d6000fd5b505050506040513d601f19601f82011682018060405250810190610aa391906119f5565b5050905060007f00000000000000000000000000000000000000000000000000000000000000006001600160a01b031663c7c8beec836001600160a01b031663652c76e46040518163ffffffff1660e01b8152600401602060405180830381865afa158015610b16573d6000803e3d6000fd5b505050506040513d601f19601f82011682018060405250810190610b3a9190611a42565b6040516001600160e01b031960e084901b16815260ff918216600482015281881660248201529086166044820152606401600060405180830381865afa158015610b88573d6000803e3d6000fd5b505050506040513d6000823e601f3d908101601f19168201604052610bb09190810190611b14565b90506000610bc08a8a8a8a6108b3565b6040516308adcb2560e21b81529091506001600160a01b037f000000000000000000000000000000000000000000000000000000000000000016906322b72c9490610c13908e9086908690600401611c72565b602060405180830381865afa158015610c30573d6000803e3d6000fd5b505050506040513d601f19601f82011682018060405250810190610c54919061171b565b9b9a5050505050505050505050565b604051630926f44b60e31b815260009073__$20527677031d76601747626a9845039fe4$__90634937a25890610773908590600401611d45565b600080610cad858b8b8b8b61103b565b9050610cb76111c3565b610cc18288610854565b81526020810185905283816002610718565b6000600160321b8410610cf957604051631805864f60e21b815260040160405180910390fd5b600160321b8310610d1d576040516334dd29a960e21b815260040160405180910390fd5b600160321b8210610d415760405163cdc3c16b60e01b815260040160405180910390fd5b603284901b610d508385611d6d565b6108719190611d81565b6040516304b98e1d60e31b815260009073__$dc01a9744591ab014bc46a3b7671cdaefb$__906325cc70e890610773908590600401611d99565b6000807f00000000000000000000000000000000000000000000000000000000000000006001600160a01b031663ac98e5df6040518163ffffffff1660e01b8152600401608060405180830381865afa158015610df5573d6000803e3d6000fd5b505050506040513d601f19601f82011682018060405250810190610e199190611756565b505050905060007f00000000000000000000000000000000000000000000000000000000000000006001600160a01b0316634f367f0f6040518163ffffffff1660e01b81526004016040805180830381865afa158015610e7d573d6000803e3d6000fd5b505050506040513d601f19601f82011682018060405250810190610ea191906118dd565b50905080610eb08360056118af565b600254610ebd91906118be565b10159250505090565b610ece610f44565b6001600160a01b038116610f385760405162461bcd60e51b815260206004820152602660248201527f4f776e61626c653a206e6577206f776e657220697320746865207a65726f206160448201526564647265737360d01b60648201526084015b60405180910390fd5b610f4181611173565b50565b6000546001600160a01b0316331461050d5760405162461bcd60e51b815260206004820181905260248201527f4f776e61626c653a2063616c6c6572206973206e6f7420746865206f776e65726044820152606401610f2f565b600080826001600160a01b0316634909229f6040518163ffffffff1660e01b81526004016040805180830381865afa158015610fde573d6000803e3d6000fd5b505050506040513d601f19601f8201168201806040525081019061100291906118dd565b909250905060006110138342611dc1565b905081811161103557604051635c3017c560e11b815260040160405180910390fd5b50505050565b6000806110496005876119b9565b905084915060006110586111ff565b60005b8960ff168160ff1610156111665760005b60058160ff16101561113057848160ff1614156110a35785838260ff166005811061109957611099611705565b6020020152611120565b848160ff1611156110c0576110b9600182611dd8565b93506110c4565b8093505b87878360ff168181106110d9576110d9611705565b90506020028101906110eb9190611dfb565b8560ff168181106110fe576110fe611705565b90506020020135838260ff166005811061111a5761111a611705565b60200201525b61112981611e4c565b905061106c565b5061113c60058a611d6d565b985061114960058a6119b9565b935061115482610c63565b945061115f81611e4c565b905061105b565b5050505095945050505050565b600080546001600160a01b038381166001600160a01b0319831681178455604051919092169283917f8be0079c531659141344cd1fd0a4f28419497f9722a3daafe3b4186f6b6457e09190a35050565b60405180606001604052806003906020820280368337509192915050565b60405180604001604052806002906020820280368337509192915050565b6040518060a001604052806005906020820280368337509192915050565b6000806000806080858703121561123357600080fd5b5050823594602084013594506040840135936060013592509050565b8061010081018310156107b457600080fd5b600080610120838503121561127557600080fd5b82359150611286846020850161124f565b90509250929050565b60ff81168114610f4157600080fd5b80356112a98161128f565b919050565b60008060008060008060008060e0898b0312156112ca57600080fd5b8835975060208901359650604089013567ffffffffffffffff808211156112f057600080fd5b818b0191508b601f83011261130457600080fd5b81358181111561131357600080fd5b8c60208260051b850101111561132857600080fd5b6020830198508097505050506060890135935061134760808a0161129e565b925060a0890135915060c089013590509295985092959890939650565b634e487b7160e01b600052604160045260246000fd5b6040805190810167ffffffffffffffff8111828210171561139d5761139d611364565b60405290565b60405160a0810167ffffffffffffffff8111828210171561139d5761139d611364565b604051601f8201601f1916810167ffffffffffffffff811182821017156113ef576113ef611364565b604052919050565b60006080828403121561140957600080fd5b82601f83011261141857600080fd5b6040516080810181811067ffffffffffffffff8211171561143b5761143b611364565b60405280608084018581111561145057600080fd5b845b8181101561146a578035835260209283019201611452565b509195945050505050565b600067ffffffffffffffff82111561148f5761148f611364565b5060051b60200190565b600060208083850312156114ac57600080fd5b823567ffffffffffffffff8111156114c357600080fd5b8301601f810185136114d457600080fd5b80356114e76114e282611475565b6113c6565b81815260059190911b8201830190838101908783111561150657600080fd5b928401925b828410156109755783358252928401929084019061150b565b6000806040838503121561153757600080fd5b50508035926020909101359150565b60006040828403121561155857600080fd5b82601f83011261156757600080fd5b61156f61137a565b80604084018581111561158157600080fd5b845b8181101561159b578035845260209384019301611583565b509095945050505050565b600080600080600061018086880312156115bf57600080fd5b6115c9878761124f565b9761010087013597506101208701359661014081013596506101600135945092505050565b600060a0828403121561160057600080fd5b82601f83011261160f57600080fd5b60405160a0810181811067ffffffffffffffff8211171561163257611632611364565b6040528060a084018581111561145057600080fd5b60008060006060848603121561165c57600080fd5b505081359360208301359350604090920135919050565b60006060828403121561168557600080fd5b82601f83011261169457600080fd5b6040516060810181811067ffffffffffffffff821117156116b7576116b7611364565b60405280606084018581111561145057600080fd5b6001600160a01b0381168114610f4157600080fd5b6000602082840312156116f357600080fd5b81356116fe816116cc565b9392505050565b634e487b7160e01b600052603260045260246000fd5b60006020828403121561172d57600080fd5b815180151581146116fe57600080fd5b60006020828403121561174f57600080fd5b5051919050565b6000806000806080858703121561176c57600080fd5b84516117778161128f565b60208601519094506117888161128f565b60408601519093506117998161128f565b60608601519092506117aa8161128f565b939692955090935050565b634e487b7160e01b600052601160045260246000fd5b600181815b808511156118065781600019048211156117ec576117ec6117b5565b808516156117f957918102915b93841c93908002906117d0565b509250929050565b60008261181d575060016107b4565b8161182a575060006107b4565b8160018114611840576002811461184a57611866565b60019150506107b4565b60ff84111561185b5761185b6117b5565b50506001821b6107b4565b5060208310610133831016604e8410600b8410161715611889575081810a6107b4565b61189383836117cb565b80600019048211156118a7576118a76117b5565b029392505050565b60006116fe60ff84168361180e565b60008160001904831182151516156118d8576118d86117b5565b500290565b600080604083850312156118f057600080fd5b505080516020909101519092909150565b60808101818360005b600481101561192957815183526020928301929091019060010161190a565b50505092915050565b815160009082906020808601845b8381101561195c57815185529382019390820190600101611940565b50929695505050505050565b6000825160005b81811015611989576020818601810151858301520161196f565b81811115611998576000828501525b509190910192915050565b634e487b7160e01b600052601260045260246000fd5b6000826119c8576119c86119a3565b500690565b60408101818360005b60028110156119295781518352602092830192909101906001016119d6565b600080600060608486031215611a0a57600080fd5b8351611a15816116cc565b6020850151909350611a26816116cc565b6040850151909250611a37816116cc565b809150509250925092565b600060208284031215611a5457600080fd5b81516116fe8161128f565b600060408284031215611a7157600080fd5b611a7961137a565b9050815181526020820151602082015292915050565b600082601f830112611aa057600080fd5b611aa861137a565b806040840185811115611aba57600080fd5b845b8181101561159b578051845260209384019301611abc565b600060808284031215611ae657600080fd5b611aee61137a565b9050611afa8383611a8f565b8152611b098360408401611a8f565b602082015292915050565b60006020808385031215611b2757600080fd5b825167ffffffffffffffff80821115611b3f57600080fd5b908401906101e08287031215611b5457600080fd5b611b5c6113a3565b611b668784611a5f565b81526040611b7688828601611ad4565b85830152611b878860c08601611ad4565b81830152611b99886101408601611ad4565b60608301526101c084015183811115611bb157600080fd5b80850194505087601f850112611bc657600080fd5b83519250611bd66114e284611475565b83815260069390931b84018501928581019089851115611bf557600080fd5b948601945b84861015611c1b57611c0c8a87611a5f565b82529482019490860190611bfa565b60808401525090979650505050505050565b8060005b6002811015611035578151845260209384019390910190600101611c31565b611c5b828251611c2d565b6020810151611c6d6040840182611c2d565b505050565b60006101406101008087853783018190528451805182850190815260209182015191015261032083016020915081860151611cb1610180860182611c50565b50604080870151611cc6610200870182611c50565b506060870151611cda610280870182611c50565b5060808701516101e06103008701528051928390528301916000906103408701905b80831015611d2d57611d1982865180518252602090810151910152565b938501936001929092019190830190611cfc565b50809550505050505082610120830152949350505050565b60a08101818360005b6005811015611929578151835260209283019290910190600101611d4e565b600082611d7c57611d7c6119a3565b500490565b60008219821115611d9457611d946117b5565b500190565b60608101818360005b6003811015611929578151835260209283019290910190600101611da2565b600082821015611dd357611dd36117b5565b500390565b600060ff821660ff841680821015611df257611df26117b5565b90039392505050565b6000808335601e19843603018112611e1257600080fd5b83018035915067ffffffffffffffff821115611e2d57600080fd5b6020019150600581901b3603821315611e4557600080fd5b9250929050565b600060ff821660ff811415611e6357611e636117b5565b6001019291505056fea26469706673582212209f4e4f351eb71f162252f3d7cc039c8d540c7b0e007feda8374ff816742bc98f64736f6c634300080a0033a26469706673582212207b1f0699940c93403ca3880ca4e3fb5b86c36e63b49399f6d3978781fae5c54964736f6c634300080a0033",
  "linkReferences": {
    "contracts/crypto/PoseidonT3.sol": {
      "PoseidonT3": [
        {
          "length": 20,
          "start": 3073
        }
      ]
    },
    "contracts/crypto/PoseidonT4.sol": {
      "PoseidonT4": [
        {
          "length": 20,
          "start": 4322
        }
      ]
    },
    "contracts/crypto/PoseidonT5.sol": {
      "PoseidonT5": [
        {
          "length": 20,
          "start": 2753
        }
      ]
    },
    "contracts/crypto/PoseidonT6.sol": {
      "PoseidonT6": [
        {
          "length": 20,
          "start": 4075
        }
      ]
    }
  },
  "deployedLinkReferences": {
    "contracts/crypto/PoseidonT3.sol": {
      "PoseidonT3": [
        {
          "length": 20,
          "start": 3041
        }
      ]
    },
    "contracts/crypto/PoseidonT4.sol": {
      "PoseidonT4": [
        {
          "length": 20,
          "start": 4290
        }
      ]
    },
    "contracts/crypto/PoseidonT5.sol": {
      "PoseidonT5": [
        {
          "length": 20,
          "start": 2721
        }
      ]
    },
    "contracts/crypto/PoseidonT6.sol": {
      "PoseidonT6": [
        {
          "length": 20,
          "start": 4043
        }
      ]
    }
  }
}