{
  "_format": "hh-sol-artifact-1",
  "contractName": "TallyNonQvFactory",
  "sourceName": "contracts/TallyNonQvFactory.sol",
  "abi": [
    {
      "inputs": [
        {
          "internalType": "address",
          "name": "_verifier",
          "type": "address"
        },
        {
          "internalType": "address",
          "name": "_vkRegistry",
          "type": "address"
        },
        {
          "internalType": "address",
          "name": "_poll",
          "type": "address"
        },
        {
          "internalType": "address",
          "name": "_messageProcessor",
          "type": "address"
        },
        {
          "internalType": "address",
          "name": "_owner",
          "type": "address"
        }
      ],
      "name": "deploy",
      "outputs": [
        {
          "internalType": "address",
          "name": "tallyAddr",
          "type": "address"
        }
      ],
      "stateMutability": "nonpayable",
      "type": "function"
    }
  ],
  "bytecode": "0x608060405234801561001057600080fd5b50612196806100206000396000f3fe608060405234801561001057600080fd5b506004361061002b5760003560e01c80639937a67814610030575b600080fd5b61004361003e36600461014a565b61005f565b6040516001600160a01b03909116815260200160405180910390f35b6000808686868660405161007290610121565b6001600160a01b039485168152928416602084015290831660408301529091166060820152608001604051809103906000f0801580156100b6573d6000803e3d6000fd5b5060405163f2fde38b60e01b81526001600160a01b0385811660048301529192509082169063f2fde38b90602401600060405180830381600087803b1580156100fe57600080fd5b505af1158015610112573d6000803e3d6000fd5b50929998505050505050505050565b611fb1806101b083390190565b80356001600160a01b038116811461014557600080fd5b919050565b600080600080600060a0868803121561016257600080fd5b61016b8661012e565b94506101796020870161012e565b93506101876040870161012e565b92506101956060870161012e565b91506101a36080870161012e565b9050929550929590935056fe61010060405260405162001fb138038062001fb18339810160408190526200002791620000c2565b620000323362000055565b6001600160a01b0393841660805291831660a052821660c0521660e0526200011f565b600080546001600160a01b038381166001600160a01b0319831681178455604051919092169283917f8be0079c531659141344cd1fd0a4f28419497f9722a3daafe3b4186f6b6457e09190a35050565b80516001600160a01b0381168114620000bd57600080fd5b919050565b60008060008060808587031215620000d957600080fd5b620000e485620000a5565b9350620000f460208601620000a5565b92506200010460408601620000a5565b91506200011460608601620000a5565b905092959194509250565b60805160a05160c05160e051611e0b620001a6600039600081816103180152818161037b01526104210152600081816102c2015281816104b4015281816104e4015281816105b3015281816109100152818161099a01528181610cda0152610d630152600081816101620152610a220152600081816101c30152610b510152611e0b6000f3fe608060405234801561001057600080fd5b50600436106101585760003560e01c80637485dba1116100c3578063bea140b31161007c578063bea140b314610300578063d0380fe214610313578063d13181b81461033a578063e3ff760614610343578063f2fde38b1461034b578063fdcf72281461035e57600080fd5b80637485dba1146102865780638da5cb5b146102995780639cfced97146102aa578063a1175279146102bd578063afb93bd3146102e4578063b03698f2146102ed57600080fd5b80635bb93995116101155780635bb9399514610219578063617502931461022c57806362a361bb14610235578063697776df146102485780636b148b601461026b578063715018a61461027e57600080fd5b806313fb89321461015d57806316425eeb146101a157806323e3feb1146101ab5780632b7ac3f3146101be5780633dfb88b2146101e557806358bfc37914610206575b600080fd5b6101847f000000000000000000000000000000000000000000000000000000000000000081565b6040516001600160a01b0390911681526020015b60405180910390f35b6101a9610371565b005b6101a96101b93660046111a1565b6104a7565b6101847f000000000000000000000000000000000000000000000000000000000000000081565b6101f86101f3366004611262565b61067e565b604051908152602001610198565b6101f8610214366004611304565b6106ff565b6101f861022736600461138f565b610799565b6101f860015481565b6101f86102433660046113b1565b6107be565b61025b610256366004611411565b6107f8565b6040519015158152602001610198565b6101f861027936600461143d565b61082a565b6101a96108f7565b61025b61029436600461146f565b610909565b6000546001600160a01b0316610184565b6101f86102b83660046114b7565b610bda565b6101847f000000000000000000000000000000000000000000000000000000000000000081565b6101f860025481565b6101f86102fb366004611411565b610c14565b6101f861030e366004611510565b610c9b565b6101847f000000000000000000000000000000000000000000000000000000000000000081565b6101f860035481565b61025b610cd5565b6101a961035936600461157e565b610e07565b61025b61036c3660046115c1565b610e85565b610379610ed4565b7f00000000000000000000000000000000000000000000000000000000000000006001600160a01b0316638763d0c46040518163ffffffff1660e01b8152600401602060405180830381865afa1580156103d7573d6000803e3d6000fd5b505050506040513d601f19601f820116820180604052508101906103fb919061166e565b6104185760405163f13e1b8560e01b815260040160405180910390fd5b6003546104a5577f00000000000000000000000000000000000000000000000000000000000000006001600160a01b031663d13181b86040518163ffffffff1660e01b8152600401602060405180830381865afa15801561047d573d6000803e3d6000fd5b505050506040513d601f19601f820116820180604052508101906104a19190611690565b6003555b565b6104af610ed4565b6104d87f0000000000000000000000000000000000000000000000000000000000000000610f2e565b6104e0610371565b60007f00000000000000000000000000000000000000000000000000000000000000006001600160a01b031663ac98e5df6040518163ffffffff1660e01b8152600401608060405180830381865afa158015610540573d6000803e3d6000fd5b505050506040513d601f19601f8201168201806040525081019061056491906116a9565b505050905060008160056105789190611802565b905060008160025461058a9190611811565b60028054600101905560408051634f367f0f60e01b815281519293506000926001600160a01b037f00000000000000000000000000000000000000000000000000000000000000001692634f367f0f92600480820193918290030181865afa1580156105fa573d6000803e3d6000fd5b505050506040513d601f19601f8201168201806040525081019061061e9190611830565b5090508082106106415760405163b3f8c18960e01b815260040160405180910390fd5b6000610650868385878b610909565b905080610670576040516341acf34d60e01b815260040160405180910390fd5b505050600193909355505050565b60405163248f667760e01b815260009073__$ce9c2c925f157047e54fa833ec4e61409f$__9063248f6677906106b8908590600401611854565b602060405180830381865af41580156106d5573d6000803e3d6000fd5b505050506040513d601f19601f820116820180604052508101906106f99190611690565b92915050565b60007f30644e72e131a029b85045b68181585d2833e84879b9709143e1f593f00000016002836040516020016107359190611885565b60408051601f198184030181529082905261074f916118bb565b602060405180830381855afa15801561076c573d6000803e3d6000fd5b5050506040513d601f19601f8201168201806040525081019061078f9190611690565b6106f9919061190c565b60006107a3611153565b838152602081018390526107b6816107be565b949350505050565b6040516314d2f97b60e11b815260009073__$6574937f64fc1d7710ec0e28b7a36713bb$__906329a5f2f6906106b8908590600401611936565b6000610802611153565b82815261080f8585610799565b6020820152600154610820826107be565b1495945050505050565b600080610838868686610c14565b60408051600480825260a082019092529192506000919060208201608080368337019050509050818160008151811061087357610873611920565b6020026020010181815250506003548160018151811061089557610895611920565b602002602001018181525050600154816002815181106108b7576108b7611920565b60200260200101818152505083816003815181106108d7576108d7611920565b6020026020010181815250506108ec816106ff565b979650505050505050565b6108ff610ed4565b6104a56000610fcb565b60008060007f00000000000000000000000000000000000000000000000000000000000000006001600160a01b031663ac98e5df6040518163ffffffff1660e01b8152600401608060405180830381865afa15801561096c573d6000803e3d6000fd5b505050506040513d601f19601f8201168201806040525081019061099091906116a9565b93505050915060007f00000000000000000000000000000000000000000000000000000000000000006001600160a01b031663bc14ee2b6040518163ffffffff1660e01b8152600401606060405180830381865afa1580156109f6573d6000803e3d6000fd5b505050506040513d601f19601f82011682018060405250810190610a1a919061195e565b5050905060007f00000000000000000000000000000000000000000000000000000000000000006001600160a01b031663c7c8beec836001600160a01b031663652c76e46040518163ffffffff1660e01b8152600401602060405180830381865afa158015610a8d573d6000803e3d6000fd5b505050506040513d601f19601f82011682018060405250810190610ab191906119ab565b6040516001600160e01b031960e084901b16815260ff918216600482015281881660248201529086166044820152606401600060405180830381865afa158015610aff573d6000803e3d6000fd5b505050506040513d6000823e601f3d908101601f19168201604052610b279190810190611a7d565b90506000610b378a8a8a8a61082a565b6040516308adcb2560e21b81529091506001600160a01b037f000000000000000000000000000000000000000000000000000000000000000016906322b72c9490610b8a908e9086908690600401611bdb565b602060405180830381865afa158015610ba7573d6000803e3d6000fd5b505050506040513d601f19601f82011682018060405250810190610bcb919061166e565b9b9a5050505050505050505050565b604051630926f44b60e31b815260009073__$20527677031d76601747626a9845039fe4$__90634937a258906106b8908590600401611cae565b6000600160321b8410610c3a57604051631805864f60e21b815260040160405180910390fd5b600160321b8310610c5e576040516334dd29a960e21b815260040160405180910390fd5b600160321b8210610c825760405163cdc3c16b60e01b815260040160405180910390fd5b603284901b610c918385611cd6565b6107b69190611cea565b6040516304b98e1d60e31b815260009073__$dc01a9744591ab014bc46a3b7671cdaefb$__906325cc70e8906106b8908590600401611d02565b6000807f00000000000000000000000000000000000000000000000000000000000000006001600160a01b031663ac98e5df6040518163ffffffff1660e01b8152600401608060405180830381865afa158015610d36573d6000803e3d6000fd5b505050506040513d601f19601f82011682018060405250810190610d5a91906116a9565b505050905060007f00000000000000000000000000000000000000000000000000000000000000006001600160a01b0316634f367f0f6040518163ffffffff1660e01b81526004016040805180830381865afa158015610dbe573d6000803e3d6000fd5b505050506040513d601f19601f82011682018060405250810190610de29190611830565b50905080610df1836005611802565b600254610dfe9190611811565b10159250505090565b610e0f610ed4565b6001600160a01b038116610e795760405162461bcd60e51b815260206004820152602660248201527f4f776e61626c653a206e6577206f776e657220697320746865207a65726f206160448201526564647265737360d01b60648201526084015b60405180910390fd5b610e8281610fcb565b50565b600080610e95848a8a8a8a61101b565b905060006040518060400160405280610eae8489610799565b8152602001858152509050600154610ec5826107be565b149a9950505050505050505050565b6000546001600160a01b031633146104a55760405162461bcd60e51b815260206004820181905260248201527f4f776e61626c653a2063616c6c6572206973206e6f7420746865206f776e65726044820152606401610e70565b600080826001600160a01b0316634909229f6040518163ffffffff1660e01b81526004016040805180830381865afa158015610f6e573d6000803e3d6000fd5b505050506040513d601f19601f82011682018060405250810190610f929190611830565b90925090506000610fa38342611d2a565b9050818111610fc557604051635c3017c560e11b815260040160405180910390fd5b50505050565b600080546001600160a01b038381166001600160a01b0319831681178455604051919092169283917f8be0079c531659141344cd1fd0a4f28419497f9722a3daafe3b4186f6b6457e09190a35050565b60008061102960058761190c565b90508491506000611038611171565b60005b8960ff168160ff1610156111465760005b60058160ff16101561111057848160ff1614156110835785838260ff166005811061107957611079611920565b6020020152611100565b848160ff1611156110a057611099600182611d41565b93506110a4565b8093505b87878360ff168181106110b9576110b9611920565b90506020028101906110cb9190611d64565b8560ff168181106110de576110de611920565b90506020020135838260ff16600581106110fa576110fa611920565b60200201525b61110981611db5565b905061104c565b5061111c60058a611cd6565b985061112960058a61190c565b935061113482610bda565b945061113f81611db5565b905061103b565b5050505095945050505050565b60405180604001604052806002906020820280368337509192915050565b6040518060a001604052806005906020820280368337509192915050565b8061010081018310156106f957600080fd5b60008061012083850312156111b557600080fd5b823591506111c6846020850161118f565b90509250929050565b634e487b7160e01b600052604160045260246000fd5b6040805190810167ffffffffffffffff81118282101715611208576112086111cf565b60405290565b60405160a0810167ffffffffffffffff81118282101715611208576112086111cf565b604051601f8201601f1916810167ffffffffffffffff8111828210171561125a5761125a6111cf565b604052919050565b60006080828403121561127457600080fd5b82601f83011261128357600080fd5b6040516080810181811067ffffffffffffffff821117156112a6576112a66111cf565b6040528060808401858111156112bb57600080fd5b845b818110156112d55780358352602092830192016112bd565b509195945050505050565b600067ffffffffffffffff8211156112fa576112fa6111cf565b5060051b60200190565b6000602080838503121561131757600080fd5b823567ffffffffffffffff81111561132e57600080fd5b8301601f8101851361133f57600080fd5b803561135261134d826112e0565b611231565b81815260059190911b8201830190838101908783111561137157600080fd5b928401925b828410156108ec57833582529284019290840190611376565b600080604083850312156113a257600080fd5b50508035926020909101359150565b6000604082840312156113c357600080fd5b82601f8301126113d257600080fd5b6113da6111e5565b8060408401858111156113ec57600080fd5b845b818110156114065780358452602093840193016113ee565b509095945050505050565b60008060006060848603121561142657600080fd5b505081359360208301359350604090920135919050565b6000806000806080858703121561145357600080fd5b5050823594602084013594506040840135936060013592509050565b6000806000806000610180868803121561148857600080fd5b611492878761118f565b9761010087013597506101208701359661014081013596506101600135945092505050565b600060a082840312156114c957600080fd5b82601f8301126114d857600080fd5b60405160a0810181811067ffffffffffffffff821117156114fb576114fb6111cf565b6040528060a08401858111156112bb57600080fd5b60006060828403121561152257600080fd5b82601f83011261153157600080fd5b6040516060810181811067ffffffffffffffff82111715611554576115546111cf565b6040528060608401858111156112bb57600080fd5b6001600160a01b0381168114610e8257600080fd5b60006020828403121561159057600080fd5b813561159b81611569565b9392505050565b60ff81168114610e8257600080fd5b80356115bc816115a2565b919050565b600080600080600080600060c0888a0312156115dc57600080fd5b8735965060208801359550604088013567ffffffffffffffff8082111561160257600080fd5b818a0191508a601f83011261161657600080fd5b81358181111561162557600080fd5b8b60208260051b850101111561163a57600080fd5b60208301975080965050505060608801359250611659608089016115b1565b915060a0880135905092959891949750929550565b60006020828403121561168057600080fd5b8151801515811461159b57600080fd5b6000602082840312156116a257600080fd5b5051919050565b600080600080608085870312156116bf57600080fd5b84516116ca816115a2565b60208601519094506116db816115a2565b60408601519093506116ec816115a2565b60608601519092506116fd816115a2565b939692955090935050565b634e487b7160e01b600052601160045260246000fd5b600181815b8085111561175957816000190482111561173f5761173f611708565b8085161561174c57918102915b93841c9390800290611723565b509250929050565b600082611770575060016106f9565b8161177d575060006106f9565b8160018114611793576002811461179d576117b9565b60019150506106f9565b60ff8411156117ae576117ae611708565b50506001821b6106f9565b5060208310610133831016604e8410600b84101617156117dc575081810a6106f9565b6117e6838361171e565b80600019048211156117fa576117fa611708565b029392505050565b600061159b60ff841683611761565b600081600019048311821515161561182b5761182b611708565b500290565b6000806040838503121561184357600080fd5b505080516020909101519092909150565b60808101818360005b600481101561187c57815183526020928301929091019060010161185d565b50505092915050565b815160009082906020808601845b838110156118af57815185529382019390820190600101611893565b50929695505050505050565b6000825160005b818110156118dc57602081860181015185830152016118c2565b818111156118eb576000828501525b509190910192915050565b634e487b7160e01b600052601260045260246000fd5b60008261191b5761191b6118f6565b500690565b634e487b7160e01b600052603260045260246000fd5b60408101818360005b600281101561187c57815183526020928301929091019060010161193f565b60008060006060848603121561197357600080fd5b835161197e81611569565b602085015190935061198f81611569565b60408501519092506119a081611569565b809150509250925092565b6000602082840312156119bd57600080fd5b815161159b816115a2565b6000604082840312156119da57600080fd5b6119e26111e5565b9050815181526020820151602082015292915050565b600082601f830112611a0957600080fd5b611a116111e5565b806040840185811115611a2357600080fd5b845b81811015611406578051845260209384019301611a25565b600060808284031215611a4f57600080fd5b611a576111e5565b9050611a6383836119f8565b8152611a7283604084016119f8565b602082015292915050565b60006020808385031215611a9057600080fd5b825167ffffffffffffffff80821115611aa857600080fd5b908401906101e08287031215611abd57600080fd5b611ac561120e565b611acf87846119c8565b81526040611adf88828601611a3d565b85830152611af08860c08601611a3d565b81830152611b02886101408601611a3d565b60608301526101c084015183811115611b1a57600080fd5b80850194505087601f850112611b2f57600080fd5b83519250611b3f61134d846112e0565b83815260069390931b84018501928581019089851115611b5e57600080fd5b948601945b84861015611b8457611b758a876119c8565b82529482019490860190611b63565b60808401525090979650505050505050565b8060005b6002811015610fc5578151845260209384019390910190600101611b9a565b611bc4828251611b96565b6020810151611bd66040840182611b96565b505050565b60006101406101008087853783018190528451805182850190815260209182015191015261032083016020915081860151611c1a610180860182611bb9565b50604080870151611c2f610200870182611bb9565b506060870151611c43610280870182611bb9565b5060808701516101e06103008701528051928390528301916000906103408701905b80831015611c9657611c8282865180518252602090810151910152565b938501936001929092019190830190611c65565b50809550505050505082610120830152949350505050565b60a08101818360005b600581101561187c578151835260209283019290910190600101611cb7565b600082611ce557611ce56118f6565b500490565b60008219821115611cfd57611cfd611708565b500190565b60608101818360005b600381101561187c578151835260209283019290910190600101611d0b565b600082821015611d3c57611d3c611708565b500390565b600060ff821660ff841680821015611d5b57611d5b611708565b90039392505050565b6000808335601e19843603018112611d7b57600080fd5b83018035915067ffffffffffffffff821115611d9657600080fd5b6020019150600581901b3603821315611dae57600080fd5b9250929050565b600060ff821660ff811415611dcc57611dcc611708565b6001019291505056fea264697066735822122044d34e26c4f95295d829a4c02109301a8d625030f001d7c6ceb641b04b3d3fe964736f6c634300080a0033a26469706673582212209b10af74c5341e57685991da5baf8646c6b5ffda450142631733adb6597a1a8764736f6c634300080a0033",
  "linkReferences": {
    "contracts/crypto/PoseidonT3.sol": {
      "PoseidonT3": [
        {
          "length": 20,
          "start": 2886
        }
      ]
    },
    "contracts/crypto/PoseidonT4.sol": {
      "PoseidonT4": [
        {
          "length": 20,
          "start": 4131
        }
      ]
    },
    "contracts/crypto/PoseidonT5.sol": {
      "PoseidonT5": [
        {
          "length": 20,
          "start": 2566
        }
      ]
    },
    "contracts/crypto/PoseidonT6.sol": {
      "PoseidonT6": [
        {
          "length": 20,
          "start": 3938
        }
      ]
    }
  },
  "deployedLinkReferences": {
    "contracts/crypto/PoseidonT3.sol": {
      "PoseidonT3": [
        {
          "length": 20,
          "start": 2854
        }
      ]
    },
    "contracts/crypto/PoseidonT4.sol": {
      "PoseidonT4": [
        {
          "length": 20,
          "start": 4099
        }
      ]
    },
    "contracts/crypto/PoseidonT5.sol": {
      "PoseidonT5": [
        {
          "length": 20,
          "start": 2534
        }
      ]
    },
    "contracts/crypto/PoseidonT6.sol": {
      "PoseidonT6": [
        {
          "length": 20,
          "start": 3906
        }
      ]
    }
  }
}