{
  "_format": "hh-sol-artifact-1",
  "contractName": "TopupCredit",
  "sourceName": "contracts/TopupCredit.sol",
  "abi": [
    {
      "inputs": [],
      "stateMutability": "payable",
      "type": "constructor"
    },
    {
      "inputs": [],
      "name": "ExceedLimit",
      "type": "error"
    },
    {
      "anonymous": false,
      "inputs": [
        {
          "indexed": true,
          "internalType": "address",
          "name": "owner",
          "type": "address"
        },
        {
          "indexed": true,
          "internalType": "address",
          "name": "spender",
          "type": "address"
        },
        {
          "indexed": false,
          "internalType": "uint256",
          "name": "value",
          "type": "uint256"
        }
      ],
      "name": "Approval",
      "type": "event"
    },
    {
      "anonymous": false,
      "inputs": [
        {
          "indexed": true,
          "internalType": "address",
          "name": "previousOwner",
          "type": "address"
        },
        {
          "indexed": true,
          "internalType": "address",
          "name": "newOwner",
          "type": "address"
        }
      ],
      "name": "OwnershipTransferred",
      "type": "event"
    },
    {
      "anonymous": false,
      "inputs": [
        {
          "indexed": true,
          "internalType": "address",
          "name": "from",
          "type": "address"
        },
        {
          "indexed": true,
          "internalType": "address",
          "name": "to",
          "type": "address"
        },
        {
          "indexed": false,
          "internalType": "uint256",
          "name": "value",
          "type": "uint256"
        }
      ],
      "name": "Transfer",
      "type": "event"
    },
    {
      "inputs": [],
      "name": "DECIMALS",
      "outputs": [
        {
          "internalType": "uint8",
          "name": "",
          "type": "uint8"
        }
      ],
      "stateMutability": "view",
      "type": "function"
    },
    {
      "inputs": [],
      "name": "MAXIMUM_AIRDROP_AMOUNT",
      "outputs": [
        {
          "internalType": "uint256",
          "name": "",
          "type": "uint256"
        }
      ],
      "stateMutability": "view",
      "type": "function"
    },
    {
      "inputs": [
        {
          "internalType": "uint256",
          "name": "amount",
          "type": "uint256"
        }
      ],
      "name": "airdrop",
      "outputs": [],
      "stateMutability": "nonpayable",
      "type": "function"
    },
    {
      "inputs": [
        {
          "internalType": "address",
          "name": "account",
          "type": "address"
        },
        {
          "internalType": "uint256",
          "name": "amount",
          "type": "uint256"
        }
      ],
      "name": "airdropTo",
      "outputs": [],
      "stateMutability": "nonpayable",
      "type": "function"
    },
    {
      "inputs": [
        {
          "internalType": "address",
          "name": "owner",
          "type": "address"
        },
        {
          "internalType": "address",
          "name": "spender",
          "type": "address"
        }
      ],
      "name": "allowance",
      "outputs": [
        {
          "internalType": "uint256",
          "name": "",
          "type": "uint256"
        }
      ],
      "stateMutability": "view",
      "type": "function"
    },
    {
      "inputs": [
        {
          "internalType": "address",
          "name": "spender",
          "type": "address"
        },
        {
          "internalType": "uint256",
          "name": "amount",
          "type": "uint256"
        }
      ],
      "name": "approve",
      "outputs": [
        {
          "internalType": "bool",
          "name": "",
          "type": "bool"
        }
      ],
      "stateMutability": "nonpayable",
      "type": "function"
    },
    {
      "inputs": [
        {
          "internalType": "address",
          "name": "account",
          "type": "address"
        }
      ],
      "name": "balanceOf",
      "outputs": [
        {
          "internalType": "uint256",
          "name": "",
          "type": "uint256"
        }
      ],
      "stateMutability": "view",
      "type": "function"
    },
    {
      "inputs": [],
      "name": "decimals",
      "outputs": [
        {
          "internalType": "uint8",
          "name": "",
          "type": "uint8"
        }
      ],
      "stateMutability": "view",
      "type": "function"
    },
    {
      "inputs": [
        {
          "internalType": "address",
          "name": "spender",
          "type": "address"
        },
        {
          "internalType": "uint256",
          "name": "subtractedValue",
          "type": "uint256"
        }
      ],
      "name": "decreaseAllowance",
      "outputs": [
        {
          "internalType": "bool",
          "name": "",
          "type": "bool"
        }
      ],
      "stateMutability": "nonpayable",
      "type": "function"
    },
    {
      "inputs": [
        {
          "internalType": "address",
          "name": "spender",
          "type": "address"
        },
        {
          "internalType": "uint256",
          "name": "addedValue",
          "type": "uint256"
        }
      ],
      "name": "increaseAllowance",
      "outputs": [
        {
          "internalType": "bool",
          "name": "",
          "type": "bool"
        }
      ],
      "stateMutability": "nonpayable",
      "type": "function"
    },
    {
      "inputs": [],
      "name": "name",
      "outputs": [
        {
          "internalType": "string",
          "name": "",
          "type": "string"
        }
      ],
      "stateMutability": "view",
      "type": "function"
    },
    {
      "inputs": [],
      "name": "owner",
      "outputs": [
        {
          "internalType": "address",
          "name": "",
          "type": "address"
        }
      ],
      "stateMutability": "view",
      "type": "function"
    },
    {
      "inputs": [],
      "name": "renounceOwnership",
      "outputs": [],
      "stateMutability": "nonpayable",
      "type": "function"
    },
    {
      "inputs": [],
      "name": "symbol",
      "outputs": [
        {
          "internalType": "string",
          "name": "",
          "type": "string"
        }
      ],
      "stateMutability": "view",
      "type": "function"
    },
    {
      "inputs": [],
      "name": "totalSupply",
      "outputs": [
        {
          "internalType": "uint256",
          "name": "",
          "type": "uint256"
        }
      ],
      "stateMutability": "view",
      "type": "function"
    },
    {
      "inputs": [
        {
          "internalType": "address",
          "name": "to",
          "type": "address"
        },
        {
          "internalType": "uint256",
          "name": "amount",
          "type": "uint256"
        }
      ],
      "name": "transfer",
      "outputs": [
        {
          "internalType": "bool",
          "name": "",
          "type": "bool"
        }
      ],
      "stateMutability": "nonpayable",
      "type": "function"
    },
    {
      "inputs": [
        {
          "internalType": "address",
          "name": "from",
          "type": "address"
        },
        {
          "internalType": "address",
          "name": "to",
          "type": "address"
        },
        {
          "internalType": "uint256",
          "name": "amount",
          "type": "uint256"
        }
      ],
      "name": "transferFrom",
      "outputs": [
        {
          "internalType": "bool",
          "name": "",
          "type": "bool"
        }
      ],
      "stateMutability": "nonpayable",
      "type": "function"
    },
    {
      "inputs": [
        {
          "internalType": "address",
          "name": "newOwner",
          "type": "address"
        }
      ],
      "name": "transferOwnership",
      "outputs": [],
      "stateMutability": "nonpayable",
      "type": "function"
    }
  ],
  "bytecode": "0x600b60808181526a151bdc1d5c10dc99591a5d60aa1b60a081815261010060405260c084815260e092909252919290916200003e9160039190620000cd565b50805162000054906004906020840190620000cd565b505050620000716200006b6200007760201b60201c565b6200007b565b620001b0565b3390565b600580546001600160a01b038381166001600160a01b0319831681179093556040519116919082907f8be0079c531659141344cd1fd0a4f28419497f9722a3daafe3b4186f6b6457e090600090a35050565b828054620000db9062000173565b90600052602060002090601f016020900481019282620000ff57600085556200014a565b82601f106200011a57805160ff19168380011785556200014a565b828001600101855582156200014a579182015b828111156200014a5782518255916020019190600101906200012d565b50620001589291506200015c565b5090565b5b808211156200015857600081556001016200015d565b600181811c908216806200018857607f821691505b60208210811415620001aa57634e487b7160e01b600052602260045260246000fd5b50919050565b610d2980620001c06000396000f3fe608060405234801561001057600080fd5b50600436106101165760003560e01c8063715018a6116100a2578063a457c2d711610071578063a457c2d714610226578063a9059cbb14610239578063aaae80fd1461024c578063dd62ed3e1461025f578063f2fde38b1461027257600080fd5b8063715018a6146101e65780638da5cb5b146101f057806395d89b411461020b57806397dc4a131461021357600080fd5b806323b872dd116100e957806323b872dd146101765780632e0f262514610189578063313ce567146101a357806339509351146101aa57806370a08231146101bd57600080fd5b806306fdde031461011b578063095ea7b31461013957806318160ddd1461015c57806323633cf21461016e575b600080fd5b610123610285565b6040516101309190610a33565b60405180910390f35b61014c610147366004610aa4565b610317565b6040519015158152602001610130565b6002545b604051908152602001610130565b610160610331565b61014c610184366004610ace565b61034d565b610191600181565b60405160ff9091168152602001610130565b6012610191565b61014c6101b8366004610aa4565b610371565b6101606101cb366004610b0a565b6001600160a01b031660009081526020819052604090205490565b6101ee610393565b005b6005546040516001600160a01b039091168152602001610130565b6101236103a7565b6101ee610221366004610b2c565b6103b6565b61014c610234366004610aa4565b610406565b61014c610247366004610aa4565b610486565b6101ee61025a366004610aa4565b610494565b61016061026d366004610b45565b6104e5565b6101ee610280366004610b0a565b610510565b60606003805461029490610b78565b80601f01602080910402602001604051908101604052809291908181526020018280546102c090610b78565b801561030d5780601f106102e25761010080835404028352916020019161030d565b820191906000526020600020905b8154815290600101906020018083116102f057829003601f168201915b5050505050905090565b600033610325818585610586565b60019150505b92915050565b61033d6001600a610cad565b61034a90620186a0610cbc565b81565b60003361035b8582856106aa565b610366858585610724565b506001949350505050565b60003361032581858561038483836104e5565b61038e9190610cdb565b610586565b61039b6108c8565b6103a56000610922565b565b60606004805461029490610b78565b6103be6108c8565b6103ca6001600a610cad565b6103d790620186a0610cbc565b81106103f9576040516001622863f960e21b0319815260040160405180910390fd5b6104033382610974565b50565b6000338161041482866104e5565b9050838110156104795760405162461bcd60e51b815260206004820152602560248201527f45524332303a2064656372656173656420616c6c6f77616e63652062656c6f77604482015264207a65726f60d81b60648201526084015b60405180910390fd5b6103668286868403610586565b600033610325818585610724565b61049c6108c8565b6104a86001600a610cad565b6104b590620186a0610cbc565b81106104d7576040516001622863f960e21b0319815260040160405180910390fd5b6104e18282610974565b5050565b6001600160a01b03918216600090815260016020908152604080832093909416825291909152205490565b6105186108c8565b6001600160a01b03811661057d5760405162461bcd60e51b815260206004820152602660248201527f4f776e61626c653a206e6577206f776e657220697320746865207a65726f206160448201526564647265737360d01b6064820152608401610470565b61040381610922565b6001600160a01b0383166105e85760405162461bcd60e51b8152602060048201526024808201527f45524332303a20617070726f76652066726f6d20746865207a65726f206164646044820152637265737360e01b6064820152608401610470565b6001600160a01b0382166106495760405162461bcd60e51b815260206004820152602260248201527f45524332303a20617070726f766520746f20746865207a65726f206164647265604482015261737360f01b6064820152608401610470565b6001600160a01b0383811660008181526001602090815260408083209487168084529482529182902085905590518481527f8c5be1e5ebec7d5bd14f71427d1e84f3dd0314c0f7b2291e5b200ac8c7c3b925910160405180910390a3505050565b60006106b684846104e5565b9050600019811461071e57818110156107115760405162461bcd60e51b815260206004820152601d60248201527f45524332303a20696e73756666696369656e7420616c6c6f77616e63650000006044820152606401610470565b61071e8484848403610586565b50505050565b6001600160a01b0383166107885760405162461bcd60e51b815260206004820152602560248201527f45524332303a207472616e736665722066726f6d20746865207a65726f206164604482015264647265737360d81b6064820152608401610470565b6001600160a01b0382166107ea5760405162461bcd60e51b815260206004820152602360248201527f45524332303a207472616e7366657220746f20746865207a65726f206164647260448201526265737360e81b6064820152608401610470565b6001600160a01b038316600090815260208190526040902054818110156108625760405162461bcd60e51b815260206004820152602660248201527f45524332303a207472616e7366657220616d6f756e7420657863656564732062604482015265616c616e636560d01b6064820152608401610470565b6001600160a01b03848116600081815260208181526040808320878703905593871680835291849020805487019055925185815290927fddf252ad1be2c89b69c2b068fc378daa952ba7f163c4a11628f55a4df523b3ef910160405180910390a361071e565b6005546001600160a01b031633146103a55760405162461bcd60e51b815260206004820181905260248201527f4f776e61626c653a2063616c6c6572206973206e6f7420746865206f776e65726044820152606401610470565b600580546001600160a01b038381166001600160a01b0319831681179093556040519116919082907f8be0079c531659141344cd1fd0a4f28419497f9722a3daafe3b4186f6b6457e090600090a35050565b6001600160a01b0382166109ca5760405162461bcd60e51b815260206004820152601f60248201527f45524332303a206d696e7420746f20746865207a65726f2061646472657373006044820152606401610470565b80600260008282546109dc9190610cdb565b90915550506001600160a01b038216600081815260208181526040808320805486019055518481527fddf252ad1be2c89b69c2b068fc378daa952ba7f163c4a11628f55a4df523b3ef910160405180910390a35050565b600060208083528351808285015260005b81811015610a6057858101830151858201604001528201610a44565b81811115610a72576000604083870101525b50601f01601f1916929092016040019392505050565b80356001600160a01b0381168114610a9f57600080fd5b919050565b60008060408385031215610ab757600080fd5b610ac083610a88565b946020939093013593505050565b600080600060608486031215610ae357600080fd5b610aec84610a88565b9250610afa60208501610a88565b9150604084013590509250925092565b600060208284031215610b1c57600080fd5b610b2582610a88565b9392505050565b600060208284031215610b3e57600080fd5b5035919050565b60008060408385031215610b5857600080fd5b610b6183610a88565b9150610b6f60208401610a88565b90509250929050565b600181811c90821680610b8c57607f821691505b60208210811415610bad57634e487b7160e01b600052602260045260246000fd5b50919050565b634e487b7160e01b600052601160045260246000fd5b600181815b80851115610c04578160001904821115610bea57610bea610bb3565b80851615610bf757918102915b93841c9390800290610bce565b509250929050565b600082610c1b5750600161032b565b81610c285750600061032b565b8160018114610c3e5760028114610c4857610c64565b600191505061032b565b60ff841115610c5957610c59610bb3565b50506001821b61032b565b5060208310610133831016604e8410600b8410161715610c87575081810a61032b565b610c918383610bc9565b8060001904821115610ca557610ca5610bb3565b029392505050565b6000610b2560ff841683610c0c565b6000816000190483118215151615610cd657610cd6610bb3565b500290565b60008219821115610cee57610cee610bb3565b50019056fea2646970667358221220c9b2bbe003fd38955352b224447354bede3f8d34891f7b0a08fb37a61e946adf64736f6c634300080a0033",
  "linkReferences": {},
  "deployedLinkReferences": {}
}