{
  "_format": "hh-sol-artifact-1",
  "contractName": "VkRegistry",
  "sourceName": "contracts/VkRegistry.sol",
  "abi": [
    {
      "inputs": [],
      "stateMutability": "payable",
      "type": "constructor"
    },
    {
      "inputs": [],
      "name": "ProcessVkAlreadySet",
      "type": "error"
    },
    {
      "inputs": [],
      "name": "ProcessVkNotSet",
      "type": "error"
    },
    {
      "inputs": [],
      "name": "SubsidyVkAlreadySet",
      "type": "error"
    },
    {
      "inputs": [],
      "name": "SubsidyVkNotSet",
      "type": "error"
    },
    {
      "inputs": [],
      "name": "TallyVkAlreadySet",
      "type": "error"
    },
    {
      "inputs": [],
      "name": "TallyVkNotSet",
      "type": "error"
    },
    {
      "anonymous": false,
      "inputs": [
        {
          "indexed": true,
          "internalType": "address",
          "name": "previousOwner",
          "type": "address"
        },
        {
          "indexed": true,
          "internalType": "address",
          "name": "newOwner",
          "type": "address"
        }
      ],
      "name": "OwnershipTransferred",
      "type": "event"
    },
    {
      "anonymous": false,
      "inputs": [
        {
          "indexed": false,
          "internalType": "uint256",
          "name": "_sig",
          "type": "uint256"
        }
      ],
      "name": "ProcessVkSet",
      "type": "event"
    },
    {
      "anonymous": false,
      "inputs": [
        {
          "indexed": false,
          "internalType": "uint256",
          "name": "_sig",
          "type": "uint256"
        }
      ],
      "name": "SubsidyVkSet",
      "type": "event"
    },
    {
      "anonymous": false,
      "inputs": [
        {
          "indexed": false,
          "internalType": "uint256",
          "name": "_sig",
          "type": "uint256"
        }
      ],
      "name": "TallyVkSet",
      "type": "event"
    },
    {
      "inputs": [
        {
          "internalType": "uint256",
          "name": "_stateTreeDepth",
          "type": "uint256"
        },
        {
          "internalType": "uint256",
          "name": "_messageTreeDepth",
          "type": "uint256"
        },
        {
          "internalType": "uint256",
          "name": "_voteOptionTreeDepth",
          "type": "uint256"
        },
        {
          "internalType": "uint256",
          "name": "_messageBatchSize",
          "type": "uint256"
        }
      ],
      "name": "genProcessVkSig",
      "outputs": [
        {
          "internalType": "uint256",
          "name": "sig",
          "type": "uint256"
        }
      ],
      "stateMutability": "pure",
      "type": "function"
    },
    {
      "inputs": [
        {
          "internalType": "uint256",
          "name": "_stateTreeDepth",
          "type": "uint256"
        },
        {
          "internalType": "uint256",
          "name": "_intStateTreeDepth",
          "type": "uint256"
        },
        {
          "internalType": "uint256",
          "name": "_voteOptionTreeDepth",
          "type": "uint256"
        }
      ],
      "name": "genSubsidyVkSig",
      "outputs": [
        {
          "internalType": "uint256",
          "name": "sig",
          "type": "uint256"
        }
      ],
      "stateMutability": "pure",
      "type": "function"
    },
    {
      "inputs": [
        {
          "internalType": "uint256",
          "name": "_stateTreeDepth",
          "type": "uint256"
        },
        {
          "internalType": "uint256",
          "name": "_intStateTreeDepth",
          "type": "uint256"
        },
        {
          "internalType": "uint256",
          "name": "_voteOptionTreeDepth",
          "type": "uint256"
        }
      ],
      "name": "genTallyVkSig",
      "outputs": [
        {
          "internalType": "uint256",
          "name": "sig",
          "type": "uint256"
        }
      ],
      "stateMutability": "pure",
      "type": "function"
    },
    {
      "inputs": [
        {
          "internalType": "uint256",
          "name": "_stateTreeDepth",
          "type": "uint256"
        },
        {
          "internalType": "uint256",
          "name": "_messageTreeDepth",
          "type": "uint256"
        },
        {
          "internalType": "uint256",
          "name": "_voteOptionTreeDepth",
          "type": "uint256"
        },
        {
          "internalType": "uint256",
          "name": "_messageBatchSize",
          "type": "uint256"
        }
      ],
      "name": "getProcessVk",
      "outputs": [
        {
          "components": [
            {
              "components": [
                {
                  "internalType": "uint256",
                  "name": "x",
                  "type": "uint256"
                },
                {
                  "internalType": "uint256",
                  "name": "y",
                  "type": "uint256"
                }
              ],
              "internalType": "struct Pairing.G1Point",
              "name": "alpha1",
              "type": "tuple"
            },
            {
              "components": [
                {
                  "internalType": "uint256[2]",
                  "name": "x",
                  "type": "uint256[2]"
                },
                {
                  "internalType": "uint256[2]",
                  "name": "y",
                  "type": "uint256[2]"
                }
              ],
              "internalType": "struct Pairing.G2Point",
              "name": "beta2",
              "type": "tuple"
            },
            {
              "components": [
                {
                  "internalType": "uint256[2]",
                  "name": "x",
                  "type": "uint256[2]"
                },
                {
                  "internalType": "uint256[2]",
                  "name": "y",
                  "type": "uint256[2]"
                }
              ],
              "internalType": "struct Pairing.G2Point",
              "name": "gamma2",
              "type": "tuple"
            },
            {
              "components": [
                {
                  "internalType": "uint256[2]",
                  "name": "x",
                  "type": "uint256[2]"
                },
                {
                  "internalType": "uint256[2]",
                  "name": "y",
                  "type": "uint256[2]"
                }
              ],
              "internalType": "struct Pairing.G2Point",
              "name": "delta2",
              "type": "tuple"
            },
            {
              "components": [
                {
                  "internalType": "uint256",
                  "name": "x",
                  "type": "uint256"
                },
                {
                  "internalType": "uint256",
                  "name": "y",
                  "type": "uint256"
                }
              ],
              "internalType": "struct Pairing.G1Point[]",
              "name": "ic",
              "type": "tuple[]"
            }
          ],
          "internalType": "struct SnarkCommon.VerifyingKey",
          "name": "vk",
          "type": "tuple"
        }
      ],
      "stateMutability": "view",
      "type": "function"
    },
    {
      "inputs": [
        {
          "internalType": "uint256",
          "name": "_sig",
          "type": "uint256"
        }
      ],
      "name": "getProcessVkBySig",
      "outputs": [
        {
          "components": [
            {
              "components": [
                {
                  "internalType": "uint256",
                  "name": "x",
                  "type": "uint256"
                },
                {
                  "internalType": "uint256",
                  "name": "y",
                  "type": "uint256"
                }
              ],
              "internalType": "struct Pairing.G1Point",
              "name": "alpha1",
              "type": "tuple"
            },
            {
              "components": [
                {
                  "internalType": "uint256[2]",
                  "name": "x",
                  "type": "uint256[2]"
                },
                {
                  "internalType": "uint256[2]",
                  "name": "y",
                  "type": "uint256[2]"
                }
              ],
              "internalType": "struct Pairing.G2Point",
              "name": "beta2",
              "type": "tuple"
            },
            {
              "components": [
                {
                  "internalType": "uint256[2]",
                  "name": "x",
                  "type": "uint256[2]"
                },
                {
                  "internalType": "uint256[2]",
                  "name": "y",
                  "type": "uint256[2]"
                }
              ],
              "internalType": "struct Pairing.G2Point",
              "name": "gamma2",
              "type": "tuple"
            },
            {
              "components": [
                {
                  "internalType": "uint256[2]",
                  "name": "x",
                  "type": "uint256[2]"
                },
                {
                  "internalType": "uint256[2]",
                  "name": "y",
                  "type": "uint256[2]"
                }
              ],
              "internalType": "struct Pairing.G2Point",
              "name": "delta2",
              "type": "tuple"
            },
            {
              "components": [
                {
                  "internalType": "uint256",
                  "name": "x",
                  "type": "uint256"
                },
                {
                  "internalType": "uint256",
                  "name": "y",
                  "type": "uint256"
                }
              ],
              "internalType": "struct Pairing.G1Point[]",
              "name": "ic",
              "type": "tuple[]"
            }
          ],
          "internalType": "struct SnarkCommon.VerifyingKey",
          "name": "vk",
          "type": "tuple"
        }
      ],
      "stateMutability": "view",
      "type": "function"
    },
    {
      "inputs": [
        {
          "internalType": "uint256",
          "name": "_stateTreeDepth",
          "type": "uint256"
        },
        {
          "internalType": "uint256",
          "name": "_intStateTreeDepth",
          "type": "uint256"
        },
        {
          "internalType": "uint256",
          "name": "_voteOptionTreeDepth",
          "type": "uint256"
        }
      ],
      "name": "getSubsidyVk",
      "outputs": [
        {
          "components": [
            {
              "components": [
                {
                  "internalType": "uint256",
                  "name": "x",
                  "type": "uint256"
                },
                {
                  "internalType": "uint256",
                  "name": "y",
                  "type": "uint256"
                }
              ],
              "internalType": "struct Pairing.G1Point",
              "name": "alpha1",
              "type": "tuple"
            },
            {
              "components": [
                {
                  "internalType": "uint256[2]",
                  "name": "x",
                  "type": "uint256[2]"
                },
                {
                  "internalType": "uint256[2]",
                  "name": "y",
                  "type": "uint256[2]"
                }
              ],
              "internalType": "struct Pairing.G2Point",
              "name": "beta2",
              "type": "tuple"
            },
            {
              "components": [
                {
                  "internalType": "uint256[2]",
                  "name": "x",
                  "type": "uint256[2]"
                },
                {
                  "internalType": "uint256[2]",
                  "name": "y",
                  "type": "uint256[2]"
                }
              ],
              "internalType": "struct Pairing.G2Point",
              "name": "gamma2",
              "type": "tuple"
            },
            {
              "components": [
                {
                  "internalType": "uint256[2]",
                  "name": "x",
                  "type": "uint256[2]"
                },
                {
                  "internalType": "uint256[2]",
                  "name": "y",
                  "type": "uint256[2]"
                }
              ],
              "internalType": "struct Pairing.G2Point",
              "name": "delta2",
              "type": "tuple"
            },
            {
              "components": [
                {
                  "internalType": "uint256",
                  "name": "x",
                  "type": "uint256"
                },
                {
                  "internalType": "uint256",
                  "name": "y",
                  "type": "uint256"
                }
              ],
              "internalType": "struct Pairing.G1Point[]",
              "name": "ic",
              "type": "tuple[]"
            }
          ],
          "internalType": "struct SnarkCommon.VerifyingKey",
          "name": "vk",
          "type": "tuple"
        }
      ],
      "stateMutability": "view",
      "type": "function"
    },
    {
      "inputs": [
        {
          "internalType": "uint256",
          "name": "_sig",
          "type": "uint256"
        }
      ],
      "name": "getSubsidyVkBySig",
      "outputs": [
        {
          "components": [
            {
              "components": [
                {
                  "internalType": "uint256",
                  "name": "x",
                  "type": "uint256"
                },
                {
                  "internalType": "uint256",
                  "name": "y",
                  "type": "uint256"
                }
              ],
              "internalType": "struct Pairing.G1Point",
              "name": "alpha1",
              "type": "tuple"
            },
            {
              "components": [
                {
                  "internalType": "uint256[2]",
                  "name": "x",
                  "type": "uint256[2]"
                },
                {
                  "internalType": "uint256[2]",
                  "name": "y",
                  "type": "uint256[2]"
                }
              ],
              "internalType": "struct Pairing.G2Point",
              "name": "beta2",
              "type": "tuple"
            },
            {
              "components": [
                {
                  "internalType": "uint256[2]",
                  "name": "x",
                  "type": "uint256[2]"
                },
                {
                  "internalType": "uint256[2]",
                  "name": "y",
                  "type": "uint256[2]"
                }
              ],
              "internalType": "struct Pairing.G2Point",
              "name": "gamma2",
              "type": "tuple"
            },
            {
              "components": [
                {
                  "internalType": "uint256[2]",
                  "name": "x",
                  "type": "uint256[2]"
                },
                {
                  "internalType": "uint256[2]",
                  "name": "y",
                  "type": "uint256[2]"
                }
              ],
              "internalType": "struct Pairing.G2Point",
              "name": "delta2",
              "type": "tuple"
            },
            {
              "components": [
                {
                  "internalType": "uint256",
                  "name": "x",
                  "type": "uint256"
                },
                {
                  "internalType": "uint256",
                  "name": "y",
                  "type": "uint256"
                }
              ],
              "internalType": "struct Pairing.G1Point[]",
              "name": "ic",
              "type": "tuple[]"
            }
          ],
          "internalType": "struct SnarkCommon.VerifyingKey",
          "name": "vk",
          "type": "tuple"
        }
      ],
      "stateMutability": "view",
      "type": "function"
    },
    {
      "inputs": [
        {
          "internalType": "uint256",
          "name": "_stateTreeDepth",
          "type": "uint256"
        },
        {
          "internalType": "uint256",
          "name": "_intStateTreeDepth",
          "type": "uint256"
        },
        {
          "internalType": "uint256",
          "name": "_voteOptionTreeDepth",
          "type": "uint256"
        }
      ],
      "name": "getTallyVk",
      "outputs": [
        {
          "components": [
            {
              "components": [
                {
                  "internalType": "uint256",
                  "name": "x",
                  "type": "uint256"
                },
                {
                  "internalType": "uint256",
                  "name": "y",
                  "type": "uint256"
                }
              ],
              "internalType": "struct Pairing.G1Point",
              "name": "alpha1",
              "type": "tuple"
            },
            {
              "components": [
                {
                  "internalType": "uint256[2]",
                  "name": "x",
                  "type": "uint256[2]"
                },
                {
                  "internalType": "uint256[2]",
                  "name": "y",
                  "type": "uint256[2]"
                }
              ],
              "internalType": "struct Pairing.G2Point",
              "name": "beta2",
              "type": "tuple"
            },
            {
              "components": [
                {
                  "internalType": "uint256[2]",
                  "name": "x",
                  "type": "uint256[2]"
                },
                {
                  "internalType": "uint256[2]",
                  "name": "y",
                  "type": "uint256[2]"
                }
              ],
              "internalType": "struct Pairing.G2Point",
              "name": "gamma2",
              "type": "tuple"
            },
            {
              "components": [
                {
                  "internalType": "uint256[2]",
                  "name": "x",
                  "type": "uint256[2]"
                },
                {
                  "internalType": "uint256[2]",
                  "name": "y",
                  "type": "uint256[2]"
                }
              ],
              "internalType": "struct Pairing.G2Point",
              "name": "delta2",
              "type": "tuple"
            },
            {
              "components": [
                {
                  "internalType": "uint256",
                  "name": "x",
                  "type": "uint256"
                },
                {
                  "internalType": "uint256",
                  "name": "y",
                  "type": "uint256"
                }
              ],
              "internalType": "struct Pairing.G1Point[]",
              "name": "ic",
              "type": "tuple[]"
            }
          ],
          "internalType": "struct SnarkCommon.VerifyingKey",
          "name": "vk",
          "type": "tuple"
        }
      ],
      "stateMutability": "view",
      "type": "function"
    },
    {
      "inputs": [
        {
          "internalType": "uint256",
          "name": "_sig",
          "type": "uint256"
        }
      ],
      "name": "getTallyVkBySig",
      "outputs": [
        {
          "components": [
            {
              "components": [
                {
                  "internalType": "uint256",
                  "name": "x",
                  "type": "uint256"
                },
                {
                  "internalType": "uint256",
                  "name": "y",
                  "type": "uint256"
                }
              ],
              "internalType": "struct Pairing.G1Point",
              "name": "alpha1",
              "type": "tuple"
            },
            {
              "components": [
                {
                  "internalType": "uint256[2]",
                  "name": "x",
                  "type": "uint256[2]"
                },
                {
                  "internalType": "uint256[2]",
                  "name": "y",
                  "type": "uint256[2]"
                }
              ],
              "internalType": "struct Pairing.G2Point",
              "name": "beta2",
              "type": "tuple"
            },
            {
              "components": [
                {
                  "internalType": "uint256[2]",
                  "name": "x",
                  "type": "uint256[2]"
                },
                {
                  "internalType": "uint256[2]",
                  "name": "y",
                  "type": "uint256[2]"
                }
              ],
              "internalType": "struct Pairing.G2Point",
              "name": "gamma2",
              "type": "tuple"
            },
            {
              "components": [
                {
                  "internalType": "uint256[2]",
                  "name": "x",
                  "type": "uint256[2]"
                },
                {
                  "internalType": "uint256[2]",
                  "name": "y",
                  "type": "uint256[2]"
                }
              ],
              "internalType": "struct Pairing.G2Point",
              "name": "delta2",
              "type": "tuple"
            },
            {
              "components": [
                {
                  "internalType": "uint256",
                  "name": "x",
                  "type": "uint256"
                },
                {
                  "internalType": "uint256",
                  "name": "y",
                  "type": "uint256"
                }
              ],
              "internalType": "struct Pairing.G1Point[]",
              "name": "ic",
              "type": "tuple[]"
            }
          ],
          "internalType": "struct SnarkCommon.VerifyingKey",
          "name": "vk",
          "type": "tuple"
        }
      ],
      "stateMutability": "view",
      "type": "function"
    },
    {
      "inputs": [
        {
          "internalType": "uint256",
          "name": "_stateTreeDepth",
          "type": "uint256"
        },
        {
          "internalType": "uint256",
          "name": "_messageTreeDepth",
          "type": "uint256"
        },
        {
          "internalType": "uint256",
          "name": "_voteOptionTreeDepth",
          "type": "uint256"
        },
        {
          "internalType": "uint256",
          "name": "_messageBatchSize",
          "type": "uint256"
        }
      ],
      "name": "hasProcessVk",
      "outputs": [
        {
          "internalType": "bool",
          "name": "isSet",
          "type": "bool"
        }
      ],
      "stateMutability": "view",
      "type": "function"
    },
    {
      "inputs": [
        {
          "internalType": "uint256",
          "name": "_stateTreeDepth",
          "type": "uint256"
        },
        {
          "internalType": "uint256",
          "name": "_intStateTreeDepth",
          "type": "uint256"
        },
        {
          "internalType": "uint256",
          "name": "_voteOptionTreeDepth",
          "type": "uint256"
        }
      ],
      "name": "hasSubsidyVk",
      "outputs": [
        {
          "internalType": "bool",
          "name": "isSet",
          "type": "bool"
        }
      ],
      "stateMutability": "view",
      "type": "function"
    },
    {
      "inputs": [
        {
          "internalType": "uint256",
          "name": "_stateTreeDepth",
          "type": "uint256"
        },
        {
          "internalType": "uint256",
          "name": "_intStateTreeDepth",
          "type": "uint256"
        },
        {
          "internalType": "uint256",
          "name": "_voteOptionTreeDepth",
          "type": "uint256"
        }
      ],
      "name": "hasTallyVk",
      "outputs": [
        {
          "internalType": "bool",
          "name": "isSet",
          "type": "bool"
        }
      ],
      "stateMutability": "view",
      "type": "function"
    },
    {
      "inputs": [
        {
          "internalType": "uint256",
          "name": "_sig",
          "type": "uint256"
        }
      ],
      "name": "isProcessVkSet",
      "outputs": [
        {
          "internalType": "bool",
          "name": "isSet",
          "type": "bool"
        }
      ],
      "stateMutability": "view",
      "type": "function"
    },
    {
      "inputs": [
        {
          "internalType": "uint256",
          "name": "_sig",
          "type": "uint256"
        }
      ],
      "name": "isSubsidyVkSet",
      "outputs": [
        {
          "internalType": "bool",
          "name": "isSet",
          "type": "bool"
        }
      ],
      "stateMutability": "view",
      "type": "function"
    },
    {
      "inputs": [
        {
          "internalType": "uint256",
          "name": "_sig",
          "type": "uint256"
        }
      ],
      "name": "isTallyVkSet",
      "outputs": [
        {
          "internalType": "bool",
          "name": "isSet",
          "type": "bool"
        }
      ],
      "stateMutability": "view",
      "type": "function"
    },
    {
      "inputs": [],
      "name": "owner",
      "outputs": [
        {
          "internalType": "address",
          "name": "",
          "type": "address"
        }
      ],
      "stateMutability": "view",
      "type": "function"
    },
    {
      "inputs": [],
      "name": "renounceOwnership",
      "outputs": [],
      "stateMutability": "nonpayable",
      "type": "function"
    },
    {
      "inputs": [
        {
          "internalType": "uint256",
          "name": "_stateTreeDepth",
          "type": "uint256"
        },
        {
          "internalType": "uint256",
          "name": "_intStateTreeDepth",
          "type": "uint256"
        },
        {
          "internalType": "uint256",
          "name": "_voteOptionTreeDepth",
          "type": "uint256"
        },
        {
          "components": [
            {
              "components": [
                {
                  "internalType": "uint256",
                  "name": "x",
                  "type": "uint256"
                },
                {
                  "internalType": "uint256",
                  "name": "y",
                  "type": "uint256"
                }
              ],
              "internalType": "struct Pairing.G1Point",
              "name": "alpha1",
              "type": "tuple"
            },
            {
              "components": [
                {
                  "internalType": "uint256[2]",
                  "name": "x",
                  "type": "uint256[2]"
                },
                {
                  "internalType": "uint256[2]",
                  "name": "y",
                  "type": "uint256[2]"
                }
              ],
              "internalType": "struct Pairing.G2Point",
              "name": "beta2",
              "type": "tuple"
            },
            {
              "components": [
                {
                  "internalType": "uint256[2]",
                  "name": "x",
                  "type": "uint256[2]"
                },
                {
                  "internalType": "uint256[2]",
                  "name": "y",
                  "type": "uint256[2]"
                }
              ],
              "internalType": "struct Pairing.G2Point",
              "name": "gamma2",
              "type": "tuple"
            },
            {
              "components": [
                {
                  "internalType": "uint256[2]",
                  "name": "x",
                  "type": "uint256[2]"
                },
                {
                  "internalType": "uint256[2]",
                  "name": "y",
                  "type": "uint256[2]"
                }
              ],
              "internalType": "struct Pairing.G2Point",
              "name": "delta2",
              "type": "tuple"
            },
            {
              "components": [
                {
                  "internalType": "uint256",
                  "name": "x",
                  "type": "uint256"
                },
                {
                  "internalType": "uint256",
                  "name": "y",
                  "type": "uint256"
                }
              ],
              "internalType": "struct Pairing.G1Point[]",
              "name": "ic",
              "type": "tuple[]"
            }
          ],
          "internalType": "struct SnarkCommon.VerifyingKey",
          "name": "_subsidyVk",
          "type": "tuple"
        }
      ],
      "name": "setSubsidyKeys",
      "outputs": [],
      "stateMutability": "nonpayable",
      "type": "function"
    },
    {
      "inputs": [
        {
          "internalType": "uint256",
          "name": "_stateTreeDepth",
          "type": "uint256"
        },
        {
          "internalType": "uint256",
          "name": "_intStateTreeDepth",
          "type": "uint256"
        },
        {
          "internalType": "uint256",
          "name": "_messageTreeDepth",
          "type": "uint256"
        },
        {
          "internalType": "uint256",
          "name": "_voteOptionTreeDepth",
          "type": "uint256"
        },
        {
          "internalType": "uint256",
          "name": "_messageBatchSize",
          "type": "uint256"
        },
        {
          "components": [
            {
              "components": [
                {
                  "internalType": "uint256",
                  "name": "x",
                  "type": "uint256"
                },
                {
                  "internalType": "uint256",
                  "name": "y",
                  "type": "uint256"
                }
              ],
              "internalType": "struct Pairing.G1Point",
              "name": "alpha1",
              "type": "tuple"
            },
            {
              "components": [
                {
                  "internalType": "uint256[2]",
                  "name": "x",
                  "type": "uint256[2]"
                },
                {
                  "internalType": "uint256[2]",
                  "name": "y",
                  "type": "uint256[2]"
                }
              ],
              "internalType": "struct Pairing.G2Point",
              "name": "beta2",
              "type": "tuple"
            },
            {
              "components": [
                {
                  "internalType": "uint256[2]",
                  "name": "x",
                  "type": "uint256[2]"
                },
                {
                  "internalType": "uint256[2]",
                  "name": "y",
                  "type": "uint256[2]"
                }
              ],
              "internalType": "struct Pairing.G2Point",
              "name": "gamma2",
              "type": "tuple"
            },
            {
              "components": [
                {
                  "internalType": "uint256[2]",
                  "name": "x",
                  "type": "uint256[2]"
                },
                {
                  "internalType": "uint256[2]",
                  "name": "y",
                  "type": "uint256[2]"
                }
              ],
              "internalType": "struct Pairing.G2Point",
              "name": "delta2",
              "type": "tuple"
            },
            {
              "components": [
                {
                  "internalType": "uint256",
                  "name": "x",
                  "type": "uint256"
                },
                {
                  "internalType": "uint256",
                  "name": "y",
                  "type": "uint256"
                }
              ],
              "internalType": "struct Pairing.G1Point[]",
              "name": "ic",
              "type": "tuple[]"
            }
          ],
          "internalType": "struct SnarkCommon.VerifyingKey",
          "name": "_processVk",
          "type": "tuple"
        },
        {
          "components": [
            {
              "components": [
                {
                  "internalType": "uint256",
                  "name": "x",
                  "type": "uint256"
                },
                {
                  "internalType": "uint256",
                  "name": "y",
                  "type": "uint256"
                }
              ],
              "internalType": "struct Pairing.G1Point",
              "name": "alpha1",
              "type": "tuple"
            },
            {
              "components": [
                {
                  "internalType": "uint256[2]",
                  "name": "x",
                  "type": "uint256[2]"
                },
                {
                  "internalType": "uint256[2]",
                  "name": "y",
                  "type": "uint256[2]"
                }
              ],
              "internalType": "struct Pairing.G2Point",
              "name": "beta2",
              "type": "tuple"
            },
            {
              "components": [
                {
                  "internalType": "uint256[2]",
                  "name": "x",
                  "type": "uint256[2]"
                },
                {
                  "internalType": "uint256[2]",
                  "name": "y",
                  "type": "uint256[2]"
                }
              ],
              "internalType": "struct Pairing.G2Point",
              "name": "gamma2",
              "type": "tuple"
            },
            {
              "components": [
                {
                  "internalType": "uint256[2]",
                  "name": "x",
                  "type": "uint256[2]"
                },
                {
                  "internalType": "uint256[2]",
                  "name": "y",
                  "type": "uint256[2]"
                }
              ],
              "internalType": "struct Pairing.G2Point",
              "name": "delta2",
              "type": "tuple"
            },
            {
              "components": [
                {
                  "internalType": "uint256",
                  "name": "x",
                  "type": "uint256"
                },
                {
                  "internalType": "uint256",
                  "name": "y",
                  "type": "uint256"
                }
              ],
              "internalType": "struct Pairing.G1Point[]",
              "name": "ic",
              "type": "tuple[]"
            }
          ],
          "internalType": "struct SnarkCommon.VerifyingKey",
          "name": "_tallyVk",
          "type": "tuple"
        }
      ],
      "name": "setVerifyingKeys",
      "outputs": [],
      "stateMutability": "nonpayable",
      "type": "function"
    },
    {
      "inputs": [
        {
          "internalType": "address",
          "name": "newOwner",
          "type": "address"
        }
      ],
      "name": "transferOwnership",
      "outputs": [],
      "stateMutability": "nonpayable",
      "type": "function"
    }
  ],
  "bytecode": "0x608060405261000d33610012565b610062565b600080546001600160a01b038381166001600160a01b0319831681178455604051919092169283917f8be0079c531659141344cd1fd0a4f28419497f9722a3daafe3b4186f6b6457e09190a35050565b611557806100716000396000f3fe608060405234801561001057600080fd5b506004361061012c5760003560e01c80638da5cb5b116100ad578063ba2ff7ab11610071578063ba2ff7ab1461029e578063c7c8beec146102b1578063db9f755b146102c4578063f1a510b0146102d7578063f2fde38b146102ea57600080fd5b80638da5cb5b14610227578063935a2bc514610242578063a761918614610265578063abc61c6b14610278578063b2e395301461028b57600080fd5b806326960517116100f457806326960517146101d157806341951d4f146101e45780634f1b0e5f146101f9578063715018a61461020c5780638bc1a5991461021457600080fd5b80630bfbd4fe14610131578063141a87641461015a57806317b7f8101461017b5780631afe11ef1461015a578063257752d3146101ae575b600080fd5b61014461013f366004611167565b6102fd565b60405161015191906111e4565b60405180910390f35b61016d610168366004611297565b610328565b604051908152602001610151565b61019e6101893660046112c3565b60009081526004602052604090205460ff1690565b6040519015158152602001610151565b61019e6101bc3660046112c3565b60009081526002602052604090205460ff1690565b61019e6101df366004611297565b61034f565b6101f76101f23660046112f5565b610378565b005b61019e610207366004611167565b61050a565b6101f7610535565b6101446102223660046112c3565b610549565b6000546040516001600160a01b039091168152602001610151565b61019e6102503660046112c3565b60009081526006602052604090205460ff1690565b61019e610273366004611297565b610795565b6101f761028636600461134f565b6107be565b61016d610299366004611167565b610ada565b6101446102ac3660046112c3565b610b11565b6101446102bf366004611297565b610d41565b6101446102d23660046112c3565b610d5d565b6101446102e5366004611297565b610f8b565b6101f76102f83660046113e3565b610fab565b6103056110d3565b600061031386868686610ada565b905061031e81610b11565b9695505050505050565b60008161033d604085901b608087901b611429565b6103479190611429565b949350505050565b60008061035d858585610328565b60009081526004602052604090205460ff1695945050505050565b610380611029565b600061038d858585610328565b60008181526006602052604090205490915060ff16156103c05760405163bc6e49a760e01b815260040160405180910390fd5b60008181526005602090815260409091208335815590830135600182015560408301600282016103f08282611441565b505060c08301600682016104048282611441565b50506101408301600a82016104198282611441565b90505060005b61042d6101c085018561149a565b90508160ff1610156104ae57600e820161044b6101c086018661149a565b8360ff1681811061045e5761045e6114eb565b835460018101855560009485526020909420604090910292909201926002029091019050610499828281358155602082013560018201555050565b505080806104a690611501565b91505061041f565b5060008281526006602052604090819020805460ff19166001179055517f85392fd56cfeb44bd3078be9ad4b18cbcc4ad1256a9fe8922ef360ef1ed26927906104fa9084815260200190565b60405180910390a1505050505050565b60008061051986868686610ada565b60009081526002602052604090205460ff169695505050505050565b61053d611029565b6105476000611083565b565b6105516110d3565b60008281526006602052604090205460ff166105805760405163f3bf1c2360e01b815260040160405180910390fd5b600082815260056020908152604091829020825160e081018452815460a08201908152600183015460c08301528152835160808101808652919492938501929091600280860192849290830191849182845b8154815260200190600101908083116105d257505050918352505060408051808201918290526020909201919060028481019182845b815481526020019060010190808311610608575050509190925250505081526040805160808101808352602090930192909160068501918391820190839060029082845b81548152602001906001019080831161064c57505050918352505060408051808201918290526020909201919060028481019182845b8154815260200190600101908083116106825750505091909252505050815260408051608081018083526020909301929091600a8501918391820190839060029082845b8154815260200190600101908083116106c657505050918352505060408051808201918290526020909201919060028481019182845b8154815260200190600101908083116106fc575050505050815250508152602001600e8201805480602002602001604051908101604052809291908181526020016000905b8282101561078757838290600052602060002090600202016040518060400160405290816000820154815260200160018201548152505081526020019060010190610741565b505050915250909392505050565b6000806107a3858585610328565b60009081526006602052604090205460ff1695945050505050565b6107c6611029565b60006107d488878787610ada565b60008181526002602052604090205490915060ff1615610807576040516329fae11360e01b815260040160405180910390fd5b6000610814898988610328565b60008181526004602052604090205490915060ff161561084757604051630877857960e21b815260040160405180910390fd5b600082815260016020818152604090922086358155918601359082015560408501600282016108768282611441565b505060c085016006820161088a8282611441565b50506101408501600a820161089f8282611441565b90505060005b6108b36101c087018761149a565b90508160ff16101561093457600e82016108d16101c088018861149a565b8360ff168181106108e4576108e46114eb565b83546001810185556000948552602090942060409091029290920192600202909101905061091f828281358155602082013560018201555050565b5050808061092c90611501565b9150506108a5565b506000838152600260209081526040808320805460ff19166001179055848352600390915290208481610974828281358155602082013560018201555050565b505060408501600282016109888282611441565b505060c085016006820161099c8282611441565b50506101408501600a82016109b18282611441565b90505060005b6109c56101c087018761149a565b90508160ff161015610a4657600e82016109e36101c088018861149a565b8360ff168181106109f6576109f66114eb565b835460018101855560009485526020909420604090910292909201926002029091019050610a31828281358155602082013560018201555050565b50508080610a3e90611501565b9150506109b7565b5060008381526004602052604090819020805460ff19166001179055517f8f43c6d3469daf791f866fe1e4abbf6f0d05622995407c31724c500801558a3590610a929085815260200190565b60405180910390a16040518481527f865b6bc6650679c23b8967ee4ae722034eb0634534e4963caf7cf662a6f3731c9060200160405180910390a15050505050505050505050565b600082604085901b610af4608088901b60c086901b611429565b610afe9190611429565b610b089190611429565b95945050505050565b610b196110d3565b60008281526002602052604090205460ff16610b4857604051632f257a9d60e11b815260040160405180910390fd5b600082815260016020818152604092839020835160e081018552815460a082019081529382015460c0820152928352835160808101808652600280840180549784019788529596939594870194929384929091849160038901606086018083116105d257505050918352505060408051808201918290526002848101805483526020948501949293909260038701908501808311610608575050509190925250505081526040805160808101808352600685018054938301938452602090940193919283918390600290600789016060860180831161064c57505050918352505060408051808201918290526002848101805483526020948501949293909260038701908501808311610682575050509190925250505081526040805160808101808352600a85018054938301938452602090940193919283918390600290600b8901606086018083116106c6575050509183525050604080518082019182905260028481018054835260209485019492939092600387019085018083116106fc575050505050815250508152602001600e8201805480602002602001604051908101604052809291908181526020016000908282101561078757838290600052602060002090600202016040518060400160405290816000820154815260200160018201548152505081526020019060010190610741565b610d496110d3565b6000610d56858585610328565b9050610b08815b610d656110d3565b60008281526004602052604090205460ff16610d935760405162f7dd2f60e71b815260040160405180910390fd5b600082815260036020818152604092839020835160e081018552815460a08201908152600183015460c083015281528451608081018087526002808501805498840198895293979496958801959294859390928592918901606086018083116105d257505050918352505060408051808201918290526002848101805483526020948501949293909260038701908501808311610608575050509190925250505081526040805160808101808352600685018054938301938452602090940193919283918390600290600789016060860180831161064c57505050918352505060408051808201918290526002848101805483526020948501949293909260038701908501808311610682575050509190925250505081526040805160808101808352600a85018054938301938452602090940193919283918390600290600b8901606086018083116106c6575050509183525050604080518082019182905260028481018054835260209485019492939092600387019085018083116106fc575050505050815250508152602001600e8201805480602002602001604051908101604052809291908181526020016000908282101561078757838290600052602060002090600202016040518060400160405290816000820154815260200160018201548152505081526020019060010190610741565b610f936110d3565b6000610fa0858585610328565b9050610b0881610549565b610fb3611029565b6001600160a01b03811661101d5760405162461bcd60e51b815260206004820152602660248201527f4f776e61626c653a206e6577206f776e657220697320746865207a65726f206160448201526564647265737360d01b60648201526084015b60405180910390fd5b61102681611083565b50565b6000546001600160a01b031633146105475760405162461bcd60e51b815260206004820181905260248201527f4f776e61626c653a2063616c6c6572206973206e6f7420746865206f776e65726044820152606401611014565b600080546001600160a01b038381166001600160a01b0319831681178455604051919092169283917f8be0079c531659141344cd1fd0a4f28419497f9722a3daafe3b4186f6b6457e09190a35050565b6040805160e08101909152600060a0820181815260c08301919091528152602081016110fd611124565b815260200161110a611124565b8152602001611117611124565b8152602001606081525090565b6040518060400160405280611137611149565b8152602001611144611149565b905290565b60405180604001604052806002906020820280368337509192915050565b6000806000806080858703121561117d57600080fd5b5050823594602084013594506040840135936060013592509050565b8060005b60028110156111bc57815184526020938401939091019060010161119d565b50505050565b6111cd828251611199565b60208101516111df6040840182611199565b505050565b60208082528251805183830152810151604083015260009061020083018185015161121260608601826111c2565b5060408086015161122660e08701826111c2565b50606086015161123a6101608701826111c2565b5060808601516101e0868101528051928390528301916000906102208701905b8083101561128b5761127782865180518252602090810151910152565b93850193600192909201919083019061125a565b50979650505050505050565b6000806000606084860312156112ac57600080fd5b505081359360208301359350604090920135919050565b6000602082840312156112d557600080fd5b5035919050565b60006101e082840312156112ef57600080fd5b50919050565b6000806000806080858703121561130b57600080fd5b843593506020850135925060408501359150606085013567ffffffffffffffff81111561133757600080fd5b611343878288016112dc565b91505092959194509250565b600080600080600080600060e0888a03121561136a57600080fd5b873596506020880135955060408801359450606088013593506080880135925060a088013567ffffffffffffffff808211156113a557600080fd5b6113b18b838c016112dc565b935060c08a01359150808211156113c757600080fd5b506113d48a828b016112dc565b91505092959891949750929550565b6000602082840312156113f557600080fd5b81356001600160a01b038116811461140c57600080fd5b9392505050565b634e487b7160e01b600052601160045260246000fd5b6000821982111561143c5761143c611413565b500190565b818160005b6002811015611465578235825560209092019160019182019101611446565b50505060026040830181830160005b83811015611492578235825560209092019160019182019101611474565b505050505050565b6000808335601e198436030181126114b157600080fd5b83018035915067ffffffffffffffff8211156114cc57600080fd5b6020019150600681901b36038213156114e457600080fd5b9250929050565b634e487b7160e01b600052603260045260246000fd5b600060ff821660ff81141561151857611518611413565b6001019291505056fea2646970667358221220a51433db5ce8e575256576741f2df5320ffd879b0ff81884f3072a9c9d4caf2664736f6c634300080a0033",
  "linkReferences": {},
  "deployedLinkReferences": {}
}