{
  "_format": "hh-sol-artifact-1",
  "contractName": "ClonablePoll",
  "sourceName": "contracts/ClonableMaciContracts/ClonablePoll.sol",
  "abi": [
    {
      "inputs": [],
      "name": "InvalidBatchLength",
      "type": "error"
    },
    {
      "inputs": [],
      "name": "InvalidMessage",
      "type": "error"
    },
    {
      "inputs": [],
      "name": "MaciPubKeyLargerThanSnarkFieldSize",
      "type": "error"
    },
    {
      "inputs": [],
      "name": "PollAlreadyInit",
      "type": "error"
    },
    {
      "inputs": [],
      "name": "StateAqAlreadyMerged",
      "type": "error"
    },
    {
      "inputs": [],
      "name": "StateAqSubtreesNeedMerge",
      "type": "error"
    },
    {
      "inputs": [],
      "name": "TooManyMessages",
      "type": "error"
    },
    {
      "inputs": [],
      "name": "VotingPeriodNotOver",
      "type": "error"
    },
    {
      "inputs": [],
      "name": "VotingPeriodOver",
      "type": "error"
    },
    {
      "anonymous": false,
      "inputs": [
        {
          "indexed": false,
          "internalType": "uint8",
          "name": "version",
          "type": "uint8"
        }
      ],
      "name": "Initialized",
      "type": "event"
    },
    {
      "anonymous": false,
      "inputs": [
        {
          "indexed": false,
          "internalType": "uint256",
          "name": "_stateRoot",
          "type": "uint256"
        },
        {
          "indexed": false,
          "internalType": "uint256",
          "name": "_numSignups",
          "type": "uint256"
        }
      ],
      "name": "MergeMaciStateAq",
      "type": "event"
    },
    {
      "anonymous": false,
      "inputs": [
        {
          "indexed": false,
          "internalType": "uint256",
          "name": "_numSrQueueOps",
          "type": "uint256"
        }
      ],
      "name": "MergeMaciStateAqSubRoots",
      "type": "event"
    },
    {
      "anonymous": false,
      "inputs": [
        {
          "indexed": false,
          "internalType": "uint256",
          "name": "_messageRoot",
          "type": "uint256"
        }
      ],
      "name": "MergeMessageAq",
      "type": "event"
    },
    {
      "anonymous": false,
      "inputs": [
        {
          "indexed": false,
          "internalType": "uint256",
          "name": "_numSrQueueOps",
          "type": "uint256"
        }
      ],
      "name": "MergeMessageAqSubRoots",
      "type": "event"
    },
    {
      "anonymous": false,
      "inputs": [
        {
          "indexed": true,
          "internalType": "address",
          "name": "previousOwner",
          "type": "address"
        },
        {
          "indexed": true,
          "internalType": "address",
          "name": "newOwner",
          "type": "address"
        }
      ],
      "name": "OwnershipTransferred",
      "type": "event"
    },
    {
      "anonymous": false,
      "inputs": [
        {
          "components": [
            {
              "internalType": "uint256",
              "name": "msgType",
              "type": "uint256"
            },
            {
              "internalType": "uint256[10]",
              "name": "data",
              "type": "uint256[10]"
            }
          ],
          "indexed": false,
          "internalType": "struct DomainObjs.Message",
          "name": "_message",
          "type": "tuple"
        },
        {
          "components": [
            {
              "internalType": "uint256",
              "name": "x",
              "type": "uint256"
            },
            {
              "internalType": "uint256",
              "name": "y",
              "type": "uint256"
            }
          ],
          "indexed": false,
          "internalType": "struct DomainObjs.PubKey",
          "name": "_encPubKey",
          "type": "tuple"
        }
      ],
      "name": "PublishMessage",
      "type": "event"
    },
    {
      "anonymous": false,
      "inputs": [
        {
          "components": [
            {
              "internalType": "uint256",
              "name": "msgType",
              "type": "uint256"
            },
            {
              "internalType": "uint256[10]",
              "name": "data",
              "type": "uint256[10]"
            }
          ],
          "indexed": false,
          "internalType": "struct DomainObjs.Message",
          "name": "_message",
          "type": "tuple"
        }
      ],
      "name": "TopupMessage",
      "type": "event"
    },
    {
      "inputs": [],
      "name": "MESSAGE_DATA_LENGTH",
      "outputs": [
        {
          "internalType": "uint8",
          "name": "",
          "type": "uint8"
        }
      ],
      "stateMutability": "view",
      "type": "function"
    },
    {
      "inputs": [],
      "name": "coordinatorPubKey",
      "outputs": [
        {
          "internalType": "uint256",
          "name": "x",
          "type": "uint256"
        },
        {
          "internalType": "uint256",
          "name": "y",
          "type": "uint256"
        }
      ],
      "stateMutability": "view",
      "type": "function"
    },
    {
      "inputs": [],
      "name": "coordinatorPubKeyHash",
      "outputs": [
        {
          "internalType": "uint256",
          "name": "",
          "type": "uint256"
        }
      ],
      "stateMutability": "view",
      "type": "function"
    },
    {
      "inputs": [],
      "name": "currentSbCommitment",
      "outputs": [
        {
          "internalType": "uint256",
          "name": "",
          "type": "uint256"
        }
      ],
      "stateMutability": "view",
      "type": "function"
    },
    {
      "inputs": [],
      "name": "extContracts",
      "outputs": [
        {
          "internalType": "contract IMACI",
          "name": "maci",
          "type": "address"
        },
        {
          "internalType": "contract AccQueue",
          "name": "messageAq",
          "type": "address"
        },
        {
          "internalType": "contract TopupCredit",
          "name": "topupCredit",
          "type": "address"
        }
      ],
      "stateMutability": "view",
      "type": "function"
    },
    {
      "inputs": [],
      "name": "getDeployTimeAndDuration",
      "outputs": [
        {
          "internalType": "uint256",
          "name": "pollDeployTime",
          "type": "uint256"
        },
        {
          "internalType": "uint256",
          "name": "pollDuration",
          "type": "uint256"
        }
      ],
      "stateMutability": "view",
      "type": "function"
    },
    {
      "inputs": [
        {
          "internalType": "uint256[2]",
          "name": "array",
          "type": "uint256[2]"
        }
      ],
      "name": "hash2",
      "outputs": [
        {
          "internalType": "uint256",
          "name": "result",
          "type": "uint256"
        }
      ],
      "stateMutability": "pure",
      "type": "function"
    },
    {
      "inputs": [
        {
          "internalType": "uint256[3]",
          "name": "array",
          "type": "uint256[3]"
        }
      ],
      "name": "hash3",
      "outputs": [
        {
          "internalType": "uint256",
          "name": "result",
          "type": "uint256"
        }
      ],
      "stateMutability": "pure",
      "type": "function"
    },
    {
      "inputs": [
        {
          "internalType": "uint256[4]",
          "name": "array",
          "type": "uint256[4]"
        }
      ],
      "name": "hash4",
      "outputs": [
        {
          "internalType": "uint256",
          "name": "result",
          "type": "uint256"
        }
      ],
      "stateMutability": "pure",
      "type": "function"
    },
    {
      "inputs": [
        {
          "internalType": "uint256[5]",
          "name": "array",
          "type": "uint256[5]"
        }
      ],
      "name": "hash5",
      "outputs": [
        {
          "internalType": "uint256",
          "name": "result",
          "type": "uint256"
        }
      ],
      "stateMutability": "pure",
      "type": "function"
    },
    {
      "inputs": [
        {
          "internalType": "uint256",
          "name": "left",
          "type": "uint256"
        },
        {
          "internalType": "uint256",
          "name": "right",
          "type": "uint256"
        }
      ],
      "name": "hashLeftRight",
      "outputs": [
        {
          "internalType": "uint256",
          "name": "result",
          "type": "uint256"
        }
      ],
      "stateMutability": "pure",
      "type": "function"
    },
    {
      "inputs": [
        {
          "components": [
            {
              "internalType": "uint256",
              "name": "msgType",
              "type": "uint256"
            },
            {
              "internalType": "uint256[10]",
              "name": "data",
              "type": "uint256[10]"
            }
          ],
          "internalType": "struct DomainObjs.Message",
          "name": "_message",
          "type": "tuple"
        },
        {
          "components": [
            {
              "internalType": "uint256",
              "name": "x",
              "type": "uint256"
            },
            {
              "internalType": "uint256",
              "name": "y",
              "type": "uint256"
            }
          ],
          "internalType": "struct DomainObjs.PubKey",
          "name": "_encPubKey",
          "type": "tuple"
        }
      ],
      "name": "hashMessageAndEncPubKey",
      "outputs": [
        {
          "internalType": "uint256",
          "name": "msgHash",
          "type": "uint256"
        }
      ],
      "stateMutability": "pure",
      "type": "function"
    },
    {
      "inputs": [
        {
          "components": [
            {
              "components": [
                {
                  "internalType": "uint256",
                  "name": "x",
                  "type": "uint256"
                },
                {
                  "internalType": "uint256",
                  "name": "y",
                  "type": "uint256"
                }
              ],
              "internalType": "struct DomainObjs.PubKey",
              "name": "pubKey",
              "type": "tuple"
            },
            {
              "internalType": "uint256",
              "name": "voiceCreditBalance",
              "type": "uint256"
            },
            {
              "internalType": "uint256",
              "name": "timestamp",
              "type": "uint256"
            }
          ],
          "internalType": "struct DomainObjs.StateLeaf",
          "name": "_stateLeaf",
          "type": "tuple"
        }
      ],
      "name": "hashStateLeaf",
      "outputs": [
        {
          "internalType": "uint256",
          "name": "ciphertext",
          "type": "uint256"
        }
      ],
      "stateMutability": "pure",
      "type": "function"
    },
    {
      "inputs": [],
      "name": "init",
      "outputs": [],
      "stateMutability": "nonpayable",
      "type": "function"
    },
    {
      "inputs": [
        {
          "internalType": "uint256",
          "name": "_duration",
          "type": "uint256"
        },
        {
          "components": [
            {
              "internalType": "uint256",
              "name": "maxMessages",
              "type": "uint256"
            },
            {
              "internalType": "uint256",
              "name": "maxVoteOptions",
              "type": "uint256"
            }
          ],
          "internalType": "struct Params.MaxValues",
          "name": "_maxValues",
          "type": "tuple"
        },
        {
          "components": [
            {
              "internalType": "uint8",
              "name": "intStateTreeDepth",
              "type": "uint8"
            },
            {
              "internalType": "uint8",
              "name": "messageTreeSubDepth",
              "type": "uint8"
            },
            {
              "internalType": "uint8",
              "name": "messageTreeDepth",
              "type": "uint8"
            },
            {
              "internalType": "uint8",
              "name": "voteOptionTreeDepth",
              "type": "uint8"
            }
          ],
          "internalType": "struct Params.TreeDepths",
          "name": "_treeDepths",
          "type": "tuple"
        },
        {
          "components": [
            {
              "internalType": "uint256",
              "name": "x",
              "type": "uint256"
            },
            {
              "internalType": "uint256",
              "name": "y",
              "type": "uint256"
            }
          ],
          "internalType": "struct DomainObjs.PubKey",
          "name": "_coordinatorPubKey",
          "type": "tuple"
        },
        {
          "components": [
            {
              "internalType": "contract IMACI",
              "name": "maci",
              "type": "address"
            },
            {
              "internalType": "contract AccQueue",
              "name": "messageAq",
              "type": "address"
            },
            {
              "internalType": "contract TopupCredit",
              "name": "topupCredit",
              "type": "address"
            }
          ],
          "internalType": "struct Params.ExtContracts",
          "name": "_extContracts",
          "type": "tuple"
        }
      ],
      "name": "initialize",
      "outputs": [],
      "stateMutability": "nonpayable",
      "type": "function"
    },
    {
      "inputs": [],
      "name": "maxValues",
      "outputs": [
        {
          "internalType": "uint256",
          "name": "maxMessages",
          "type": "uint256"
        },
        {
          "internalType": "uint256",
          "name": "maxVoteOptions",
          "type": "uint256"
        }
      ],
      "stateMutability": "view",
      "type": "function"
    },
    {
      "inputs": [
        {
          "internalType": "uint256",
          "name": "_pollId",
          "type": "uint256"
        }
      ],
      "name": "mergeMaciStateAq",
      "outputs": [],
      "stateMutability": "nonpayable",
      "type": "function"
    },
    {
      "inputs": [
        {
          "internalType": "uint256",
          "name": "_numSrQueueOps",
          "type": "uint256"
        },
        {
          "internalType": "uint256",
          "name": "_pollId",
          "type": "uint256"
        }
      ],
      "name": "mergeMaciStateAqSubRoots",
      "outputs": [],
      "stateMutability": "nonpayable",
      "type": "function"
    },
    {
      "inputs": [],
      "name": "mergeMessageAq",
      "outputs": [],
      "stateMutability": "nonpayable",
      "type": "function"
    },
    {
      "inputs": [
        {
          "internalType": "uint256",
          "name": "_numSrQueueOps",
          "type": "uint256"
        }
      ],
      "name": "mergeMessageAqSubRoots",
      "outputs": [],
      "stateMutability": "nonpayable",
      "type": "function"
    },
    {
      "inputs": [],
      "name": "mergedStateRoot",
      "outputs": [
        {
          "internalType": "uint256",
          "name": "",
          "type": "uint256"
        }
      ],
      "stateMutability": "view",
      "type": "function"
    },
    {
      "inputs": [],
      "name": "numMessages",
      "outputs": [
        {
          "internalType": "uint256",
          "name": "",
          "type": "uint256"
        }
      ],
      "stateMutability": "view",
      "type": "function"
    },
    {
      "inputs": [],
      "name": "numSignUpsAndMessages",
      "outputs": [
        {
          "internalType": "uint256",
          "name": "numSUps",
          "type": "uint256"
        },
        {
          "internalType": "uint256",
          "name": "numMsgs",
          "type": "uint256"
        }
      ],
      "stateMutability": "view",
      "type": "function"
    },
    {
      "inputs": [],
      "name": "numSignups",
      "outputs": [
        {
          "internalType": "uint256",
          "name": "",
          "type": "uint256"
        }
      ],
      "stateMutability": "view",
      "type": "function"
    },
    {
      "inputs": [],
      "name": "owner",
      "outputs": [
        {
          "internalType": "address",
          "name": "",
          "type": "address"
        }
      ],
      "stateMutability": "view",
      "type": "function"
    },
    {
      "inputs": [
        {
          "internalType": "uint256[2]",
          "name": "dataToPad",
          "type": "uint256[2]"
        },
        {
          "internalType": "uint256",
          "name": "msgType",
          "type": "uint256"
        }
      ],
      "name": "padAndHashMessage",
      "outputs": [
        {
          "components": [
            {
              "internalType": "uint256",
              "name": "msgType",
              "type": "uint256"
            },
            {
              "internalType": "uint256[10]",
              "name": "data",
              "type": "uint256[10]"
            }
          ],
          "internalType": "struct DomainObjs.Message",
          "name": "message",
          "type": "tuple"
        },
        {
          "components": [
            {
              "internalType": "uint256",
              "name": "x",
              "type": "uint256"
            },
            {
              "internalType": "uint256",
              "name": "y",
              "type": "uint256"
            }
          ],
          "internalType": "struct DomainObjs.PubKey",
          "name": "padKey",
          "type": "tuple"
        },
        {
          "internalType": "uint256",
          "name": "msgHash",
          "type": "uint256"
        }
      ],
      "stateMutability": "pure",
      "type": "function"
    },
    {
      "inputs": [
        {
          "components": [
            {
              "internalType": "uint256",
              "name": "msgType",
              "type": "uint256"
            },
            {
              "internalType": "uint256[10]",
              "name": "data",
              "type": "uint256[10]"
            }
          ],
          "internalType": "struct DomainObjs.Message",
          "name": "_message",
          "type": "tuple"
        },
        {
          "components": [
            {
              "internalType": "uint256",
              "name": "x",
              "type": "uint256"
            },
            {
              "internalType": "uint256",
              "name": "y",
              "type": "uint256"
            }
          ],
          "internalType": "struct DomainObjs.PubKey",
          "name": "_encPubKey",
          "type": "tuple"
        }
      ],
      "name": "publishMessage",
      "outputs": [],
      "stateMutability": "nonpayable",
      "type": "function"
    },
    {
      "inputs": [
        {
          "components": [
            {
              "internalType": "uint256",
              "name": "msgType",
              "type": "uint256"
            },
            {
              "internalType": "uint256[10]",
              "name": "data",
              "type": "uint256[10]"
            }
          ],
          "internalType": "struct DomainObjs.Message[]",
          "name": "_messages",
          "type": "tuple[]"
        },
        {
          "components": [
            {
              "internalType": "uint256",
              "name": "x",
              "type": "uint256"
            },
            {
              "internalType": "uint256",
              "name": "y",
              "type": "uint256"
            }
          ],
          "internalType": "struct DomainObjs.PubKey[]",
          "name": "_encPubKeys",
          "type": "tuple[]"
        }
      ],
      "name": "publishMessageBatch",
      "outputs": [],
      "stateMutability": "nonpayable",
      "type": "function"
    },
    {
      "inputs": [],
      "name": "renounceOwnership",
      "outputs": [],
      "stateMutability": "nonpayable",
      "type": "function"
    },
    {
      "inputs": [
        {
          "internalType": "uint256[]",
          "name": "array",
          "type": "uint256[]"
        }
      ],
      "name": "sha256Hash",
      "outputs": [
        {
          "internalType": "uint256",
          "name": "result",
          "type": "uint256"
        }
      ],
      "stateMutability": "pure",
      "type": "function"
    },
    {
      "inputs": [],
      "name": "stateAqMerged",
      "outputs": [
        {
          "internalType": "bool",
          "name": "",
          "type": "bool"
        }
      ],
      "stateMutability": "view",
      "type": "function"
    },
    {
      "inputs": [
        {
          "internalType": "uint256",
          "name": "stateIndex",
          "type": "uint256"
        },
        {
          "internalType": "uint256",
          "name": "amount",
          "type": "uint256"
        }
      ],
      "name": "topup",
      "outputs": [],
      "stateMutability": "nonpayable",
      "type": "function"
    },
    {
      "inputs": [
        {
          "internalType": "address",
          "name": "newOwner",
          "type": "address"
        }
      ],
      "name": "transferOwnership",
      "outputs": [],
      "stateMutability": "nonpayable",
      "type": "function"
    },
    {
      "inputs": [],
      "name": "treeDepths",
      "outputs": [
        {
          "internalType": "uint8",
          "name": "intStateTreeDepth",
          "type": "uint8"
        },
        {
          "internalType": "uint8",
          "name": "messageTreeSubDepth",
          "type": "uint8"
        },
        {
          "internalType": "uint8",
          "name": "messageTreeDepth",
          "type": "uint8"
        },
        {
          "internalType": "uint8",
          "name": "voteOptionTreeDepth",
          "type": "uint8"
        }
      ],
      "stateMutability": "view",
      "type": "function"
    }
  ],
  "bytecode": "0x608060405234801561001057600080fd5b507f0ad794e7fb50257e0edc93fe4616c69ea691e7a6c653333b6a5b507d798947276065557ec31c90221285dc87ee66daadc19f64f922e45a613f4f5429d74ddc7d66e0236066557f2afdf0e1d10d07d0df3a8481202bf2595108195e34d4ccb88742641c576aa77d6067557f177bbb5acaafc1f1deb73b8ae33f97132089ab84039048a096e202b1f8c429106068557f25c1a155f21ae70ca3b8bdb27961efdee58bdafff83274c18dd37d0f0a8bfbb56069556121a5806100d36000396000f3fe608060405234801561001057600080fd5b50600436106102055760003560e01c80637296aaea1161011a578063ac98e5df116100ad578063bea140b31161007c578063bea140b3146104af578063c17268d9146104c2578063e1c7392a146104cb578063f2fde38b146104d3578063fba630f2146104e657600080fd5b8063ac98e5df146103df578063ae93a21214610435578063b5f38c8114610448578063bc14ee2b1461046557600080fd5b80638da5cb5b116100e95780638da5cb5b1461038b578063929d773e146103a65780639c971729146103b95780639cfced97146103cc57600080fd5b80637296aaea146103495780637d0a81c81461035c57806386f3c3f71461036f5780638aa0ba921461038257600080fd5b80633dfb88b21161019d5780635bb939951161016c5780635bb93995146102f85780635d5909dd1461030b57806362a361bb14610314578063683f3dc314610327578063715018a61461034157600080fd5b80633dfb88b2146102bc5780634909229f146102cf5780634f367f0f146102da57806358bfc379146102e557600080fd5b8063167fd483116101d9578063167fd48314610275578063184ff47f1461028857806331e766a51461029b578063394b78a2146102a957600080fd5b8062329f2f1461020a5780630396a0ce1461021457806306912d3c1461023c5780630f4cf6921461025e575b600080fd5b6102126104ef565b005b607554607654610222919082565b604080519283526020830191909152015b60405180910390f35b61024f61024a366004611887565b6105e5565b604051610233939291906118df565b61026760735481565b604051908152602001610233565b6102676102833660046119d0565b610693565b610212610296366004611a07565b61076c565b606b54606c54610222919082565b6102126102b7366004611a29565b61091f565b6102676102ca366004611a6c565b610a98565b606f54607054610222565b607454607354610222565b6102676102f3366004611aa7565b610b19565b610267610306366004611a07565b610ba1565b61026760745481565b610267610322366004611b4d565b610bc6565b61032f600a81565b60405160ff9091168152602001610233565b610212610c00565b610212610357366004611b69565b610c14565b61026761036a366004611c32565b610c99565b61021261037d366004611a07565b610cd9565b610267606d5481565b6033546040516001600160a01b039091168152602001610233565b6102126103b4366004611ca1565b610ddc565b6102126103c7366004611d9d565b61101a565b6102676103da366004611db6565b6110e5565b6077546104089060ff808216916101008104821691620100008204811691630100000090041684565b6040805160ff95861681529385166020850152918416918301919091529091166060820152608001610233565b610212610443366004611d9d565b61111f565b6071546104559060ff1681565b6040519015158152602001610233565b607854607954607a54610485926001600160a01b03908116928116911683565b604080516001600160a01b0394851681529284166020840152921691810191909152606001610233565b6102676104bd366004611e34565b6113eb565b61026760725481565b610212611425565b6102126104e1366004611e6f565b61154f565b610267606e5481565b6104f76115c8565b6000606f54426105079190611ea2565b9050607054811161052b57604051630931513d60e11b815260040160405180910390fd5b6079546077546040516324a47aeb60e01b81526201000090910460ff1660048201526000916001600160a01b0316906324a47aeb906024016020604051808303816000875af1158015610582573d6000803e3d6000fd5b505050506040513d601f19601f820116820180604052508101906105a69190611eb5565b90507fc5624680ab5d50c84507f9e0dc2032163de2bda906ab8a661a53dd4d43bd5dc7816040516105d991815260200190565b60405180910390a15050565b6105ed6116cb565b6040805180820190915260008082526020820152600061060b6116ea565b85518152602080870151828201526040805180820182527f171e826ad4a870fd925e0bf0e87884e70e080879c2205ef10114f28a3b6f6dd781527f2bd407d897fbbca9f88adfd2d15252e69de8c1564eb4d3d27162e259172f1a1d818401528151808301909252878252918101839052945092506106898484610693565b9150509250925092565b600061069d611709565b6020848101805151835280518201519183019190915280516040908101519083015280516060908101519083015251608090810151908201526106de611709565b6020858101805160a0908101518452815160c0015184840152815160e00151604080860191909152825161010001516060860152915161012001516080850152815190810190915286518152610763918101610739856110e5565b8152602001610747846110e5565b81526020018660000151815260200186602001518152506110e5565b95945050505050565b6000606f544261077c9190611ea2565b905060705481106107a05760405163148fb9a960e31b815260040160405180910390fd5b607554607354106107c457604051631ec0b2f760e01b815260040160405180910390fd5b607380546001019055607a546040516323b872dd60e01b8152336004820152306024820152604481018490526001600160a01b03909116906323b872dd906064016020604051808303816000875af1158015610824573d6000803e3d6000fd5b505050506040513d601f19601f820116820180604052508101906108489190611ee4565b50604080518082019091528381526020810183905260008061086b8360026105e5565b607954604051631ffc735d60e01b8152600481018390529395509093506001600160a01b031691631ffc735d91506024016020604051808303816000875af11580156108bb573d6000803e3d6000fd5b505050506040513d601f19601f820116820180604052508101906108df9190611eb5565b507f935afc7bb7cc33eb3e24e20dcfc75f5b21fa58e9c82cca06435238efaf9a3a588260405161090f9190611f06565b60405180910390a1505050505050565b6000606f544261092f9190611ea2565b905060705481106109535760405163148fb9a960e31b815260040160405180910390fd5b6075546073541061097757604051631ec0b2f760e01b815260040160405180910390fd5b60008051602061215083398151915282351015806109a75750600080516020612150833981519152826020013510155b156109c5576040516354be831760e11b815260040160405180910390fd5b607380546001908101909155835260006109e88461028336869003860186611f15565b607954604051631ffc735d60e01b8152600481018390529192506001600160a01b031690631ffc735d906024016020604051808303816000875af1158015610a34573d6000803e3d6000fd5b505050506040513d601f19601f82011682018060405250810190610a589190611eb5565b507fe2067f06dd7b8159b21a5490f8663f6bb031d9b35ed6d298b5489674cb9cda4b8484604051610a8a929190611f31565b60405180910390a150505050565b60405163248f667760e01b815260009073__$e61c65d9562aef5fa6ab22c0f787cf1e30$__9063248f667790610ad2908590600401611f5a565b602060405180830381865af4158015610aef573d6000803e3d6000fd5b505050506040513d601f19601f82011682018060405250810190610b139190611eb5565b92915050565b6000600080516020612150833981519152600283604051602001610b3d9190611f8b565b60408051601f1981840301815290829052610b5791611fc1565b602060405180830381855afa158015610b74573d6000803e3d6000fd5b5050506040513d601f19601f82011682018060405250810190610b979190611eb5565b610b139190611ff0565b6000610bab611727565b83815260208101839052610bbe81610bc6565b949350505050565b6040516314d2f97b60e11b815260009073__$1540826e134b1b69b7091c82576ee3aadd$__906329a5f2f690610ad2908590600401612012565b610c086115c8565b610c126000611622565b565b828114610c345760405163ca3487f760e01b815260040160405180910390fd5b8260005b81811015610c9157610c89868683818110610c5557610c55611ece565b90506101600201803603810190610c6c919061203a565b858584818110610c7e57610c7e611ece565b90506040020161091f565b600101610c38565b505050505050565b6000610ca3611745565b8251518152825160209081015181830152830151816002602002015260408301516060820152610cd281610a98565b9392505050565b610ce16115c8565b6000606f5442610cf19190611ea2565b90506070548111610d1557604051630931513d60e11b815260040160405180910390fd5b60715460ff1615610d395760405163084ef7b960e41b815260040160405180910390fd5b60785460405163cfa1fa0360e01b815260048101859052602481018490526001600160a01b039091169063cfa1fa0390604401600060405180830381600087803b158015610d8657600080fd5b505af1158015610d9a573d6000803e3d6000fd5b505050507fbe5eae95ff0a9a2779506ae62da06dda1e349311d3f2b6ceb990ea42b6a5f20b83604051610dcf91815260200190565b60405180910390a1505050565b600054610100900460ff1615808015610dfc5750600054600160ff909116105b80610e165750303b158015610e16575060005460ff166001145b610e7e5760405162461bcd60e51b815260206004820152602e60248201527f496e697469616c697a61626c653a20636f6e747261637420697320616c72656160448201526d191e481a5b9a5d1a585b1a5e995960921b60648201526084015b60405180910390fd5b6000805460ff191660011790558015610ea1576000805461ff0019166101001790555b610ea9611674565b610eb161169b565b8251600080516020612150833981519152111580610ee15750600080516020612150833981519152836020015110155b15610eff576040516354be831760e11b815260040160405180910390fd5b8251606b8190556020840151606c819055610f1a9190610ba1565b606d558151607880546001600160a01b039283166001600160a01b03199182161790915560208085015160798054918516918416919091179055604080860151607a80549190951693169290921790925560708890558651607555868201516076558551607780549388015192880151606089015160ff90811663010000000263ff0000001992821662010000029290921663ffff0000199582166101000261ffff19909716919094161794909417929092161791909117905542606f558015610c91576000805461ff0019169055604051600181527f7f26b83ff96e1f2b6a682f133852f6798a09c465da95921460cefb38474024989060200161090f565b6110226115c8565b6000606f54426110329190611ea2565b9050607054811161105657604051630931513d60e11b815260040160405180910390fd5b60795460405163c15da65b60e01b8152600481018490526001600160a01b039091169063c15da65b90602401600060405180830381600087803b15801561109c57600080fd5b505af11580156110b0573d6000803e3d6000fd5b505050507f1245b881cb30fdad22b2f9fde2d5c2a3605bbdf272d5e8a2235d8c9e81aba2ce826040516105d991815260200190565b604051630926f44b60e31b815260009073__$46fbdf6658faf65265971bdad66851b86c$__90634937a25890610ad2908590600401612057565b6111276115c8565b6000606f54426111379190611ea2565b9050607054811161115b57604051630931513d60e11b815260040160405180910390fd5b60715460ff161561117f5760405163084ef7b960e41b815260040160405180910390fd5b6071805460ff1916600117905560785460408051630c0775ff60e31b815290516001600160a01b039092169163603baff8916004808201926020929091908290030181865afa1580156111d6573d6000803e3d6000fd5b505050506040513d601f19601f820116820180604052508101906111fa919061207f565b6001600160a01b031663b6a64acd6040518163ffffffff1660e01b8152600401602060405180830381865afa158015611237573d6000803e3d6000fd5b505050506040513d601f19601f8201168201806040525081019061125b9190611ee4565b61127757604051624a03c360e31b815260040160405180910390fd5b60785460405163dd0982a360e01b8152600481018490526001600160a01b039091169063dd0982a3906024016020604051808303816000875af11580156112c2573d6000803e3d6000fd5b505050506040513d601f19601f820116820180604052508101906112e69190611eb5565b606e556112f1611763565b606e548152607754606590611312906001906301000000900460ff1661209c565b60ff166005811061132557611325611ece565b015460208201526000604082015261133c816113eb565b6072556078546040805163122db15360e01b815290516001600160a01b039092169163122db153916004808201926020929091908290030181865afa158015611389573d6000803e3d6000fd5b505050506040513d601f19601f820116820180604052508101906113ad9190611eb5565b6074819055606e546040517fa80928657383ff9d374f1409cf51e7460a64472b6baeb5ded1199830c15bae0192610dcf928252602082015260400190565b6040516304b98e1d60e31b815260009073__$fa059fb1da6d850ca47ea49359bfe89f78$__906325cc70e890610ad29085906004016120b5565b606a5460ff1615611449576040516342a2e18d60e01b815260040160405180910390fd5b606a805460ff191660019081179091556073805482019055604080518082019091527f12817f4161f2f5ded33f26c55735a77e80e4f8975483c8c2704745128417f71181526000602082018190529091819081906114a89085906105e5565b607954604051631ffc735d60e01b81526004810183905293965091945092506001600160a01b031690631ffc735d906024016020604051808303816000875af11580156114f9573d6000803e3d6000fd5b505050506040513d601f19601f8201168201806040525081019061151d9190611eb5565b507fe2067f06dd7b8159b21a5490f8663f6bb031d9b35ed6d298b5489674cb9cda4b8383604051610a8a9291906120dd565b6115576115c8565b6001600160a01b0381166115bc5760405162461bcd60e51b815260206004820152602660248201527f4f776e61626c653a206e6577206f776e657220697320746865207a65726f206160448201526564647265737360d01b6064820152608401610e75565b6115c581611622565b50565b6033546001600160a01b03163314610c125760405162461bcd60e51b815260206004820181905260248201527f4f776e61626c653a2063616c6c6572206973206e6f7420746865206f776e65726044820152606401610e75565b603380546001600160a01b038381166001600160a01b0319831681179093556040519116919082907f8be0079c531659141344cd1fd0a4f28419497f9722a3daafe3b4186f6b6457e090600090a35050565b600054610100900460ff16610c125760405162461bcd60e51b8152600401610e7590612104565b600054610100900460ff166116c25760405162461bcd60e51b8152600401610e7590612104565b610c1233611622565b6040518060400160405280600081526020016116e56116ea565b905290565b604051806101400160405280600a906020820280368337509192915050565b6040518060a001604052806005906020820280368337509192915050565b60405180604001604052806002906020820280368337509192915050565b60405180608001604052806004906020820280368337509192915050565b60405180606001604052806003906020820280368337509192915050565b634e487b7160e01b600052604160045260246000fd5b6040805190810167ffffffffffffffff811182821017156117ba576117ba611781565b60405290565b6040516060810167ffffffffffffffff811182821017156117ba576117ba611781565b6040516080810167ffffffffffffffff811182821017156117ba576117ba611781565b604051601f8201601f1916810167ffffffffffffffff8111828210171561182f5761182f611781565b604052919050565b600082601f83011261184857600080fd5b611850611797565b80604084018581111561186257600080fd5b845b8181101561187c578035845260209384019301611864565b509095945050505050565b6000806060838503121561189a57600080fd5b6118a48484611837565b946040939093013593505050565b8051825260208082015181840160005b600a811015610c91578251825291830191908301906001016118c2565b6101c081016118ee82866118b2565b83516101608301526020909301516101808201526101a00152919050565b600061016080838503121561192057600080fd5b611928611797565b915082358252602084603f85011261193f57600080fd5b604051610140810181811067ffffffffffffffff8211171561196357611963611781565b60405291840191808684111561197857600080fd5b8286015b84811015611993578035825290830190830161197c565b5050908301525092915050565b6000604082840312156119b257600080fd5b6119ba611797565b9050813581526020820135602082015292915050565b6000806101a083850312156119e457600080fd5b6119ee848461190c565b91506119fe8461016085016119a0565b90509250929050565b60008060408385031215611a1a57600080fd5b50508035926020909101359150565b6000808284036101a0811215611a3e57600080fd5b611a48858561190c565b9250604061015f1982011215611a5d57600080fd5b50610160830190509250929050565b600060808284031215611a7e57600080fd5b82601f830112611a8d57600080fd5b611a956117e3565b80608084018581111561186257600080fd5b60006020808385031215611aba57600080fd5b823567ffffffffffffffff80821115611ad257600080fd5b818501915085601f830112611ae657600080fd5b813581811115611af857611af8611781565b8060051b9150611b09848301611806565b8181529183018401918481019088841115611b2357600080fd5b938501935b83851015611b4157843582529385019390850190611b28565b98975050505050505050565b600060408284031215611b5f57600080fd5b610cd28383611837565b60008060008060408587031215611b7f57600080fd5b843567ffffffffffffffff80821115611b9757600080fd5b818701915087601f830112611bab57600080fd5b813581811115611bba57600080fd5b88602061016083028501011115611bd057600080fd5b602092830196509450908601359080821115611beb57600080fd5b818701915087601f830112611bff57600080fd5b813581811115611c0e57600080fd5b8860208260061b8501011115611c2357600080fd5b95989497505060200194505050565b600060808284031215611c4457600080fd5b611c4c6117c0565b611c5684846119a0565b815260408301356020820152606083013560408201528091505092915050565b803560ff81168114611c8757600080fd5b919050565b6001600160a01b03811681146115c557600080fd5b6000806000806000858703610180811215611cbb57600080fd5b86359550611ccc88602089016119a0565b94506080605f1982011215611ce057600080fd5b611ce86117e3565b611cf460608901611c76565b8152611d0260808901611c76565b6020820152611d1360a08901611c76565b6040820152611d2460c08901611c76565b60608201529350611d388860e089016119a0565b9250606061011f1982011215611d4d57600080fd5b50611d566117c0565b610120870135611d6581611c8c565b8152610140870135611d7681611c8c565b6020820152610160870135611d8a81611c8c565b6040820152949793965091945092919050565b600060208284031215611daf57600080fd5b5035919050565b600060a08284031215611dc857600080fd5b82601f830112611dd757600080fd5b60405160a0810181811067ffffffffffffffff82111715611dfa57611dfa611781565b6040528060a0840185811115611e0f57600080fd5b845b81811015611e29578035835260209283019201611e11565b509195945050505050565b600060608284031215611e4657600080fd5b82601f830112611e5557600080fd5b611e5d6117c0565b80606084018581111561186257600080fd5b600060208284031215611e8157600080fd5b8135610cd281611c8c565b634e487b7160e01b600052601160045260246000fd5b81810381811115610b1357610b13611e8c565b600060208284031215611ec757600080fd5b5051919050565b634e487b7160e01b600052603260045260246000fd5b600060208284031215611ef657600080fd5b81518015158114610cd257600080fd5b6101608101610b1382846118b2565b600060408284031215611f2757600080fd5b610cd283836119a0565b6101a08101611f4082856118b2565b823561016083015260208301356101808301529392505050565b60808101818360005b6004811015611f82578151835260209283019290910190600101611f63565b50505092915050565b815160009082906020808601845b83811015611fb557815185529382019390820190600101611f99565b50929695505050505050565b6000825160005b81811015611fe25760208186018101518583015201611fc8565b506000920191825250919050565b60008261200d57634e487b7160e01b600052601260045260246000fd5b500690565b60408101818360005b6002811015611f8257815183526020928301929091019060010161201b565b6000610160828403121561204d57600080fd5b610cd2838361190c565b60a08101818360005b6005811015611f82578151835260209283019290910190600101612060565b60006020828403121561209157600080fd5b8151610cd281611c8c565b60ff8281168282160390811115610b1357610b13611e8c565b60608101818360005b6003811015611f825781518352602092830192909101906001016120be565b6101a081016120ec82856118b2565b82516101608301526020830151610180830152610cd2565b6020808252602b908201527f496e697469616c697a61626c653a20636f6e7472616374206973206e6f74206960408201526a6e697469616c697a696e6760a81b60608201526080019056fe30644e72e131a029b85045b68181585d2833e84879b9709143e1f593f0000001a26469706673582212205bdb511be6295b85ff8279f800a1fbe92a1b5ea8331202c15bfc7a5a05ee0d8a64736f6c63430008130033",
  "linkReferences": {
    "maci-contracts/contracts/crypto/PoseidonT3.sol": {
      "PoseidonT3": [
        {
          "length": 20,
          "start": 3243
        }
      ]
    },
    "maci-contracts/contracts/crypto/PoseidonT4.sol": {
      "PoseidonT4": [
        {
          "length": 20,
          "start": 5328
        }
      ]
    },
    "maci-contracts/contracts/crypto/PoseidonT5.sol": {
      "PoseidonT5": [
        {
          "length": 20,
          "start": 2941
        }
      ]
    },
    "maci-contracts/contracts/crypto/PoseidonT6.sol": {
      "PoseidonT6": [
        {
          "length": 20,
          "start": 4554
        }
      ]
    }
  },
  "deployedLinkReferences": {
    "maci-contracts/contracts/crypto/PoseidonT3.sol": {
      "PoseidonT3": [
        {
          "length": 20,
          "start": 3032
        }
      ]
    },
    "maci-contracts/contracts/crypto/PoseidonT4.sol": {
      "PoseidonT4": [
        {
          "length": 20,
          "start": 5117
        }
      ]
    },
    "maci-contracts/contracts/crypto/PoseidonT5.sol": {
      "PoseidonT5": [
        {
          "length": 20,
          "start": 2730
        }
      ]
    },
    "maci-contracts/contracts/crypto/PoseidonT6.sol": {
      "PoseidonT6": [
        {
          "length": 20,
          "start": 4343
        }
      ]
    }
  }
}