{
  "_format": "hh-sol-artifact-1",
  "contractName": "Verifier",
  "sourceName": "contracts/crypto/Verifier.sol",
  "abi": [
    {
      "inputs": [],
      "name": "InvalidInputVal",
      "type": "error"
    },
    {
      "inputs": [],
      "name": "InvalidProofQ",
      "type": "error"
    },
    {
      "inputs": [],
      "name": "PairingAddFailed",
      "type": "error"
    },
    {
      "inputs": [],
      "name": "PairingMulFailed",
      "type": "error"
    },
    {
      "inputs": [],
      "name": "PairingOpcodeFailed",
      "type": "error"
    },
    {
      "inputs": [],
      "name": "PRIME_Q",
      "outputs": [
        {
          "internalType": "uint256",
          "name": "",
          "type": "uint256"
        }
      ],
      "stateMutability": "view",
      "type": "function"
    },
    {
      "inputs": [
        {
          "internalType": "uint256[8]",
          "name": "_proof",
          "type": "uint256[8]"
        },
        {
          "components": [
            {
              "components": [
                {
                  "internalType": "uint256",
                  "name": "x",
                  "type": "uint256"
                },
                {
                  "internalType": "uint256",
                  "name": "y",
                  "type": "uint256"
                }
              ],
              "internalType": "struct Pairing.G1Point",
              "name": "alpha1",
              "type": "tuple"
            },
            {
              "components": [
                {
                  "internalType": "uint256[2]",
                  "name": "x",
                  "type": "uint256[2]"
                },
                {
                  "internalType": "uint256[2]",
                  "name": "y",
                  "type": "uint256[2]"
                }
              ],
              "internalType": "struct Pairing.G2Point",
              "name": "beta2",
              "type": "tuple"
            },
            {
              "components": [
                {
                  "internalType": "uint256[2]",
                  "name": "x",
                  "type": "uint256[2]"
                },
                {
                  "internalType": "uint256[2]",
                  "name": "y",
                  "type": "uint256[2]"
                }
              ],
              "internalType": "struct Pairing.G2Point",
              "name": "gamma2",
              "type": "tuple"
            },
            {
              "components": [
                {
                  "internalType": "uint256[2]",
                  "name": "x",
                  "type": "uint256[2]"
                },
                {
                  "internalType": "uint256[2]",
                  "name": "y",
                  "type": "uint256[2]"
                }
              ],
              "internalType": "struct Pairing.G2Point",
              "name": "delta2",
              "type": "tuple"
            },
            {
              "components": [
                {
                  "internalType": "uint256",
                  "name": "x",
                  "type": "uint256"
                },
                {
                  "internalType": "uint256",
                  "name": "y",
                  "type": "uint256"
                }
              ],
              "internalType": "struct Pairing.G1Point[]",
              "name": "ic",
              "type": "tuple[]"
            }
          ],
          "internalType": "struct SnarkCommon.VerifyingKey",
          "name": "vk",
          "type": "tuple"
        },
        {
          "internalType": "uint256",
          "name": "input",
          "type": "uint256"
        }
      ],
      "name": "verify",
      "outputs": [
        {
          "internalType": "bool",
          "name": "isValid",
          "type": "bool"
        }
      ],
      "stateMutability": "view",
      "type": "function"
    }
  ],
  "bytecode": "0x608060405234801561001057600080fd5b50610c0c806100206000396000f3fe608060405234801561001057600080fd5b50600436106100365760003560e01c806322b72c941461003b5780638d53290814610063575b600080fd5b61004e6100493660046109a2565b610086565b60405190151581526020015b60405180910390f35b610078600080516020610bb783398151915281565b60405190815260200161005a565b60006100906106e9565b6040805180820182528651815260208088015181830152908352815160808082018452888401518285019081526060808b01519084015282528351808501855290890151815260a08901518184015281830152838201528151808301835260c0880151815260e0880151918101919091529082015280515161011190610284565b80516020015161012090610284565b6020810151516101379060005b6020020151610284565b602080820151015161014a90600061012d565b60208101515161015b90600161012d565b602080820151015161016e90600161012d565b60408101515161017d90610284565b61018e816040015160200151610284565b7f30644e72e131a029b85045b68181585d2833e84879b9709143e1f593f000000183106101ce5760405163076be92360e31b815260040160405180910390fd5b60006040518060400160405280600081526020016000815250905061021a81610215876080015160018151811061020757610207610aff565b6020026020010151876102b5565b61032d565b905061024481866080015160008151811061023757610237610aff565b602002602001015161032d565b905061027a61025683600001516103a4565b836020015187600001518860200151858a6040015188604001518c6060015161043a565b9695505050505050565b600080516020610bb783398151915281106102b2576040516308f69c9160e01b815260040160405180910390fd5b50565b60408051808201909152600080825260208201526102d161073a565b835181526020808501519082015260408101839052600060608360808460076107d05a03fa905080801561030457610306565bfe5b5080610325576040516372ffac5560e11b815260040160405180910390fd5b505092915050565b6040805180820190915260008082526020820152610349610758565b8351815260208085015181830152835160408301528301516060808301919091526000908360c08460066107d05a03fa90508080156103045750806103255760405160016203c15f60e01b0319815260040160405180910390fd5b604080518082019091526000808252602082015281511580156103c957506020820151155b156103e7575050604080518082019091526000808252602082015290565b604051806040016040528083600001518152602001600080516020610bb7833981519152846020015161041a9190610b15565b61043290600080516020610bb7833981519152610b4d565b905292915050565b60408051608080820183528a825260208083018a90528284018890526060808401879052845192830185528b83528282018a9052828501889052820185905283516018808252610320820190955260009491859190839082016103008036833701905050905060005b600481101561068e5760006104b9826006610b64565b90508582600481106104cd576104cd610aff565b602002015151836104df836000610b83565b815181106104ef576104ef610aff565b60200260200101818152505085826004811061050d5761050d610aff565b602002015160200151838260016105249190610b83565b8151811061053457610534610aff565b60200260200101818152505084826004811061055257610552610aff565b6020020151515183610565836002610b83565b8151811061057557610575610aff565b60200260200101818152505084826004811061059357610593610aff565b60200201515160016020020151836105ac836003610b83565b815181106105bc576105bc610aff565b6020026020010181815250508482600481106105da576105da610aff565b6020020151602001516000600281106105f5576105f5610aff565b602002015183610606836004610b83565b8151811061061657610616610aff565b60200260200101818152505084826004811061063457610634610aff565b60200201516020015160016002811061064f5761064f610aff565b602002015183610660836005610b83565b8151811061067057610670610aff565b6020908102919091010152508061068681610b9b565b9150506104a3565b50610697610776565b6000602082602086026020860160086107d05a03fa90508080156103045750806106d457604051630143d56760e11b815260040160405180910390fd5b505115159d9c50505050505050505050505050565b6040805160a081019091526000606082018181526080830191909152815260208101610713610794565b8152602001610735604051806040016040528060008152602001600081525090565b905290565b60405180606001604052806003906020820280368337509192915050565b60405180608001604052806004906020820280368337509192915050565b60405180602001604052806001906020820280368337509192915050565b60405180604001604052806107a76107b0565b81526020016107355b60405180604001604052806002906020820280368337509192915050565b634e487b7160e01b600052604160045260246000fd5b6040805190810167ffffffffffffffff81118282101715610807576108076107ce565b60405290565b60405160a0810167ffffffffffffffff81118282101715610807576108076107ce565b604051601f8201601f1916810167ffffffffffffffff81118282101715610859576108596107ce565b604052919050565b600060405161010080820182811067ffffffffffffffff82111715610888576108886107ce565b604052909150819083018481111561089f57600080fd5b835b818110156108b95780358352602092830192016108a1565b50505092915050565b6000604082840312156108d457600080fd5b6108dc6107e4565b9050813581526020820135602082015292915050565b600082601f83011261090357600080fd5b6040516040810181811067ffffffffffffffff82111715610926576109266107ce565b806040525080604084018581111561093d57600080fd5b845b8181101561095757803583526020928301920161093f565b509195945050505050565b60006080828403121561097457600080fd5b61097c6107e4565b905061098883836108f2565b815261099783604084016108f2565b602082015292915050565b60008060006101408085870312156109b957600080fd5b85601f8601126109c857600080fd5b6109d28686610861565b935061010085013567ffffffffffffffff808211156109f057600080fd5b908601906101e08289031215610a0557600080fd5b610a0d61080d565b610a1789846108c2565b81526040610a278a828601610962565b60208181850152610a3b8c60c08801610962565b83850152610a4b8c888801610962565b60608501526101c0860135965084871115610a6557600080fd5b86860196508b601f880112610a7957600080fd5b8635955084861115610a8d57610a8d6107ce565b610a9b818760051b01610830565b86815260069690961b8701810195818101955091508b861115610abd57600080fd5b958601955b85871015610ae357610ad48c886108c2565b85529582019593840193610ac2565b5060808301525095989597505050506101209390930135925050565b634e487b7160e01b600052603260045260246000fd5b600082610b3257634e487b7160e01b600052601260045260246000fd5b500690565b634e487b7160e01b600052601160045260246000fd5b600082821015610b5f57610b5f610b37565b500390565b6000816000190483118215151615610b7e57610b7e610b37565b500290565b60008219821115610b9657610b96610b37565b500190565b6000600019821415610baf57610baf610b37565b506001019056fe30644e72e131a029b85045b68181585d97816a916871ca8d3c208c16d87cfd47a2646970667358221220fb6d357f9857c57f56709369d6922d4a0b331285758413683087a061048c02df64736f6c634300080a0033",
  "linkReferences": {},
  "deployedLinkReferences": {}
}