{
  "_format": "hh-sol-artifact-1",
  "contractName": "Poll",
  "sourceName": "contracts/Poll.sol",
  "abi": [
    {
      "inputs": [
        {
          "internalType": "uint256",
          "name": "_duration",
          "type": "uint256"
        },
        {
          "components": [
            {
              "internalType": "uint256",
              "name": "maxMessages",
              "type": "uint256"
            },
            {
              "internalType": "uint256",
              "name": "maxVoteOptions",
              "type": "uint256"
            }
          ],
          "internalType": "struct Params.MaxValues",
          "name": "_maxValues",
          "type": "tuple"
        },
        {
          "components": [
            {
              "internalType": "uint8",
              "name": "intStateTreeDepth",
              "type": "uint8"
            },
            {
              "internalType": "uint8",
              "name": "messageTreeSubDepth",
              "type": "uint8"
            },
            {
              "internalType": "uint8",
              "name": "messageTreeDepth",
              "type": "uint8"
            },
            {
              "internalType": "uint8",
              "name": "voteOptionTreeDepth",
              "type": "uint8"
            }
          ],
          "internalType": "struct Params.TreeDepths",
          "name": "_treeDepths",
          "type": "tuple"
        },
        {
          "components": [
            {
              "internalType": "uint256",
              "name": "x",
              "type": "uint256"
            },
            {
              "internalType": "uint256",
              "name": "y",
              "type": "uint256"
            }
          ],
          "internalType": "struct DomainObjs.PubKey",
          "name": "_coordinatorPubKey",
          "type": "tuple"
        },
        {
          "components": [
            {
              "internalType": "contract IMACI",
              "name": "maci",
              "type": "address"
            },
            {
              "internalType": "contract AccQueue",
              "name": "messageAq",
              "type": "address"
            },
            {
              "internalType": "contract TopupCredit",
              "name": "topupCredit",
              "type": "address"
            }
          ],
          "internalType": "struct Params.ExtContracts",
          "name": "_extContracts",
          "type": "tuple"
        }
      ],
      "stateMutability": "payable",
      "type": "constructor"
    },
    {
      "inputs": [],
      "name": "InvalidBatchLength",
      "type": "error"
    },
    {
      "inputs": [],
      "name": "InvalidMessage",
      "type": "error"
    },
    {
      "inputs": [],
      "name": "MaciPubKeyLargerThanSnarkFieldSize",
      "type": "error"
    },
    {
      "inputs": [],
      "name": "PollAlreadyInit",
      "type": "error"
    },
    {
      "inputs": [],
      "name": "StateAqAlreadyMerged",
      "type": "error"
    },
    {
      "inputs": [],
      "name": "StateAqSubtreesNeedMerge",
      "type": "error"
    },
    {
      "inputs": [],
      "name": "TooManyMessages",
      "type": "error"
    },
    {
      "inputs": [],
      "name": "VotingPeriodNotOver",
      "type": "error"
    },
    {
      "inputs": [],
      "name": "VotingPeriodOver",
      "type": "error"
    },
    {
      "anonymous": false,
      "inputs": [
        {
          "indexed": false,
          "internalType": "uint256",
          "name": "_stateRoot",
          "type": "uint256"
        },
        {
          "indexed": false,
          "internalType": "uint256",
          "name": "_numSignups",
          "type": "uint256"
        }
      ],
      "name": "MergeMaciStateAq",
      "type": "event"
    },
    {
      "anonymous": false,
      "inputs": [
        {
          "indexed": false,
          "internalType": "uint256",
          "name": "_numSrQueueOps",
          "type": "uint256"
        }
      ],
      "name": "MergeMaciStateAqSubRoots",
      "type": "event"
    },
    {
      "anonymous": false,
      "inputs": [
        {
          "indexed": false,
          "internalType": "uint256",
          "name": "_messageRoot",
          "type": "uint256"
        }
      ],
      "name": "MergeMessageAq",
      "type": "event"
    },
    {
      "anonymous": false,
      "inputs": [
        {
          "indexed": false,
          "internalType": "uint256",
          "name": "_numSrQueueOps",
          "type": "uint256"
        }
      ],
      "name": "MergeMessageAqSubRoots",
      "type": "event"
    },
    {
      "anonymous": false,
      "inputs": [
        {
          "indexed": true,
          "internalType": "address",
          "name": "previousOwner",
          "type": "address"
        },
        {
          "indexed": true,
          "internalType": "address",
          "name": "newOwner",
          "type": "address"
        }
      ],
      "name": "OwnershipTransferred",
      "type": "event"
    },
    {
      "anonymous": false,
      "inputs": [
        {
          "components": [
            {
              "internalType": "uint256",
              "name": "msgType",
              "type": "uint256"
            },
            {
              "internalType": "uint256[10]",
              "name": "data",
              "type": "uint256[10]"
            }
          ],
          "indexed": false,
          "internalType": "struct DomainObjs.Message",
          "name": "_message",
          "type": "tuple"
        },
        {
          "components": [
            {
              "internalType": "uint256",
              "name": "x",
              "type": "uint256"
            },
            {
              "internalType": "uint256",
              "name": "y",
              "type": "uint256"
            }
          ],
          "indexed": false,
          "internalType": "struct DomainObjs.PubKey",
          "name": "_encPubKey",
          "type": "tuple"
        }
      ],
      "name": "PublishMessage",
      "type": "event"
    },
    {
      "anonymous": false,
      "inputs": [
        {
          "components": [
            {
              "internalType": "uint256",
              "name": "msgType",
              "type": "uint256"
            },
            {
              "internalType": "uint256[10]",
              "name": "data",
              "type": "uint256[10]"
            }
          ],
          "indexed": false,
          "internalType": "struct DomainObjs.Message",
          "name": "_message",
          "type": "tuple"
        }
      ],
      "name": "TopupMessage",
      "type": "event"
    },
    {
      "inputs": [],
      "name": "MESSAGE_DATA_LENGTH",
      "outputs": [
        {
          "internalType": "uint8",
          "name": "",
          "type": "uint8"
        }
      ],
      "stateMutability": "view",
      "type": "function"
    },
    {
      "inputs": [],
      "name": "coordinatorPubKey",
      "outputs": [
        {
          "internalType": "uint256",
          "name": "x",
          "type": "uint256"
        },
        {
          "internalType": "uint256",
          "name": "y",
          "type": "uint256"
        }
      ],
      "stateMutability": "view",
      "type": "function"
    },
    {
      "inputs": [],
      "name": "coordinatorPubKeyHash",
      "outputs": [
        {
          "internalType": "uint256",
          "name": "",
          "type": "uint256"
        }
      ],
      "stateMutability": "view",
      "type": "function"
    },
    {
      "inputs": [],
      "name": "currentSbCommitment",
      "outputs": [
        {
          "internalType": "uint256",
          "name": "",
          "type": "uint256"
        }
      ],
      "stateMutability": "view",
      "type": "function"
    },
    {
      "inputs": [],
      "name": "extContracts",
      "outputs": [
        {
          "internalType": "contract IMACI",
          "name": "maci",
          "type": "address"
        },
        {
          "internalType": "contract AccQueue",
          "name": "messageAq",
          "type": "address"
        },
        {
          "internalType": "contract TopupCredit",
          "name": "topupCredit",
          "type": "address"
        }
      ],
      "stateMutability": "view",
      "type": "function"
    },
    {
      "inputs": [],
      "name": "getDeployTimeAndDuration",
      "outputs": [
        {
          "internalType": "uint256",
          "name": "pollDeployTime",
          "type": "uint256"
        },
        {
          "internalType": "uint256",
          "name": "pollDuration",
          "type": "uint256"
        }
      ],
      "stateMutability": "view",
      "type": "function"
    },
    {
      "inputs": [
        {
          "internalType": "uint256[2]",
          "name": "array",
          "type": "uint256[2]"
        }
      ],
      "name": "hash2",
      "outputs": [
        {
          "internalType": "uint256",
          "name": "result",
          "type": "uint256"
        }
      ],
      "stateMutability": "pure",
      "type": "function"
    },
    {
      "inputs": [
        {
          "internalType": "uint256[3]",
          "name": "array",
          "type": "uint256[3]"
        }
      ],
      "name": "hash3",
      "outputs": [
        {
          "internalType": "uint256",
          "name": "result",
          "type": "uint256"
        }
      ],
      "stateMutability": "pure",
      "type": "function"
    },
    {
      "inputs": [
        {
          "internalType": "uint256[4]",
          "name": "array",
          "type": "uint256[4]"
        }
      ],
      "name": "hash4",
      "outputs": [
        {
          "internalType": "uint256",
          "name": "result",
          "type": "uint256"
        }
      ],
      "stateMutability": "pure",
      "type": "function"
    },
    {
      "inputs": [
        {
          "internalType": "uint256[5]",
          "name": "array",
          "type": "uint256[5]"
        }
      ],
      "name": "hash5",
      "outputs": [
        {
          "internalType": "uint256",
          "name": "result",
          "type": "uint256"
        }
      ],
      "stateMutability": "pure",
      "type": "function"
    },
    {
      "inputs": [
        {
          "internalType": "uint256",
          "name": "left",
          "type": "uint256"
        },
        {
          "internalType": "uint256",
          "name": "right",
          "type": "uint256"
        }
      ],
      "name": "hashLeftRight",
      "outputs": [
        {
          "internalType": "uint256",
          "name": "result",
          "type": "uint256"
        }
      ],
      "stateMutability": "pure",
      "type": "function"
    },
    {
      "inputs": [
        {
          "components": [
            {
              "internalType": "uint256",
              "name": "msgType",
              "type": "uint256"
            },
            {
              "internalType": "uint256[10]",
              "name": "data",
              "type": "uint256[10]"
            }
          ],
          "internalType": "struct DomainObjs.Message",
          "name": "_message",
          "type": "tuple"
        },
        {
          "components": [
            {
              "internalType": "uint256",
              "name": "x",
              "type": "uint256"
            },
            {
              "internalType": "uint256",
              "name": "y",
              "type": "uint256"
            }
          ],
          "internalType": "struct DomainObjs.PubKey",
          "name": "_encPubKey",
          "type": "tuple"
        }
      ],
      "name": "hashMessageAndEncPubKey",
      "outputs": [
        {
          "internalType": "uint256",
          "name": "msgHash",
          "type": "uint256"
        }
      ],
      "stateMutability": "pure",
      "type": "function"
    },
    {
      "inputs": [
        {
          "components": [
            {
              "components": [
                {
                  "internalType": "uint256",
                  "name": "x",
                  "type": "uint256"
                },
                {
                  "internalType": "uint256",
                  "name": "y",
                  "type": "uint256"
                }
              ],
              "internalType": "struct DomainObjs.PubKey",
              "name": "pubKey",
              "type": "tuple"
            },
            {
              "internalType": "uint256",
              "name": "voiceCreditBalance",
              "type": "uint256"
            },
            {
              "internalType": "uint256",
              "name": "timestamp",
              "type": "uint256"
            }
          ],
          "internalType": "struct DomainObjs.StateLeaf",
          "name": "_stateLeaf",
          "type": "tuple"
        }
      ],
      "name": "hashStateLeaf",
      "outputs": [
        {
          "internalType": "uint256",
          "name": "ciphertext",
          "type": "uint256"
        }
      ],
      "stateMutability": "pure",
      "type": "function"
    },
    {
      "inputs": [],
      "name": "init",
      "outputs": [],
      "stateMutability": "nonpayable",
      "type": "function"
    },
    {
      "inputs": [],
      "name": "maxValues",
      "outputs": [
        {
          "internalType": "uint256",
          "name": "maxMessages",
          "type": "uint256"
        },
        {
          "internalType": "uint256",
          "name": "maxVoteOptions",
          "type": "uint256"
        }
      ],
      "stateMutability": "view",
      "type": "function"
    },
    {
      "inputs": [
        {
          "internalType": "uint256",
          "name": "_pollId",
          "type": "uint256"
        }
      ],
      "name": "mergeMaciStateAq",
      "outputs": [],
      "stateMutability": "nonpayable",
      "type": "function"
    },
    {
      "inputs": [
        {
          "internalType": "uint256",
          "name": "_numSrQueueOps",
          "type": "uint256"
        },
        {
          "internalType": "uint256",
          "name": "_pollId",
          "type": "uint256"
        }
      ],
      "name": "mergeMaciStateAqSubRoots",
      "outputs": [],
      "stateMutability": "nonpayable",
      "type": "function"
    },
    {
      "inputs": [],
      "name": "mergeMessageAq",
      "outputs": [],
      "stateMutability": "nonpayable",
      "type": "function"
    },
    {
      "inputs": [
        {
          "internalType": "uint256",
          "name": "_numSrQueueOps",
          "type": "uint256"
        }
      ],
      "name": "mergeMessageAqSubRoots",
      "outputs": [],
      "stateMutability": "nonpayable",
      "type": "function"
    },
    {
      "inputs": [],
      "name": "mergedStateRoot",
      "outputs": [
        {
          "internalType": "uint256",
          "name": "",
          "type": "uint256"
        }
      ],
      "stateMutability": "view",
      "type": "function"
    },
    {
      "inputs": [],
      "name": "numMessages",
      "outputs": [
        {
          "internalType": "uint256",
          "name": "",
          "type": "uint256"
        }
      ],
      "stateMutability": "view",
      "type": "function"
    },
    {
      "inputs": [],
      "name": "numSignUpsAndMessages",
      "outputs": [
        {
          "internalType": "uint256",
          "name": "numSUps",
          "type": "uint256"
        },
        {
          "internalType": "uint256",
          "name": "numMsgs",
          "type": "uint256"
        }
      ],
      "stateMutability": "view",
      "type": "function"
    },
    {
      "inputs": [],
      "name": "numSignups",
      "outputs": [
        {
          "internalType": "uint256",
          "name": "",
          "type": "uint256"
        }
      ],
      "stateMutability": "view",
      "type": "function"
    },
    {
      "inputs": [],
      "name": "owner",
      "outputs": [
        {
          "internalType": "address",
          "name": "",
          "type": "address"
        }
      ],
      "stateMutability": "view",
      "type": "function"
    },
    {
      "inputs": [
        {
          "internalType": "uint256[2]",
          "name": "dataToPad",
          "type": "uint256[2]"
        },
        {
          "internalType": "uint256",
          "name": "msgType",
          "type": "uint256"
        }
      ],
      "name": "padAndHashMessage",
      "outputs": [
        {
          "components": [
            {
              "internalType": "uint256",
              "name": "msgType",
              "type": "uint256"
            },
            {
              "internalType": "uint256[10]",
              "name": "data",
              "type": "uint256[10]"
            }
          ],
          "internalType": "struct DomainObjs.Message",
          "name": "message",
          "type": "tuple"
        },
        {
          "components": [
            {
              "internalType": "uint256",
              "name": "x",
              "type": "uint256"
            },
            {
              "internalType": "uint256",
              "name": "y",
              "type": "uint256"
            }
          ],
          "internalType": "struct DomainObjs.PubKey",
          "name": "padKey",
          "type": "tuple"
        },
        {
          "internalType": "uint256",
          "name": "msgHash",
          "type": "uint256"
        }
      ],
      "stateMutability": "pure",
      "type": "function"
    },
    {
      "inputs": [
        {
          "components": [
            {
              "internalType": "uint256",
              "name": "msgType",
              "type": "uint256"
            },
            {
              "internalType": "uint256[10]",
              "name": "data",
              "type": "uint256[10]"
            }
          ],
          "internalType": "struct DomainObjs.Message",
          "name": "_message",
          "type": "tuple"
        },
        {
          "components": [
            {
              "internalType": "uint256",
              "name": "x",
              "type": "uint256"
            },
            {
              "internalType": "uint256",
              "name": "y",
              "type": "uint256"
            }
          ],
          "internalType": "struct DomainObjs.PubKey",
          "name": "_encPubKey",
          "type": "tuple"
        }
      ],
      "name": "publishMessage",
      "outputs": [],
      "stateMutability": "nonpayable",
      "type": "function"
    },
    {
      "inputs": [
        {
          "components": [
            {
              "internalType": "uint256",
              "name": "msgType",
              "type": "uint256"
            },
            {
              "internalType": "uint256[10]",
              "name": "data",
              "type": "uint256[10]"
            }
          ],
          "internalType": "struct DomainObjs.Message[]",
          "name": "_messages",
          "type": "tuple[]"
        },
        {
          "components": [
            {
              "internalType": "uint256",
              "name": "x",
              "type": "uint256"
            },
            {
              "internalType": "uint256",
              "name": "y",
              "type": "uint256"
            }
          ],
          "internalType": "struct DomainObjs.PubKey[]",
          "name": "_encPubKeys",
          "type": "tuple[]"
        }
      ],
      "name": "publishMessageBatch",
      "outputs": [],
      "stateMutability": "nonpayable",
      "type": "function"
    },
    {
      "inputs": [],
      "name": "renounceOwnership",
      "outputs": [],
      "stateMutability": "nonpayable",
      "type": "function"
    },
    {
      "inputs": [
        {
          "internalType": "uint256[]",
          "name": "array",
          "type": "uint256[]"
        }
      ],
      "name": "sha256Hash",
      "outputs": [
        {
          "internalType": "uint256",
          "name": "result",
          "type": "uint256"
        }
      ],
      "stateMutability": "pure",
      "type": "function"
    },
    {
      "inputs": [],
      "name": "stateAqMerged",
      "outputs": [
        {
          "internalType": "bool",
          "name": "",
          "type": "bool"
        }
      ],
      "stateMutability": "view",
      "type": "function"
    },
    {
      "inputs": [
        {
          "internalType": "uint256",
          "name": "stateIndex",
          "type": "uint256"
        },
        {
          "internalType": "uint256",
          "name": "amount",
          "type": "uint256"
        }
      ],
      "name": "topup",
      "outputs": [],
      "stateMutability": "nonpayable",
      "type": "function"
    },
    {
      "inputs": [
        {
          "internalType": "address",
          "name": "newOwner",
          "type": "address"
        }
      ],
      "name": "transferOwnership",
      "outputs": [],
      "stateMutability": "nonpayable",
      "type": "function"
    },
    {
      "inputs": [],
      "name": "treeDepths",
      "outputs": [
        {
          "internalType": "uint8",
          "name": "intStateTreeDepth",
          "type": "uint8"
        },
        {
          "internalType": "uint8",
          "name": "messageTreeSubDepth",
          "type": "uint8"
        },
        {
          "internalType": "uint8",
          "name": "messageTreeDepth",
          "type": "uint8"
        },
        {
          "internalType": "uint8",
          "name": "voteOptionTreeDepth",
          "type": "uint8"
        }
      ],
      "stateMutability": "view",
      "type": "function"
    }
  ],
  "bytecode": "0x60e0604052604051620025c1380380620025c183398101604081905262000026916200044f565b62000031336200023c565b7f0ad794e7fb50257e0edc93fe4616c69ea691e7a6c653333b6a5b507d798947276001557ec31c90221285dc87ee66daadc19f64f922e45a613f4f5429d74ddc7d66e0236002557f2afdf0e1d10d07d0df3a8481202bf2595108195e34d4ccb88742641c576aa77d6003557f177bbb5acaafc1f1deb73b8ae33f97132089ab84039048a096e202b1f8c429106004557f25c1a155f21ae70ca3b8bdb27961efdee58bdafff83274c18dd37d0f0a8bfbb560055581517f30644e72e131a029b85045b68181585d2833e84879b9709143e1f593f00000011115806200013957507f30644e72e131a029b85045b68181585d2833e84879b9709143e1f593f0000001826020015110155b1562000158576040516354be831760e11b815260040160405180910390fd5b81516007819055602083015160088190556200017591906200028c565b6080528051601180546001600160a01b039283166001600160a01b03199182161790915560208084015160128054918516918416919091179055604093840151601380549190941692169190911790915560c0959095528351600e5592840151600f5550805160108054948301519383015160609093015160ff90811663010000000263ff0000001994821662010000029490941663ffff0000199582166101000261ffff1990971691909316179490941792909216919091171790554260a052620005b1565b600080546001600160a01b038381166001600160a01b0319831681178455604051919092169283917f8be0079c531659141344cd1fd0a4f28419497f9722a3daafe3b4186f6b6457e09190a35050565b6000620002986200033b565b83815260208101839052620002ad81620002b5565b949350505050565b6040516314d2f97b60e11b815260009073__$6574937f64fc1d7710ec0e28b7a36713bb$__906329a5f2f690620002f190859060040162000564565b602060405180830381865af41580156200030f573d6000803e3d6000fd5b505050506040513d601f19601f8201168201806040525081019062000335919062000597565b92915050565b60405180604001604052806002906020820280368337509192915050565b604051608081016001600160401b03811182821017156200038a57634e487b7160e01b600052604160045260246000fd5b60405290565b604051606081016001600160401b03811182821017156200038a57634e487b7160e01b600052604160045260246000fd5b600060408284031215620003d457600080fd5b604080519081016001600160401b03811182821017156200040557634e487b7160e01b600052604160045260246000fd5b604052825181526020928301519281019290925250919050565b805160ff811681146200043157600080fd5b919050565b6001600160a01b03811681146200044c57600080fd5b50565b60008060008060008587036101808112156200046a57600080fd5b865195506200047d8860208901620003c1565b94506080605f19820112156200049257600080fd5b6200049c62000359565b620004aa606089016200041f565b8152620004ba608089016200041f565b6020820152620004cd60a089016200041f565b6040820152620004e060c089016200041f565b60608201529350620004f68860e08901620003c1565b9250606061011f19820112156200050c57600080fd5b506200051762000390565b610120870151620005288162000436565b81526101408701516200053b8162000436565b6020820152610160870151620005518162000436565b6040820152949793965091945092919050565b60408101818360005b60028110156200058e5781518352602092830192909101906001016200056d565b50505092915050565b600060208284031215620005aa57600080fd5b5051919050565b60805160a05160c051611f8c62000635600039600081816102e70152818161056301528181610812015281816109ff01528181610e3101528181610f6e01526110ad0152600081816102c60152818161053a015281816107e9015281816109d601528181610e0801528181610f450152611084015260006103b80152611f8c6000f3fe608060405234801561001057600080fd5b50600436106101fa5760003560e01c8063715018a61161011a578063ac98e5df116100ad578063bea140b31161007c578063bea140b3146104eb578063c17268d9146104fe578063e1c7392a14610507578063f2fde38b1461050f578063fba630f21461052257600080fd5b8063ac98e5df1461041b578063ae93a21214610471578063b5f38c8114610484578063bc14ee2b146104a157600080fd5b80638aa0ba92116100e95780638aa0ba92146103b35780638da5cb5b146103da5780639c971729146103f55780639cfced971461040857600080fd5b8063715018a6146103725780637296aaea1461037a5780637d0a81c81461038d57806386f3c3f7146103a057600080fd5b80633dfb88b2116101925780635bb93995116101615780635bb93995146103295780635d5909dd1461033c57806362a361bb14610345578063683f3dc31461035857600080fd5b80633dfb88b2146102b15780634909229f146102c45780634f367f0f1461030b57806358bfc3791461031657600080fd5b8063167fd483116101ce578063167fd4831461026a578063184ff47f1461027d57806331e766a514610290578063394b78a21461029e57600080fd5b8062329f2f146101ff5780630396a0ce1461020957806306912d3c146102315780630f4cf69214610253575b600080fd5b61020761052b565b005b600e54600f54610217919082565b604080519283526020830191909152015b60405180910390f35b61024461023f36600461179c565b61065b565b604051610228939291906117f4565b61025c600c5481565b604051908152602001610228565b61025c6102783660046118e5565b610709565b61020761028b36600461191c565b6107e2565b600754600854610217919082565b6102076102ac36600461193e565b6109cf565b61025c6102bf366004611981565b610ba6565b7f00000000000000000000000000000000000000000000000000000000000000007f0000000000000000000000000000000000000000000000000000000000000000610217565b600d54600c54610217565b61025c6103243660046119da565b610c27565b61025c61033736600461191c565b610cc1565b61025c600d5481565b61025c610353366004611a80565b610ce6565b610360600a81565b60405160ff9091168152602001610228565b610207610d20565b610207610388366004611a9c565b610d34565b61025c61039b366004611b65565b610db9565b6102076103ae36600461191c565b610df9565b61025c7f000000000000000000000000000000000000000000000000000000000000000081565b6000546040516001600160a01b039091168152602001610228565b610207610403366004611bc7565b610f36565b61025c610416366004611be0565b61103b565b6010546104449060ff808216916101008104821691620100008204811691630100000090041684565b6040805160ff95861681529385166020850152918416918301919091529091166060820152608001610228565b61020761047f366004611bc7565b611075565b600a546104919060ff1681565b6040519015158152602001610228565b6011546012546013546104c1926001600160a01b03908116928116911683565b604080516001600160a01b0394851681529284166020840152921691810191909152606001610228565b61025c6104f9366004611c39565b61137a565b61025c600b5481565b6102076113b4565b61020761051d366004611ca7565b6114de565b61025c60095481565b61053361155c565b600061055f7f000000000000000000000000000000000000000000000000000000000000000042611cda565b90507f000000000000000000000000000000000000000000000000000000000000000081116105a157604051630931513d60e11b815260040160405180910390fd5b6012546010546040516324a47aeb60e01b81526201000090910460ff1660048201526000916001600160a01b0316906324a47aeb906024016020604051808303816000875af11580156105f8573d6000803e3d6000fd5b505050506040513d601f19601f8201168201806040525081019061061c9190611cf1565b90507fc5624680ab5d50c84507f9e0dc2032163de2bda906ab8a661a53dd4d43bd5dc78160405161064f91815260200190565b60405180910390a15050565b610663611606565b60408051808201909152600080825260208201526000610681611625565b85518152602080870151828201526040805180820182527f171e826ad4a870fd925e0bf0e87884e70e080879c2205ef10114f28a3b6f6dd781527f2bd407d897fbbca9f88adfd2d15252e69de8c1564eb4d3d27162e259172f1a1d818401528151808301909252878252918101839052945092506106ff8484610709565b9150509250925092565b6000610713611644565b602084810180515183528051820151918301919091528051604090810151908301528051606090810151908301525160809081015190820152610754611644565b6020858101805160a0908101518452815160c0015184840152815160e001516040808601919091528251610100015160608601529151610120015160808501528151908101909152865181526107d99181016107af8561103b565b81526020016107bd8461103b565b815260200186600001518152602001866020015181525061103b565b95945050505050565b600061080e7f000000000000000000000000000000000000000000000000000000000000000042611cda565b90507f000000000000000000000000000000000000000000000000000000000000000081106108505760405163148fb9a960e31b815260040160405180910390fd5b600e54600c541061087457604051631ec0b2f760e01b815260040160405180910390fd5b600c805460010190556013546040516323b872dd60e01b8152336004820152306024820152604481018490526001600160a01b03909116906323b872dd906064016020604051808303816000875af11580156108d4573d6000803e3d6000fd5b505050506040513d601f19601f820116820180604052508101906108f89190611d20565b50604080518082019091528381526020810183905260008061091b83600261065b565b601254604051631ffc735d60e01b8152600481018390529395509093506001600160a01b031691631ffc735d91506024016020604051808303816000875af115801561096b573d6000803e3d6000fd5b505050506040513d601f19601f8201168201806040525081019061098f9190611cf1565b507f935afc7bb7cc33eb3e24e20dcfc75f5b21fa58e9c82cca06435238efaf9a3a58826040516109bf9190611d42565b60405180910390a1505050505050565b60006109fb7f000000000000000000000000000000000000000000000000000000000000000042611cda565b90507f00000000000000000000000000000000000000000000000000000000000000008110610a3d5760405163148fb9a960e31b815260040160405180910390fd5b600e54600c5410610a6157604051631ec0b2f760e01b815260040160405180910390fd5b7f30644e72e131a029b85045b68181585d2833e84879b9709143e1f593f00000018235101580610ab557507f30644e72e131a029b85045b68181585d2833e84879b9709143e1f593f0000001826020013510155b15610ad3576040516354be831760e11b815260040160405180910390fd5b600c8054600190810190915583526000610af68461027836869003860186611d51565b601254604051631ffc735d60e01b8152600481018390529192506001600160a01b031690631ffc735d906024016020604051808303816000875af1158015610b42573d6000803e3d6000fd5b505050506040513d601f19601f82011682018060405250810190610b669190611cf1565b507fe2067f06dd7b8159b21a5490f8663f6bb031d9b35ed6d298b5489674cb9cda4b8484604051610b98929190611d6d565b60405180910390a150505050565b60405163248f667760e01b815260009073__$ce9c2c925f157047e54fa833ec4e61409f$__9063248f667790610be0908590600401611d96565b602060405180830381865af4158015610bfd573d6000803e3d6000fd5b505050506040513d601f19601f82011682018060405250810190610c219190611cf1565b92915050565b60007f30644e72e131a029b85045b68181585d2833e84879b9709143e1f593f0000001600283604051602001610c5d9190611dc7565b60408051601f1981840301815290829052610c7791611dfd565b602060405180830381855afa158015610c94573d6000803e3d6000fd5b5050506040513d601f19601f82011682018060405250810190610cb79190611cf1565b610c219190611e38565b6000610ccb611662565b83815260208101839052610cde81610ce6565b949350505050565b6040516314d2f97b60e11b815260009073__$6574937f64fc1d7710ec0e28b7a36713bb$__906329a5f2f690610be0908590600401611e5a565b610d2861155c565b610d3260006115b6565b565b828114610d545760405163ca3487f760e01b815260040160405180910390fd5b8260005b81811015610db157610da9868683818110610d7557610d75611d0a565b90506101600201803603810190610d8c9190611e82565b858584818110610d9e57610d9e611d0a565b9050604002016109cf565b600101610d58565b505050505050565b6000610dc3611680565b8251518152825160209081015181830152830151816002602002015260408301516060820152610df281610ba6565b9392505050565b610e0161155c565b6000610e2d7f000000000000000000000000000000000000000000000000000000000000000042611cda565b90507f00000000000000000000000000000000000000000000000000000000000000008111610e6f57604051630931513d60e11b815260040160405180910390fd5b600a5460ff1615610e935760405163084ef7b960e41b815260040160405180910390fd5b60115460405163cfa1fa0360e01b815260048101859052602481018490526001600160a01b039091169063cfa1fa0390604401600060405180830381600087803b158015610ee057600080fd5b505af1158015610ef4573d6000803e3d6000fd5b505050507fbe5eae95ff0a9a2779506ae62da06dda1e349311d3f2b6ceb990ea42b6a5f20b83604051610f2991815260200190565b60405180910390a1505050565b610f3e61155c565b6000610f6a7f000000000000000000000000000000000000000000000000000000000000000042611cda565b90507f00000000000000000000000000000000000000000000000000000000000000008111610fac57604051630931513d60e11b815260040160405180910390fd5b60125460405163c15da65b60e01b8152600481018490526001600160a01b039091169063c15da65b90602401600060405180830381600087803b158015610ff257600080fd5b505af1158015611006573d6000803e3d6000fd5b505050507f1245b881cb30fdad22b2f9fde2d5c2a3605bbdf272d5e8a2235d8c9e81aba2ce8260405161064f91815260200190565b604051630926f44b60e31b815260009073__$20527677031d76601747626a9845039fe4$__90634937a25890610be0908590600401611e9f565b61107d61155c565b60006110a97f000000000000000000000000000000000000000000000000000000000000000042611cda565b90507f000000000000000000000000000000000000000000000000000000000000000081116110eb57604051630931513d60e11b815260040160405180910390fd5b600a5460ff161561110f5760405163084ef7b960e41b815260040160405180910390fd5b600a805460ff1916600117905560115460408051630c0775ff60e31b815290516001600160a01b039092169163603baff8916004808201926020929091908290030181865afa158015611166573d6000803e3d6000fd5b505050506040513d601f19601f8201168201806040525081019061118a9190611ec7565b6001600160a01b031663b6a64acd6040518163ffffffff1660e01b8152600401602060405180830381865afa1580156111c7573d6000803e3d6000fd5b505050506040513d601f19601f820116820180604052508101906111eb9190611d20565b61120757604051624a03c360e31b815260040160405180910390fd5b60115460405163dd0982a360e01b8152600481018490526001600160a01b039091169063dd0982a3906024016020604051808303816000875af1158015611252573d6000803e3d6000fd5b505050506040513d601f19601f820116820180604052508101906112769190611cf1565b60095561128161169e565b60095481526010546001906112a19082906301000000900460ff16611ee4565b60ff16600581106112b4576112b4611d0a565b01546020820152600060408201526112cb8161137a565b600b556011546040805163122db15360e01b815290516001600160a01b039092169163122db153916004808201926020929091908290030181865afa158015611318573d6000803e3d6000fd5b505050506040513d601f19601f8201168201806040525081019061133c9190611cf1565b600d8190556009546040517fa80928657383ff9d374f1409cf51e7460a64472b6baeb5ded1199830c15bae0192610f29928252602082015260400190565b6040516304b98e1d60e31b815260009073__$dc01a9744591ab014bc46a3b7671cdaefb$__906325cc70e890610be0908590600401611f07565b60065460ff16156113d8576040516342a2e18d60e01b815260040160405180910390fd5b6006805460ff19166001908117909155600c805482019055604080518082019091527f12817f4161f2f5ded33f26c55735a77e80e4f8975483c8c2704745128417f711815260006020820181905290918190819061143790859061065b565b601254604051631ffc735d60e01b81526004810183905293965091945092506001600160a01b031690631ffc735d906024016020604051808303816000875af1158015611488573d6000803e3d6000fd5b505050506040513d601f19601f820116820180604052508101906114ac9190611cf1565b507fe2067f06dd7b8159b21a5490f8663f6bb031d9b35ed6d298b5489674cb9cda4b8383604051610b98929190611f2f565b6114e661155c565b6001600160a01b0381166115505760405162461bcd60e51b815260206004820152602660248201527f4f776e61626c653a206e6577206f776e657220697320746865207a65726f206160448201526564647265737360d01b60648201526084015b60405180910390fd5b611559816115b6565b50565b6000546001600160a01b03163314610d325760405162461bcd60e51b815260206004820181905260248201527f4f776e61626c653a2063616c6c6572206973206e6f7420746865206f776e65726044820152606401611547565b600080546001600160a01b038381166001600160a01b0319831681178455604051919092169283917f8be0079c531659141344cd1fd0a4f28419497f9722a3daafe3b4186f6b6457e09190a35050565b604051806040016040528060008152602001611620611625565b905290565b604051806101400160405280600a906020820280368337509192915050565b6040518060a001604052806005906020820280368337509192915050565b60405180604001604052806002906020820280368337509192915050565b60405180608001604052806004906020820280368337509192915050565b60405180606001604052806003906020820280368337509192915050565b634e487b7160e01b600052604160045260246000fd5b6040805190810167ffffffffffffffff811182821017156116f5576116f56116bc565b60405290565b604051601f8201601f1916810167ffffffffffffffff81118282101715611724576117246116bc565b604052919050565b600082601f83011261173d57600080fd5b6040516040810181811067ffffffffffffffff82111715611760576117606116bc565b806040525080604084018581111561177757600080fd5b845b81811015611791578035835260209283019201611779565b509195945050505050565b600080606083850312156117af57600080fd5b6117b9848461172c565b946040939093013593505050565b8051825260208082015181840160005b600a811015610db1578251825291830191908301906001016117d7565b6101c0810161180382866117c7565b83516101608301526020909301516101808201526101a00152919050565b600061016080838503121561183557600080fd5b61183d6116d2565b915082358252602084603f85011261185457600080fd5b604051610140810181811067ffffffffffffffff82111715611878576118786116bc565b60405291840191808684111561188d57600080fd5b8286015b848110156118a85780358252908301908301611891565b5050908301525092915050565b6000604082840312156118c757600080fd5b6118cf6116d2565b9050813581526020820135602082015292915050565b6000806101a083850312156118f957600080fd5b6119038484611821565b91506119138461016085016118b5565b90509250929050565b6000806040838503121561192f57600080fd5b50508035926020909101359150565b6000808284036101a081121561195357600080fd5b61195d8585611821565b9250604061015f198201121561197257600080fd5b50610160830190509250929050565b60006080828403121561199357600080fd5b82601f8301126119a257600080fd5b6040516080810181811067ffffffffffffffff821117156119c5576119c56116bc565b60405280608084018581111561177757600080fd5b600060208083850312156119ed57600080fd5b823567ffffffffffffffff80821115611a0557600080fd5b818501915085601f830112611a1957600080fd5b813581811115611a2b57611a2b6116bc565b8060051b9150611a3c8483016116fb565b8181529183018401918481019088841115611a5657600080fd5b938501935b83851015611a7457843582529385019390850190611a5b565b98975050505050505050565b600060408284031215611a9257600080fd5b610df2838361172c565b60008060008060408587031215611ab257600080fd5b843567ffffffffffffffff80821115611aca57600080fd5b818701915087601f830112611ade57600080fd5b813581811115611aed57600080fd5b88602061016083028501011115611b0357600080fd5b602092830196509450908601359080821115611b1e57600080fd5b818701915087601f830112611b3257600080fd5b813581811115611b4157600080fd5b8860208260061b8501011115611b5657600080fd5b95989497505060200194505050565b600060808284031215611b7757600080fd5b6040516060810181811067ffffffffffffffff82111715611b9a57611b9a6116bc565b604052611ba784846118b5565b815260408301356020820152606083013560408201528091505092915050565b600060208284031215611bd957600080fd5b5035919050565b600060a08284031215611bf257600080fd5b82601f830112611c0157600080fd5b60405160a0810181811067ffffffffffffffff82111715611c2457611c246116bc565b6040528060a084018581111561177757600080fd5b600060608284031215611c4b57600080fd5b82601f830112611c5a57600080fd5b6040516060810181811067ffffffffffffffff82111715611c7d57611c7d6116bc565b60405280606084018581111561177757600080fd5b6001600160a01b038116811461155957600080fd5b600060208284031215611cb957600080fd5b8135610df281611c92565b634e487b7160e01b600052601160045260246000fd5b600082821015611cec57611cec611cc4565b500390565b600060208284031215611d0357600080fd5b5051919050565b634e487b7160e01b600052603260045260246000fd5b600060208284031215611d3257600080fd5b81518015158114610df257600080fd5b6101608101610c2182846117c7565b600060408284031215611d6357600080fd5b610df283836118b5565b6101a08101611d7c82856117c7565b823561016083015260208301356101808301529392505050565b60808101818360005b6004811015611dbe578151835260209283019290910190600101611d9f565b50505092915050565b815160009082906020808601845b83811015611df157815185529382019390820190600101611dd5565b50929695505050505050565b6000825160005b81811015611e1e5760208186018101518583015201611e04565b81811115611e2d576000828501525b509190910192915050565b600082611e5557634e487b7160e01b600052601260045260246000fd5b500690565b60408101818360005b6002811015611dbe578151835260209283019290910190600101611e63565b60006101608284031215611e9557600080fd5b610df28383611821565b60a08101818360005b6005811015611dbe578151835260209283019290910190600101611ea8565b600060208284031215611ed957600080fd5b8151610df281611c92565b600060ff821660ff841680821015611efe57611efe611cc4565b90039392505050565b60608101818360005b6003811015611dbe578151835260209283019290910190600101611f10565b6101a08101611f3e82856117c7565b82516101608301526020830151610180830152610df256fea2646970667358221220619235e80e3b1f5049a479caf7540796cb5b2401c9bdac06ce41f3ca790422be64736f6c634300080a0033",
  "linkReferences": {
    "contracts/crypto/PoseidonT3.sol": {
      "PoseidonT3": [
        {
          "length": 20,
          "start": 711
        },
        {
          "length": 20,
          "start": 4909
        }
      ]
    },
    "contracts/crypto/PoseidonT4.sol": {
      "PoseidonT4": [
        {
          "length": 20,
          "start": 6593
        }
      ]
    },
    "contracts/crypto/PoseidonT5.sol": {
      "PoseidonT5": [
        {
          "length": 20,
          "start": 4589
        }
      ]
    },
    "contracts/crypto/PoseidonT6.sol": {
      "PoseidonT6": [
        {
          "length": 20,
          "start": 5762
        }
      ]
    }
  },
  "deployedLinkReferences": {
    "contracts/crypto/PoseidonT3.sol": {
      "PoseidonT3": [
        {
          "length": 20,
          "start": 3320
        }
      ]
    },
    "contracts/crypto/PoseidonT4.sol": {
      "PoseidonT4": [
        {
          "length": 20,
          "start": 5004
        }
      ]
    },
    "contracts/crypto/PoseidonT5.sol": {
      "PoseidonT5": [
        {
          "length": 20,
          "start": 3000
        }
      ]
    },
    "contracts/crypto/PoseidonT6.sol": {
      "PoseidonT6": [
        {
          "length": 20,
          "start": 4173
        }
      ]
    }
  }
}