{
  "_format": "hh-sol-artifact-1",
  "contractName": "SignUpTokenGatekeeper",
  "sourceName": "contracts/gatekeepers/SignUpTokenGatekeeper.sol",
  "abi": [
    {
      "inputs": [
        {
          "internalType": "contract SignUpToken",
          "name": "_token",
          "type": "address"
        }
      ],
      "stateMutability": "payable",
      "type": "constructor"
    },
    {
      "inputs": [],
      "name": "AlreadyRegistered",
      "type": "error"
    },
    {
      "inputs": [],
      "name": "NotTokenOwner",
      "type": "error"
    },
    {
      "inputs": [],
      "name": "OnlyMACI",
      "type": "error"
    },
    {
      "anonymous": false,
      "inputs": [
        {
          "indexed": true,
          "internalType": "address",
          "name": "previousOwner",
          "type": "address"
        },
        {
          "indexed": true,
          "internalType": "address",
          "name": "newOwner",
          "type": "address"
        }
      ],
      "name": "OwnershipTransferred",
      "type": "event"
    },
    {
      "inputs": [],
      "name": "maci",
      "outputs": [
        {
          "internalType": "address",
          "name": "",
          "type": "address"
        }
      ],
      "stateMutability": "view",
      "type": "function"
    },
    {
      "inputs": [],
      "name": "owner",
      "outputs": [
        {
          "internalType": "address",
          "name": "",
          "type": "address"
        }
      ],
      "stateMutability": "view",
      "type": "function"
    },
    {
      "inputs": [
        {
          "internalType": "address",
          "name": "_user",
          "type": "address"
        },
        {
          "internalType": "bytes",
          "name": "_data",
          "type": "bytes"
        }
      ],
      "name": "register",
      "outputs": [],
      "stateMutability": "nonpayable",
      "type": "function"
    },
    {
      "inputs": [
        {
          "internalType": "uint256",
          "name": "",
          "type": "uint256"
        }
      ],
      "name": "registeredTokenIds",
      "outputs": [
        {
          "internalType": "bool",
          "name": "",
          "type": "bool"
        }
      ],
      "stateMutability": "view",
      "type": "function"
    },
    {
      "inputs": [],
      "name": "renounceOwnership",
      "outputs": [],
      "stateMutability": "nonpayable",
      "type": "function"
    },
    {
      "inputs": [
        {
          "internalType": "address",
          "name": "_maci",
          "type": "address"
        }
      ],
      "name": "setMaciInstance",
      "outputs": [],
      "stateMutability": "nonpayable",
      "type": "function"
    },
    {
      "inputs": [],
      "name": "token",
      "outputs": [
        {
          "internalType": "contract SignUpToken",
          "name": "",
          "type": "address"
        }
      ],
      "stateMutability": "view",
      "type": "function"
    },
    {
      "inputs": [
        {
          "internalType": "address",
          "name": "newOwner",
          "type": "address"
        }
      ],
      "name": "transferOwnership",
      "outputs": [],
      "stateMutability": "nonpayable",
      "type": "function"
    }
  ],
  "bytecode": "0x6080604052604051610664380380610664833981016040819052610022916100a0565b61002b33610050565b600180546001600160a01b0319166001600160a01b03929092169190911790556100d0565b600080546001600160a01b038381166001600160a01b0319831681178455604051919092169283917f8be0079c531659141344cd1fd0a4f28419497f9722a3daafe3b4186f6b6457e09190a35050565b6000602082840312156100b257600080fd5b81516001600160a01b03811681146100c957600080fd5b9392505050565b610585806100df6000396000f3fe608060405234801561001057600080fd5b50600436106100885760003560e01c80638da5cb5b1161005b5780638da5cb5b146100ed578063ca47cdc2146100fe578063f2fde38b14610131578063fc0c546a1461014457600080fd5b806313e65cf31461008d57806324b8fbf6146100a257806334a0922c146100b5578063715018a6146100e5575b600080fd5b6100a061009b366004610402565b610157565b005b6100a06100b036600461043c565b610181565b6002546100c8906001600160a01b031681565b6040516001600160a01b0390911681526020015b60405180910390f35b6100a06102b1565b6000546001600160a01b03166100c8565b61012161010c366004610500565b60036020526000908152604090205460ff1681565b60405190151581526020016100dc565b6100a061013f366004610402565b6102c5565b6001546100c8906001600160a01b031681565b61015f610343565b600280546001600160a01b0319166001600160a01b0392909216919091179055565b6002546001600160a01b031633146101ac57604051630346d90560e21b815260040160405180910390fd5b6000818060200190518101906101c29190610519565b6001546040516331a9108f60e11b8152600481018390529192506000916001600160a01b03868116921690636352211e90602401602060405180830381865afa158015610213573d6000803e3d6000fd5b505050506040513d601f19601f820116820180604052508101906102379190610532565b6001600160a01b031614905080610261576040516359dc379f60e01b815260040160405180910390fd5b60008281526003602052604090205460ff16801561029257604051630ea075bf60e21b815260040160405180910390fd5b50506000908152600360205260409020805460ff191660011790555050565b6102b9610343565b6102c3600061039d565b565b6102cd610343565b6001600160a01b0381166103375760405162461bcd60e51b815260206004820152602660248201527f4f776e61626c653a206e6577206f776e657220697320746865207a65726f206160448201526564647265737360d01b60648201526084015b60405180910390fd5b6103408161039d565b50565b6000546001600160a01b031633146102c35760405162461bcd60e51b815260206004820181905260248201527f4f776e61626c653a2063616c6c6572206973206e6f7420746865206f776e6572604482015260640161032e565b600080546001600160a01b038381166001600160a01b0319831681178455604051919092169283917f8be0079c531659141344cd1fd0a4f28419497f9722a3daafe3b4186f6b6457e09190a35050565b6001600160a01b038116811461034057600080fd5b60006020828403121561041457600080fd5b813561041f816103ed565b9392505050565b634e487b7160e01b600052604160045260246000fd5b6000806040838503121561044f57600080fd5b823561045a816103ed565b9150602083013567ffffffffffffffff8082111561047757600080fd5b818501915085601f83011261048b57600080fd5b81358181111561049d5761049d610426565b604051601f8201601f19908116603f011681019083821181831017156104c5576104c5610426565b816040528281528860208487010111156104de57600080fd5b8260208601602083013760006020848301015280955050505050509250929050565b60006020828403121561051257600080fd5b5035919050565b60006020828403121561052b57600080fd5b5051919050565b60006020828403121561054457600080fd5b815161041f816103ed56fea2646970667358221220e13f01e1a8fe0393a2954b709cf637e93f39488a6799964bb3144cc137da18d164736f6c634300080a0033",
  "linkReferences": {},
  "deployedLinkReferences": {}
}