{
  "_format": "hh-sol-artifact-1",
  "contractName": "Native",
  "sourceName": "contracts/core/libraries/Native.sol",
  "abi": [
    {
      "inputs": [],
      "name": "NATIVE",
      "outputs": [
        {
          "internalType": "address",
          "name": "",
          "type": "address"
        }
      ],
      "stateMutability": "view",
      "type": "function"
    }
  ],
  "bytecode": "0x6080604052348015600f57600080fd5b5060998061001e6000396000f3fe6080604052348015600f57600080fd5b506004361060285760003560e01c8063a0cf0aea14602d575b600080fd5b604773eeeeeeeeeeeeeeeeeeeeeeeeeeeeeeeeeeeeeeee81565b6040516001600160a01b03909116815260200160405180910390f3fea26469706673582212204bb3fa3a7989747eaf7e01203c0d427529f9b51695325eaf43f071d3f8c35cda64736f6c63430008130033",
  "linkReferences": {},
  "deployedLinkReferences": {}
}